:020000040000FA
:10000000004000201D1F0100591F01005B1F01005F
:1000100000000000000000000000000000000000E0
:100020000000000000000000000000005D1F010053
:1000300000000000000000005F1F0100611F0100C0
:10004000631F0100631F0100111E0100631F0100F7
:10005000631F0100000000002D450100631F010027
:10006000631F0100631F01004D4A0100631F01006F
:10007000631F0100631F0100631F0100631F010074
:10008000631F0100F11B0100631F0100631F0100DA
:10009000631F0100631F0100631F0100631F010054
:1000A000631F0100631F010000000000000000004A
:1000B0000000000000000000000000000000000040
:1000C00008B50FF02FF817F009FC0A4B084A16F094
:1000D000CFFD094A094B16F0A7FA17F051FC03238C
:1000E000984302231843064BC01808BDC046C046BB
:1000F0000000000000806640182D4454FB21094098
:1001000000008080C046C04608B50FF00BF817F01D
:10011000E5FB0A4B084A16F0ABFD094A094B16F0FD
:1001200083FA17F02DFC0323984302231843064B50
:10013000C01808BDC046C046182D4454FB210940D4
:10014000000000000080664000008080C046C0467D
:10015000F7B5171C146801AA051C0E1C05F0D6F88B
:10016000402D05D1019B3C255A1EA4185B421C4022
:1001700023183B602A1C5A27B742BF413E3A5542DA
:100180006A417F42231CD2B2391C1EF026FB041C9C
:100190000D1C4F2E3DD0532E08D1201C23F099FF6B
:1001A0000022011C201C01F0ADFC32E0662E06D1BD
:1001B00003239C4302201A4B0443E01829E0642ED9
:1001C00009D1201C17F0DCFB032398430224144BB5
:1001D0002043C0181DE0002F0FD0104B0E4A1219FB
:1001E0006B41201C002B04D1002A02DB1FF021F9F7
:1001F0000FE0291C1FF00EF90BE0201C002905D18F
:10020000084B9C4202D81FF02FF902E0291C1FF076
:100210001CF9FEBDC046C0460000004000000000C2
:1002200000008080FFFFFF3F38B5041C82070CD11F
:10023000114B02689A4208D106F0A6FF211D051C49
:10024000043020F0A3FB281C11E0201C0EF006FF58
:10025000C0231B06984204D1064905481FF0DAF86E
:1002600005E0C317C018584040000123184338BDAB
:100270000000004000000000B8510200C046C04627
:10028000F7B5041C0191081C002114F037FF002869
:1002900005D0234923481FF0B5F911F088FA2379D6
:1002A000D90702D4A079617901E00520011C09F089
:1002B000D7FA0026071C22790523D10700D4A37999
:1002C0009E4226DA002522790523D10700D4A3799E
:1002D0009D421CDA2A1C311C201C1FF0C7FC15F0A3
:1002E000D5FD019915F012FB17F0F8FA0B4B0A4AED
:1002F00015F078FE17F080FA0923082800DC031CAB
:100300002A1C381C311C1FF094FC0135DBE7013638
:10031000D1E7381CFEBDC046000000000000E03FF1
:100320008BB502000058020010B5041C081C8A0797
:1003300003D1134B0A689A4202D00EF08FFE09E0F7
:100340000EF0F0FE17F0CAFA0C4B0B4A15F04AFEFD
:1003500017F052FA0B4B011C994205D90A490B4878
:100360001FF050F911F023FA606813F077FD084888
:1003700010BDC046C046C046000000000000E03F7F
:1003800088550200FF030000F2B802000058020086
:100390006C7B0200C046C046F0B541188BB0071C0C
:1003A00008920993029102998F4200D32EE1387886
:1003B0000CF09AFE002801D00137F4E73B782B2B94
:1003C00002D10137049005E004902D2B0ED10122BB
:1003D00001370492029B9F4208D3914A00213D1CA1
:1003E0000191069207910E1C002458E03A782023D0
:1003F0001A43692A2ED10299BA1C914200D8D6E03C
:100400007A781A436E2A00D0D1E0BA781A43662A65
:1004100000D0CCE0FA1DFD1C914200D8C3E0FA7870
:100420001A43692A00D0BEE03A791A436E2A00D0F6
:10043000B9E07A791A43692A00D0B4E0BA791A434C
:10044000742A00D0AFE0FA791343792B00D0AAE0E8
:100450000535A8E06E2AC0D10299BA1C914200D895
:10046000A5E07A781A43612A00D0A0E0BA78134355
:100470006E2B00D09BE0FD1C00266A4C9AE02B7886
:100480006A1C191C303903920591092932D8022EB1
:1004900009D1019A0A235343CB180193039D029B70
:1004A0009D42ECD354E0012E15D1059815F04AFD7C
:1004B000069915F02BFA011C201C14F0D7FE041C21
:1004C000069817F00BFA554B534A16F0D1FB17F06C
:1004D00057FA0690E2E75449201C15F017FA041C5D
:1004E000059815F02FFD011C201C14F0BFFE0026FE
:1004F000041CD3E7002E02D12E2B02D126E0022EBF
:1005000019D020221A43652A15D1039B02998B42E8
:100510000BD26B782B2B02D10235039505E02D2BE6
:1005200003D10235012203950792039B02998B4266
:1005300065D00226B2E7089A0026B24209D02022EE
:1005400013436A2B05D1039D012602E00126A5E78E
:1005500000260799002902D0019A52420192019B7C
:100560000393039A002A08DD201C2F4915F0CEF9C9
:100570000399041C01390391F3E70199CB43DB177D
:1005800099430191019B002B14D0201C17F0A6F970
:10059000224B214A16F06CFB17F0F2F9019A041C69
:1005A00001320192EEE7FF240026E40502E03D1C43
:1005B000002600240499002902D080221206A418E3
:1005C000BD421CD0029B9D4206D228780CF08CFDC7
:1005D000002814D00135F5E702998D420FD1002E85
:1005E00002D1099A002A02D01048114909E00323D8
:1005F0009C4302200F4B0443E0180BB0F0BD0B48A6
:100600000D491EF0FFFF10990DF05CFD00210491D3
:10061000E3E6C046C046C0469A9999999999B93F70
:10062000CDCCCC3D0000C07F00002041005802002E
:10063000F8BC02000000808015BD0200C046C04624
:1006400008B50B4B1B78002B01D111F00BFB11F0FF
:10065000B1FA064B044A14F099FD4904C00B084353
:1006600008BDC046C046C04640420F000000000022
:100670007B2E0020C046C0462F4B70B51B78061C51
:10068000002B01D111F0EEFA11F094FA254B244A17
:1006900014F07CFD4B04C00B002400251843CD0B47
:1006A0000023321CA4185D4180231B06984205D903
:1006B000002E03DB1C4A1D4BA4185D41610CEB03AB
:1006C0000B43E2031A481B4980185941154B144A41
:1006D00014F03CFD194D041C2B78194E002B02D050
:1006E000336898421BD011F065FA201A022802DC08
:1006F00011F060FA841C2102124BA822D200090AD0
:1007000099502A783460002A09D101222A70D22116
:100710008022520289005A50C12189005A5070BD6E
:1007200040420F0000000000000000000100000037
:100730003F420F00000000007B2E00207C2E002096
:100740009C2800200010014073B58279061C930795
:1007500040D401231A4206D181881A1C684612F03F
:100760000BFC234837E01E22B35E2422805EC01AB1
:1007700017F076F8041C2223F05E1C22B35E0D1CD9
:10078000C01A17F06DF8021C0B1C201C291C18F055
:100790003DFA124B104A16F06BFA114A114B15F044
:1007A00043FF17F0EDF80021041C14F0A7FC00280B
:1007B00004D0201C0F4914F059FD041C201C17F014
:1007C0008DF8021C0B1C0848084916F0E1FC17F0D4
:1007D00013F800E0084876BD000000000080664085
:1007E000EA2E4454FB2109400000000000807640BE
:1007F00014FCFFFF0000B44315FCFFFFC046C046D9
:1008000070B5041C04201BF035F8051C1648401B6D
:1008100015F098FB17F062F8124B114A16F028FAFF
:1008200000F026F80323061C281C9E431BF02CF81E
:100830002368002B0AD1301C1BF01CF82060002814
:10084000F6D1203E002EF3D1084807E0B608B600E6
:100850009B19201C636022F02AFF002070BDC04657
:10086000666666666666EE3F0038002013FCFFFF92
:1008700038B50E4B0C4A041C0D1C17F041F900282A
:1008800004D1201C291C16F0B7FF38BD074B064ABF
:10089000201C291C16F07CFC16F0AEFF80231B06E2
:1008A000C018F2E7C046C046000000000000E0416A
:1008B000F0B58BB0061C18F0A9FD374D0023EB56A0
:1008C000041C013336D0301C1AF0DAFB002831D07A
:1008D000301C324914F026FC071E2ED1301C304942
:1008E00014F00CFC002825D0042300932D4B301C61
:1008F0000193089716F0F2FF224B214A6C46A26141
:10090000E3610023EB5620616161A060E160022B8E
:100910002FD068461AF0C2FB00282AD0236A002B89
:1009200003D01AF077FC236A0360A069E16917F02D
:1009300027F8041C201C0BB0F0BD03230093194BB7
:10094000301C01930023089316F0C8FF6C46206109
:100950006161A060E1602978002904D10A4A0B4B4B
:10096000A261E361D5E70A4A0A4BA261E361022969
:10097000CFD11AF04FFC22230360CFE7C046C04618
:100980000000000000000000000000E0FFFFEF4753
:10099000000000000000F07FD20000208071B14212
:1009A000B5F1CFC218980200F0B58BB0041C0E1C34
:1009B00018F02EFE2A4F0023FB56051C013304D0ED
:1009C000301C17F0A5FF002802D1281C0BB0F0BD89
:1009D000201C17F09DFF0028F7D0301C002114F0D8
:1009E00087FB0028F1D0012300931E4B201C0193AC
:1009F0000023089316F072FF041C0D1C301C029497
:100A0000039516F06BFF3E7804900591002E16D0EA
:100A100012491148021C0B1C15F006FE06900791A6
:100A2000022E0ED11AF0F6FB21230360089B002B47
:100A30000DD10698079916F0A3FF051CC5E706948B
:100A4000079568461AF02AFB0028EFD1EAE71AF06A
:100A5000E1FB089B0360ECE70000000000000000E1
:100A6000D20000202098020070B58AB0041C18F053
:100A700055FE354E0022B256051C031C01320CD027
:100A8000201C17F045FF2B1C002806D0201C00213D
:100A900014F048FB2B1C002802D0181C0AB070BDB3
:100AA0002A4B0890201C019316F018FF357804900B
:100AB000059102900391002D2AD1204B1E4A0692E7
:100AC0000793201C002114F013FB002811D00223EF
:100AD0000093022D26D068461AF0E0FA002821D0B3
:100AE000089B002B23D10698079916F049FF031C99
:100AF000D3E701230093022D0FD068461AF0CEFAF7
:100B000000280AD0124800F0F7FC06900791E7E7AA
:100B10000B4A0C4B06920793D3E71AF07BFB212379
:100B20000360EFE71AF076FB22230360D8E71AF0A0
:100B300071FB089B0360D6E7000000E0FFFFEFC7F2
:100B4000000000000000F0FFD20000202898020002
:100B50002C980200C046C046F0B546464F46C0B489
:100B60008BB0051C0C1C18F037FFBB4E0023F3564E
:100B70008046071C013304D0201C17F0C9FE002852
:100B800005D1381C0BB00CBC90469946F0BD281C12
:100B900017F0BEFE8146002833D1201C002114F03E
:100BA000A7FA0028EDD001230093AC4B4A46281C3D
:100BB0000193089216F092FE6F46B860F960201C0F
:100BC00016F08CFE9D4B9C4ABA61FB610023F356E4
:100BD000386179615A1C0ED0022B0CD068461AF08D
:100BE0005DFA002800D1E5E03B6A002B03D01AF043
:100BF00011FB3B6A0360B869F96916F0C1FE071C76
:100C0000BFE7281C002114F073FA002832D0201C02
:100C1000002114F06DFA8046002869D0012300936A
:100C20008E4B281C01930023089316F057FE6F4645
:100C3000B860F960201C16F051FE814A814BBA6100
:100C4000FB610023F35638617961002B04D07B4BA4
:100C5000794ABA61FB61CEE768461AF01FFA0028AC
:100C600000D1ACE03B6A002BC5D01AF0D3FA3A6A47
:100C70000260C0E740461AF003FA8146002867D0B8
:100C80004046002114F034FA4746002800D178E7A6
:100C9000281C1AF0F5F94746002800D171E7201CFE
:100CA0001AF0EEF9002800D16BE7042300936B4B98
:100CB000281C01930023089316F010FE6F46B860BD
:100CC000F960201C16F00AFE5D4A5E4BBA61FB61BA
:100CD0000023F35638617961022B7AD068461AF006
:100CE000DDF9002875D03B6A002B00D183E7BCE713
:100CF000201C1AF0C5F9002800D142E7201C002171
:100D000014F0FCF9002800D13BE701230093534B7A
:100D1000281C01934346089316F0E0FD6F46B86027
:100D2000F960201C16F0DAFD38617961317800290C
:100D30004AD0454A454BBA61FB61022934D11AF0C9
:100D400069FA212303603A6A002A00D153E74EE78B
:100D5000281C1AF095F9002892D0201C1AF090F95E
:100D600000288DD0404617F0D3FD6F46002835D1BE
:100D700001230093394B0890281C019316F0AEFD17
:100D8000B860F960201C16F0A9FD347838617961EB
:100D9000002C19D02A482B49021C0B1C15F044FCCE
:100DA000B861F961022CCAD068461AF077F90028B8
:100DB000C9D1C4E71AF02EFA2123036014E71AF010
:100DC00029FA212303604DE71D4A1E4BBA61FB61DE
:100DD000EAE71AF01FFA2223036084E70323009353
:100DE0001E4B4A46281C0193089216F077FDB86006
:100DF000F960201C16F072FD0023F356386179610A
:100E0000002B2DD1124A134B281CBA61FB61002123
:100E100014F074F9002845D10023F356022B05D0B5
:100E200068461AF03BF9002800D01BE71AF0F2F9E7
:100E30002223036016E7C046000000000000F03FD8
:100E40000000000000000000000000000000F0FFB3
:100E5000000000E0FFFFEF47D200002030980200C2
:100E60001E4B1D4A281CBA61FB61002114F046F993
:100E70000028D1D0FC21201C890514F047FD16F074
:100E80002DFD041C0D1C1AF00BF9021C0B1C201C60
:100E9000291C16F011FE0028BED1114A114BBA616F
:100EA000FB61B9E7FC21201C890514F02FFD16F029
:100EB00015FD041C0D1C1AF0F3F8021C0B1C201C61
:100EC000291C16F0F9FD0028A6D1074A074BBA6184
:100ED000FB61A1E7C046C046000000000000F07FB3
:100EE000000000000000F0FF000000E0FFFFEFC77F
:100EF00070B58AB0041C19F079FA274E0023F35616
:100F0000051C01330AD0201C17F002FD002805D073
:100F1000201C002114F0F2F8002802D1281C0AB08D
:100F200070BD012300931D4B201C019300230893E7
:100F300016F0D4FC34780490059102900391002CB3
:100F400011D1144B124A0692079368461AF0A6F87C
:100F5000002812D0089B002B14D10698079916F090
:100F60000FFD051CDAE70B490948021C0B1C15F0A4
:100F70005BFB06900791022CE7D11AF04BF9212375
:100F80000360E7E71AF046F9089B0360E5E7C0460F
:100F90000000000000000000D2000020389802008D
:100FA000F0B55F464D4644465646F0B4041C5042E8
:100FB0000D1C104359004908C00F8846014389465B
:100FC000774985B0161C1F1C9B46009401958C46E2
:100FD000894527D80198410049080390009889461F
:100FE000009940420843C00F49460143614519D862
:100FF0006C48C01810434BD0991702200840824615
:101000000198C10F5046084382460098494608435C
:1010100017D1504602285BD011DC002811DB201CC0
:10102000291C05E0301C391C221C2B1C14F0DAFF93
:1010300005B03CBC90469946A246AB46F0BD03289D
:1010400035D04046024305D10399002946DB3F498C
:101050003D48EDE7524B98451FD0514B99453AD04A
:1010600048464146431A1B153C2B23DD3749364879
:101070005346012B40D0022B33D0002BD8D0344A1A
:10108000344B16F085F8344A344B16F081F8CFE72C
:10109000201C291C00F088F8CAE7C14535D050460D
:1010A000012842D03CDD022812D00328D5D12C489B
:1010B0002C49BDE75A46002A22DB321C3B1C201C6F
:1010C000291C15F0B1FA19F0D1FF00F06DF8CFE747
:1010D00021482249ACE7039A002AB8DA224823497A
:1010E000A6E71B4A1B4B16F053F8021C0B1C1A48B0
:1010F0001A4916F04DF89BE780242406091997E752
:101100003C33DADA1A481B49B2E75246012A17D0B3
:101110000EDD022A11D0032ADDD11748174987E7CF
:1011200000289AD11248134982E7154815497FE7EC
:10113000002AD0D1144815497AE71548154977E7B0
:101140001548164974E7C046182D4454FB21F93F51
:10115000075C143326A6A13C182D4454FB210940FA
:10116000182D4454FB2109C0182D4454FB21F9BF0C
:101170000000000000000000D221337F7CD902C0B3
:101180000000000000000080182D4454FB21E93FBE
:10119000D221337F7CD90240182D4454FB21E9BF72
:1011A0000000F07F000010C0F8B556464D4644469A
:1011B0005F46C54BF0B44E00814688468A467608A5
:1011C0009E420CDDC14B9E4200DDA7E000D1A2E0B3
:1011D0005046BF4A002800DCE3E0BE4BA6E0BE4B11
:1011E0009E4200DDB8E0BD4B9E4200DCA6E001243B
:1011F0006442A3464A4643464846414615F038FDF8
:10120000061C0F1C321C3B1C15F032FD8F4B8E4A06
:10121000041C0D1C15F02CFD8D4A8E4B14F0E2FEC3
:10122000221C2B1C15F024FD8B4A8C4B14F0DAFE8B
:10123000221C2B1C15F01CFD894A8A4B14F0D2FE8F
:10124000221C2B1C15F014FD874A884B14F0CAFE93
:10125000221C2B1C15F00CFD854A864B14F0C2FE97
:10126000321C3B1C15F004FD834A844B061C0F1CEA
:10127000201C291C15F0FCFC814A824B15F088FFCC
:10128000221C2B1C15F0F4FC7F4A804B15F080FFCC
:10129000221C2B1C15F0ECFC7D4A7E4B15F078FFD0
:1012A000221C2B1C15F0E4FC7B4A7C4B15F070FFD4
:1012B000221C2B1C15F0DCFC021C58460B1C0130B8
:1012C00000D170E05946CC00301C391C14F08AFE65
:1012D0004A46434615F0CCFC814D0B1C81492D1923
:1012E000021C0C19101C191C2268636815F050FFB1
:1012F0004A46434615F04CFF021C0B1C28686968DF
:1013000015F046FF021C50460B1C00280EDA802008
:1013100000060B180AE0002800D159E74A46434668
:101320004846414614F05EFE021C0B1C101C191CA2
:101330003CBC90469946A246AB46F8BD584A594B2C
:1013400014F050FE584A594B16F0D0FB002800D13B
:101350004DE74A464346E9E719F088FE624B041C14
:101360000D1C9E4230DC614B9E4256DC221C2B1C25
:1013700014F038FE4C4A4D4B15F00AFF4C4A4D4BC9
:10138000061C0F1C201C291C14F02CFE021C0B1C1C
:10139000301C391C15F048F98846002181468B46DF
:1013A00028E7534BC2E7301C391C14F01BFE4A4699
:1013B000434615F05DFC021C0B1C4846414615F0E7
:1013C000E7FE021C0B1CB1E74A4B9E421ADC3A4A6C
:1013D0003A4B15F0DDFE384A384B061C0F1C201C1A
:1013E000291C15F045FC304A304B14F0FBFD021C63
:1013F0000B1C301C391C15F017F981460220884659
:101400008346F7E62E482F49221C2B1C15F00CF9B9
:101410008846032181468B46ECE6234A234B15F090
:10142000B7FE214A214B061C0F1C201C291C14F05E
:10143000D9FD0B1C021C391C301C15F0F5F80123DA
:10144000814688469B46D5E611DA22E33AAD903FC5
:10145000EB0D76244B7BA93F513DD0A0660DB13FEB
:101460006E204CC5CD45B73FFF8300922449C23F53
:101470000D5555555555D53F2F6C6A2C44B4A2BF18
:101480009AFDDE522DDEAD3F6D9A74AFF2B0B33FE0
:10149000711623FEC671BC3FC4EB98999999C93F58
:1014A0009C7500883CE4377E000000000000F03F9F
:1014B0000000000000000040000000000000F83FB5
:1014C000000000000000F0BFFFFF0F440000F07FAD
:1014D000182D4454FB21F93FFFFFDB3FFFFF1F3E68
:1014E000C0460200A0460200FFFFF23FFFFFE53FBB
:1014F000FB21F9BFFF7F0340024901487047C04606
:10150000000000000000F87F08B5064B06480333D2
:101510001B1A062B00D808BD044B002BFBD09847A4
:10152000F9E7C046E8000020E800002000000000C5
:1015300008B50748074B1B1A9B10DA0FD318591030
:1015400000D108BD044A002AFBD09047F9E7C04605
:10155000E8000020E80000200000000010B5074C63
:101560002378002B09D1FFF7CFFF054B002B02D0CA
:10157000044800E000BF0123237010BDE8000020F4
:101580000000000020EF020008B5094B002B03D03B
:101590000848094900E000BF08480368002B03D051
:1015A000074B002B00D09847FFF7C2FF08BDC0468D
:1015B0000000000020EF0200EC000020E800002006
:1015C00000000000144B002B00D1124B9D4640221E
:1015D00092029A1A924600218B460F461148124AEF
:1015E000121A22F080FC0D4B002B00D098470C4BB8
:1015F000002B00D098470020002104000D000B486C
:1016000022F04BFB1AF0C0F82000290021F0AEF9BF
:1016100019F006FE00000800004000200000000055
:1016200000000000E8000020E02F002039B5010094
:1016300008B50DF077FD034B184002231843024B09
:10164000C01808BDFCFFFF7F0000808008B50DF0CA
:1016500069FD17F05DF9002801D1024800E0024859
:1016600008BDC046147A0200587A020008B50DF091
:1016700059FD17F04DF9012801D1024800E0024858
:1016800008BDC046147A0200587A020008B50DF071
:1016900049FD17F03DF9012801D9024800E0024850
:1016A00008BDC046147A0200587A02001FB5002314
:1016B00001930DF037FD01A917F098F90323021CDF
:1016C000084902209A43024352180292019A9A430F
:1016D000131C03435B1802A903930CF031FF05B000
:1016E00000BDC0460000808038B50D1C0DF01AFD0D
:1016F000041C281C0DF016FD14F0A8FB011C201C76
:1017000017F050F90323984302231843014BC018E4
:1017100038BDC046000080801FB5002301930DF046
:1017200001FD01A917F012F9032302249843074B86
:101730002043C018029001981DF07BFE02A903907F
:10174000201C0CF0FDFE04B010BDC04600008080DF
:1017500038B50D1C0DF0E6FC041C281C0DF0E2FC55
:10176000011C201CFFF720F9032398430223184390
:10177000014BC01838BDC0460000808038B50D1C34
:101780000DF0D0FC041C281C0DF0CCFCC30F600035
:10179000DB0740081843032398430224014B2043EE
:1017A000C01838BD0000808038B50D1C0DF0BAFCA3
:1017B000041C281C0DF0B6FC011C201C17F0CAFAF2
:1017C0000323984302231843014BC01838BDC04679
:1017D0000000808008B50DF0A5FC16F09DFE0323E7
:1017E000984302231843014BC01808BD00008080B5
:1017F00008B50DF097FC17F05DFA03239843022318
:101800001843014BC01808BD0000808008B50DF0DA
:1018100089FC17F0FFF90323984302231843014B77
:10182000C01808BD0000808008B50DF07BFC17F0E3
:10183000C7F90323984302231843014BC01808BD7E
:101840000000808008B50DF06DFC17F079F90323D6
:10185000984302231843014BC01808BD0000808044
:1018600008B50DF05FFC16F0C5FF03239843022373
:101870001843014BC01808BD0000808070B5061CDD
:1018800008680D1C0DF04EFCFFF7EEF8041C012E4D
:1018900006D103239C430220094B0443E0180EE0C9
:1018A00068680DF03FFCFFF7DFF8011C201C13F007
:1018B00049FE032398430224014B2043C01870BD06
:1018C0000000808008B50DF02DFCFEF7F1FF03232A
:1018D000984302231843014BC01808BD00008080C4
:1018E00038B50D1C0DF01EFC041C281C0DF01AFC54
:1018F000011C201CFFF730F90323984302231843EF
:10190000014BC01838BDC0460000808008B50DF0FE
:1019100009FCFFF7EDFA0323984302231843014B18
:10192000C01808BD00008080032210B502400123CA
:10193000002A03D1094904688C420CD0011C1940CB
:101940000123002907D10B1C002A04D10268044B93
:10195000D31A5A425341181C10BDC0461C7A0200CB
:10196000B851020010B5041CFFF7DEFF0123002868
:1019700009D103222240031C022A04D1034B1C403C
:10198000A31F5C1EA3410120184010BD070080FF6B
:1019900008B520F0B8F80349021C034806F030F8F7
:1019A0000FF005FFCBA10200F05C020010B5041C93
:1019B0000C201FF04FFB034B446003600023836047
:1019C00010BDC046C44A0200F7B58A1801930092C0
:1019D000041C0E1C0B1C002200998B420DD219789E
:1019E000272904D0223948424141C9B201E00021EF
:1019F000012201330029EFD002E02225002A00D184
:101A000027251F4F201C391C2A1C20F060FA009942
:101A10008E422FD23278AA4203D1201C19492A1CA7
:101A200024E05C2A02D1201C17491AE01F2A0AD997
:101A30007F2A19D0019B002B02D053B2002B0CDB64
:101A4000201C391C12E00A2A02D1201C0F4908E090
:101A50000D2A02D1201C0E4903E0092A04D10D49A8
:101A6000201C20F06AF903E00B49201C20F02FFA1B
:101A70000136CCE7391C2A1C201C20F028FAF7BDBF
:101A8000F8A10200F7A10200FBA10200FEA10200E2
:101A900001A2020004A2020007A20200184B70B5C6
:101AA000061C0C1C98420ED1886849680CF0F8FBA3
:101AB000051E08D0201C1FF0C9FBED0000230620E6
:101AC000236028431AE010201FF0C4FA6168051C47
:101AD00081600660A0680CF0C7FB61682268013174
:101AE0006860A068914201D01FF0D9FAE860E96807
:101AF000AA6800238B54281CA360236070BDC046D5
:101B0000C05E020038B5051C0C1C002A02D00CF087
:101B1000FDFB03E00CF0C4FB002803D0C00006234B
:101B2000184304E00248291C221C1BF06EFB38BD40
:101B3000C05E020008B5031C0A1C0248191C1BF0F9
:101B400064FB08BD484B020008B50A4B0340062B56
:101B500001D1C0080DE0820709D1074B02689A4203
:101B600005D1C3688168181C0CF0D0FB01E0FFF7B9
:101B70000FFF08BD070080FFC05E020008B5064BDE
:101B80000340062B03D1C0081FF09AFE02E08368D1
:101B9000C0680B6008BDC046070080FFF0B5002696
:101BA00089B00F1C051C1C1C081C0096111C03236B
:101BB000321C05F02DFAB74238D0012F0ED104A8FF
:101BC00002AA10210BF026FA216802A8321C0DF09F
:101BD00075F9281C04A9FFF761FF28E0206804A913
:101BE00082071AD1134B02689A4216D1FFF7C6FF3B
:101BF000114B061C20680340062B04D1C0081FF0BF
:101C000050FE041C00E044681020049F1FF022FADC
:101C100005608760C660446009E001220DF0E4FBC6
:101C2000059904980022FFF76DFF00E00E2009B02F
:101C3000F0BDC046484B0200070080FFF0B58BB0F6
:101C4000049008680D1C069207930DF01DF9041C02
:101C500068680DF019F9061EA64202D06868FFF701
:101C600097FE08A92868FFF789FF09A9041C68687E
:101C7000FFF784FF089A0590A3180393049B271C81
:101C8000022B1BD9AB6820498B4207D00121009160
:101C9000301C211C06F0DEFB071C00E0271C049B07
:101CA000032B0BD0EB68184A934207D00122009215
:101CB000301C211C089A06F0CDFB0390039B381CB6
:101CC000D91B069B059A0093099B1BF07EFA011E07
:101CD0000AD1079B01204042002B12D00B490C482F
:101CE0001DF090FC0FF063FD0A4B9E4205D1201CB5
:101CF0001FF0BBFB0121400002E0011B4900012055
:101D000008430BB0F0BDC0466C7B02000EA202007F
:101D100000580200C05E0200F0B58DB0041C0391B3
:101D20000DF0B2F804A9061C201CFFF727FF029053
:101D3000039882070BD10368314A934204D105A965
:101D400006AA1FF0E5FD10E02E4A934208D02D4868
:101D50000121C36800220193019C03ABA0470390BB
:101D6000039805A906AA1DF0BEFE0024251C059BAC
:101D70009C421ED2069AA700D0590DF085F8B042B9
:101D800005D0214921481DF03DFC0FF010FD002C2D
:101D900001D0049BED18069A1D4BD0590340062B29
:101DA00003D1C0081FF082FD00E080682D180134C7
:101DB000DDE7291C08A81FF036FA0A9C0025059AC1
:101DC000954217D2002D06D0201C049A029922F0C9
:101DD00068F8049AA418069AAB00985807A9FFF768
:101DE000CDFE079A011C201C22F05BF8079B0135F1
:101DF000E418E4E7301C08A9FFF750FE0DB0F0BD71
:101E0000BC8902007062020022A20200F05C0200A3
:101E1000070080FFF0B5071C87B008680C1C0DF0A8
:101E200033F804A9061C2068FFF7A8FE05A9051CC5
:101E30006068FFF7A3FE0390281C022F07D9012238
:101E40000092A368301C291C049A06F003FB059A33
:101E5000451B049BAD189D4206D8039922F012F849
:101E6000002801D1024800E0024807B0F0BDC0469A
:101E7000147A0200587A020073B50C1C061C08681C
:101E80006946FFF77BFE01A9051C6068FFF776FE37
:101E9000011C022E02D908480BF0B2F8019A009BEF
:101EA0009A4207D89B1AE81821F0ECFF002801D1CC
:101EB000024800E0024876BD67A20200147A0200E0
:101EC000587A0200F0B58FB0079010680C1C171CF0
:101ED0000CF0DAFF0690012C10D078680CF0D4FFDB
:101EE000069A031C7868934201D0FFF751FD0DA9B3
:101EF000FFF744FE0D9B0890099303E02D4B07224A
:101F00000992089338680DA9FFF738FE0D9A079BD0
:101F10000B900492012B04D1141C5B42013C0A93E8
:101F200002E001220A920024049B002505930395F8
:101F30002E1C059A002A22D00B9B08981A190123FF
:101F4000009309991BF041F9002812D1039A002A45
:101F50000ED1079B002B03D1261C049C013C19E0E9
:101F6000079A012A15D00123251C261C039300E0A3
:101F7000251C059B0A9A013BA4180593D9E7039BEE
:101F8000002B08D10C4B069A0E209A420FD00B481A
:101F90000DE0039E251C049B0135AA1B9A4201D12A
:101FA000386804E00B9B069899191BF02EF90FB0C6
:101FB000F0BDC046C4A10200C05E02001849020084
:101FC000F0B589B0049008680D1C0CF05DFF041C8E
:101FD00068680CF059FF071EA74202D06868FFF737
:101FE000D7FC06A92868FFF7C9FD07A9061C686881
:101FF000FFF7C4FD069A049BB11805900391341CA9
:10200000022B1BD9AB6820498B4207D001210091DC
:10201000381C311C06F01EFA041C00E0341C049A23
:10202000032A0BD0EB6818498B4207D0012200929B
:10203000381C311C069A06F00DFA0390079A002A04
:1020400001D0002510E0039B201C191B1FF01CFA77
:1020500001304000012514E0201C059921F012FFF9
:10206000002807D10135341C079A0399A6188E421F
:10207000F2D904E0201C1FF0F1F9061CF3E76D0013
:102080000120284309B0F0BD6C7B0200F0B58BB095
:102090000E1C071C03920CF0F7FE041C301C0CF005
:1020A000F3FE844202D0301CFFF772FC05A9381CF5
:1020B000FFF764FD06A9051C301CFFF75FFD069BBA
:1020C000021C002B05D11A491A481DF09BFA0FF08B
:1020D0006EFB19498C4201D10E2100E0174907918E
:1020E000089109910399002901DD079700E00997FC
:1020F0000399281C009105991BF067F8002811D05E
:10210000471B3A1C291C201C1BF07FF8069A059BD4
:10211000B918DF1B07906918BA1A201C08961BF023
:1021200074F8099007A903200CF00AFA0BB0F0BD6F
:1021300079A2020000580200C05E020018490200A5
:1021400008B5011C01481BF076F908BDA91402006E
:1021500008B5011C01481BF06EF908BDBD14020052
:10216000F7B5061C081C01A9FFF708FD019A051C1C
:10217000002A01D1144826E0144B041C9E4201D1D0
:10218000002712E0124B9E42FAD0019A631B934241
:1021900018D22078B04701340028F6D1EAE7207839
:1021A0000AF0AEFF002805D10134019A631B934267
:1021B000F5D305E02078B0470028DBD00127F3E70E
:1021C000002FD7D00348FEBD587A020049D1000045
:1021D00061D10000147A020008B5011C0148FFF724
:1021E000BFFF08BDE9D0000008B5011C0148FFF79A
:1021F000B7FF08BD01D1000008B5011C0148FFF779
:10220000AFFF08BD19D1000008B5011C0148FFF758
:10221000A7FF08BD49D1000008B5011C0148FFF720
:102220009FFF08BD61D10000F0B585B0051C0C1CF6
:10223000171C0CF029FE6946061C281CFFF79EFCA3
:10224000051C042F22D10099A20715D1114B226839
:102250009A4211D1081C01AA211C04F0E9FD0028B2
:1022600002D10D480AF0CCFE019B029AE918D21A5D
:10227000301C1AF0CAFF0AE00023301C221C0CF0AC
:10228000CBFF285C01234000184300E0002005B08C
:10229000F0BDC046AC7B020089A2020070B51C1CD8
:1022A00088B0002968D01868354D031C2B40062BD8
:1022B00005D082071ED1334B02689A421AD10239E7
:1022C000012953D804A9FFF759FC061C20680540D2
:1022D000062D04D1C0081FF0E4FA041C00E0446895
:1022E0001020049D1EF0B6FE274A85600260C6607D
:1022F000446042E0012939D8012210420AD044103A
:10230000211C04A81EF08FFF06980021221C21F03A
:10231000EAFD26E001A91FF00CFC002805D0029A76
:10232000019919481AF071FF27E020680CF0B6FFF8
:10233000002802D104A8102101E0411004A81EF0D9
:102340005BFF20680AF0A0F8041C201C0AF0EAF8E1
:10235000002806D00CF082FEC1B204A81EF0F2FFE5
:10236000F3E704A90848FFF799FB06E00749084886
:102370001DF048F90FF01BFA064808B070BDC046C2
:10238000070080FFC05E0200484B0200BAA20200B4
:10239000F05C02001849020037B5041C081C01A9B2
:1023A000FFF7ECFB0549051C201C1FF0C6FC291C8F
:1023B000201C019A0123FFF707FB37BD85CF0200E0
:1023C0001D4BF7B5021C051C0C1C1A401F1C062ACD
:1023D0000BD10B40062B03D1401A4442604128E048
:1023E000C0081FF05EFA061C00E046682740062F72
:1023F00003D1E0081FF055FA00E06068002E05D018
:10240000002803D0864201D0002013E0281C694632
:10241000FFF7B4FB01A9051C201CFFF7AFFB009AD6
:10242000019B011C9A42EFD1281C21F02BFD434255
:102430005841C0B2FEBDC046070080FF084B07B53B
:102440000340062B06D0830708D103689A69054B21
:102450009A4203D101A9FFF791FB0EBDFFF798FA4D
:10246000070080FF9D2400000A4B13B503400C1C9D
:10247000062B06D083070AD103689A69064B9A4255
:1024800005D101A9FFF77AFB019B236016BDFFF779
:102490007FFAC046070080FF9D240000F0B5A1B080
:1024A000041C0D1C0D920A2800D0CFE103240792D2
:1024B000144010D11368B64A934206D1079810A968
:1024C0000FAA1FF025FA07940BE0B24A934202D1FB
:1024D0000F94109405E00DAB0F930123109300238C
:1024E00007930F9B109A11A9281C0A930892FFF7D3
:1024F00045FB14AA0B90102118A80AF08BFD0B9A2B
:10250000119B0B9CD21806920027069B9C4200D37D
:1025100093E12178252903D018A81EF013FF8AE142
:10252000069A651C954202D39B489C4916E0617847
:10253000252904D118A81EF005FF2C1C7BE10026DC
:10254000282919D1A01C051C00E001352B78292B66
:1025500008D0069B9D42F8D38F4891491DF052F850
:102560000FF025F9291A0122FFF7CCFA011C079870
:102570000BF020FD0135061C002220232C1C0992A3
:102580000593151C069A944211D223782D2B01D164
:10259000012306E02B2B01D1022302E0202B02D1E4
:1025A00004231D430FE0232B0BD0302B05D0069ABC
:1025B00000231293944208D31FE040221543059351
:1025C00001E0102309930134DCE723782A2B0FD193
:1025D000089A3B1E934202D372487349BEE70A9A97
:1025E0009B0098580CF03AFD01371290013404E03A
:1025F000201C12A91AF0D2FD241801235B42139368
:10260000069B9C4290D223782E2B20D1069B621CE5
:102610000C929A4288D263782A2B0CD1089A3B1EDE
:102620009342D9D20A9A9B0098580CF017FD0137B3
:102630001390023407E000230C9813A913931AF0A7
:10264000ADFD0C9B1C18069A944200D36CE7002E3B
:1026500007D1089A3B1E9342BED20A9A9B009E580D
:1026600001372378672B0FD8652B6ED2582B00D1FA
:10267000C8E004D81A1C453A022A66D9D2E0632B76
:1026800012D0642B42D0CDE0732B07D8722B00D32D
:1026900094E0692B3AD06F2B67D0C3E0752B35D00F
:1026A000782B00D1AEE0BDE0404B3340062B05D087
:1026B000B30714D13E4B32689A4210D11CA9301C8A
:1026C000FFF7D2FE1C9A011C012A02D03548394975
:1026D00044E720230093129B14A801930FE0301CC1
:1026E000FFF722F900280ED0301C0CF0B7FC129A2C
:1026F0001CA9202308700192009314A801222B1C0E
:102700000EF0B2F997E027482B4927E70322324021
:102710000023022A04D1254B3340063B5A1E934125
:10272000311C002B07D0FF23DB05F018032398434F
:1027300004F06AFD011C059A129B0192139A009500
:102740000392029314A80A221FE0301C0CF0EAFC4A
:10275000059B22780093129B011C0193139B14A8E4
:1027600002932B1C1FF065FB65E0099A002A02D03A
:1027700084239B001D43059B129A0193139B029295
:102780000095039314A8311C0822612347E0C0463A
:10279000BC890200CC7E020000580200D4A20200D4
:1027A000E6A20200F05C0200FCA20200070080FF2B
:1027B000C05E020023A302003CA302001CA810215B
:1027C00016AA0AF027FC227816A8723A53425A41F8
:1027D000D2B2311C0CF072FB139A1D9B002A00DA56
:1027E0001393139A1E999A4200D91A1C202300931E
:1027F000129B14A801932B1C0EF036F91CA81EF096
:1028000025FD18E0099A173B1543059A009501929A
:10281000129A14A80292139A311C039210220EF0FD
:1028200085F908E00B9A4849A41A00941A1C4748F5
:1028300005F0E6F894E6013467E6089A974202D07C
:10284000434844498AE6444818A968E0081C0CF04B
:102850001BFB16A9061C281CFFF790F9071C0D98F6
:10286000072C1CD118A90CF037FC0025A84268D011
:102870001899A94205DC384B0E259E4261D0374D90
:102880005FE0169B1CA859431EF0CDFC1E9A381C15
:1028900000920121169A189B1CF04DFB3DE00CF0B4
:1028A000F3FA864206D10D981CA9FFF767F91C9D23
:1028B00006900DE02A4B00259E4242D10D981CA99E
:1028C00001221FF036F9A8423BD01C9B1D9D0693A8
:1028D0001D2C06D8192C26D2052C0DD0122C0BD06D
:1028E0002EE01F2C2CD101230093381C1699069A38
:1028F0002B1C1AF06AFC1DE0169A1CA8A9181EF0E1
:1029000092FC391C169A1E9821F0CBFA169A1E9B3F
:10291000069998182A1C21F0C4FA301C1CA9FFF74C
:10292000BDF8051C0DE00095201C391C169A069B6D
:102930001CF035FB002801D00A4D02E00A4D00E0F2
:102940000025281C21B0F0BD4DA302000058020054
:10295000F05C020082A30200C05E0200184902007F
:10296000484B0200147A0200587A0200F0B59FB07A
:102970000D9109680E900591081C10A90F92FFF7A0
:10298000FDF81021079012AA16A80AF043FB079A37
:10299000109B0021D21809920B910799099A914234
:1029A00000D38FE0079A1178141C01347D2908D1D7
:1029B000099B9C4202D251787D2910D0B348B4497A
:1029C00034E07B2903D016A81EF0BCFC76E0099900
:1029D000261E8E4236D2079A51787B2904D116A83A
:1029E0001EF0B0FC079469E07D2915D0212913D091
:1029F0003A2911D01EF035FC041C31787D290CD009
:102A000021290AD03A2908D0201C1EF09BFC099BE2
:102A100001369E42F1D115E000243378212B57D1A5
:102A20000999731C994205D898489A491CF0EAFD07
:102A30000EF0BDFE75782B1C723B012BF4D80236CC
:102A40008E4246D391489449F0E70A981EF014FC50
:102A5000069A002A00D17EE1002F00D120270C9A8F
:102A6000002A00D082E1069B3D2B00D189E15E2B3C
:102A700000D188E13C2B01D101231D43301CFEF71E
:102A800053FF002800D1CAE1632C00D190E100D9A6
:102A900082E1472C00D878E1582C00D1ACE1622CBF
:102AA00000D0B5E11199002302910095019703939D
:102AB00012A8311C022261230EF038F8079B013363
:102AC00007936AE716A97548FEF7E8FF1FB0F0BD47
:102AD0000025337800220A923A2B18D1731C0793F1
:102AE00073787D2B0ED01EF0BCFB079E0A900999CF
:102AF0008E42A7D231787D2909D00A9801361EF07E
:102B000021FCF4E7079A099B9A4201D39AE70796BA
:102B100007990B787D2B02D05C48614986E7002C31
:102B200048D00023201C1A931EF0F9FB061C0078E5
:102B30000AF0F2FA371C00281CD00B9A002A02DD9A
:102B40005248584972E7301C1AA91AF027FB0E9A0E
:102B50001A9B013A3718934237D201330D999B00E3
:102B60005E5801235B420B931AE02E2B05D05B2BA2
:102B700003D001373B78002BF7D1B91B301C012261
:102B8000FEF7C0FF061C311C0F98002203F024F949
:102B9000002804D1311C44481CF02DFD48E746684C
:102BA0003B78002B02D041480AF02AFA201C1EF084
:102BB00063FB13E00B9A002A02DA34483C4935E7FC
:102BC0000E9B0B99013B994202D33A483A492DE7B3
:102BD0000B9B0D9901339A0056580B930A9A002AC1
:102BE00003D1002D00D18AE101E0002D11D014AAFB
:102BF0001AA81021733D0AF00DFA6A1E9541311C86
:102C0000EAB214A80CF05AF924481AA9FEF746FFB4
:102C1000061C01235B42119314930A9B002B00D1E5
:102C200095E0181C1EF07BFB0778041C00208742EF
:102C300005D02248391C21F036FA431E984100285D
:102C400003D006970134002711E00690002F0ED024
:102C500061780691002904D0184821F024FA431E17
:102C60009841002801D0023401E00690071C227828
:102C70000C922B2A05D02D2A05D00425202A1FD1FD
:102C800002E0022500E0002501341BE000580200AC
:102C9000B7A30200DFA30200F8A30200C05E020097
:102CA00010A4020034A40200E05D020097A4020018
:102CB000B4A402005C5902007EA40200FEA402003B
:102CC00000250C952378232B02D110231D430134BA
:102CD0002378302B07D1069B002B01D13D21069193
:102CE000002F00D13027201C11A91AF057FA201804
:102CF000037808902C2B04D1021C202301321D43A1
:102D0000089208990B782E2B07D10C1C0134201C3B
:102D100014A91AF043FA20180890089A0020147891
:102D2000844205D07748211C21F0BDF9431E98410B
:102D3000002803D0089B0133089300E0041C089985
:102D40000B78002B00D180E66F4870496EE60A9D33
:102D50002C1C2F1C0C95301CFEF704FE3C23069304
:102D6000002800D178E63E21069175E6732C02D149
:102D7000654867495AE6632C00D074E662486549A5
:102D800054E6402379E6802377E6452C47D2002C91
:102D900019D0252C43D03BE0672C02D8652C12D3E8
:102DA0003DE06F2C19D0782C26D06E2C30D10AE063
:102DB000301C0CF053F9119A1AA90870019200976F
:102DC00012A801228DE0119B009502930023019728
:102DD000039312A8311C0A226DE6E90602D580236E
:102DE0009B001D43119A00230292009501970393C3
:102DF00012A8311C08225EE611990022231C0291C0
:102E00000392173B0095019712A8311C102253E63C
:102E1000301C1EF078FE4049031C3B486BE0301C20
:102E2000FEF7A0FD002838D0002C1FD06E2C1DD03E
:102E3000472C15D8452C1AD2252C27D1301C0CF044
:102E400071F9364912F062FD119A80230192149AA9
:102E50005B00011C02922B43009712A8662212E02D
:102E6000231C653BDBB2022B10D800E06724301C2A
:102E70000CF058F9119A149B011C019202930097CF
:102E800012A8221C2B1C1EF0D4FF17E6301C1EF0CB
:102E90003AFE2349031C1C482DE0069B3D2B02D122
:102EA00019482049C2E5002C02D0732C06D01CE042
:102EB00012A8311C221C0CF001F8FFE51AA9301CE5
:102EC000FFF7D2FA149B011C1A9A002B00DA149215
:102ED000149B9A4200D91A93119A009701921A9A58
:102EE00012A82B1C0DF0C0FDE8E5301C1EF00BFEF7
:102EF0000D49031C0448221C04F082FD98E573254B
:102F000075E6C04603A502000058020013A50200A2
:102F10002CA5020058A502008BA502000000C842A3
:102F2000BCA50200F0A5020025A60200F0B5071C12
:102F300087B008680D1C0BF0A7FF0090012F07D980
:102F40006C68022F05D0A8680CF088F8071C02E016
:102F5000444C01277F420020011C1CF0ACFD04A959
:102F600001902868FEF70AFE049A3E4B051C86185D
:102F70009C4238D1B54229D228780AF0B5F8002809
:102F800024D00135F6E7002F23D02C1C20780AF03E
:102F9000ABF8002802D10134B442F7D1291C621BDE
:102FA00000981AF032F9011C019806F02BF8B4428F
:102FB00054D220780AF098F8002802D00134B442A4
:102FC000F7D1FB17DB1BDB0FFF1A251CB542DAD349
:102FD00044E0291C721B00981AF017F9011C019893
:102FE00006F010F83AE0201C0BF04EFF009A029019
:102FF000904202D0201CFEF7CBFC201C05A9FFF755
:1030000033FA059B0390002B22D1174917481CF077
:10301000F9FA0EF0CCFB201C039920F033FF0028B6
:1030200005D00134009AA3189E42F4D2341C291C06
:10303000621B02981AF0E9F8011C019805F0E2FF02
:10304000B4420BD2059BE518FB17DB1BDB0FFF1A05
:10305000002FEBD0059A2C1C0092E3E7019807B0F3
:10306000F0BDC0466C7B020079A20200005802004D
:10307000F0B50C1C8BB0022802D8FFF757FF7AE09E
:1030800008680BF001FF08A9059020686568FEF745
:1030900075FD0090A0680BF0E1FF411C0691041C37
:1030A000081C00211CF007FD344B061C9D4202D178
:1030B000334809F0A5FF281C09A9FFF7D5F9099A9B
:1030C0000790002A05D12F492F481CF09BFA0EF0DB
:1030D0006EFB009B0899A2005B1802930392271CC9
:1030E000099B0193002C0DD00299CD1A009A9542AC
:1030F00008D3281C0799019A20F0C4FE002821D08B
:10310000013DF3E7F368BC0002991D19009B059887
:10311000CA1A191C1AF079F82860002F10D00699E5
:10312000F068CD1BAF0001193A1C20F0C3FE736894
:10313000F1685A1BC8199200002120F0D4FEB56036
:10314000301C18E0039BF2680598D2180492029B89
:10315000019A013FA9185A1B019BD21A1AF055F87F
:10316000E317039A1B1B0499DB0F043A0860E41A67
:1031700003920295B4E70BB0F0BDC0466C7B020031
:1031800057A6020079A202000058020010B5041CE4
:1031900008201DF05FFF024B4460036010BDC04675
:1031A000904B0200F8B503780021041C8B4200D13B
:1031B00099E0402B01D1012026E04C491AF016FA83
:1031C0000028F8D1201C4A491AF010FA0028F2D140
:1031D000201C48491AF00AFA0028ECD1201C464964
:1031E0001AF004FA0028E6D1201C44491AF0FEF92E
:1031F0000028E0D1201C42491AF0F8F90028DAD161
:10320000201C40491AF0F2F900231D1C1E1C1F1C33
:103210002278002A51D0272A10D1002B01D0032B6D
:1032200008D16278272A05D1A278272A02D1023450
:10323000032216E00122012B3DD812E0222A12D1EE
:103240000422191C914309D16178222904D1A17863
:10325000222901D1023404E0002B01D0022B2AD113
:103260000222D31A27E05C2A09D16178272901D0EC
:10327000222904D11A1C511E8A41A4181BE0002BDC
:1032800019D15B2A12D006D8282A0DD0293A5142EA
:103290004A41BF1A0FE07B2A0AD07D2A0AD05D3A44
:1032A00051424A41B61A06E0013704E0013602E015
:1032B000013500E0013D0134AAE70121002F12DCB5
:1032C000002E10DC002D0EDC033B8B420BD9013CA1
:1032D00023785C2B07D00840111C002803D00A3B40
:1032E000591E8B41D9B2081CF8BDC046EFD202006E
:1032F00066A602006CA6020070A60200D4C40200FA
:1033000000EF02005DB80200F0B541188BB0051C5B
:103310000592079302910C1C0494013CA5420FD81E
:10332000207809F0EDFE0028F6D1207809F0F4FEAF
:103330000028F1D123785F2BEED02E2BECD000E0CB
:1033400004957A4B1E68049C029884420AD3049A1E
:10335000029BA21A03929C4209D30024271C251C1D
:10336000029451E023782E2BF1D00134ECE70025B4
:10337000B26895421ED2F268EF00D059002803D0FF
:10338000031F5A1E934100E0031CDA0714D509A954
:10339000FFF76AF8039B011C099883420CD104983B
:1033A0001A1C20F09DFE002806D1F368DF1978680A
:1033B000002803D10020B6E00135D9E783070AD100
:1033C00003685B4A934203D11CF084F8061C0DE0AD
:1033D000584A934201D00BF057FD866B002EE9D07E
:1033E000B007E7D1544B32689A42E3D101340494D8
:1033F000A9E7F268E3009858002809D0031F5A1E75
:103400009341DA0706D40134B0688442F1D328E04E
:10341000031CF6E709A9FFF727F8099B0190039819
:1034200006939842EFD804980199039A20F058FE29
:103430000028E8D1002D0CD0039BBB420DD8069A82
:1034400093420AD80198E95CC25C914204D10133ED
:10345000F3E7069F019D00E01F1C029B01330293CE
:10346000D1E7029A002AA5D0012A06D0039B9F42E9
:1034700003D800200290402413E0039A0798AB1869
:103480000360B81A4FE0029AD300F26898580028F7
:103490000CD0031F5A1E9341DA0709D4029A013255
:1034A0000292029BB0688342EDD336E0031CF3E73F
:1034B00009A9FEF7D9FF099F039B0190BB42EDD8F4
:1034C000049801991A1C20F00BFE0028E6D1231C59
:1034D0000F33DD172D0FED182D112D012D1B012D93
:1034E00000DC10356319DF19402F0FD8002705982D
:1034F000AF4204DA11491EF020FC0137F7E70199C9
:103500001EF01BFC099824186419C7E705980C499C
:10351000019A1EF0DCFC099CC0E7059809491EF0E1
:103520000CFC012040420BB0F0BDC046A82E00208C
:103530003C56020064730200CC7E0200F7B4020025
:1035400074A6020047AD0200F0B5041C91B080697A
:103550000B9109908968151C0B986268C0680493E8
:103560008B185A1C6260A0609A1C19786260DA1C81
:103570005F7862609A78201C0A921A1D6260DB787C
:1035800003910693231C1833E360099B0021033346
:103590009B00E31804332361099B1C309B001A1C19
:1035A000059320F0A0FC169809990A9AAB00C3185D
:1035B000C91B08938B1A05339B00E3180D911E1D40
:1035C00001220398BD420FD9104203D1884889498E
:1035D0003A1C2EE0E81B169DB90069181E1C0AF063
:1035E000AFFF3D1C706029E0104202D01E1C824BD0
:1035F00073600499002921D1039A12071ED4069BF7
:10360000FA1A954213D3D91B0B98890041180791D8
:1036100005992B1C6018BB4210D29A00811A8C4667
:10362000079901338A18126961468A61F3E7704885
:1036300070492B1C04F0E4F90EF0B9F8059A002348
:1036400012199446AB4207D016999A0088586146E1
:103650008A1A90610133F5E7049D002D03D1039D83
:103660002D0700D49BE0039D02231D400C950025EF
:1036700005950C9D002D04D004981EF09FF8059030
:103680003060A56800260795089D0435049B9E427E
:1036900029D02B1F196800230A98C219934215D20A
:1036A00007989A00825891420ED1099A013AD31A8A
:1036B0009B00E318DA69002A03D0CA084C484F4936
:1036C0006AE02868D8610BE00133E5E70C9A002A2C
:1036D00002D147484A4967E005982A681EF0A6F8D3
:1036E00001360835D2E70D9B069806339B00E31898
:1036F00003300B9D043380002818191C0022069DFE
:10370000954209D00D68002D03D195006D424559B1
:103710000D6004310132F2E7069DAA009B18099A58
:1037200006329200A2180432934209D20433191FC0
:1037300009680029F3D1D21A92102D4831492BE0A3
:103740000D9E079D0536B600BB00EB18A619043682
:103750000493002510E0069B0B9904339B005858F6
:10376000049BA9000430595802F036FB00280CD005
:10377000406830600135043E0A998D421ED232689D
:10378000002AF7D103980007E5D40798ED19AD009A
:103790002A581D491648D20804F032F94CE70A9D10
:1037A000002D04D0124819491BF02CFF44E7039D5B
:1037B000AD0703D50A981EF001F8306065680FA8C0
:1037C00025600F9519F02FFF2D1801356B1E1B7802
:1037D000FF2B09D0099E013EF61AB600A619F06922
:1037E000FFF7D4FCF061F0E7656011B0F0BDC046B2
:1037F000F05C020078A60200448A0200B1A6020032
:10380000E0A6020009A702003BA702006BA7020086
:1038100008B50B1C4179C26A012904D1101C191C7E
:103820001BF03CFC03E0006B01491BF071FC08BD80
:10383000B093020008B50B1C4179C26A012904D17A
:10384000101C191C1BF04AFC03E0006B01491BF023
:103850005FFC08BDA093020008B50B1C4179C26A49
:10386000012904D1101C191C1BF038FC03E0006B6B
:1038700001491BF04DFC08BDC093020008B53F2272
:10388000014B19F063FF08BD3FE1010008B591222B
:10389000014B19F05BFF08BD3D48000038B5836857
:1038A000041C0D1C002B09D1111C05481BF0AAFE9D
:1038B000A060201C0C30291C19F062FF38BDC046E6
:1038C000685D0200F0B50123041C4271E1620361EE
:1038D0000B788BB00D1C0092012B02D00021844A82
:1038E00088E00099012906D9836B2A1C1E68231CD5
:1038F000406B0833B047A86802901BF03FFA637929
:103900000290032B0FD107900C2107A81BF04FFA50
:10391000A36B021C9B68606B07999847A268688339
:10392000002A00D0DDE002981BF028FA02901BF07C
:1039300025FA5A21029002A81BF039FA029D019043
:103940004CE0281C03A91BF023FA0378061C912BDA
:103950004DD11BF013FA039B984248D1301C03A9A8
:103960001BF016FA0378071C0A3B0F2B3FD81BF0FD
:1039700005FA0399061E8E4239D00378A02B36D162
:103980001BF0FCF9039A904231D104A9381C19F0BC
:1039900062FE301C1BF0F7F99B21059005A81BF077
:1039A00006FA011C05981BF0DDF9049B061C2D2B63
:1039B00036D1012821D1059803780A3B0F2B1CD85A
:1039C0002669731C2361009B012B1AD8A16800296A
:1039D00000D086E0281C1BF0D1F9051C019A954205
:1039E00075D002952B78432BF4D0392BA9D00299AE
:1039F000404A201CFFF752FF78E0201C02993E4A03
:103A0000F8E707A919F027FEA36B606BDB68311C90
:103A1000079A98470028D9D1201C0299374AE9E72C
:103A20002E2B15D1012803D105980378032B03D041
:103A3000201C0299324ADDE700990129C6D9A36BFF
:103A4000666B1F691BF088F9011C301CB847BDE785
:103A50002F2B27D1012803D905980378032B03D0F6
:103A6000201C0299274AC5E7009A012AAED906A967
:103A70001BF062F90127059005980378032B03D00A
:103A8000201C0299204AB5E707A91BF055F9A36B42
:103A900005905B69606B0699079A01379847B742B2
:103AA000EAD193E7009B012B90D903289FD8059872
:103AB00007901BF063F908901BF060F9A36B099065
:103AC0009F69606B0499321C07ABB8477EE7637946
:103AD000012B03D9A36B606B5B689847A368002B2D
:103AE00004D0201C0C30029919F04AFE0BB0F0BD36
:103AF0009DA70200C1A70200E4A7020000A80200DF
:103B000010A802002CA8020051A8020008B5024A21
:103B1000FFF7C4FE08BDC04673A8020030B50B789D
:103B2000041C85B00D1C481C002B78D0032B09D138
:103B3000081C03A91BF000F90399051C206B1EF05B
:103B400092FB49E0012B07D14978052902D0206B6F
:103B50000DF0CAFDA81C62E0042B07D189786B78B0
:103B60000902206B19431EF0C5FB16E0052B18D186
:103B70006379042B02D0206B2A490CE088784B78BB
:103B80000002184303A91DF09BFE0399246BFDF767
:103B9000D1FF011C201C1EF0B9FB281C1BF0EEF805
:103BA0003DE01A1C0A3A081C0F2A08D803A919F08C
:103BB00052FD0399051C201CFFF72AFE0CE0082B80
:103BC0000CD103A91BF0AEF80399236A8A00051CE7
:103BD000D158206B1EF09AFB281C20E002AA03ABF0
:103BE00001A91BF0FCF80299051C206B0DF032FDB9
:103BF000019B201C9A000C4B291CD358002B03D18D
:103C00000A4AFFF74BFE09E0039A9847A16800298A
:103C100004D0E268002A01D1029BE360039805B05A
:103C200030BDC0466C7B0200004C020090A8020030
:103C3000F0B587B00593151C0A1C531E9A410291DA
:103C4000061C0599281C04921BF08CF8049B039019
:103C5000029C002B09D023780024842B05D1211C41
:103C6000306B039A1EF032FD029C039A2F1C013A1E
:103C70000192059A97421DD03B78842B12D1002CDB
:103C80000AD10499039B019A0139C918891A306B2A
:103C90001EF01CFD3C1C05E0301C391C1E4AFFF7C1
:103CA000FDFD36E0381C1BF069F8019B071C013B49
:103CB0000193DEE7002C05D1039B049A306B991821
:103CC0001EF0F8FC049B002B1CD0029AA24205D1E6
:103CD000201C1BF058F8011C301C01E00299301C1C
:103CE000002200F01BF80DE0A5420FD1281C1BF0AC
:103CF0004AF8011C301C002200F010F8281C1BF0B0
:103D00003DF8051C059B9D42EED102E0301C291CAC
:103D1000F1E707B0F0BDC046A8A80200F0B5041C4A
:103D200085B00D1C161C2B781A1C0A3A0F2A0FD8C6
:103D300003A9281C19F08FFC0399201C002E01D028
:103D4000022E02D1FFF776FDDFE0FFF761FDDCE038
:103D5000192B03D8201C291C6D4AD4E01A3B7C2B5C
:103D60007CD004D8252B75D0772B06D0C8E07E2BCD
:103D700000D186E0912B6DD0C2E0281C02A91BF077
:103D800007F8071C022E03D0201C391CFFF7C6FEC3
:103D9000381C1AF0F3FF0299071C19F054FC002894
:103DA00000D0ADE03B78922B14D1381C03A91AF057
:103DB000EFFF071C381C1AF0E1FF039A01909042B4
:103DC00008D2022E01D1019FF4E7201C391CFFF715
:103DD000A5FEF8E73B78A12B19D1022E04D1206B68
:103DE0001EF025FB206B0FE0381C1AF0CCFF011CE5
:103DF000201CFFF793FE206B012E05D11EF0EBFA7D
:103E0000206B1EF0BBFA1CE01EF0D0FA19E0A22BCA
:103E100076D1381C1AF0B7FF03A919F01CFC206BEF
:103E2000012E06D11EF0CDFA206B03991EF084FA04
:103E300007E0022E01D11EF0E3FA206B03991EF079
:103E4000A8FA381C1AF09AFF029919F0FCFB002816
:103E50005BD155E0281C002E4ED13AE003A9281C66
:103E60001AF096FF0399071C19F0EDFB002847D1C3
:103E70003B789A2B03D1002E3ED13D1C18E03D1C0F
:103E800051E7002E38D1281C03A91AF081FF0399AD
:103E9000051C19F0D8FB002802D0201C311C04E0BE
:103EA0002B789A2B04D0201C291C321C331C20E0B8
:103EB00003A9281C1AF06CFF061C1AF05FFF037898
:103EC0009D2B04D10022201C311C131C11E09E2BC1
:103ED00007D103A91AF05CFF311C021C039B201CB4
:103EE00007E0BD2B0CD01AF049FF0021031C321C47
:103EF000201CFFF79DFE08E0201C291C054A02E05B
:103F0000054A201C291CFFF7C9FC05B0F0BDC046BE
:103F1000C2A80200F5A80200DAA80200F0B50B78EA
:103F200091B00A3B041C019104920F2B00D9DCE0F4
:103F3000081C1AF023FF0378912B00D0D5E00198DC
:103F40001AF01CFF0DA91AF023FF037842780A3BF0
:103F50001B021343892B00D0C7E01AF00FFF037830
:103F6000051CA02B00D0C0E01AF04DFF002800D0A7
:103F7000BBE0281C1AF002FF0D9A904200D0B4E07A
:103F8000281C1AF000FF9B210E900EA81AF00FFFBC
:103F90000E9B061C0293029801230F931AF0EEFE6B
:103FA000071C0E90B04210D01AF0E8FE0E90B042FE
:103FB0000ED00378032B00D097E00FA91AF0BCFEB7
:103FC0000E90B04200D090E002E0714A029F02924F
:103FD0000D9B181C05931AF0D1FE049A051C831A38
:103FE0005A1E93415B421D400F9B26690693638BCB
:103FF000228B0A93731C63830793A38B0992E28B32
:10400000E383331D268323613B780B92B21C03921A
:10401000033BF21C08925A1E9341DBB20493002B1F
:1040200003D0201C391CFFF779FD0299201CFFF7F3
:1040300075FD206B08991EF00FFA0399206B1EF096
:10404000DEF8206B1EF0BDF90022201C0199FFF75D
:1040500065FE0599201CFFF761FD206B07991EF096
:10406000CEF8206B06991EF0FEF8206B12211EF090
:10407000A6FA206B08991EF0C2F8049B206B002B57
:1040800005D01EF0A8F9206B1EF0BAF905E01EF06D
:1040900098F9201C391CFFF741FD069A206B002A75
:1040A00001DB192100E01A211EF089FA039A206B26
:1040B00001211EF0DDF9099B0A9A23830B9B628381
:1040C000E383002D03D0201C291CFFF727FD206B64
:1040D000311C1EF094F8206B1EF087F9049A002A18
:1040E00053D0206B1EF081F94FE0238B2569059397
:1040F000E38B628B0793A38B6E1CE383254B0692A5
:104100002B432383EB1CAA1C236166830198029234
:104110001AF034FE011C201CFFF700FD071C206B69
:104120001EF002FA206B311C1EF069F8206B029918
:104130001EF004FA201C01990022FFF7EFFD391C44
:10414000201CFFF7EBFC071C206B1EF04FF800282B
:1041500003D1206B311C1EF07FF9206B02991EF0F9
:104160004EF8206B1EF0F6F9059B069A23836283B6
:10417000079B049AE383974203D0201C391CFFF766
:10418000CDFC206B291C1EF03AF811B0F0BDC046E2
:10419000D1AD02000080FFFFF0B5041C85B0081C03
:1041A000171C0D1C1AF0EAFD391C061C19F04BFAFD
:1041B000019000281CD02379201C002B11D0E36A29
:1041C0001E78002E0DD11221FFF722FB291C201C86
:1041D000FFF7A4FC206B0121321C331C1EF0B7FA40
:1041E00002E0291CFFF79AFC206B1EF0FEF858E055
:1041F00033783B2B1BD1291C201C0122FFF78EFD9D
:10420000301C1AF0C0FD4378811C4E3BDBB21826EF
:104210000A2B01D8244AD65C201CFFF77FFC206BB8
:10422000311C1EF0CCF9201C291C022237E03C2B4B
:104230002ED1301C03A91AF0ABFD061C071C039BF2
:104240009F4205D0381C1AF099FD0197071CF6E72C
:104250000199201CFFF762FC206B1EF0B2F8201CB5
:10426000291C0022FFF75AFD019B9E4219D0301CE9
:104270001AF084FD019B051E9D4202D0206B1EF0AA
:10428000A0F8311C201C0022FFF748FD2E1CEBE794
:10429000311C201CFFF742FC019A201C291CFFF74F
:1042A0003DFD05B0F0BDC04692A70200F0B589B053
:1042B000041C0D1C059104921F1C002924D1837934
:1042C000002B27D0C16A02950B78012B23D1052141
:1042D000FFF79EFAE36A188D854211DAD96AEA007F
:1042E0008A18567801210E4208D05288206B1DF0A2
:1042F000FEFE0022206B0221131C9AE00135EBE741
:10430000201C00214D4A22E005A89B211AF04FFDF8
:10431000029000E002930022059D00920392161C79
:10432000019208E0281C1E431AF02DFD0390281C62
:104330001AF024FD051C029A954256D02B78B72B13
:1043400008D101231E42EDD03D4A201C291CFFF755
:10435000A5FA70E0B82B0CD102231E4203D0201C1A
:10436000291C384AF3E7281C1E431AF00CFD009064
:10437000DDE7B92B2CD1281C1AF005FD051C1AF01D
:10438000FDFC0378BD2B09D1201C291C062219F045
:1043900034FA281C01371AF0F1FCC9E72B780A3BE4
:1043A0000F2B03D9201C291C274AD0E7281C07A95A
:1043B00019F051F90799051C206B1DF09BFF291C72
:1043C000201CFFF7ABFB019B051C01330193B2E7F7
:1043D0000199201C002902D0291C1C4AB7E7291C7E
:1043E000FFF79CFB0137051CA5E7002E15D0039BAA
:1043F000002B03D1206B1DF095FF03E0201C0399D7
:10440000FFF78CFB0099002903D1206B1DF08AFF78
:1044100003E0201C0099FFF781FB049A206B391CF4
:10442000002A04D0019A331C1EF09BF903E0019A84
:10443000331C1EF08CF909B0F0BDC04621A9020062
:104440003FA9020056A902006EA902008FA902002E
:10445000F7B50B78041C0E1C292B01D0312B02D18F
:104460000123E37163E02A2B61D0322B5FD01A1C49
:104470000A3A0F2A1CD9081C282B12D101A91AF0BC
:1044800087FC071C1AF07AFC019A904211D01AF0AE
:1044900075FC019A051C831A5A1E93415B421D400C
:1044A00008E01AF070FC071C1AF068FC051C01E01B
:1044B0000F1C0025381C01A919F0CDF8E379002D57
:1044C00002D02A78002A0AD1002B30D1E38A002BAF
:1044D0002DD0201C311C164AFFF7E0F927E0002BF5
:1044E0001ED0A38A01339BB2A382012B0CD1E18A97
:1044F000206B002902D01EF085F801E01DF012FFAC
:10450000206B00211EF0A5F8291C201CFFF706FBDC
:10451000206B01991DF0EEFE206B1EF0A6F806E060
:10452000E38A201C0133E382291CFFF7F7FAF7BD69
:10453000B1A90200F0B5056987B003936B1C029323
:10454000AB1C041C03610E1C006B291C171C1DF006
:10455000C8FF201C19F087F8311C201CFFF7DEFA79
:10456000206B1DF0FDFF206B02991DF075FF206B85
:10457000291C1DF044FE206B1EF038F92669731CBF
:104580002361039B9F4200D191E0381C1AF0FBFB92
:10459000002305932369051C0193013323610378EC
:1045A000002B0FD11AF0EAFB1AF0E8FB039B9842AC
:1045B00023D0201C291C4B4AFFF770F9A38B013B29
:1045C000A3838CE0071C6A2B07D11AF0DCFB071CC5
:1045D0001AF0D4FB05A919F03EF8206B1DF0F1FE8E
:1045E000391C201CFFF79AFA206B21211DF0E7FFF0
:1045F000206B0021019A1DF03BFF281C1AF0BEFB26
:10460000071C206B1DF0F1FE0599002903D1206BDA
:104610001DF0EBFE02E0201CFFF70CF9206B1DF0F3
:10462000E4FE059B0025AB4209D02569206B6B1C7D
:104630002361291C1DF061FF201C19F014F8391C9E
:10464000201CFFF76BFA059B071C002B02D0206B88
:104650001DF086FF206B1DF08DFF059B002B19D0F0
:10466000206B0F210DF040F8206B291C1DF0C7FDB9
:10467000206B0F210DF038F8201C0599FFF7DAF8B0
:10468000201C0599FFF7E8F8A38B206B013BA3835F
:104690001DF03FFF206B311C1DF0DEFE206B0199E9
:1046A0001DF0ADFD206B03211DF0A5FD69E7A38B77
:1046B000206B013BA3831DF02CFF206B1EF09AF8AA
:1046C000206B02991DF09BFD0C9B002B03D0201C3E
:1046D000191CFFF723FA206B311C1DF090FD07B069
:1046E000F0BDC046DFA90200F0B585B00191437965
:1046F000041C012B3FD1C26A0D1C1378002B03D17F
:104700001E4AFFF7CBF836E001A843211AF04FFB11
:1047100000900198009B98422DD003A918F09BFFB0
:10472000039E6A4601900B32E06A311C18F001FFCB
:104730006A46D37A071C002B06D10378042B03D0DA
:10474000201C291C0E4A0CE0E06A311C18F01FFFE7
:10475000002803D00378023B022B05D9094A201C0C
:10476000291CFFF79BF8D4E704233B70E06A311C57
:1047700018F01EFFCDE705B0F0BDC046FEA902004F
:1047800023AA020044AA0200F0B585B00191437942
:10479000041C012B2AD1009101A843211AF007FB28
:1047A000071C0198B84221D003A918F054FF6D46A8
:1047B000039E0B350190311CE06A2A1C18F0B9FEEB
:1047C0002B78002B08D10378012B05D0201C0099F1
:1047D000074AFFF763F8E4E701250570E06A311C3A
:1047E00018F0CCFE0028DCD00570DAE705B0F0BD8B
:1047F00062AA020010B5438B041C002B02D1054AAB
:10480000FFF74CF8A28BE38B206B618BD21A0CF074
:1048100087FF10BD81AA020010B5038B041C002B7A
:1048200002D1054AFFF73AF8A28BE38B206B218B6C
:10483000D21A0CF075FF10BD99AA0200F7B50B78DB
:10484000041C1A1C0A3A0D1C0F2A08D8081C01A9BE
:1048500018F001FF201C0199FEF7FEFF77E0912B75
:104860003FD1081C69461AF093FA011C201CFFF77F
:1048700055F90378061C922B10D101A91AF088FA79
:10488000061C301C1AF07AFA019B071E9F4205D0C5
:10489000311C201CFFF742F93E1CF2E73378A12BB4
:1048A0000BD1301C1AF06FFA011C201CFFF736F9EF
:1048B000061C206B1DF0C5FD0CE0A22B42D1301C64
:1048C0001AF061FA01A918F0C6FE0199061C206BC6
:1048D0001DF0A0FD301C009918F0B5FE002831D065
:1048E00035E0962B2ED1081C1AF04DFA0378051CE2
:1048F0009A2B22D11AF047FA061C311C201CFFF714
:104900009DFF301C1AF03AFA0378011C9D2B1ED033
:104910009E2B0ED101A91AF03BFA019B051E9D4268
:1049200015D0201C291CFFF789FF281C1AF026FA35
:10493000F3E7201CBD2B05D001E0201C291CFFF74C
:104940007DFF04E0201C291C014AFEF7A7FFF7BDEC
:10495000AEAA0200F7B50C1C002101912178051CBC
:10496000081C0A380F2801D8201C05E01A32914291
:1049700012D1201C1AF007FA01A918F06CFEEA798E
:10498000EB6A002A04D15A8B01325A83012633E0A4
:104990009A8B01329A83F9E71A33994220D1012781
:1049A000EF71201C1AF02FFA0326002824D1201CB6
:1049B0001AF0E9F90278EB6A0A3A0F2A04D81A7E4B
:1049C000201C17431F7605E01A7E201C17431F7614
:1049D0001AF0D9F91AF0D7F901A918F03CFE0BE04A
:1049E000201C1AF0D0F901A918F035FEEB6A02215B
:1049F0001A7E05260A431A760199002911D06F46BE
:104A00000337E86A3A1C18F094FD3B78002B05D177
:104A1000281C211C034AFEF741FF02E00223037019
:104A20004670F7BDC6AA020038B50D1CC16A041C49
:104A30000B78012B04D000210B4AFEF72FFF11E069
:104A4000281C111C18F0FFFD002804D0206B0F213A
:104A50000CF04AFE03E0201C291CFFF75FF8206BD6
:104A60001DF08AFE38BDC046DFAA020038B50D1C15
:104A7000C16A041C0B78013B012B04D90021164AA2
:104A8000FEF70CFF26E0281C111C18F0DCFD0028A6
:104A900004D0206B0F210CF027FE18E02B78C12BDF
:104AA00011D1281C1AF06FF9011C201CFFF736F8F1
:104AB000206B1DF039FD206B0F210CF015FE206BD3
:104AC0001DF084FE06E0201C291CFFF727F8206B50
:104AD0001DF06DFE38BDC046F9AA0200F7B5041CF2
:104AE0000D1C081C111C18F0AEFD002804D0206B12
:104AF00000211DF0AEFD50E02B78AF2B0BD1206BC9
:104B000001211DF0A6FD201C291CFFF707F8206BD2
:104B10001DF0ABFD41E0AE2B3FD1281C1AF033F95C
:104B2000051C1AF02BF900900378B12B30D101A9A4
:104B30001AF02EF9019B0090984203D06846982104
:104B40001AF035F901990098266B1AF00BF9411CFF
:104B5000301C1DF07EFD291C201CFEF7DFFF206BA2
:104B60001DF083FD009E019B9E4216D0311C201C2F
:104B70003778FEF7D3FF061CAF2F05D0201C291C69
:104B8000064AFEF78BFE08E0206B1DF06EFDEAE79B
:104B9000201C291C042218F030FEF7BD12AB0200C5
:104BA0007FB5041C081C03A9161C1AF0C5F862790D
:104BB000051C012A05D10096201C03992B1C18F016
:104BC0005CFD281C1AF0DAF8039A011C9300A26A13
:104BD000201C9D580023E371A382E3820C22064B24
:104BE00018F0B4FDA368002B03D1201C291C19F078
:104BF000C9F9286904B070BD51440000F0B589B00E
:104C0000041C039103A807211AF0D1F8E26A02906C
:104C10000023567E01930398029B98424BD005A92E
:104C20001AF0B6F84021039003A81AF0C0F806A9BC
:104C3000051C039818F00FFD069A071C292A18D1A5
:104C4000A8420CD21AF09AF8A84208D1381C07A939
:104C500018F001FD079B2A2B07D02C2B07D0201C16
:104C60000021264AFEF71AFE22E0012620E0042653
:104C70001EE0019B201C013303990193FEF74EFFB8
:104C800003900398A84208D007A918F0E4FC0799FC
:104C90000390206B1DF050FBF3E7281C059918F0DA
:104CA000D2FC002804D1A071291C201CFEF736FF7D
:104CB000059A0392AFE7181C1AF065F8029A039060
:104CC0001378011C321C201C242B04D1FFF768FF31
:104CD000061C019D02E018F0BCFFF9E7002D07DD7E
:104CE0000022206B0121131C1DF031FD013DF5E771
:104CF000201C311CFEF79EFD09B0F0BD35AB020053
:104D0000F0B50123041C0D1C427187B0E162036100
:104D1000111C006B2A1C0CF0D5FB6379012B02D10E
:104D200000236B84AB84AE6833781E2B07D1301C14
:104D30001AF029F8011C201CFEF7F0FEDBE02B78AE
:104D4000002B04D1201C311CFEF7E8FE99E0012B5A
:104D50001ED1301C1AF012F86379051C012B07D103
:104D60000023E371201C291C0C22674B18F0EEFC79
:104D7000281C1AF003F81AF001F8011C201CFEF799
:104D8000CDFE206B1DF032FA002800D0B6E078E0AE
:104D9000022B19D16379012B07D10023E371201C69
:104DA000311C1422594B18F0D1FC301C19F0E6FFCD
:104DB000011C201CFEF7B2FE2B7E5A0700D49AE09D
:104DC000206B1DF012FB5CE0033B032B5BD8301C17
:104DD00019F0D4FF05A919F0DBFF19F0CFFF6779AF
:104DE0000390012F08D16A46E06A391C133218F08B
:104DF000A0FB022303706F832B78032B04D1206B5D
:104E000000211DF00CFC05E0042B03D1206B0021D8
:104E10001DF01FFC2769201C7B1C0293BB1C236117
:104E20000121FEF7F5FC206B02991DF0E8F9206BDB
:104E3000391C1DF083FB03990022201CFEF76EFF36
:104E4000039819F09BFF19F099FF059A011C831A2A
:104E50005A1E93415B4219400023321C0093201CD0
:104E6000029B19F036FA206B02991DF0F5FA206BBF
:104E7000391C1DF0C4F9206B1DF06CFB2B78062B40
:104E800039D1206B2FE06379012B06D1281C052135
:104E900005AA18F04EFB0223037005A9A86818F0B4
:104EA000DAFB201C0D21FEF7B3FC201C0C21FEF7C1
:104EB000C1FC206B29691DF01DFA1021201CFEF792
:104EC000B9FCA86819F05AFF19F058FF011C201C02
:104ED000FEF724FE281C052118F01BFB0278031C9A
:104EE000206B022A03D10F210CF0FEFB03E05A884D
:104EF00005211DF0FCF8206B1DF03EFC206B0CF032
:104F00006FFB07B0F0BDC04677DE01006BDE01002D
:104F10007FB5041C081C03A919F00EFF6379051C5A
:104F2000012B08D1E26A201C537E039900930222D0
:104F30002B1C18F0A2FB039A201C9300A26A291CC8
:104F40009E580022E271A282E282064B142218F0DF
:104F5000FDFBA368002B03D1201C311C19F012F8B3
:104F60007FBDC04651440000F0B59BB00BAC071CA0
:104F7000151C06913C220021201C1E1C1EF0B3FFB4
:104F8000069879680B9038682162267119F0F6FE50
:104F900019F0E2FE606280001CF06EF80021A06251
:104FA0000095201C0A1C3B6818F067FB1DF008F9EF
:104FB00000250990206306950026331C606A86420E
:104FC00003D3002BF8D105932DE0A1680029F8D177
:104FD000A06AB2001558002D16D06969002913D1B6
:104FE0001CF085FA6B7E6861291C201C0122042BB1
:104FF00002D1FEF767FC01E0FFF782FE2369069D00
:105000009D4200D2069301230136D7E70D98002870
:1050100000D0B4E0059C159BA200D358002B07D10B
:10502000059E01360596059814998842EED3A6E0B0
:105030001A7ED50727D51C8D021CA04223D08F4E87
:10504000DD6AA119091AC90069184D78AE0713D590
:10505000002A18D010785478558808900494039545
:105060000E1C506830CE30C2089E049A039C0E700D
:105070004A704C80486006E0002A02D1012D00D120
:105080000A1C0130D9E7002119841D8DAC46A942C4
:105090001CDADD6A1878CA00AA18072802D15668F7
:1050A000052E11D00138052804D81078002801D128
:1050B000012010701078022802D05078C40703D560
:1050C000188C441C1C8450800131DEE700226245AC
:1050D0000EDADE6AD10071180878032806D1487804
:1050E000C40703D4188C4880013018840132EEE7DD
:1050F0005C68002C94D0258D002107950A1C079D23
:10510000A94220DAE06ACE008619307800250338FB
:10511000012816D804950498604512DA049DE80029
:10512000DD6A281803900078042807D10398756871
:105130004068854202D1039842800132049D0135C6
:10514000E8E70131DBE7002A00D169E7002161458A
:105150000DDADE6AC80030180478042C02D14478D5
:10516000E50702D54488141944800131EFE7598BD3
:1051700092B251185983198C52181A8450E7099821
:1051800006991DF022F80026351C149B9E420FD371
:105190000D9C002C49D0169B0EA8996818F0F0FAC7
:1051A000169B0D981B690B990E9A02F097FC3CE038
:1051B0000D980028ECD1159AB3009C58002C32D0E1
:1051C000637E042B18D1002D03D106981AF093FAB0
:1051D000051C002317932A4B0BA8211C03221993AB
:1051E0001895FEF76FFB0D9B002B1CD10BA8211C03
:1051F0000422FEF767FB16E00998211C1790022293
:105200000BA8FFF77DFD0D99002904D10BA8211CE7
:105210000322FFF775FD0D9A002A04D10BA8211C6B
:105220000422FFF76DFD0136AFE709981CF0D5FFAA
:10523000002D02D0281C1AF06FFA381C19F0EDFD71
:10524000159B00241B685D69149915988C4207D240
:10525000A2008058002801D018F052F90134F3E779
:105260001BF02EFF0D9A002A02D0101C0CF09FFAA2
:10527000281C111C1CF046F91BB0F0BDFFFFFF1FDE
:10528000685E020008B540681DF0A9FE002801D044
:10529000014800E0014808BD147A0200587A020073
:1052A00008B540680DF0E2FD004808BD6C7B0200C7
:1052B00008B540681DF097FE002801D0014800E0C5
:1052C000014808BD147A0200587A020008B5406807
:1052D0001DF08DFE004808BD6C7B0200F8B5094D3D
:1052E0002B78002B0CD1084C2778FFB2002F07D168
:1052F00000680126036826705B68984727702E7047
:10530000F8BDC046322E0020332E00203E2803D0A8
:10531000402809D03C280ED14239C9B22F290AD8D9
:10532000084B585C012308E0712904D8064B585CEF
:10533000064B5B5601E001230020002A00D01360D9
:105340007047C04637AC020053AB0200C5AB020049
:1053500008B5512836D00FD8492827D006D842287A
:105360001CD048281FD000284BD117E04F2840D030
:1053700042D84C281AD044E0682811D007D86428B5
:105380002AD0662825D062283BD188563AE06C287E
:1053900032D071280FD0692833D12DE0885C31E0FC
:1053A0005200505E2EE05200505A2BE092005058AE
:1053B0001AF05AF829E0D2008918086849681AF0EA
:1053C00029F822E0D2008918086849681AF03DF8E7
:1053D0001BE09200505805E0D2008918086849681F
:1053E00012F0CEFA0323984302231843074BC01848
:1053F0000BE09200505808E0920050581AF019F84B
:1054000003E0002040000123184308BD0000808015
:10541000F0B587B0151C03AA071C0E1C01931C686D
:10542000FFF774FF0090402F05D1039B3C275A1EC5
:10543000A4185B421C40009A3E3FA318019A1360D7
:10544000642E09D0662E02D04F2E22D141E0281CB6
:1054500009F068FE051C3CE0281C09F063FE12F010
:105460003DFA7D427D41EDB204900591AB0006AA64
:10547000D318083B1B68291C221C042019F0D3F9FF
:1054800001235D40AD0006AB5D19083D04342D6875
:105490001FE0AA070CD1154B2A689A4208D179421D
:1054A0007941C9B2281C009A231C19F0A1FF1BE006
:1054B000281C09F0D3FD009B051C042B09D95A2E8A
:1054C00007D9002805DA1A1C201D043AFF211EF016
:1054D0000AFD0098042800D9042079427941C9B214
:1054E000221C2B1C19F09FF907B0F0BDB851020027
:1054F00070B5061C0D1C141C181C642E0CD0662ED6
:1055000004D04F2E11D19400635127E094000D195F
:1055100009F008FE286021E0D4000D1909F002FE10
:1055200012F0DCF92860696018E020233343712B06
:105530000CD10321014009D1094B02689A4205D1DF
:10554000E4002B19082219F053FF07E009F086FD4B
:10555000291C031C221C301C19F07BF970BDC046AD
:10556000B851020008B502480DF0BEF8014808BD68
:10557000BC2800206C7B020008B509F06FFD0028F4
:1055800001DD0AF047F8014808BDC0466C7B020007
:1055900008B509F063FD011C02480DF0C5F819F0CB
:1055A00048FF08BDBC28002008B503480DF046F9A7
:1055B00001234000184308BDBC28002010B5031C7F
:1055C000064C02D1201C191C04E0086809F046FDB5
:1055D000011C201C0DF038F9014810BDBC2800202A
:1055E0006C7B0200004870476C7B020010B588B0ED
:1055F00001AA6946041C02F0A9FA009A022A2AD9D3
:1056000004A8322102AA07F005FD019B13495A683C
:1056100002A81CF05CFC201C09F036FC104BC26890
:105620009A4210D1236802A85A680E491CF04FFC18
:10563000E368002B07D05A68002A04D0996802A8B2
:10564000002209F03BFC04A81BF069FE09F0D4FF1E
:1056500004A81BF0FBFD08B010BDC04667AC0200FB
:10566000E978000070AC020070B5031C0A1C90B011
:10567000191C0B20002305F075FA051E03D11848EC
:1056800016F01CFB29E004A80CF076F8041E19D1D2
:105690002E6801A8291C012200F0C2FD221C231C37
:1056A000311C01A8FFF760FC041C032009F028FF4F
:1056B000201C1BF00DFD0120404209F021FF0CF0E1
:1056C00071F80AE00120404209F01AFF05480599E7
:1056D00009F018FC0598FFF789FF10B070BDC046AF
:1056E00074AC0200AC92020013B51F4BE12001AA7A
:1056F000C0001A6005F0E6FB1C4B1D48C1180AF0FB
:10570000D1F806F0BDFC09F0D9FE03F021FA00F053
:10571000B9FFF8239B021988164A174C914204D10D
:1057200059881648FFF7A0FF09E02278012A06D120
:1057300018201349FF3007F099FB1BF0F3FC237886
:10574000002B0ED100F0C6F80028F8D00D481CF050
:105750001FFA00210C220C481EF0C5FB1BF0B4FC04
:1057600013BD00F011F9EFE7602700205C26000070
:10577000040100204D500000BA00002004E00300A6
:10578000448A0200A1AC0200102F002007B50AF0E5
:105790000DF9054B01A81968091A89080AF0C4F81F
:1057A0000AF018F907BDC04660270020F0B585B0A3
:1057B00003900526039809F02DFF0125B54224DA50
:1057C0000024144F211C381C2A1C08F0D7F9C3B23E
:1057D0000190002B13D06A1E381C211C029208F085
:1057E000CDF9031E0BD1381C211C2A1C08F08CF9A2
:1057F000019A381CD3B2211C029A08F085F90134B1
:10580000052CDED10135EDB2D8E7013E002ED1D115
:1058100005B0F0BD0C00002008B5C820FFF7C6FF9A
:10582000004808BD6C7B0200F0B593B0061C06A8CA
:105830000F1C141C0BF0A0FF051E22D13368311C75
:1058400003A83A1C0126019300F0EAFCA3082A1CD5
:105850003340019903A8FFF787FB051C032009F0DB
:105860004FFE281C1BF034FC704209F049FE0BF07F
:1058700099FF344203D01448311C09F075FE01250C
:1058800018E00120404209F03BFE01210C4202D009
:105890000D4809F069FE079809F0F6FA0B4905F082
:1058A000CBFE051E04D10799094809F02BFB01E046
:1058B00080256D0001210C4202D0034809F054FEFE
:1058C000281C13B0F0BDC046DAAC0200205902001B
:1058D000AC9202001FB5202168461BF08DFC2448C5
:1058E0001CF056F968461BF0D4FC22481CF050F915
:1058F00009F022FE0128F2D002280AD11E481CF02D
:1059000047F968461BF0A2FC1C4B01221A700020CC
:105910002CE0032803D168461BF0BBFCE8E7042811
:1059200004D0C1B268461BF00DFDE1E714481CF03D
:105930002FF9019A002A08D10F481CF029F968466E
:105940001BF084FC8020400010E0FB200299002323
:1059500005F008F9002803D10A4816F059F9C1E703
:1059600001210A1CFFF760FFC305BBD505B000BDD0
:10597000AFAC0200DDAF020046AD0200BA0000206D
:10598000CAAC0200CDAC020030B587B002A820211D
:105990001BF032FC44481CF0FBF844481CF0F8F8BB
:1059A00002A81BF076FC02A8414919F0A6FF0128C5
:1059B00009D140481CF0ECF802A81BF047FC3E4B14
:1059C000002018706DE0022803D13A481CF0E0F87E
:1059D000E0E703281AD0042808D136481CF0D8F88C
:1059E00002A81BF033FC802040005AE0052825D196
:1059F00032481CF0CDF802A81BF04BFC09F09CFDCE
:105A00006C46C1B207342170032901D12948C5E78A
:105A1000042904D127481CF0BBF8012427E002A880
:105A20001BF090FC23780D2B03D125481CF0B0F817
:105A3000E4E7201C012109F097FDDFE702A81BF035
:105A40003BFC0028ACD002A81BF069FCFDF7AAFBC8
:105A500000280BD002A80A211BF074FC02A81949E7
:105A600019F04BFF0328D1D00428ECD1002402A860
:105A70001BF01BFC051C02A81BF01EFC291C021CB1
:105A80000023FB2005F06EF8002803D10E4816F025
:105A900015F985E7211C0622FFF7C6FEC30500D4D1
:105AA0007EE707B030BDC046DCAC020023AD02008B
:105AB00049AD020046AD0200BA0000204EAD020022
:105AC0007EAD020085AD020072C002007FB54B685A
:105AD0000E1C5C106846211C1BF0A5FB029D0021DA
