:020000040000FA
:1000000000400020298C0100658C0100678C0100F4
:1000100000000000000000000000000000000000E0
:10002000000000000000000000000000698C0100DA
:1000300000000000000000006B8C01006D8C0100CE
:100040006F8C01009D6B0000E98301006F8C010043
:100050006F8C0100000000006F8C01006F8C0100AC
:10006000FD0200007D8101006F8C01006F8C01009A
:100070006F8C01006F8C01006F8C01006F8C010090
:100080006F8C01006F8C01006F8C01006F8C010080
:100090006F8C0100F17C0100BD7D0100390400007E
:1000A000490400006F8C0100000000000000000007
:1000B0000000000000000000000000000000000040
:1000C00010B5064C2378002B07D1054B002B02D02E
:1000D000044800E000BF0123237010BD800200200F
:1000E000000000001C780300044B10B5002B03D067
:1000F0000349044800E000BF10BDC04600000000F6
:10010000840200201C780300164B002B00D1144BF6
:100110009D46402292029A1A924600218B460F4633
:100120001348144A121A27F02FFE0F4B002B00D051
:1001300098470E4B002B00D0984700200021040068
:100140000D000D48002802D00C4800E000BF1EF052
:100150000DFF2000290027F0D6FA1EF053FEC046FE
:100160000000080000400020000000000000000027
:1001700078020020D42F00200000000000000000C2
:1001800010B50C0021F001FE631E184207D00200DA
:1001900023000349034813F07BFF03F0BBF810BDB5
:1001A00012EC020024D7020010B54A680249D200BE
:1001B0001FF063FF10BDC0463AEC020070B50B00A3
:1001C00006001400101E0FD071681800042A0ED10A
:1001D000FFF7D6FF7368012B03D0022B05D0006810
:1001E00000E0007821F094FD70BD0088FAE7FFF789
:1001F000C7FF0500200007F089FB7268030005486F
:10020000012A03D0022A03D02B60EDE72B70EBE725
:100210002B80E9E7988602008022044B52001A6086
:100220000123034A1360034A1360704700E100E0B2
:100230000C8C0040008000408022054B5200DA67A1
:10024000044BFF3A5A600022034B1A607047C046C5
:1002500004E100E0008000400C8C004070B50025F7
:1002600001261E4B1E4C1D601E4B18601E4BE65097
:10027000C046FFF7E1FF1D4B1D4AE660E250022237
:100280001C4BFF20E5500433E25008339218E25033
:10029000C12380229B001203E250053BFF3BE55047
:1002A000C2244022144BA400195981430A438021DF
:1002B0001A510C341A5909061202120A0A431A5129
:1002C000C0220434195981430A431A51802212046E
:1002D0001A60802252041A6070BDC0466C2E002045
:1002E00000800040AC020020FC0F00004C05000024
:1002F000701700000405000000E100E070B51F4C1D
:100300001F4D636C002B0AD0002363641D4B1B68D8
:100310009847A823DB00EA5800018018E850A36C36
:10032000002B09D00023A364164B5B689847164B3B
:100330000001EA588018E850E36C002B0AD0002333
:10034000E364104B9B689847A923DB00EA5800013F
:100350008018E850236D002B0ED000230B4A236534
:10036000AB580B495B18AB500A4A1368063313604D
:100370008022094B12045A6070BDC046FC800040C8
:100380000080004004000020440500004C050000EF
:10039000701700006C2E0020FCE100E0F7B5019121
:1003A000032823D8134B8000C758C223124D9B004B
:1003B000EF50012344192364A8230F210F4EDB00C3
:1003C0009C46E358AE59921BD218D3170B409A188B
:1003D00001990B4B1211C150C1239B00EF50634692
:1003E0000020013212019619E650FEBD0120404264
:1003F000FBE7C046B4830200008000404C050000CB
:100400000400002003280BD8074B8000C158C223EA
:10041000064A9B00D150064B064AC2500020704746
:1004200001204042FBE7C046B48302000080004048
:100430000400002045FD010010B5024B1B689847E1
:1004400010BDC046AC02002010B50024054AA10032
:100450008B58002B02D00020885098470134042C80
:10046000F4D110BD9C020020074A89008B58002B54
:1004700006D1885080211800044A49045160704711
:1004800001204042FBE7C0469C020020FCE100E066
:1004900000B58BB012F0C6FE68461FF056FC054B47
:1004A000D968091A890812F079FE12F0D3FE0BB050
:1004B00000BDC046742E0020F0B5060087B000AF26
:1004C0007B60F960BA600EF015FCB06820F0C6F9E8
:1004D0003861B06820F0C8F920F0C0F90323584310
:1004E0003B69C01883001D007B6114352C2B2CD870
:1004F0006B460E35ED08ED005B1B9D4600236C46F8
:100500007B61002326606360BA687B68F96820001D
:1005100003F072FB154D00216B68200023617368A6
:100520006B6004F003FE2369061E6B6013D1A368A1
:100530001D687B69002B04D0200020F095F8002E68
:1005400011D12800BD4607B0F0BD280020F06AF8A0
:10055000041ED6D1CCE73B6903339B00E3185D68EA
:100560007B69002BE8D1280002F0D4FE742E002015
:100570000122030030B5134085B004004510002B64
:1005800014D125491D00884210D0244988420DD03D
:10059000234B1500984209D00323034009D1214A77
:1005A0000168914205D121F0F0FB0500280005B05B
:1005B00030BD1D4A25002240062A05D0002B08D157
:1005C0001A4B22689A4204D101A9200009F026F8AA
:1005D000EBE7200007F086F8154B984207D1FF2380
:1005E000DB05E0180323984319F02CFDDDE7114BE0
:1005F000984202D0104B984206D101AA69462000C9
:1006000007F0FAF9019DD1E7022201A9200020F0AC
:100610005BFF0028CAD0F5E7988602009CD702004D
:10062000A4D70200C0900200070080FFD0BF0200E4
:10063000B8AC020038950200EC910200F7B5060054
:100640000F0000920193041E00D044683800431E3E
:1006500098412018043080001FF0D7FF0C4B050094
:1006600003600C4B5B684360009B8360019BC3602D
:10067000002E05D03100A2000831103027F068FBB1
:10068000002F02D00434A40067512800FEBDC046EC
:10069000FC830200742E002070B5060010200D00AF
:1006A00014001FF0B2FF034B466085600360C46016
:1006B00070BDC046C0830200F0B5802787B02B4DC7
:1006C00002907F422C78002C1CD063B2002B12DAEF
:1006D0006E787C40E4B2002E14D0013CE4B2FF2CD2
:1006E00002D101350135EDE704AB981D01210670FB
:1006F00006F09CFFF1E704ABD81D0121047006F061
:1007000095FFEFE70527029820F0AAFE0124BC42DE
:1007100027DA0025164E2200290030000DF072F86D
:100720006B4601901B79002B15D0631E1A0029001F
:10073000300003930DF066F8031E0CD1220029004F
:1007400030000DF02BF8FF22019B290013403000F0
:10075000621E0DF023F80135052DDBD10134E4B222
:10076000D5E7013F002FCED107B0F0BD4AEC020023
:100770001800002010B5C820FFF79EFF004810BDEC
:1007800098860200F0B587B0039205910D9A0399FF
:100790000500521A0CA9097820200C00844339D096
:1007A00030293BD00CA902910121802401911C40E9
:1007B00036D0D40FA4186410171B002C37DD260088
:1007C000019B0493B34200DD04966B68049A02997E
:1007D00028689847049BF61A002EF1DC039B002B37
:1007E00006D01A0005996B6828689847039BE4189F
:1007F000002F0CDDE419019EBE4200DD3E003200F8
:10080000029928686B689847BF1B002FF3DC200013
:1008100007B0F0BD074902911021C6E70649FAE783
:1008200001271F4001D11400C7E71700D6E70024B5
:10083000D4E7C046FAEC02000BED0200F0B593B02D
:100840001C0018AB20CB05901B780F0016000793F7
:10085000CB070BD48B0703D1854B0A689A4205D08E
:10086000380007F027F801274000074381231D4285
:1008700009D1079B302B06D11A9B1B9A934200DAB1
:100880001A9200231B93380021F01FFA0AAA1300C2
:10089000002806DBAB070FD52B231370123B04AAED
:1008A0009B18E1B2EA0615D5022E0CD130221A703F
:1008B0004A1C5A7002330DE013006A07F1D520225A
:1008C0001A701923EBE7082E3BD130221A70AA05C3
:1008D00034D4013300220AA81A701B1A2C20069364
:1008E000AB06DB1718400EAB0B9310230C931B9B2E
:1008F0000D92012B01DD40231D43402404ABDA752A
:100900002C400390029123D03B00019200960DAA47
:100910000CA90BA802F002FC037807002D2B00D0D5
:100920008EE004AAD3750D9B1B9A013B01370D93F2
:10093000012A00DD97E00026340035E00A000E327F
:10094000B7E7102EC6D130221A700A001732B0E76E
:100950000AAB019300963B000DAA0CA90BA802F06C
:10096000DDFB1B9B07002600012B1DDD0D9B1B9C47
:100970009C4200DA1C001A9BA3425EDD01261C1B70
:100980002E4001D02600002401239D432F330793DE
:10099000002C09D0103B0093002301941A00354924
:1009A0000598FFF7EFFE04006B0621D5172104AB75
:1009B000C9180B78002B0AD0002301220093019262
:1009C0000598FFF7DFFE1A9B2418013B1A93069B3C
:1009D000002B0DD0012301930023069A00930AA94E
:1009E0000598FFF7CFFE1A9B069A24189B1A1A93B4
:1009F0001B9B012B01DC1A9B1B931B9B0D9A0193E4
:100A0000079B3900009305982B00FFF7BBFE2418C5
:100A1000002E09D020230093002301961A001549C7
:100A20000598FFF7AFFE24180B980EAB984201D043
:100A30001FF01AFE200013B0F0BD00263400A3E71B
:100A40001B9B012B00DC76E70D9B1B9C9C4200DA74
:100A50001C00172304AA9B181B78002B00D001341C
:100A6000069BE41887E71B9C9C42F8DA1C00F6E71B
:100A7000C090020090020300F0B5060014000027A9
:100A80008DB00D002B78002B15D1A94217D30B7810
:100A9000002B00D148E14B1C049320230025302279
:100AA000082104200893049B1B78002B11D1069386
:100AB000013B07935FE0252BE7D00135E2E76B1A96
:100AC00004931A00306873689847049B2900FF1844
:100AD000DDE72D2B05D12C3B1D43049B01330493F3
:100AE000E1E72B2B01D1293BF6E7202B01D1054370
:100AF000F3E7212B01D10D43EFE7302B2CD110333D
:100B00001D430892E9E7069A4A43D318303B0693FF
:100B1000049B01330493049B1B781A00303A092A82
:100B2000F1D92E2B47D1049B5B782A2B18D0049B3C
:100B30000A210133049300230793049B1B781A00B6
:100B4000303A092A17D8079A4A43D318303B0793FB
:100B5000049B01330493F0E700230A210693DAE7AC
:100B6000049B02330493236804340793DB43079AFE
:100B7000DB171A400792049B1B786C3B5A42534187
:100B8000049AD31804931B780593002B00D1CBE073
:100B9000642B00D1A1E022D8502B29D00ED8453BA0
:100BA000022B00D8A9E001220499306873689847A5
:100BB0000137099452E001235B427AE7059B622BDF
:100BC0003CD057D8582BEED1231D0993069B019595
:100BD0000393089B029341230093313B7BE0059BE9
:100BE000712B53D00FD8672B00D886E0702BDAD149
:100BF000231D0993069B01950393089B0293612390
:100C00000093513B67E0059B752B5AD0782BEFD0B2
:100C1000732BC8D1231D24680993002C49D0079B4E
:100C2000013303D1200027F0D5F80790069B079ADF
:100C30000193089B210000932B000BE0231D0993D7
:100C40002368002B0ED0069B04220193089B384991
:100C500000932B003000FFF795FD3F180499099C85
:100C600001310EE7069B05220193089B3149009351
:100C70002B00EFE7231D099323680BA90B70069B3C
:100C800001220193089B00932B00E3E7231D0BA98E
:100C90002068099321F0CFF8079B0100013301D1AF
:100CA0000B9B0793069B079A0193089B00932B00CD
:100CB000D0E7069B06220193089B1F4900932B0057
:100CC000C8E7231D0993069B01950393089B029394
:100CD00061230093573B00220AE0231D0993069BE2
:100CE00001220393089B0195029361230093573BD4
:100CF000216830001FF00FF9AFE7072307349C434A
:100D0000230020686168083309931AF0E7FF079B06
:100D1000011C0293069B059A0193089B30000093E7
:100D20002B001FF065F998E738000DB0F0BDC04604
:100D3000E8EC0200EDEC0200F3EC020010B5040058
:100D4000431C02D0024813F001FA024B1C6010BD94
:100D50009C2E0020702E0020014B024A9A6470479E
:100D6000742E00209C2E002070B50D0006F006FEAB
:100D7000041C280006F002FE211C18F089FF051C47
:100D80001FF086F9011C281C18F050FE211C18F0D9
:100D9000DBFA0323020002209A43024B1043C018DF
:100DA00070BDC0460000808010B51FF071F90323AC
:100DB000020002209A43024B1043C01810BDC046E7
:100DC0000000808010B5074C002802D00868A042BF
:100DD00003D115F023F8200010BD06F097FD15F0A3
:100DE0003DF8F8E79886020010B5040006F0D4FE3E
:100DF00006F060FD002803DC0021064823F02CFEED
:100E000014F0E6FF20F084FF04220100200006F029
:100E1000D9FE10BDA0D30200F0B5060000248BB0AF
:100E2000194B1A48E15806F08BFA03AFE05104342D
:100E30001C2CF5D114230024734301930025AB002F
:100E4000F958134822F006F90135300020F008FB6C
:100E5000072DF4D1013DAB000D48F95822F0FAF806
:100E6000300020F0FDFA013DF5D20134082C03D109
:100E70000CF074FC0BB0F0BD01231C42DED10198D4
:100E800020F0EEFADAE7C04664860200208B02000A
:100E90001800002010B51920FFF7BEFF004810BD54
:100EA00098860200054B10B59A6C002A04D00022E7
:100EB000986C9A6402F02EFA10BDC046742E002081
:100EC0000F2310B51940012908D00300002909D0CB
:100ED000022909D120F01CFF030003E0044B002885
:100EE00000D1044B180010BD20F02DFFF4E7C046E0
:100EF000A4D702009CD70200F0B585B00C0007F023
:100F000057FF03AA070002A9200006F075FD029E04
:100F1000039B35001035AD00280001931FF075FBD1
:100F200004002C221030002126F02EFF67602700DD
:100F3000104BE6632360104B019EA3600F4B403DB6
:100F4000E3600F4B403763610E4B7519A3610E4B85
:100F5000E3610E4B23620E4B63620E4B6363AE4242
:100F600002D1200005B0F0BD01CE07F021FF01C77E
:100F7000F5E7C046E0C90200990F0000F90F000034
:100F8000A94D0000414E0000BD0F0000414F000080
:100F9000354D00003895020070B50C0005000B6857
:100FA00005495A681FF069F821682800403122007D
:100FB00003F092FE70BDC0462B6C0300136870B541
:100FC000002B10D10568EE6BB34200D170BD9C00C0
:100FD0002C19246CA14201D00133F5E702339B00A8
:100FE0001B581360F2E70249024823F035FDC04662
:100FF0001CED0200FCD10200F0B51700C26B85B0F9
:10100000CE19050001910393964206D0330025497D
:10101000254813F03DF802F07DF90021300003F07F
:10102000F1FE0400019B05609B001A000399083043
:10103000029326F08DFE0298BA0008302018002195
:1010400026F0A2FE029A039B94466344F7191E0001
:10105000019BBB4202D3200005B0F0BD306807F011
:10106000A7FE00210200EB6B0293029B994204D180
:101070000E490D4813F00CF8CDE78B00E818006C12
:10108000824201D00131F0E7E3189968002901D0CC
:101090000749EEE7726808369A60019B02330193B4
:1010A000D6E7C04630ED0200ACD6020069ED020082
:1010B0008AED020010B502491EF01EFF10BDC046A9
:1010C000B9ED020010B507F073FE0023064A99003F
:1010D0008958814205D001330C2BF8D1034811F017
:1010E00059FB180010BDC04668870200BEED020023
:1010F000094A70B51378002B0CD1084D2C78E4B256
:10110000002C07D10068013313702B7003685B68F3
:1011100098472C7070BDC046DA2D0020DB2D0020D2
:1011200010B504000430FFF7E3FF606824F096FF79
:10113000034B8000C3580620DB00184310BDC04697
:101140006887020070B504000800FFF7BBFF0500C8
:10115000201DFFF7CDFF606824F080FF024BA842FE
:1011600000D0024B180070BDA4D702009CD702002B
:1011700070B504000800FFF7A5FF0500201DFFF76C
:10118000B7FF0123AB40064A064811880B4200D145
:1011900005481188994311800022044B1A7070BDD4
:1011A000D02D0020A4D702009CD70200E42D0020FF
:1011B000F8B50430FFF79CFF124C13482378002B3E
:1011C0001FD020780021C0B203F01CFE01260022AF
:1011D0000E4F2378934212D915005308FB5C35401B
:1011E000AD002B410F252B40094D9B005B59062577
:1011F0009100DB0041182B438B600132E9E70023AB
:101200002370F8BDE42D002030950200DC2D002075
:101210006887020070B543885A1E0A2A1FD8012524
:101220002A009A400F490888024392B20E480A8069
:1012300002780F2A13D802780C4CEA40A25C067898
:10124000D2B20F212E420BD00A401B011343027869
:10125000DBB25208A35403780133DBB2037070BDD4
:101260008A43F3E7D02D0020E42D0020DC2D002060
:10127000F0B585B005001600080003AB02AA01A96D
:1012800024F08DF90398364FB84209D0032807D0CF
:1012900006F010FBB060002804D1324811F07AFA51
:1012A0000123B3600198B84229D10024B368A34256
:1012B00000DC6C1E0298B84225D1B368002B47DDD4
:1012C0002800002C2ADA641901D5B368DC1700283D
:1012D00034DA401901D501204042B368002B00DA0E
:1012E0000130B368002B2DDDA04200DA2000013B65
:1012F000706058425841C0B2346005B0F0BD06F08D
:10130000D9FA0400D6E706F0D5FAB368002801DB65
:10131000DA0F8018002CD6DB002B03DDAC42D6D9C7
:101320002C00D4E7002BD2D0A54200D86C1E002898
:1013300004DA4019D4D501204042D1E7A842D0D9DF
:101340002800CEE7002BD2D0A042D0DD601CCEE733
:10135000002C01DA0020B6E700208342E4D1C0E788
:1013600098860200CEED0200F0B5060085B01700A9
:101370001B2805D10A9A974209D0002005B0F0BD7C
:1013800019281AD01C281AD00A9A0A9717001A008E
:101390000B0011000A9A0192BA4200D901971D0070
:1013A0000C0000230093009B019A934209D10A9BF1
:1013B000BB4220D0E1D30120E0E71A26EAE71D2650
:1013C000E8E70295039401CD02CC06F021FA00284B
:1013D00002D0009B0133E5E71B2ECED0039B3000EB
:1013E0001A68029B196811F0DDF9044BC01A4342D8
:1013F0005841C0B2C2E71A2EDDD1BEE7A4D7020021
:10140000F0B51E0085B0039018680D00170006F0B7
:1014100069F97368019002930024022F0ED9012309
:10142000B268290006F01EFB0400032F06D0290035
:101430000123F268019806F015FB0500A54202D8C9
:10144000084811F0A7F9039AA3000299D05806F0B2
:10145000DFF9002801D10134F0E7012064002043C6
:1014600005B0F0BDE8ED02000023820708D1006856
:10147000044A0133904203D0034BC01A4342434114
:1014800018007047A88802006C880200044B88602E
:101490000B60044B08004B600023CB607047C046D4
:1014A000DCC50200C103020030B585B005000800AC
:1014B000694610F041FD0400200010F09FFD011E60
:1014C00002D1064805B030BD2B1D002218001FF0C8
:1014D00065FA0028F0D00248F4E7C046A4D702001D
:1014E0009CD7020070B5050010201FF08EF8040094
:1014F000074B696808C01FF047FAAB68E968A3604A
:101500006B68E0689A0026F023FC200070BDC0469E
:10151000A8880200F7B504000D0000268B0704D14F
:101520000B68214E9E1B73425E41AB68002B0AD1B3
:10153000002E03D01D4920001EF0DEFC1C492000B7
:101540001EF0DAFCF7BD002E03D01A4920001EF071
:10155000D3FC194920001EF0CFFC002701236A6844
:10156000BA4207D8154920001EF0C6FC002EE9D06B
:101570001349E4E7BA000192EA68B9005258002A18
:101580000FD0042A0DD0002B03D10E4920001EF0ED
:10159000B3FCEB68B90059580122200006F0BAF8F4
:1015A00000230137DBE7C0466C88020037EE0200FB
:1015B0003EEE020044EE02004FEE020062650300C0
:1015C0006415030051EE020010B5830707D1044BE8
:1015D00002689A4203D10349034823F03DFA10BD43
:1015E0006C880200FFED0200FCD1020070B50D0016
:1015F0000400FFF7E9FF2900201D01221FF0CEF9AA
:10160000004870BD9886020070B50D000400FFF719
:10161000DBFF2900201D02221FF0C0F9004870BD29
:101620009886020070B5060008680D000124FFF7D7
:10163000CBFFB44201D3044870BDA300E958286829
:101640001EF05CFE0134F4E79886020070B50D00D0
:101650000400FFF7B9FF2800002110F06DFC050021
:10166000280010F0CBFC011E01D1044870BD231DE1
:10167000032218001FF092F9F2E7C0469886020094
:1016800010B50400FFF7A0FF201D1FF015FA014858
:1016900010BDC0469886020010B501221EF05FFE04
:1016A000004810BD9886020070B504000D00FFF7D9
:1016B0008BFF201D022229001FF070F9002804D1A1
:1016C000034823F07AFF01F025FE024870BDC046B2
:1016D000DCD302009886020010B50400FFF774FF07
:1016E000201D1FF0CAF9002803D10249024823F047
:1016F000B3F910BD21EE0200DCD30200F8B50D00F5
:1017000001280BD0002803D002280BD0002004E0D1
:101710008B681448002B00D11348F8BD8B685B0020
:101720001843FAE7032400200C408442F5D10F4B04
:101730000E6820009E42F0D14F68A74203D10120DD
:1017400076003043E9E7EA68A3009958002906D0FB
:10175000042904D0022010F087FA40103618013412
:10176000EBE7C046A4D702009CD702006C880200B9
:10177000F8B5040010200D001EF047FF0600094BCD
:10178000210008C6070030001FF0FEF8A4002C1945
:10179000A54201D13800F8BD012202CD30001FF072
:1017A000FDF8F5E7A8880200F7B504000E00171E43
:1017B0002CD0FFF709FF194DB4422DD000210800AD
:1017C000FFF7D6FF00210500300010F0B5FB0190B7
:1017D000019810F013FC061E0CD1002F1CD0E068FD
:1017E0001EF042FF6B686360AB68A360EB680B4D53
:1017F000E36011E0201D002231001FF0CFF8002827
:10180000E6D031002800FFF7F1FEE1E78842D5D1AC
:1018100020001EF086FD05002800FEBD988602000F
:10182000F0B589B004000390029101920027FFF700
:101830001BFEB84207D13A0003AB012122481EF03B
:10184000E4FD04000137029D00262800FFF70CFE8E
:10185000B04207D1320002AB01211B481EF0D5FD7A
:1018600005000136019B002B05D00023AA680193D7
:10187000A36893420DD0154B06940493144B059323
:101880000023079304A81EF09BFD011E12D1012323
:101890000193002F02D02000FFF7F2FE002E02D0AD
:1018A0002800FFF7EDFE019B0A48002B00D10A48F3
:1018B00009B0F0BD2B1D002218001FF06FF80028A2
:1018C000E0D10190E5E7C046A8880200DCC502002F
:1018D000C1030200A4D702009CD7020073B50C001C
:1018E00015000091019200268B0704D10B68394E38
:1018F0009E1B73425E4132001F2868D817F028FAF9
:101900002810176767671C676767676767212D344B
:101910006767673B676767676740464A5358675D15
:10192000290020001EF00EFD0400200076BD2900D5
:1019300020001EF05FFDF7E7694602201EF03BFD28
:10194000F2E7002E04D069460220FFF76BFEECE7B9
:10195000290020001EF0ECFCE6E729002000002E04
:10196000E0D0FFF773FEE0E729002000FFF71CFF3F
:10197000002EDAD1D8E7694602201EF0F0FCD3E74A
:10198000012229002000FFF74BFFCDE701222100B3
:101990002800F8E72800FFF767FD002815D0A368A6
:1019A000AA68934211D1290020001EF05FFDBBE719
:1019B000290020001EF052FDB6E7201D002229005C
:1019C0001EF0ECFF044C0028AFD1044CADE700241E
:1019D000ABE7C046A8880200A4D702009CD702004B
:1019E000F8B5214E3568696801292DD9AA684B1EC2
:1019F000D05C0A2828D1002B01DC1C0009E0581E0D
:101A0000145C0A2CF9D00300F5E7105D202802D100
:101A10000134A142F9D8002B0BDD601C814208D1B2
:101A2000581E002805D00138175C0A2F0CD0202F33
:101A3000F7D05218023AE31A14789B083A3C6242F3
:101A400054411C19002C00D1F8BD084F0422390064
:101A500028001FF0F4F80421380005F0D9FD33699F
:101A6000013C04333361EDE7B00200201D14030094
:101A700010B520220021024826F086F910BDC0468C
:101A8000D42E0020084B10B54268186000209860E2
:101A900018750138D86008005A601A6199611FF002
:101AA000D2FCFFF79DFF10BDB0020020F8B503780F
:101AB0000400002B1ED0104D286E002804D02100F9
:101AC00026F07EF9002815D0200026F083F9471C67
:101AD00038001EF0A7FD061E0CD03A00210026F0AB
:101AE00037F92A00054B5C321968043B9960934230
:101AF000FAD12E66F8BDC046742E0020EC2E0020D0
:101B0000F0B5B84C02002068A568436885B0019321
:101B1000002D00D0FDE0531E042B11D863680199FD
:101B20008B4200D195E0012A00D12AE1022A07D197
:101B300023696268934200D94FE10122524288E052
:101B4000032A00D185E0042A00D12FE1052A00D123
:101B500007E1062A0ED12369019A9342AD416D42F5
:101B6000002DEADD2368290098682369C01805F074
:101B70004FFD1FE00B2A21D1019B2269991A1FF00A
:101B80001EF92368019A5B68934204D2130022690C
:101B9000981A05F073FD2268236951689068C91A84
:101BA000C01805F035FD236858682369C01A401B2A
:101BB00005F052FD23695D192561BEE70E2A13D198
:101BC000E368002BB9DB013BE3606268019B991A73
:101BD0001FF0F5F8E368002B18DB1633824A9B00F0
:101BE000D318996820680FE0102A16D1E368062BF5
:101BF000A3DC5D1C7C4A17339B00D318996800292D
:101C00009BD06368E56043601FF09EF863682269BB
:101C1000D61A22685568ED1A0AE0152A0CD12369F4
:101C2000626861689A1A1FF0D2F8236962689E1A86
:101C30000127002E2FDCA4E70D2A0DD16B481FF0E1
:101C400002FC20681FF065F86368C018FFF72EFFDC
:101C50000022100005B0F0BD01231B2A62D0082A23
:101C600001D07F2A20D121696268914200D864E7BF
:101C700000238668B618F75C202F13D101339F1814
:101C8000B942F8D80426032B00DC033E891B32003E
:101C90001FF09DF80127300005F0DEFC23699E1B34
:101CA000266178E00126F1E7092A28D163682269D4
:101CB0008068D11AC0184E4A03AB0EF0ADF9061E6B
:101CC00000D13AE70027431C0BD1A0691FF0BBFBF2
:101CD00063682269D11A22689068C01805F098FCE0
:101CE0004FE723692068F918039B01375A1C0392B8
:101CF0001A781FF052F8BE42F3D1350041E71300C5
:101D0000203B5E2B00D918E721691FF04FF8012511
:101D100037E7012D08D104234F2A03D002235B2A81
:101D200000D00023A36008E7022D20D11300303B30
:101D3000092B03D803232275A360FEE60023A360CA
:101D4000412A00D152E7422A00D139E7432A00D183
:101D500001E7442A00D1EBE6482A12D0462A00D0F7
:101D6000EBE60027019B22693E009D1A0EE0002150
:101D7000032D29D17E2A24D1237D312B01D0372B6D
:101D80000DD100252F00236962689E1A0023A360ED
:101D90009E4200DD7FE7002F00D1E1E6F1E61A0068
:101DA000FB25343A2A42DCD0332B0AD12169019B2E
:101DB000994206D201221FF00AF8002501272E00C1
:101DC000E4E700252F00FAE7042D04D1462AC8D005
:101DD000482AD6D0A5E7A160AFE6002501262F004E
:101DE00059E7C046B0020020742E00204F6803005F
:101DF0009485020030B507240278084DA2431400F0
:101E00000222224302707F22039C41602240D400C0
:101E1000028883602A402243028030BD07FCFFFF16
:101E200010B50B00072401782340A14319437F23F9
:101E3000017004990A4C0B40D9000388426023408A
:101E40000B430380039B04685905064BC90A2340D2
:101E50000B430360029B8360059BC36010BDC046BB
:101E600007FCFFFFFF03E0FF0139C9B2054B401833
:101E700080301970044A03781370044AD25C044B12
:101E80001A707047E62D0020E72D00201300030094
:101E9000E52D00200131C9B2054B40188030197082
:101EA000044A03781370044AD25C044B1A707047DA
:101EB000E62D0020E72D002013000300E52D002073
:101EC000074B984206D9074B1818074B4118C918F9
:101ED00008787047054B18184118054BF7E7C046BE
:101EE000A492000054FE02005B6DFFFF68EE02004A
:101EF0000083FFFF03002022F0B57F254F265F27D8
:101F0000803304001A7089B003007F3019780A000A
:101F10002A406F2A29D90A003A4019000133813139
:101F20000A709842F2D17F22BB4B1A702300643AA8
:101F3000FF331A70E4320292531CDBB204936B46F7
:101F4000B6481B7CB6490370049BE31880331B78AA
:101F50000B705B2B0ED19B22029B0A700133DBB20C
:101F60000370E254012009B0F0BD5F2AD5D90A0000
:101F70003240D2E72E2B13D10232D2B20270A21815
:101F800080321278A4480270A648825C0120024286
:101F900006D1029A0B701218D2B20292A354D7E162
:101FA00002209D4A13709F4AD25C104000D0A8E0E6
:101FB000002A19D19948203203780A70E318803337
:101FC0001A70029B0133DBB202936B461B7A0370DB
:101FD000029B782B01D8E254BAE19B23029AA354C6
:101FE0006B461B7C0B70BDE716007F2552B2AE43DB
:101FF0000E70002A03DB8C4B8C4A1A60B3E7413B1E
:102000008B4ADBB28B49D25CCB5C12021343039345
:10201000039B002101339BB218000393FFF750FF8D
:102020000306F5D50123002601277B4D2B703900CF
:102030000398FFF745FF7B1CDBB20193282862D190
:10204000002E00D02F702D780135EDB229000398B5
:10205000FFF736FF6B1CDBB2292857D17F2606938A
:1020600006990398FFF72CFF069B30400133DBB243
:102070003D284DD16A466A4B127C1870674B00268A
:102080001A706A46644B12791A70049B0593059B7B
:102090000199E31880331B7803980793FFF710FF2B
:1020A000079B9842B4D1019B0133DBB20193AB4251
:1020B00030D1002E03D06A46584B127D1A70049D11
:1020C000013FFFB2544B390003981F70FFF7F8FE31
:1020D000534E030600D509E1504B7F211870514B38
:1020E0001B5C1A005BB28A433270002B18DA4B4B30
:1020F000013DEDB21D70631980331B789842DFD02B
:1021000086E74D4B83E70126019F90E71D009DE781
:102110000693A5E7059B01260133DBB20593B6E7DD
:10212000307020281BD0232825D02E282CD02628FC
:1021300032D040284ED05E2856D02B285CD03A288A
:1021400000D030E1202629002000FFF78DFE344A20
:10215000137833401370B3D0304B1D78F3E7290068
:102160002000FFF781FE0023F356002B00DA4FE733
:102170002A4B1D78A4E729002000FFF775FE4022B6
:1021800033781342F4D143E729002000FFF76CFEB7
:1021900033781B07ECD43BE729002000FFF764FEEF
:1021A0001022337813403370E2D11C4B1B78E118B6
:1021B000803109783170482900D029E7013B17495F
:1021C000DBB20B70E31880331B789343432B00D0B2
:1021D0001EE7CDE729002000FFF746FE04223378F2
:1021E00013403370C4D113E729002000FFF73CFEF1
:1021F00033789B06BCD40BE7084B013DEDB21D7054
:10220000651980352B78452BB2D010229343492B8A
:1022100000D0FDE6ACE7C046E72D0020E62D00200B
:10222000E52D0020130003006400002054EE02009E
:10223000990003007F000300A59200006B1C934AE5
:10224000DBB21370E31880331B7891490B70452B78
:1022500036D1A81CC0B2231880331B788D4E337042
:102260008D4EF656002E02DB884B1D783FE0107035
:102270000B70522BF8D0532BF6D0442BF4D04C2BB0
:1022800008D10335EDB21570651980352B78592BBF
:10229000EAD0BDE6462B00D0BAE6EB1CDBB21370E9
:1022A000E31880331B780B70552B00D0B0E6043553
:1022B000EDB21570651980352B784C2BD4D0A7E67C
:1022C000492B00D0A4E6AB1CDBB21370E3188033BB
:1022D0001B780B704E2B00D09AE60335EDB21570CB
:1022E000651980352B78472BBED091E6059D6A464F
:1022F000019B03980133DBB201931279654B01997D
:102300001A70FFF7DDFD019B069A604F934221D1C1
:1023100000257F272E0001990398FFF7D1FD0300C8
:102320003B403D2B04D0029A0132D2B20292A35418
:10233000019A0132D2B2010600D4A3E0002E03D0EC
:102340006946544A09791170514A1370059B0493E8
:10235000049AF1E5504B7F211B5C4D4E1A005BB295
:102360008A4338703270002B08DA0135EDB26319F8
:1023700080331B783D708342B9D049E63070202805
:1023800016D023281ED02E2826D026282DD040282F
:1023900048D05E2851D02B2858D020263A2864D027
:1023A000252800D14AE73D4B3D4A00201A60DAE576
:1023B00029002000FFF76EFD0023F356002B00DB01
:1023C00052E725E629002000FFF764FD402233781C
:1023D000134200D048E71BE629002000FFF75AFD12
:1023E00033781B0700D53FE712E629002000FFF7EE
:1023F00051FD102233781340337000D034E73B781E
:10240000E118803109783170482900D000E60133A5
:10241000DBB23B70E31880331B789343432B00D02F
:10242000F6E521E729002000FFF734FD0422337888
:102430001340337000D017E7EAE529002000FFF7CA
:1024400029FD33789B0600D50EE7E1E50135EDB2B5
:102450003D70651980352B78452B00D104E710229B
:102460009343492B00D0D3E5FEE629002000FFF777
:1024700011FD074A13783340137000D137E7034B3F
:102480001D78F2E70192012645E7C046E62D0020BF
:10249000E52D0020E72D002013000300640000203C
:1024A0005EEE020010B50400002906D0044B8A6BD2
:1024B00003600968002311F057FE200000F02AFF96
:1024C00034D60200F0B5040087B003920293661878
:1024D000002A06D0023A222A03D9354810F05AF9C8
:1024E0000134B44229D220780BF0CEF9071EF7D17F
:1024F00023782B2B1CD10134311B200003AA20F0A0
:1025000099FE23181C0000250193B44217D3002F15
:1025100000D06D4201236D001D43019B9C422FD1D1
:102520002449039A244811F0B3FD0299FFF7BAFF3A
:102530002D2BE1D101340127DEE70027DCE72378EA
:102540001A00303A0092092A07D9202213431A00B0
:10255000613A192ADBD8573B00930399009B9942B3
:10256000D5D928000BF0E8F9002816D1039B5D436C
:10257000009BED186B006B400FD40134C5E70134AC
:10258000B44205D220780BF07FF90028F7D1C7E7D5
:10259000B442C5D1280007B0F0BD019B3A000593B5
:1025A000F11A05A8039B1FF0D9FB059C0500B4E7B1
:1025B000EA0003000D01030024D70200F0B5040077
:1025C0008BB00893431804920193019B9C4200D363
:1025D000F6E020780BF058F9071E38D123782B2B22
:1025E00037D101340590019B9C4200D3EAE02023BF
:1025F00022781A43692A33D10199A21C914200D84A
:10260000E6E062781A436E2A00D0E1E0A2781A432D
:10261000662A00D0DCE0E21DE51C914214D9E27884
:102620001A43692A10D122791A436E2A0CD1627991
:102630001A43692A08D1A2791A43742A04D1E2798B
:102640001343792B00D10535FF26F6051BE0013435
:10265000BBE705902D2BCAD12C3B01340593C2E773
:102660006E2A2ED10199A21C914200D8B0E0627866
:102670001A43612A00D0ABE0A27813436E2B00D03E
:10268000A6E05D4EE51C059B002B02D080231B06B7
:10269000F618A5427BD159498CE03D002B786F1C80
:1026A00018003038092834D8022E15D10A23029A8E
:1026B00053431B180293019BBB42EED800230493A3
:1026C0004DE00022079202924D4A25000692002218
:1026D000002603920993E1E717F01EFD051C012E69
:1026E0000DD1069917F0A2F9011C039816F02CFEE3
:1026F00043490390069817F099F90690DBE74149A2
:10270000039817F093F9291C16F01EFE002603907B
:10271000D1E7002E03D12E2B03D10126CBE7022EC9
:1027200016D0099A1A43652A12D1019BBB4256D989
:102730006B782B2B05D1AF1C019B9F42ABD002269F
:10274000B9E702262D2BA8D12C3BAF190793F3E74D
:10275000049A002A04D0202213436A2B13D13D008F
:10276000079B002B02D0029B5B420293029817F05A
:1027700089FC011C23481AF0AFF8039917F056F9A9
:10278000049F061C7FE700230493E9E70135019BC2
:102790009D4205D228780BF077F80028F6D17AE729
:1027A000019B9D4200D076E7089B002B01D1002FB2
:1027B0001AD01549154822F00DFF1099FFF772FE47
:1027C0000023059300230393002325000493CCE703
:1027D000059B002B00D15EE72500002656E7019BF4
:1027E000BB4200D157E769E7032302209E43084B11
:1027F0003043C0180BB0F0BD0000C07FD000030014
:10280000CDCCCC3D00002041B300030024D7020012
:102810000000808070B5050094B0002804D13F48C6
:102820001CF0FEFC14B070BD08A800F04DFD041EA5
:1028300019D12E68290004A8012211F001FE2300FD
:102840002200310004A80AF071FB04000320FEF707
:1028500075FA200022F0B5F801204042FEF76EFA2A
:1028600000F050FDDEE701204042FEF767FA0999CB
:102870002B4804F073FF099804F034FF2949040041
:102880000EF070FD0028CDD1274920000EF06AFD22
:10289000051EC7D1099C01AA6946200011F098FCC9
:1028A000009B022BBED902AA322104A803F0CEFA63
:1028B000019B1E495A6802A81DF0DFFB200004F0AE
:1028C00011FF1B4BC2689A4210D1236819495A68FC
:1028D00002A81DF0D2FBE368002B07D05A68002A3B
:1028E00004D02A00996802A804F014FF0320FEF720
:1028F00025FA04A81EF00DFA04F0D6FE04A81EF076
:10290000DCF901204042FEF719FA0B4B9A6C002AC1
:1029100000D187E700229A6484E7C0466B01030078
:102920009485020070D6020018D4020098010300BA
:10293000513F0100A1010300742E002070B5002555
:1029400037480CF0B7F9E120C0000CF0C3F9354965
:10295000354810F0DBFB0FF0C7F804F021FEFFF75D
:1029600087F813F05BFA314823F031FE20F0F9FBD1
:102970000DF000F800F084FA02F0BEFB0EF010FF3C
:102980002B4C2C48230088331D60FDF767FCFDF7B6
:1029900043FC0EF017FF284E3378012B10D1F8239B
:1029A0009B021A784D2A22D15A78502A1FD1F7203B
:1029B0005A8822490023400020F0E5FDFFF72AFF56
:1029C0003378002B28D101F03FF80028F8D01C48BC
:1029D0001EF039FDFDF730FC08220021194825F0D2
:1029E000D3F9230098348C331D602560A8E70023B9
:1029F00007211A0014480DF0C5F8011E04D0F72075
:102A000040000DF047FAD9E70122104917200FF0D6
:102A1000F9FD22F000F8D3E701F066F8D5E7C046EB
:102A200000400020A0290020CC020020402A0020E5
:102A3000742E0020E12A00004002002004E0030080
:102A4000AD010300F42E0020A50103003095020023
:102A5000F7B5194D194A2800062114F035FA184E19
:102A600028003200174925F00DF9174F00223800D1
:102A70001E2123F0B6FD154C390004233A22200014
:102A800013F0E2FB32001249200025F0FBF8052389
:102A900039000093220018330E4813F049FF32002A
:102AA0000D490C4825F0EEF82B00220009490B488F
:102AB00014F014F9F7BDC046402A0020108C020023
:102AC00000000020816E0100B82A0020A02900200B
:102AD000E9600100EC29002041650100342A002052
:102AE00010B50C4C200023F08BFB002806D00A4BBD
:102AF0001B78002B02D1200023F004FB0023074A9F
:102B00001370074A137013F033F80AF0DDFC0DF070
:102B10006FFF10BDEC290020EB2D0020EA2D0020D6
:102B2000DA2D0020C3790248002B00D101487047FC
:102B3000A4D702009CD7020010B50CF0DFFE0148BC
:102B400010BDC0469886020010B508680CF0D6FE8D
:102B5000004810BD9886020073B50D00022836D1DA
:102B6000012601A9686806F059FD76423400019BF0
:102B7000C318834212D101A9286806F04FFD7342A1
:102B8000734162426241DBB2D2B201990CF0FAFFAA
:102B9000002820D11049114821F05EFF0278722AE6
:102BA00001D0772A06D1611C0ED1723A54425441A9
:102BB0000130DEE7622A01D0742A05D1711C03D1ED
:102BC000743A56425641F3E705480FF0E3FD0126FB
:102BD00076423400CFE776BDC801030044D5020039
:102BE000BB010300F7B5CC1CA400070020000E00B9
:102BF00001921DF00AFD22000500054B476086602A
:102C000003600C3A01990C3025F0A2F82800FEBDB3
:102C1000488D020070B50400080004F04BFE05006A
:102C2000431002D00F480FF0B5FD0F49200008F007
:102C300047FC002807D0A02203216379D205C133C5
:102C4000FF339B009950012362799340A022D20563
:102C5000002D04D0A121C9000448535070BD04497F
:102C6000FAE7C046240203005CB102009886020025
:102C70000C05000070B50500080004F01BFE0B23D6
:102C800003410400DB0702D409480FF083FD28004C
:102C9000084908F015FCFF22A40092001440A0226D
:102CA0006B79D205C133FF339B0003489C5070BD44
:102CB000F601030054B102009886020010B50C49D9
:102CC000040008F0FDFBA022D205002805D0042155
:102CD0006379C133FF339B00D150A223DB00D0586E
:102CE0006379D840012318401FF012F810BDC04688
:102CF00054B1020010B5040008F0AEFB084B984236
:102D000002D0200008F0B6FBA0226379D205C133BF
:102D1000FF339B0098580007800F1EF0F9FF10BD8D
:102D200054B10200032370B50B4004000800022BCD
:102D300014D1194B0B40062B10D004F01FFE18F0D5
:102D40007BFF0022154B17F027FA18F005FF144BF4
:102D50000500984205D913480FF01CFD04F0AAFDA8
:102D6000F5E71149200008F0ABFB002807D0A022AE
:102D700003216379D205C133FF339B0099506079F9
:102D800029000EF04DFD002D03D10849200008F068
:102D900097FB074870BDC046070080FF0000E03F7A
:102DA000FF030000030203009CB102004CB10200CB
:102DB0009886020013B50A49040008F081FB05213A
:102DC0006846615615F058FE684615F07BFEA02354
:102DD0000021044ADB00D1501EF09AFF16BDC04608
:102DE0004CB102000070004010B5080004F062FD14
:102DF000FA239B0058430EF0EFFC002802D0024853
:102E00000FF0C8FC014810BDE701030098860200DE
:102E100010B5080004F04EFD0EF0DEFC002802D0D4
:102E200002480FF0B7FC024810BDC046E70103009E
:102E30009886020010B5040008F00EFB0C49884289
:102E40000DD00C4B98420AD0200008F039FBA0228C
:102E50000C216379D205C133FF339B0099502000C8
:102E600012F0D0FE044B002800D0044B180010BD17
:102E700084B102006CB10200A4D702009CD702000A
:102E8000A0230C220249DB055A5024315A507047C6
:102E90004407000010B5040004F024FC064B9842DF
:102EA00008D0064B984205D0054B984202D0054801
:102EB0000FF034FE200010BD44900200FC8E020092
:102EC000388F0200D7010300F0B5486887B00F00C3
:102ED00004F0F0FC041E02DA00200FF05BFCBB687B
:102EE000164A01939D186B1E9D41010002A81DF01A
:102EF000D3FE049E22000021300024F045FF3868F4
:102F0000EDB2C3070AD43300220029001EF0CDFE23
:102F100002A90B4805F0F4FE07B0F0BD43102000F5
:102F2000042C00D904200749019F00228F4200D0C1
:102F3000221AB21829001EF0D7FBE9E75AECFFFF6E
:102F4000049F0200A6130000F0B50C0087B0012218
:102F500003A9606804F068FEA3681349039A8B42D2
:102F60000DD10126049976424C1E01911419049941
:102F700000200D00002D05D11EF0E5FE0DE014002F
:102F80000126F4E7094F013DB84208D908481B184B
:102F9000581E8341D8B21EF079FE07B0F0BD2778E5
:102FA00000023843A419E5E7A6130000FFFF3F0025
:102FB0005AECFFFF70B546007508041C291C281C3C
:102FC00017F02AF800280BD11649281C16F0AEF885
:102FD000002808D01449154822F0FCFA00F09AF9AC
:102FE00013480FF0D7FB002C11DA002E12D0FF236C
:102FF000DB05E3189C22D20593420BD907F0C8F9F0
:10300000211C0500043020F070FD280070BDE30D88
:10301000DB05EFE7201C17F015F8012540000543FC
:10302000F3E7C046FFFF7F7F4902030080D502001F
:1030300062020300F0B50C00002585B011002000ED
:103040001E00009502232A000EF0BAFC0120AC42BB
:103050002BD0844231D13068204226D10323034053
:10306000AB4203D11C4A016891421ED01B4A024068
:10307000062A06D0002B0DD10268194B92699A429C
:1030800008D103A906F0CAFA00231A000399FFF732
:1030900019FA0AE0032302001A40022A07D1FF228C
:1030A000D20580189843FFF785FF05B0F0BD04F006
:1030B00001FC012340001843F7E703A9306806F03C
:1030C000ADFA04007068039F04F0F4FB2B000200CB
:1030D00039002000DBE7C046C0900200070080FFF7
:1030E000B99B0000F8B51F000B4B150059180139AA
:1030F000097815F041FE00260400B74204D00130E3
:10310000032115F039FE0600281E01D024F062FECE
:103110000334A4192018F8BD39020300F0B58DB0AE
:103120000A9214AA147815AA127806000F000792C2
:10313000DA0743D55D100023002D01DA2D236D42FF
:103140000693139A079B12992020FFF7CBFF3B6849
:103150000590834204D21DF058FA059B30603B6015
:1031600000213768059BFB185A1E11708D4241D013
:103170000A3C099208920B941299280015F082FEDD
:103180000B003033092901D90B9B5B18089A541E98
:103190002370079B002B4AD000282ED0A7422CD2A8
:1031A000099B1B1B032B06D16B461B7F013C237025
:1031B000A74222D2099405000894DDE79A0712D1AC
:1031C000244A196891420ED1079A02940392139AE5
:1031D00039000192129A00920A9A1EF02DFD040005
:1031E00020000DB0F0BD0023326813700A9A3468D5
:1031F0001360F5E79C1E30232370139B002B05D032
:10320000180024F0E7FD201A874220D3069B002BEC
:1032100005D0BC4203D96B461B7E013C237033684A
:10322000059A9B181B1B0A9A013B1360D8E7A7421B
:10323000E3D20028BFD1E0E7C2540133139AD25C35
:10324000002AF9D1069B0400002BE4D1E7E7002314
:10325000F4E7C046C09002001300144A10B5040001
:10326000934204D1012220000FF09CFA10BD104AB5
:10327000934201D10322F6E70020072CF6D10D4A34
:103280001A40062A0ED09A07F0D11A680A4CA242B8
:1032900008D00A4CA24205D0094CA24202D0094CE7
:1032A000A242E3D10A0007201900DDE79CD7020003
:1032B000A4D70200070080FFD0BF0200049F0200D5
:1032C00038950200EC910200C46005614661876197
:1032D0004146C16149460162514641625946816297
:1032E0006946C1627146816000490847F5320000B5
:1032F0000020C046024B9A68026098600020704728
:10330000742E0020024B9A6812689A607047C0467B
:10331000742E00200E4A9368002B01D11DF0FFF897
:10332000196858609160181CC46805694669876906
:10333000C1698846016A8946416A8A46816A8B4624
:10334000C16A8D4681688E4601207047FEE7C046FF
:10335000742E00200048704716FCFFFF004870479D
:1033600016FCFFFF82B007B591B2049205930529C0
:1033700009D01B2902D104A8FDF74CFF002003B09F
:1033800008BC02B0184704AB5B88062BF6D10822B4
:1033900006A9684624F0DCFC049A059B014813F05A
:1033A000EBFAEBE7342A0020034B044A083313609E
:1033B000034B1A607047C046FC900200D02A0020E0
:1033C000402C0020002803D0012807D0002004E072
:1033D0008B680448002B00D1034870478B685B0062
:1033E0001843FAE7A4D702009CD70200044B886078
:1033F0000B60044B08004B600023CB607047C04655
:10340000DCC502007106020000238168F0B5CA0F16
:10341000094C521852100E199A4201DC0748F0BDAF
:10342000C568F11A9C0089002C196D582768256021
:10343000C46801336750EFE7FFFFFF3F9886020043
:1034400070B583680D00416804008B4212D3C90037
:10345000C0681DF0F8F863680A495A00A368626002
:10346000D21A013352189B00E0609200C01800216C
:1034700024F08AFCA368E268591C9B00A160024802
:103480009D5070BDFFFFFF3F98860200F8B5070012
:1034900016004C10836812D5E41810D500240D4D89
:1034A00038002900FFF7CCFFBB68591E9B00FA6863
:1034B000181F8C4207DBA4002800A650F8BD9C42D0
:1034C000EDD91C00EBE7D318083B1B6801391350FA
:1034D0000300ECE79886020070B5002504008560C3
:1034E0001021C0681DF0AFF804232900E06063607C
:1034F000102224F049FC014870BDC04698860200A5
:1035000030B50C0085B0104B02AD0431009301388A
:10351000022301950EF084FA23680C4C9968012966
:103520000FD9D8680A4B029AC91889004118A242DB
:1035300000D100222D79074B002D00D1064B1DF044
:10354000A5F8200005B030BD109102009886020059
:10355000FFFFFF3F9CD70200A4D7020070B50C68A4
:103560000B00A1680200002903D11949194821F074
:1035700073FA2068012A27D05A68002304F072FAEF
:10358000E168A26886008B19013A1D680436A260C2
:10359000121A92008919180024F0E3FB0021A36895
:1035A000E0689A001150616804290BD95B009942C8
:1035B00008D949088900E0681DF045F86368E060B3
:1035C0005B086360280070BD01225242D5E7C04607
:1035D0007B020300A0D3020007B5009001910220F6
:1035E00069461DF0BBF8694601900220FFF7B6FF5F
:1035F00000480EBD9886020070B50E000D4905000A
:1036000000241CF079FCB368A34204D828000A49BE
:103610001CF072FC70BD002C03D0084928001CF07F
:103620006BFCF168A30001225958280004F072F8DD
:103630000134E8E70F6903002164030051EE020042
:1036400070B5032604000D000E4029D1174B0A68FF
:103650009A4225D183688A6899184368994210D99B
:1036600004318900C0681CF0EEFFAA68A368E0601E
:103670009B181A1D9B006260C0181022310024F0B4
:1036800083FBA368E9689800E3681818AB689A00A0
:1036900024F05EFBAB68A268D318A360044870BD39
:1036A000290020001DF063F8F8E7C046EC91020005
:1036B000988602000B4B70B5050003600C000800F3
:1036C000042900D204206860AC6080001CF09DFFDB
:1036D0006A68E860121BA40092000019002124F01F
:1036E00053FB70BDEC9102007FB50D00160012284F
:1036F0003ED005D8052819D007283FD0002434E053
:103700000300193B042BF9D893070DD1284B1268FD
:103710009A4209D1B36800938A68F368C968FDF7D3
:1037200023FE244C002820D1234C1EE00323002438
:103730001340A34219D11C001D4A3368934214D18F
:103740008B68B26898181DF02BF80400AB68E96824
:103750009A00C06824F0FCFAA868E3688000181892
:10376000B368F1689A0024F0F3FA200004B070BD49
:1037700011002800FFF764FF2C00F6E703A91000F2
:1037800004F0D6F80024A042EFD0039BA34200DA55
:103790000394AB68039858431DF002F8C368040013
:1037A0000093AA68039B0421E8681CF027FDDCE76E
:1037B000EC910200A4D702009CD70200F0B50327C9
:1037C00004008BB00E0010000F40002A33D1002FF0
:1037D0002AD1654B0A689A4226D104AAA068FDF74F
:1037E00047FD002802D161480FF0C6F90599049BF6
:1037F000A268E0685D1A521A9B0089004118920085
:10380000C01824F0AEFAA368AA00E818E3688000A4
:1038100018185242390024F0B7FAA3685D19A56060
:10382000534D28000BB0F0BD07A90220079408965D
:10383000FFF794FEF4E7042A2CD1A068002F1FD1D3
:10384000494B0A689A421BD107AAFDF711FD0028CF
:1038500006D107AAE168A0681CF0E3FC0500E0E7D8
:10386000079B0898C01A1CF09BFF8368E1689A00C8
:10387000079B05009B00C918C06824F069FAD0E7CF
:10388000002301003200206804F0ECF8E3688000B7
:10389000C558C6E7364D002F60D1334B0A689A42AF
:1038A0005CD103AA02A904F0A7F807AA3100A06816
:1038B000FDF7DEFC002896D0079B029A08999E1817
:1038C0000191761AE068002E27DDA368F11863687D
:1038D000994206D989001CF0B6FEA368E0609B19E6
:1038E0006360029A079BA1689B18F21A5218089904
:1038F000E0689B00890041189200C01824F031FA5A
:10390000029B03999A00079B9800E368181824F01B
:1039100028FAA3689E19A66083E79B000399C01844
:10392000920024F015FA0899A268E368521A8900F7
:10393000019359180798029B9200C018019B8000C0
:10394000181824F00EFAA368B200F018E36880009B
:1039500052421818390024F017FADAE70200310051
:1039600020001CF05EFF5CE704D10200900203001F
:10397000988602000023F0B52F4E93B0050006A8EC
:103980001400336001910127FFF79EFC2740031EBE
:1039900035D1E2062DD56A68A96811201FF0F3FD24
:1039A00005002E6829000125019A03A810F048FDA2
:1039B000A3082B400022310003A809F0B7FA040045
:1039C0000320FDF7BBF9200020F0FBFF012040425F
:1039D000FDF7B4F92C00FFF795FC002F24D0290047
:1039E000164803F015FE3C000121144803F010FEB8
:1039F0001AE0A306D5D5280020F0E2FDD0E701208B
:103A00004042FDF79BF9002F03D001210B4803F042
:103A1000FFFD079803F066FE09490DF0A3FC041EA4
:103A200005D03468002FDFD1200013B0F0BD079916
:103A3000044803F093FEF5E7D42A00208F02030028
:103A400070D602009485020010B586B0202102A82D
:103A500080241DF010F964001E481DF0F4FC0023C2
:103A60001D4803931DF0EFFC03F0BAFD0128F3D0CD
:103A700002280BD119481DF0E6FC02A81DF01DF923
:103A800001220020164B1A7006B010BD032802D187
:103A900000230393E8E7042804D0C1B202A81DF074
:103AA0004AF9E1E70F481DF0CEFC039B0193002B80
:103AB00008D10A481DF0C7FC02A81DF0FEF88020BE
:103AC0004000E1E71122012102A8FFF753FF204245
:103AD000C5D0D9E742030300756A03004F680300AD
:103AE000400200205D03030030B587B0202102A80A
:103AF00080251DF0C0F86D0037481DF0A4FC374844
:103B00001DF0A1FC0024364902A803941CF0B3FC6C
:103B100001280AD133481DF096FC02A81DF0CDF80B
:103B20002000314B1C7007B030BD022803D12D4856
:103B30001DF089FCE0E7032801D12A48E0E70428CA
:103B400008D128481DF07FFC02A81DF0B6F880209F
:103B50004000E8E7052827D124481DF074FC0394B1
:103B600003F03EFD6B46C1B2DC1D21700329E4D099
:103B700004290AD11B481DF066FC0121162202A867
:103B8000FFF7F8FE2842BDD0CDE702A81DF0D3F81C
:103B900023780D2B03D116481DF055FCE0E70121D9
:103BA000200003F035FDDBE7039B002BAAD002A821
:103BB0001DF0AFF80CF07AF900280BD00A2102A80A
:103BC0001DF0B9F80B4902A81CF055FC0328B4D02D
:103BD0000428ECD10021D1E791020300DB020300AD
:103BE000010303004F6803004002002006030300A6
:103BF000360303003D030300F0B58FB00692426820
:103C0000099394460368040002939B680430009370
:103C1000634403600E001CF011FE059060681CF008
:103C200023FE431C63600378A24A0193831C6360F4
:103C3000437800210093C31C63608378B50003932D
:103C4000031D6360C3782000049323001033A36036
:103C5000059B14309A1893000793C318E360079BE1
:103C60000C331A00089324F08FF8099B009A5B1913
:103C70000B93059B9B1A039A0A939D1A2F1D009A7A
:103C8000BF00E7190123B24264D2019A1A4207D158
:103C90003300009A8849894810F0FAF9FFF73AFB97
:103CA000009B03359900099BAD005918009B6519CD
:103CB000F01A01F0A7F8009E043F686000229642C7
:103CC00000D070E0069B002B03D1019B1B0700D4A2
:103CD000D6E002230026019A1A400992B24204D08B
:103CE00006981FF0F4FC060038600027029B0B9D2D
:103CF000DB680893069B9F425ED10A9B02980533BE
:103D00009B00E1180A00049D0C30002D00D080E0DB
:103D1000049A92008918079A2032A2188A4200D980
:103D200080E0143B0693009B089A9B00D3180793EE
:103D3000039B9D4200D27FE065680DA80D951CF0A5
:103D40007DFD28180578461CFF2D00D0A7E0666091
:103D50000FB0F0BD019A1A4205D00335AD00584BA3
:103D60006519043F6B60069B002BA7D1019B1B07C5
:103D7000A4D4009B049A9A1AB24212D8009A049BC7
:103D8000991A32008900009B9A4297D29300029DB3
:103D900058182818089D0069EB1AE31818610132B9
:103DA000F1E7330076E7099908989300C958C31AD8
:103DB000E3181961013282E7009B039800221B1867
:103DC0009C462968944505D8099B002B1CD1CA083C
:103DD0003C490EE0089B90001858884212D1059B80
:103DE000013B9B1A9B00E3185A69002A05D0CA08B8
:103DF0003549324810F04CF950E76A685A6101378A
:103E0000083577E70132DDE76A6830001FF098FC7B
:103E1000F5E71668002E02D1AE0086591660013D06
:103E2000043272E7081D0968002903D1121A9210A2
:103E30002649DEE7010071E7069AAB00D71AE719B9
:103E40003A69002A16D1082000996E180899B60020
:103E50008E190799C958019B03420DD0049B029803
:103E600004339B001858043000F086FC002803D06F
:103E700043683B6101355BE732681549D208B8E712
:103E8000039B002B02D013480EF048FE019B9B07BA
:103E900000D451E703981FF01AFC38604CE7ED435B
:103EA000059BED18AD00651968690AF04DFE686163
:103EB000300047E7FDFFFF3F30ED0200ACD60200C7
:103EC0003095020069ED02008AED020060030300F4
:103ED00092030300C203030001220020074B08499C
:103EE0005A600860A821DA60064AC9005A5006499B
:103EF0005A5004315A5005495A50704700A00040AA
:103F00000CAC0040FCFF0000440500004C05000024
:103F1000034B04481B78002B00D103487047C04670
:103F2000E92D0020A4D702009CD70200F8B5A826EE
:103F3000324A334BF600196813680420CB18C918AD
:103F40001160304A8C4612781B11170009112E4A55
:103F50002E4C2F4D002F48D0002B3ADA9051C31A27
:103F6000A920C000135081239B00002937DA591A79
:103F7000135151510123274CD3602378002B22D0B9
:103F80003F222548254B01688C331B6801310A40CC
:103F90009D5C1C4B1B78002B01D0803D6D001C23C9
:103FA000026062466B4308339B1A154A9B101360EC
:103FB0001F23194007D11A4B1A78002A03D0194839
:103FC0001970FCF751FA0123227804205340237022
:103FD000F8BDA9270433FF00D0519351C3E75351D3
:103FE00081239B00C9181151C4E7043390515351E8
:103FF000A9208123C0009B001350F3E7D82A00209A
:10400000E82A00204102002000A000404C050000EA
:1040100044050000E82D0020DC2A0020742E00203A
:1040200042020020D108020030B585B00122040010
:10403000080001A903F0F8FD029A202A00D92022E5
:104040000023019D934204D0E85CE118087101331C
:10405000F8E7014805B030BD9886020070B504004D
:104060000800150003F026FC1F2802D90C480EF0AA
:1040700091FB002D02D10B480EF050FD2418042DA9
:1040800004D1012023795B00184370BD280003F0A0
:1040900011FCFF2801D90448E9E720710348F4E73F
:1040A0001B0403002F0403004C1703009886020032
:1040B0000123A022834010B5134CD20513510300F5
:1040C000C133124CFF339B009C50114B8900C9181F
:1040D000A223DB00CA580F4C00022240CA50F8222B
:1040E00052011040C022CC589202224310430322B6
:1040F000C850CC58084822432043C850C046C04648
:10410000C046CA5010BDC0460C05000003030000A5
:1041100000600040FFE0ECFF031F0000A0221E2112
:10412000114BD20070B59C58104D8C439C50A32469
:10413000E4001D510E4C0F4D0F4E5C5104355E5185
:104140000E4D80005C51A5240D4DE4001D51084C1E
:104150000C4D00190C4C185104341D510B4C1851C6
:1041600098580143995070BD00F0014040A10040B3
:10417000006000401C05000044A100402405000030
:1041800048A100404CA100402C050000340500006F
:1041900010B504000A4907F093F90A4BA0211C60EE
:1041A00001236079084A8340C9058B500021FFF73D
:1041B0007FFF0020FFF7B2FF0022044B1A7010BDF2
:1041C0007CB10200E02A00200C0500004102002022
:1041D00070B50D000400134E2800310007F070F98F
:1041E0003100200007F06CF90F4BA0221C600F4B30
:1041F000D2051D60607901242100814026000C4B0E
:10420000D15069798E400021D650FFF751FF68796F
:104210002100FFF74DFF2000FFF780FF054B1C70CA
:1042200070BDC0467CB10200E02A0020E42A0020D4
:104230000C05000041020020F8B50025FFF74CFEF8
:10424000214B280090331D60FCF7DCF8A0221E20D3
:104250001E4B1F491D701F4BD2001D601E4B1F4C73
:104260001D608B581E4F83438B50A223DB00E25806
:104270001C4E3A40E250E2581B493243E2500122C0
:10428000E5501A4B186843799A401300A022D205D2
:10429000535007F0FFF8164B1B78AB4213D0154B69
:1042A0001149E2581740E750E25816430122E65000
:1042B000E550114B186843799A401300A022D205AB
:1042C000535007F0E7F8F8BD742E0020E92D0020C8
:1042D00000F00140D82A0020E82A002000600040B9
:1042E000FFE0ECFF001F03000C050000E02A0020A7
:1042F0004102002014050000E42A0020F0B53E4EE3
:104300008DB0330090331B680500002B03D1FFF7FD
:1043100093FF0DB0F0BD002801D00EF021FF6846DC
:10432000FEF7D2FF002822D13300903318680DF039
:104330003DFE0400FEF7E6FF002D01D00EF01AFF4F
:104340002E4B20221D6833006D118C3301356D0119
:104350001B6815405D19002C2DD1903621002800D6
:10436000346023F011FD0122254B1A70D1E7002D96
:1043700001D00EF0FFFE019B224918680CF0F2FFFD
:1043800000240500A042DBD1019F380003F0AAF908
:104390001D4B98420BD12900012000F033FD2A006B
:1043A0000400F8601F21194804F0E0FCA060019BA4
:1043B0000024B364C4E7200003F094F9144B98423E
:1043C00009D0330000229033124913481A6021F0BB
:1043D00001F9B0649DE763682B60A3686B60E368D4
:1043E000AB602369EB6063692B61A3696B61E3696F
:1043F000AB61236AEB61B6E7742E0020DC2A002053
:1044000042020020F8D5020090D40200E903030024
:10441000D092020009040300ACD6020010B5FFF7E9
:104420000BFF014810BDC04698860200F0B589B068
:104430000493734B03901B780E001500002B01D0E2
:10444000FFF7FAFE6F4C8C342368002B06D16D4ABF
:104450004020903213601CF0D8F8206080226A4B14
:10446000D200DA670122694C694BE250FFF734FD54
:104470000023684AF021A3500432A3500832A3500D
:10448000C22209039200A150634F093AFF3AA35098
:104490000594BE4200D0A3E0B54200D09DE05F4D40
:1044A00007AC280007F000F8002805D001235C497C
:1044B0002800237007F004F85A4D280006F0F4FF96
:1044C000002805D0012356492800637006F0F8FF44
:1044D000554D280006F0E8FF002805D0012350497B
:1044E0002800A37006F0ECFF002307AA5F1C9B5C6A
:1044F000002B39D04D4ABB00043BD458A0220321E5
:104500003D006379D205C133FF339B00995007AB5F
:10451000EB5C002B26D00426444BAA00D358019311
:1045200001226379A0219A40A123C905DB00CA506A
:10453000019B0533180002931CF0AAF9012811D140
:104540006379A02198403A4BC905C85002981CF0E5
:104550009FF9002806D1013E002EE1D1019949E0E2
:104560000225D4E7022DFBD10123022FBDD12B4818
:10457000FEF790FCFFF70CFE002103980DF0DCFC29
:10458000002501243F221F4B802190331860294BC6
:104590001D70294B1C70294B1A601A4B12198C3351
:1045A000186823F0F1FB2800FFF7A8FE244B144EF7
:1045B0001C60059B50221C60224928003470FBF7C8
:1045C000EDFE049BAB4219D00E4B3278002A15D079
:1045D0009A6C002A12D120BFF7E71B480EF09EFA12
:1045E0003000FEF757FC0400BD42C3D02800FEF7A0
:1045F00051FC01002000FFF7EBFDBDE709B0F0BD65
:10460000E92D0020742E002004E100E000A000400D
:10461000FC0F00000405000098860200748F020061
:104620004CB10200BC8F0200CC8F02009C920200B1
:104630000C050000E82D002042020020DC2A0020AA
:104640000CAC00402D3F00005404030010B5084B93
:1046500086B002AC0093019404230DF0E1F90298B6
:104660002379E268A168FFF7E1FE024806B010BDB9
:10467000A892020098860200014B1878C0B27047D9
:10468000E92D002010B524201BF0BFFF0400044BCF
:10469000202208C0802123F077FB200010BDC046F7
:1046A000D0920200F8B5070008000D00160003F0D4
:1046B00019F8304B98425BD1781F0F2858D814F066
:1046C00047FB0808325757575757575757575730D0
:1046D0003055FFF7D7FF04230400EA5CE2540133AE
:1046E000242BFAD1300002F0FDFF224B98423FD13B
:1046F0000121052F02D0122F00D002390422FF2001
:10470000B35CA55C803B4B435B19FF2B03D90500D1
:10471000DB179D432B00A3540132242AF0D1200043
:10472000F8BD2C00DEE7FFF7ADFF04230400EA5CD0
:10473000E2540133242BFAD1300003F01FF90F218A
:104740001CF0CBF82100FF25221D24311378803B7B
:104750004343DB138033FF2B03D92E00DB179E432B
:104760003300137001329142F0D1D8E72C00E3E717
:104770000024D4E7D0920200F0B587B0009202780E
:1047800004000F00930703D5009B002B00D0F5E039
:10479000D307DB0F0ED07A4B3B40062B43D00323CD
:1047A0003B4003D177493868884203D0009B012BF6
:1047B00000D0E3E0019353075FD52368A568DE08C6
:1047C000F600AE19B54230D3009B012B00D0D5E0E6
:1047D0002368D9086368994210D104316160A068E8
:1047E000C9001BF030FF23686268DB08D21ADB00C7
:1047F000A060D200C018002123F0C6FA0721236868
:10480000DD086A1CD2000B4013432360A368ED004F
:104810005D195B4B2F601F40062F21D001222378AA
:10482000934323701CE00123C4E72868B8421AD1DF
:10483000009B022B14D129002368721BD210083B65
:10484000013A6F6828002360D200083123F089FA0A
:104850002368DD08A368ED005D1900236F602B60FD
:10486000280007B0F0BD019B002B04D1390002F0F5
:10487000CFFF0028DCD10835A4E76368002B05D101
:10488000009B012B7AD1200000F07EF83C4B3B408E
:104890000593062B27D1F8081DF0BEFA0390616836
:1048A000039814F0EFFA00260491049B0293029BF4
:1048B000DD00A3685D19286800281BD1009B012B2F
:1048C0005CD107212368DA080132D2000B40134380
:1048D0002360002E00D0350000236B60059B2F6005
:1048E000062B9BD1BCE7390002200DF0BDF9431027
:1048F0000393D4E7042803D1002E1DD12E001BE022
:10490000B84211D1009B022BAAD123680298083B20
:1049100023600130616814F0B5FAA368C900CB5870
:10492000002B25D12B609BE7019B002B04D1390084
:1049300002F06EFF0028E5D102986168013014F0A2
:10494000A1FA049B02918B42B1D1009B012B15D19E
:10495000002E0FD0236835000833236000237360D6
:10496000059B3760062B00D17AE72378009A57E73A
:104970000423D7E7200000F007F890E700256FE751
:10498000070080FFD0BF0200F7B543680400019321
:104990005A1C002317495800455AAA4206D9013328
:1049A000222BF8D15508AD18213B1D43E800A7681C
:1049B0001BF03DFE0723226865601340012200259D
:1049C000236013432370A060019B9D4203D13800F4
:1049D0001BF04AFEF7BDEE00B959002908D00429A2
:1049E00006D001222000FFF7C7FEBE19736843609E
:1049F0000135E9E7D4E60200F8B5050000230468B4
:104A000086681449621C5800405A824206D9013314
:104A1000222BF8D15008821801201043002328606F
:104A20006B6080001BF003FE3700A400A860A4198F
:104A3000A74203D130001BF017FEF8BD39680029EA
:104A400005D0042903D0012228001BF0A7FF04375A
:104A5000EEE7C046D4E60200F7B545681600A86840
:104A60001F0001911BF0FAFE0400A8681BF0FCFE79
:104A70001BF0F4FE030003205843073400198000A4
:104A80001BF0C3FD074B040003606B6832004360FA
:104A900000238560C36001993B000830FFF7ACF844
:104AA0002000FEBD5C93020070B5050088680C0014
:104AB0001BF012FA23000200024928001BF0DDFA65
:104AC00070BDC0469604030010B5024820F075FD85
:104AD000FEF720FCF8D5020010B5040008201BF0FA
:104AE00094FD024B4460036010BDC04698930200E1
:104AF000F7B5C56804001E00002D02D11D60280016
:104B0000FEBD03691830834205D1184B994203D08A
:104B100017480EF003F819602000164F11007B684B
:104B20000830019363687B6000F000FB019B050087
:104B30007B60012807D002280CD00023E3602369A2
:104B40001B683360DBE723691B683360002BD6D119
:104B5000E360D4E7A36898681BF080FE002305306B
:104B60008000E36024186368EBE7C0469886020083
:104B7000B4040300742E002013B501ABFFF7B8FF97
:104B800001280ED0104C02280DD0019BA34219D051
:104B9000002B17D001AA01210C4820F008FDFEF7D8
:104BA000B9FB019816BD019802F09CFD07490CF075
:104BB000D9FB002801D10198F1E701980FF034FAF0
:104BC000A042F8D10020EDE798860200F8D5020057
:104BD00010B50B00022808D14A6805491868FFF78C
:104BE000CBFF002803D1FFF76FFF8A68F5E710BD00
:104BF0009886020010B500220149FFF7BDFF10BDE5
:104C00009886020013B5114C01AB114A2100FFF741
:104C10006FFF012803D0022805D0200016BD0D49E2
:104C20000D481FF019FF019802F05CFD0B490CF0D4
:104C300099FB0028F1D1019802F054FD08490CF0CD
:104C400091FB0028E9D10198FEF764FB98860200E9
:104C500064D1020076040300BCD50200ECD202004D
:104C6000F8D5020030B58DB005006846FEF72CFB84
:104C7000011E10D12A1D01201FF0B2FE0122EB6897
:104C800004005B1001335B001343EB60FEF73AFB5B
:104C900020000DB030BD0198054A0368934205D04D
:104CA000044A00249342F3D0FEF734FB0024EFE7DC
:104CB000F8D50200A0D30200044B0B6003684B60E0
:104CC000436808008B600123CB607047D4930200D7
:104CD000004870479C940200F7B501911149040007
:104CE000170000251BF008F97B68AB4204D80E4979
:104CF00020001BF001F9F7BD002D03D00B49200067
:104D00001BF0FAF8019BAE009A5909492000BE1920
:104D10001BF0B3F90122B168200002F0FBFC013561
:104D2000E2E7C0462A7003006415030051EE02005A
:104D300059050300044B88600B60044B08004B606E
:104D40000023CB607047C046DCC502001B0B02008D
:104D500070B50E001049040000251BF0CDF87368F3
:104D6000AB420AD8012B03D10C4920001BF0C4F838
:104D70000B4920001BF0C0F870BD002D03D009497D
:104D800020001BF0B9F8AB00F3180122996820004D
:104D900002F0C0FC0135E2E72A7003005D05030064
:104DA0006415030051EE020070B50D0001281ED0FD
:104DB000002803D0022807D0002004E04B680E48EA
:104DC000002B00D10D4870BD00260D4C6B689E4233
:104DD00003D3012064002043F5E7B300EB18996882
:104DE00002200CF041FF401024180136EEE74B681A
:104DF0005B001843E7E7C046A4D702009CD7020037
:104E00003095020070B506000D000B48002E0DD045
:104E1000B41CA40020001BF0F8FB084B46600360A4
:104E2000002D03D00023083CA34200D170BDE958F7
:104E3000C21891600433F7E73095020038950200FC
:104E4000F0B5070085B00E0014001D2803D9002519
:104E5000280005B0F0BD01238340324D1D4044D1F0
:104E6000314A13421FD1F82292051342EFD020009D
:104E700002F038FC2D4B426A9A4205D020002C49A2
:104E80001FF01AFD041E0CD02300310062680833A5
:104E90000092083172683800FCF766FA254D002848
:104EA000D6D1254DD4E7200002F01CFC20490CF09F
:104EB00059FA0028CBD07368626829009818FFF768
:104EC000A1FF07003100736808379A000500083118
:104ED000380022F03DFF21007068636880003818B8
:104EE0009A00083122F034FFB2E703A9100002F063
:104EF0001FFD0025A842ABD00398104D0028A7DD68
:104F0000736800215843FFF77DFF05002B00300038
:104F1000083300930830039B726804211BF06EF97C
:104F200096E7C0468000100020000400354D0000C8
:104F300038950200A4D702009CD7020030950200E9
:104F400030B5040085B0042A2DD1032540680D40FA
:104F50001FD1164B0A689A421BD101AAFCF788F9A7
:104F6000002802D112480DF007FE019B029829008B
:104F7000C01AFFF747FF050021006B6808319A004F
:104F8000019B08309C00091922F0E2FE280005B0C0
:104F900030BD0A0000230100206802F063FD0230EA
:104FA00080000559F2E70025F0E7C04604D1020071
:104FB0005F050300F0B50C001100002285B01E0053
:104FC0000092012320000CF0FBFC184D002C1ED099
:104FD0003568AB0703D1164B2A689A4217D01020C8
:104FE0001BF013FB0021040030680CF0A5FF002526
:104FF0000426039003980DF001F8071E0AD128003B
:105000002100FFF7FFFE050020001BF02DFB28000C
:1050100005B0F0BDAE4205D8F10020001BF013FB37
:1050200004007600AB001F510135E3E73095020024
:105030003895020010B5406821F0DEF8024B0028D8
:1050400000D1024B180010BDA4D702009CD702006B
:1050500010B5406821F0D8F8004810BD98860200CD
:1050600030B505008BB0FBF7E7F8144C200021F0B9
:10507000A9FA686811F0CCFB200021F0A8FAFBF730
:10508000CBF81EF06EF81BF071FD0400696803A8F0
:1050900021F0ACF80A4B20000693039B0793049B76
:1050A0000893059B019309931FF077FC20001022C1
:1050B00006A90CF05BFC03480BB030BD402A002071
:1050C00055BA11C098860200F8B5094E3378002B06
:1050D0000CD1084D2C78E4B2002C07D101270068D0
:1050E0002F7003685B6898472C703770F8BDC04616
:1050F000EA2D0020EB2D00201FB51BF037FD054BDE
:1051000002689A4204D104300EC8034811F0BEFB75
:1051100005B000BD55BA11C0EC29002010B54A6891
:1051200001491AF0AAFF10BD2B6C0300F0B503680B
:1051300099B00700986807911BF090FB01220F219E
:10514000431E0430800004933B18029304330393FE
:10515000FB6806A81A4009180A70032293430A93B1
:105160000CA8FEF7B1F8031E00D041E3079A7D6852
:10517000BC68002A00D19EE22A785E2A00D19AE219
:10518000079807930DF020FA04000AE0D64B6360FD
:105190000434D64B9A6C002A00D18BE200229C6C1E
:1051A0009A64FEF7AFF80D9422E3D14BEFE7D14BB1
:1051B000EDE77F216B785B06DB173278DB011000AF
:1051C00052B2084003430136002AF6DB01225B009D
:1051D0001343DCE700237F213278DB01100052B259
:1051E0000840C3180136002AF6DBDB000622EFE791
:1051F00003220336964308CEC9E70023C7E70023FE
:105200007F213278DB01100052B20840C31801360A
:10521000002AF6DB9B005B42029A9858002800D0D7
:1052200028E3B549B54820F0D5F9ADE700237F2143
:105230003278DB01100052B20840C3180136002A50
:10524000F6DB029A9B005B4298581EF0BAF9E5E73C
:1052500000207F223378C00119005BB2114008188A
:105260000136002BF6DB251D0CF0A0FC60603EE053
:1052700000207F223378C00119005BB2114008186A
:105280000136002BF6DB251D0CF05EFCEEE700215D
:105290007F223378C90118005BB2104041180136F3
:1052A000002BF6DB20681FF0AAFB206071E70021CD
:1052B0007F223378C90118005BB2104041180136D3
:1052C000002BF6DB220001CC0CF0EAFD61E70020A8
:1052D0007F223378C00119005BB2114008180136F3
:1052E000002BF6DB21000839251F0CF02BF82C00D1
:1052F0004FE7251D0CF072FCB8E7251F042221683A
:10530000286802F05FFC2860F1E700237F213278F3
:10531000DB01100052B20840C3180136002AF6DB48
:105320009B005B42029A21689950F8E000237F219C
:105330003278DB01100052B20840C3180136002A4F
:10534000F6DB029A9B005B4221689858251F1EF0ED
:105350003AF9CCE700207F223378C00119005BB214
:10536000114008180136002BF6DB2168251F0CF0D0
:105370004BFCBCE700207F223378C00119005BB2F0
:10538000114008180136002BF6DB2168251F0CF0B0
:1053900053FCACE700217F223378C90118005BB2CF
:1053A000104041180136002BF6DB231F1A682068D5
:1053B0000CF09EFD083CECE62200231F083A216811
:1053C0001268186802F0FEFB0C3CE2E600237F2125
:1053D0003278DB01100052B20840C3180136002AAF
:1053E000F6DB029A9B00D31A1A68002A00D118E74C
:1053F00000221A60CDE600257F223378ED011900E6
:105400005BB211404D190136002BF6DB029BAD005B
:105410005D1B28681EF0D5F8002800D101E70021A7
:1054200028681EF0D0F8B4E600207F223378C0014F
:1054300019005BB2114008180136002BF6DB0CF0A6
:10544000EFFBA6E600207F223378C00119005BB293
:10545000114008180136002BF6DB0CF0F9FB98E63A
:10546000236894E62368A360231F1B6863600834E5
:105470008FE6231F196822682160BAE7221F13688C
:10548000216823602300083B18681060196080E6DB
:10549000737832781B021343ED18194BEE1878E637
:1054A00033787678206836021E43019602F040FB7E
:1054B000EE1C251F2C00002800D16AE6114A019B32
:1054C00094466344F61864E63378767820683602AA
:1054D0001E43019602F02CFBEE1C251F2C00002819
:1054E00000D056E6EAE7C0469CD70200742E0020A2
:1054F00098860200A4D7020090050300CCD40200D5
:105500000380FFFF0080FFFF337876782068360243
:105510001E430196EE1C02F00BFB0028CED1043C8A
:1055200037E633787678206836021E430196EE1C03
:1055300002F0FEFA0028C1D0F1E7F121266822002E
:10554000300049000CF0ACFC2300F02108331A00B5
:105550003000490001930CF0A3FC0021019A0800DF
:105560001FF03EFAAB786A781B0213430A9A0F21A8
:105570000C320A920A9AEE1CF3181360022206AB50
:10558000C9180B780A9D1A43231D13436B6000232F
:105590000A9A0B709360A060019CFAE525002368CD
:1055A000B54A0193083D934209D16360A3602A0084
:1055B000002103201FF014FA019B2B6097E60122C3
:1055C000019B134005932AD0231F1A680592019A64
:1055D0005210012A0DD1A84A0C3C1A60E2602261E7
:1055E0000021220003201FF0FBF9059B2360032309
:1055F000E3E72A68002106929F4A03202A601A6086
:105600002300103B22601A0001931FF0E9F9019B6F
:10561000069A0C3C1A60059B23600523CDE7019B8D
:105620006360180002F05EF8934B2060A3602A00CC
:10563000059903201FF0D4F902F07AFA00280DD062
:1056400001228D4B06A92B600A9B5B6813400E322A
:10565000521813700A9B0C3B0A9348E66368ACE748
:10566000737832781B021343844AEB189B186360EB
:10567000EB78083423600F267F210220012506AA3B
:105680002368B6180B4206D1221F1668002B00D1E2
:1056900090E6183C7DE50A9A013B526802426FD0C1
:1056A000220008C20523636014000A9B1E680A9B3F
:1056B0000C3B0A9335007D602B786E1C1800103867
:1056C0005A2800D905E313F04DFB61FD70FD72FD12
:1056D000040374FD040385FD93FD98FD9AFDB1FD5F
:1056E000C3FDD3FDE2FDF2FD02FE14FE18FE20FE16
:1056F00031FE45FE55FE65FE77FE81FE96FEAFFE4D
:10570000BDFE0403040304030403CBFECDFE2AFF05
:10571000D4FED9FEE3FEEBFEFFFE1FFF2CFF0403C9
:105720000403040338FF69FF630063008000AE00D8
:10573000BF00DD00DD00CBFFB3000403040304035E
:1057400004030403040304030403E900FB0004034B
:105750000D011C0104032501520137017301890168
:10576000380268029602800204039E01A901B40176
:10577000C101CD01EA0104022102CE02ED02FE02C6
:105780000A9A52682A4032700A9A0C3A0A9279E7C9
:10579000737832781B0213430A9AEE1C0C320A9279
:1057A0000A9AF31813602B7806A9403B5A425341DA
:1057B0000F22521810785B000A99034323434B6071
:1057C00000230A9913708B60E3E423682A4A93420A
:1057D00000D1A4E6DA0707D55B10DBB2043C012B4D
:1057E00000D048E70222CEE1FDF78CFD23680D933F
:1057F0000D9B234918680BF0B5FD002800D1AEE2DF
:105800007A68002A00D1AAE21378432B00D098E2EC
:10581000937850781B02D11C0343CB187B60BB6884
:10582000103BBB609CE4002120680CF085FB3CE54C
:105830002500210020680C350CF07EFB844200D14D
:1058400055E50023236011E52000337876780C3885
:105850003602BC601E4303680196EE1C002B02D189
:105860002300083B18680CF0A1FB002802D1103C73
:10587000019B27E660608BE4988602000380FFFFAF
:10588000F8D5020001220A9B06A95B6813400E327C
:10589000521813700A9B0C3B0A937AE400207F2273
:1058A0003378C00119005BB2114008180136002B93
:1058B000F6DB8100641A04342100FFF7A3FAF4E454
:1058C00000207F223378C00119005BB21140081814
:1058D0000136002BF6DB8100641A043421001AF033
:1058E00082FFE2E400207F223378C00119005BB21E
:1058F000114008180136002BF6DB251D1DF0E7FED0
:10590000B4E42500231F083D1A68216828681DF0AB
:1059100017FFECE400207F223378C00119005BB24E
:10592000114008180136002BF6DB8100641A04349C
:105930002100FBF71DFFB8E400237F213278DB0153
:10594000100052B20840C3180136002AF6DB251FAA
:1059500028682168022B03D1CC4A0EF0E9FAD2E480
:10596000083C0A00010020680EF0E2FA9DE40023E2
:105970007F213278DB01100052B20840C318013693
:10598000002AF6DB9A08920052421059032221683D
:105990001340251F002B02D1FDF752FDA7E4012B78
:1059A00003D12A681DF0CCFE04E51AF028FD9EE420
:1059B00000257F213378ED011A005BB20A405519AA
:1059C0000136002BF6DB2200290020680CF0ACFC2D
:1059D000AF4B5D19AD006419FFF7DBFB00257F219C
:1059E0003378ED011A005BB20A4055190136002BDD
:1059F000F6DB2200290020680CF0EAFCFF222B0ACB
:105A000013401540E5E70322F31C93430022186876
:105A100011001E1D251D1AF044FD27E40322F31C6E
:105A20009343251F2268296818681E1D1AF039FD46
:105A300069E40322F31C934319795E1D8A00A41ABA
:105A40000434220018681AF048FD2EE40322F31CE7
:105A5000934318798021C243490092005E1DA41827
:105A60000143EEE700207F213378C0011A005BB2CA
:105A70000A4010180136002BF6DBFF25FF2201003B
:105A8000C3096D0011402B405B189B00E41A000A0B
:105A90000240231D20680CF059F9FFF706FC002195
:105AA0007F223378C90118005BB2104041180136DB
:105AB000002BF6DBFF22CB0952001340CAB29B1821
:105AC0009B00E41A083C220000200CF0D7FAFFF7F4
:105AD000ECFB00237F203278DB01110052B2014041
