:020000040000FA
:10000000004000207D8E0100B98E0100BB8E0100F2
:1000100000000000000000000000000000000000E0
:10002000000000000000000000000000BD8E010084
:100030000000000000000000BF8E0100C18E010022
:10004000C38E01007D6B00003D860100C38E010060
:10005000C38E010000000000C38E0100C38E0100AA
:10006000FD020000D1830100C38E0100C38E010098
:10007000C38E0100C38E0100C38E0100C38E010038
:10008000C38E0100C38E0100C38E0100C38E010028
:10009000C38E0100457F010011800100390400007A
:1000A00049040000C38E01000000000000000000B1
:1000B0000000000000000000000000000000000040
:1000C00010B5064C2378002B07D1054B002B02D02E
:1000D000044800E000BF0123237010BD800200200F
:1000E000000000006C7A0300044B10B5002B03D015
:1000F0000349044800E000BF10BDC04600000000F6
:10010000840200206C7A0300164B002B00D1144BA4
:100110009D46402292029A1A924600218B460F4633
:100120001348144A121A27F057FF0F4B002B00D028
:1001300098470E4B002B00D0984700200021040068
:100140000D000D48002802D00C4800E000BF1FF051
:1001500037F82000290027F0FEFB1EF07DFFC04687
:100160000000080000400020000000000000000027
:1001700078020020D42F00200000000000000000C2
:1001800010B50C0021F04FFF631E184207D002008B
:1001900023000349034814F0A5F803F0ABF810BDA1
:1001A00062EE020074D9020010B54A680249D2001A
:1001B00020F08DF810BDC0468AEE020070B50B002D
:1001C00006001400101E0FD071681800042A0ED10A
:1001D000FFF7D6FF7368012B03D0022B05D0006810
:1001E00000E0007821F0E2FE70BD0088FAE7FFF73A
:1001F000C7FF0500200007F079FB7268030005487F
:10020000012A03D0022A03D02B60EDE72B70EBE725
:100210002B80E9E7E88802008022044B52001A6034
:100220000123034A1360034A1360704700E100E0B2
:100230000C8C0040008000408022054B5200DA67A1
:10024000044BFF3A5A600022034B1A607047C046C5
:1002500004E100E0008000400C8C004070B50025F7
:1002600001261E4B1E4C1D601E4B18601E4BE65097
:10027000C046FFF7E1FF1D4B1D4AE660E250022237
:100280001C4BFF20E5500433E25008339218E25033
:10029000C12380229B001203E250053BFF3BE55047
:1002A000C2244022144BA400195981430A438021DF
:1002B0001A510C341A5909061202120A0A431A5129
:1002C000C0220434195981430A431A51802212046E
:1002D0001A60802252041A6070BDC0466C2E002045
:1002E00000800040AC020020FC0F00004C05000024
:1002F000701700000405000000E100E070B51F4C1D
:100300001F4D636C002B0AD0002363641D4B1B68D8
:100310009847A823DB00EA5800018018E850A36C36
:10032000002B09D00023A364164B5B689847164B3B
:100330000001EA588018E850E36C002B0AD0002333
:10034000E364104B9B689847A923DB00EA5800013F
:100350008018E850236D002B0ED000230B4A236534
:10036000AB580B495B18AB500A4A1368063313604D
:100370008022094B12045A6070BDC046FC800040C8
:100380000080004004000020440500004C050000EF
:10039000701700006C2E0020FCE100E0F7B5019121
:1003A000032823D8134B8000C758C223124D9B004B
:1003B000EF50012344192364A8230F210F4EDB00C3
:1003C0009C46E358AE59921BD218D3170B409A188B
:1003D00001990B4B1211C150C1239B00EF50634692
:1003E0000020013212019619E650FEBD0120404264
:1003F000FBE7C04604860200008000404C05000078
:100400000400002003280BD8074B8000C158C223EA
:10041000064A9B00D150064B064AC2500020704746
:1004200001204042FBE7C0460486020000800040F5
:100430000400002099FF010010B5024B1B6898478B
:1004400010BDC046AC02002010B50024054AA10032
:100450008B58002B02D00020885098470134042C80
:10046000F4D110BD9C020020074A89008B58002B54
:1004700006D1885080211800044A49045160704711
:1004800001204042FBE7C0469C020020FCE100E066
:1004900000B58BB012F0F0FF68461FF080FD054BF1
:1004A000D968091A890812F0A3FF12F0FDFF0BB0FA
:1004B00000BDC046742E0020F0B5060087B000AF26
:1004C0007B60F960BA600EF03FFDB06820F0F0FA92
:1004D0003861B06820F0F2FA20F0EAFA03235843BA
:1004E0003B69C01883001D007B6114352C2B2CD870
:1004F0006B460E35ED08ED005B1B9D4600236C46F8
:100500007B61002326606360BA687B68F96820001D
:1005100003F062FB154D00216B68200023617368B6
:100520006B6004F0F3FD2369061E6B6013D1A368B2
:100530001D687B69002B04D0200020F0BFF9002E3D
:1005400011D12800BD4607B0F0BD280020F094F975
:10055000041ED6D1CCE73B6903339B00E3185D68EA
:100560007B69002BE8D1280002F0C4FE742E002025
:100570000122030030B5134085B004004510002B64
:1005800014D125491D00884210D0244988420DD03D
:10059000234B1500984209D00323034009D1214A77
:1005A0000168914205D121F03EFD0500280005B00B
:1005B00030BD1D4A25002240062A05D0002B08D157
:1005C0001A4B22689A4204D101A9200009F016F8BA
:1005D000EBE7200007F076F8154B984207D1FF2390
:1005E000DB05E0180323984319F056FEDDE7114BB5
:1005F000984202D0104B984206D101AA69462000C9
:1006000007F0EAF9019DD1E7022201A9200021F0BB
:1006100085F80028CAD0F5E7E8880200ECD9020086
:10062000F4D9020010930200070080FF20C20200EC
:1006300008AF0200889702003C940200F7B506005C
:100640000F0000920193041E00D044683800431E3E
:10065000984120180430800020F001F90C4B05006F
:1006600003600C4B5B684360009B8360019BC3602D
:10067000002E05D03100A2000831103027F090FC88
:10068000002F02D00434A40067512800FEBDC046EC
:100690004C860200742E002070B5060010200D005C
:1006A000140020F0DCF8034B466085600360C460F2
:1006B00070BDC04610860200F0B5802787B02B4D74
:1006C00002907F422C78002C1CD063B2002B12DAEF
:1006D0006E787C40E4B2002E14D0013CE4B2FF2CD2
:1006E00002D101350135EDE704AB981D01210670FB
:1006F00006F08CFFF1E704ABD81D0121047006F071
:1007000085FFEFE70527029820F0D4FF0124BC42C3
:1007100027DA0025164E2200290030000DF0BCF922
:100720006B4601901B79002B15D0631E1A0029001F
:10073000300003930DF0B0F9031E0CD12200290004
:1007400030000DF075F9FF22019B290013403000A5
:10075000621E0DF06DF90135052DDBD10134E4B2D7
:10076000D5E7013F002FCED107B0F0BD9AEE0200D1
:100770001800002010B5C820FFF79EFF004810BDEC
:10078000E8880200F0B587B0039205910D9A0399AD
:100790000500521A0CA9097820200C00844339D096
:1007A00030293BD00CA902910121802401911C40E9
:1007B00036D0D40FA4186410171B002C37DD260088
:1007C000019B0493B34200DD04966B68049A02997E
:1007D00028689847049BF61A002EF1DC039B002B37
:1007E00006D01A0005996B6828689847039BE4189F
:1007F000002F0CDDE419019EBE4200DD3E003200F8
:10080000029928686B689847BF1B002FF3DC200013
:1008100007B0F0BD074902911021C6E70649FAE783
:1008200001271F4001D11400C7E71700D6E70024B5
:10083000D4E7C0464AEF02005BEF0200F0B593B088
:100840001C0018AB20CB05901B780F0016000793F7
:10085000CB070BD48B0703D1854B0A689A4205D08E
:10086000380007F017F801274000074381231D4295
:1008700009D1079B302B06D11A9B1B9A934200DAB1
:100880001A9200231B93380021F06DFB0AAA130073
:10089000002806DBAB070FD52B231370123B04AAED
:1008A0009B18E1B2EA0615D5022E0CD130221A703F
:1008B0004A1C5A7002330DE013006A07F1D520225A
:1008C0001A701923EBE7082E3BD130221A70AA05C3
:1008D00034D4013300220AA81A701B1A2C20069364
:1008E000AB06DB1718400EAB0B9310230C931B9B2E
:1008F0000D92012B01DD40231D43402404ABDA752A
:100900002C400390029123D03B00019200960DAA47
:100910000CA90BA802F0F2FB037807002D2B00D0E6
:100920008EE004AAD3750D9B1B9A013B01370D93F2
:10093000012A00DD97E00026340035E00A000E327F
:10094000B7E7102EC6D130221A700A001732B0E76E
:100950000AAB019300963B000DAA0CA90BA802F06C
:10096000CDFB1B9B07002600012B1DDD0D9B1B9C57
:100970009C4200DA1C001A9BA3425EDD01261C1B70
:100980002E4001D02600002401239D432F330793DE
:10099000002C09D0103B0093002301941A00354924
:1009A0000598FFF7EFFE04006B0621D5172104AB75
:1009B000C9180B78002B0AD0002301220093019262
:1009C0000598FFF7DFFE1A9B2418013B1A93069B3C
:1009D000002B0DD0012301930023069A00930AA94E
:1009E0000598FFF7CFFE1A9B069A24189B1A1A93B4
:1009F0001B9B012B01DC1A9B1B931B9B0D9A0193E4
:100A0000079B3900009305982B00FFF7BBFE2418C5
:100A1000002E09D020230093002301961A001549C7
:100A20000598FFF7AFFE24180B980EAB984201D043
:100A30001FF044FF200013B0F0BD00263400A3E7F0
:100A40001B9B012B00DC76E70D9B1B9C9C4200DA74
:100A50001C00172304AA9B181B78002B00D001341C
:100A6000069BE41887E71B9C9C42F8DA1C00F6E71B
:100A700010930200E0040300F0B506001400002704
:100A80008DB00D002B78002B15D1A94217D30B7810
:100A9000002B00D148E14B1C049320230025302279
:100AA000082104200893049B1B78002B11D1069386
:100AB000013B07935FE0252BE7D00135E2E76B1A96
:100AC00004931A00306873689847049B2900FF1844
:100AD000DDE72D2B05D12C3B1D43049B01330493F3
:100AE000E1E72B2B01D1293BF6E7202B01D1054370
:100AF000F3E7212B01D10D43EFE7302B2CD110333D
:100B00001D430892E9E7069A4A43D318303B0693FF
:100B1000049B01330493049B1B781A00303A092A82
:100B2000F1D92E2B47D1049B5B782A2B18D0049B3C
:100B30000A210133049300230793049B1B781A00B6
:100B4000303A092A17D8079A4A43D318303B0793FB
:100B5000049B01330493F0E700230A210693DAE7AC
:100B6000049B02330493236804340793DB43079AFE
:100B7000DB171A400792049B1B786C3B5A42534187
:100B8000049AD31804931B780593002B00D1CBE073
:100B9000642B00D1A1E022D8502B29D00ED8453BA0
:100BA000022B00D8A9E001220499306873689847A5
:100BB0000137099452E001235B427AE7059B622BDF
:100BC0003CD057D8582BEED1231D0993069B019595
:100BD0000393089B029341230093313B7BE0059BE9
:100BE000712B53D00FD8672B00D886E0702BDAD149
:100BF000231D0993069B01950393089B0293612390
:100C00000093513B67E0059B752B5AD0782BEFD0B2
:100C1000732BC8D1231D24680993002C49D0079B4E
:100C2000013303D1200027F0FDF90790069B079AB6
:100C30000193089B210000932B000BE0231D0993D7
:100C40002368002B0ED0069B04220193089B384991
:100C500000932B003000FFF795FD3F180499099C85
:100C600001310EE7069B05220193089B3149009351
:100C70002B00EFE7231D099323680BA90B70069B3C
:100C800001220193089B00932B00E3E7231D0BA98E
:100C90002068099321F01DFA079B0100013301D15F
:100CA0000B9B0793069B079A0193089B00932B00CD
:100CB000D0E7069B06220193089B1F4900932B0057
:100CC000C8E7231D0993069B01950393089B029394
:100CD00061230093573B00220AE0231D0993069BE2
:100CE00001220393089B0195029361230093573BD4
:100CF000216830001FF039FAAFE7072307349C431F
:100D0000230020686168083309931BF011F9079BE1
:100D1000011C0293069B059A0193089B30000093E7
:100D20002B001FF08FFA98E738000DB0F0BDC046D9
:100D300038EF02003DEF020043EF020010B504005F
:100D4000431C02D0024813F02BFB024B1C6010BD69
:100D50009C2E0020702E0020014B024A9A6470479E
:100D6000742E00209C2E002070B50D0006F0F6FDBC
:100D7000041C280006F0F2FD211C19F0B3F8051C34
:100D80001FF0B0FA011C281C18F07AFF211C18F083
:100D900005FC0323020002209A43024B1043C018B3
:100DA00070BDC0460000808010B51FF09BFA032381
:100DB000020002209A43024B1043C01810BDC046E7
:100DC0000000808010B5074C002802D00868A042BF
:100DD00003D115F04DF9200010BD06F087FD15F088
:100DE00067F9F8E7E888020010B5040006F0C4FED1
:100DF00006F050FD002803DC0021064823F07AFFAE
:100E000015F010F921F0D2F804220100200006F0BC
:100E1000C9FE10BDF0D50200F0B5060000248BB06D
:100E2000194B1A48E15806F07BFA03AFE05104343D
:100E30001C2CF5D114230024734301930025AB002F
:100E4000F958134822F054FA0135300020F032FCF2
:100E5000072DF4D1013DAB000D48F95822F048FAB6
:100E6000300020F027FC013DF5D20134082C03D1DD
:100E70000CF0BEFD0BB0F0BD01231C42DED1019889
:100E800020F018FCDAE7C046B4880200708D02003A
:100E90001800002010B51920FFF7BEFF004810BD54
:100EA000E8880200054B10B59A6C002A04D0002295
:100EB000986C9A6402F01EFA10BDC046742E002091
:100EC0000F2310B51940012908D00300002909D0CB
:100ED000022909D121F06AF8030003E0044B00283D
:100EE00000D1044B180010BD21F07BF8F4E7C04698
:100EF000F4D90200ECD90200F0B585B00C0007F07F
:100F000047FF03AA070002A9200006F065FD029E24
:100F1000039B35001035AD00280001931FF09FFCA6
:100F200004002C221030002127F056F867602700BB
:100F3000104BE6632360104B019EA3600F4B403DB6
:100F4000E3600F4B403763610E4B7519A3610E4B85
:100F5000E3610E4B23620E4B63620E4B6363AE4242
:100F600002D1200005B0F0BD01CE07F011FF01C78E
:100F7000F5E7C04630CC0200990F0000F90F0000E1
:100F8000894D0000214E0000BD0F0000214F0000E0
:100F9000154D00008897020070B50C0005000B6825
:100FA00005495A681FF093F9216828004031220052
:100FB00003F082FE70BDC0467C6E0300136870B5FE
:100FC000002B10D10568EE6BB34200D170BD9C00C0
:100FD0002C19246CA14201D00133F5E702339B00A8
:100FE0001B581360F2E70249024823F083FEC04613
:100FF0006CEF02004CD40200F0B51700C26B85B054
:10100000CE19050001910393964206D0330025497D
:10101000254813F067F902F06DF90021300003F064
:10102000E1FE0400019B05609B001A000399083053
:10103000029326F0B5FF0298BA000830201800216C
:1010400026F0CAFF029A039B94466344F7191E00D8
:10105000019BBB4202D3200005B0F0BD306807F011
:1010600097FE00210200EB6B0293029B994204D190
:101070000E490D4813F036F9CDE78B00E818006CE7
:10108000824201D00131F0E7E3189968002901D0CC
:101090000749EEE7726808369A60019B02330193B4
:1010A000D6E7C04680EF0200FCD80200B9EF02008C
:1010B000DAEF020010B502491FF048F810BDC04633
:1010C00009F0020010B507F063FE0023064A9900FC
:1010D0008958814205D001330C2BF8D1034811F017
:1010E00083FC180010BDC046B88902000EF0020053
:1010F000094A70B51378002B0CD1084D2C78E4B256
:10110000002C07D10068013313702B7003685B68F3
:1011100098472C7070BDC046DA2D0020DB2D0020D2
:1011200010B504000430FFF7E3FF606825F0BEF857
:10113000034B8000C3580620DB00184310BDC04697
:10114000B889020070B504000800FFF7BBFF050076
:10115000201DFFF7CDFF606825F0A8F8024BA842DC
:1011600000D0024B180070BDF4D90200ECD9020087
:1011700070B504000800FFF7A5FF0500201DFFF76C
:10118000B7FF0123AB40064A064811880B4200D145
:1011900005481188994311800022044B1A7070BDD4
:1011A000D02D0020F4D90200ECD90200E42D00205B
:1011B000F8B50430FFF79CFF124C13482378002B3E
:1011C0001FD020780021C0B203F00CFE01260022BF
:1011D0000E4F2378934212D915005308FB5C35401B
:1011E000AD002B410F252B40094D9B005B59062577
:1011F0009100DB0041182B438B600132E9E70023AB
:101200002370F8BDE42D002080970200DC2D002023
:10121000B889020070B543885A1E0A2A1FD80125D2
:101220002A009A400F490888024392B20E480A8069
:1012300002780F2A13D802780C4CEA40A25C067898
:10124000D2B20F212E420BD00A401B011343027869
:10125000DBB25208A35403780133DBB2037070BDD4
:101260008A43F3E7D02D0020E42D0020DC2D002060
:10127000F0B585B005001600080003AB02AA01A96D
:1012800024F0DBFA0398364FB84209D0032807D080
:1012900006F000FBB060002804D1324811F0A4FB36
:1012A0000123B3600198B84229D10024B368A34256
:1012B00000DC6C1E0298B84225D1B368002B47DDD4
:1012C0002800002C2ADA641901D5B368DC1700283D
:1012D00034DA401901D501204042B368002B00DA0E
:1012E0000130B368002B2DDDA04200DA2000013B65
:1012F000706058425841C0B2346005B0F0BD06F08D
:10130000C9FA0400D6E706F0C5FAB368002801DB85
:10131000DA0F8018002CD6DB002B03DDAC42D6D9C7
:101320002C00D4E7002BD2D0A54200D86C1E002898
:1013300004DA4019D4D501204042D1E7A842D0D9DF
:101340002800CEE7002BD2D0A042D0DD601CCEE733
:10135000002C01DA0020B6E700208342E4D1C0E788
:10136000E88802001EF00200F0B5060085B0170004
:101370001B2805D10A9A974209D0002005B0F0BD7C
:1013800019281AD01C281AD00A9A0A9717001A008E
:101390000B0011000A9A0192BA4200D901971D0070
:1013A0000C0000230093009B019A934209D10A9BF1
:1013B000BB4220D0E1D30120E0E71A26EAE71D2650
:1013C000E8E70295039401CD02CC06F011FA00285B
:1013D00002D0009B0133E5E71B2ECED0039B3000EB
:1013E0001A68029B196811F007FB044BC01A4342AC
:1013F0005841C0B2C2E71A2EDDD1BEE7F4D90200CF
:10140000F0B51E0085B0039018680D00170006F0B7
:1014100059F97368019002930024022F0ED9012319
:10142000B268290006F00EFB0400032F06D0290045
:101430000123F268019806F005FB0500A54202D8D9
:10144000084811F0D1FA039AA3000299D05806F087
:10145000CFF9002801D10134F0E7012064002043D6
:1014600005B0F0BD38F002000023820708D1006803
:10147000044A0133904203D0034BC01A4342434114
:1014800018007047F88A0200BC8A0200044B88608A
:101490000B60044B08004B600023CB607047C046D4
:1014A0002CC802001506020030B585B00500080002
:1014B000694610F06BFE0400200010F0C9FE011E0A
:1014C00002D1064805B030BD2B1D002218001FF0C8
:1014D0008FFB0028F0D00248F4E7C046F4D90200A0
:1014E000ECD9020070B5050010201FF0B8F9040017
:1014F000074B696808C01FF071FBAB68E968A3601F
:101500006B68E0689A0026F04BFD200070BDC04675
:10151000F88A0200F7B504000D0000268B0704D1FD
:101520000B68214E9E1B73425E41AB68002B0AD1B3
:10153000002E03D01D4920001EF008FE1C4920008B
:101540001EF004FEF7BD002E03D01A4920001EF045
:10155000FDFD194920001EF0F9FD002701236A68EE
:10156000BA4207D8154920001EF0F0FD002EE9D040
:101570001349E4E7BA000192EA68B9005258002A18
:101580000FD0042A0DD0002B03D10E4920001EF0ED
:10159000DDFDEB68B90059580122200006F0AAF8D9
:1015A00000230137DBE7C046BC8A020087F0020057
:1015B0008EF0020094F002009FF00200B367030077
:1015C000B5170300A1F0020010B5830707D1044B43
:1015D00002689A4203D10349034823F08BFB10BDF4
:1015E000BC8A02004FF002004CD4020070B50D001E
:1015F0000400FFF7E9FF2900201D01221FF0F8FA7F
:10160000004870BDE888020070B50D000400FFF7C7
:10161000DBFF2900201D02221FF0EAFA004870BDFE
:10162000E888020070B5060008680D000124FFF785
:10163000CBFFB44201D3044870BDA300E958286829
:101640001EF086FF0134F4E7E888020070B50D0053
:101650000400FFF7B9FF2800002110F097FD0500F6
:10166000280010F0F5FD011E01D1044870BD231DB6
:10167000032218001FF0BCFAF2E7C046E888020017
:1016800010B50400FFF7A0FF201D1FF03FFB01482D
:1016900010BDC046E888020010B501221EF089FF87
:1016A000004810BDE888020070B504000D00FFF787
:1016B0008BFF201D022229001FF09AFA002804D176
:1016C000034824F0C8F801F015FE024870BDC0467A
:1016D0002CD60200E888020010B50400FFF774FF62
:1016E000201D1FF0F4FA002803D10249024823F01C
:1016F00001FB10BD71F002002CD60200F8B50D0000
:1017000001280BD0002803D002280BD0002004E0D1
:101710008B681448002B00D11348F8BD8B685B0020
:101720001843FAE7032400200C408442F5D10F4B04
:101730000E6820009E42F0D14F68A74203D10120DD
:1017400076003043E9E7EA68A3009958002906D0FB
:10175000042904D0022010F0B1FB401036180134E7
:10176000EBE7C046F4D90200ECD90200BC8A0200C3
:10177000F8B5040010200D001FF071F80600094BA9
:10178000210008C6070030001FF028FAA4002C1919
:10179000A54201D13800F8BD012202CD30001FF072
:1017A00027FAF5E7F88A0200F7B504000E00171EC5
:1017B0002CD0FFF709FF194DB4422DD000210800AD
:1017C000FFF7D6FF00210500300010F0DFFC01908C
:1017D000019810F03DFD061E0CD1002F1CD0E068D2
:1017E0001FF06CF86B686360AB68A360EB680B4D2F
:1017F000E36011E0201D002231001FF0F9F90028FC
:10180000E6D031002800FFF7F1FEE1E78842D5D1AC
:1018100020001EF0B0FE05002800FEBDE888020092
:10182000F0B589B004000390029101920027FFF700
:101830001BFEB84207D13A0003AB012122481EF03B
:101840000EFF04000137029D00262800FFF70CFE62
:10185000B04207D1320002AB01211B481EF0FFFE4F
:1018600005000136019B002B05D00023AA680193D7
:10187000A36893420DD0154B06940493144B059323
:101880000023079304A81EF0C5FE011E12D10123F8
:101890000193002F02D02000FFF7F2FE002E02D0AD
:1018A0002800FFF7EDFE019B0A48002B00D10A48F3
:1018B00009B0F0BD2B1D002218001FF099F9002877
:1018C000E0D10190E5E7C046F88A02002CC802008A
:1018D00015060200F4D90200ECD9020073B50C0021
:1018E00015000091019200268B0704D10B68394E38
:1018F0009E1B73425E4132001F2868D817F052FBCE
:101900002810176767671C676767676767212D344B
:101910006767673B676767676740464A5358675D15
:10192000290020001EF038FE0400200076BD2900AA
:1019300020001EF089FEF7E7694602201EF065FED2
:10194000F2E7002E04D069460220FFF76BFEECE7B9
:10195000290020001EF016FEE6E729002000002ED8
:10196000E0D0FFF773FEE0E729002000FFF71CFF3F
:10197000002EDAD1D8E7694602201EF01AFED3E71E
:10198000012229002000FFF74BFFCDE701222100B3
:101990002800F8E72800FFF767FD002815D0A368A6
:1019A000AA68934211D1290020001EF089FEBBE7EE
:1019B000290020001EF07CFEB6E7201D0022290031
:1019C0001FF016F9044C0028AFD1044CADE70024F9
:1019D000ABE7C046F88A0200F4D90200ECD9020055
:1019E000F8B5214E3568696801292DD9AA684B1EC2
:1019F000D05C0A2828D1002B01DC1C0009E0581E0D
:101A0000145C0A2CF9D00300F5E7105D202802D100
:101A10000134A142F9D8002B0BDD601C814208D1B2
:101A2000581E002805D00138175C0A2F0CD0202F33
:101A3000F7D05218023AE31A14789B083A3C6242F3
:101A400054411C19002C00D1F8BD084F0422390064
:101A500028001FF01EFA0421380005F0C9FD336983
:101A6000013C04333361EDE7B00200206E16030041
:101A700010B520220021024826F0AEFA10BDC04663
:101A8000D42E0020084B10B54268186000209860E2
:101A900018750138D86008005A601A6199611FF002
:101AA000FCFDFFF79DFF10BDB0020020F8B50378E4
:101AB0000400002B1ED0104D286E002804D02100F9
:101AC00026F0A6FA002815D0200026F0ABFA471C15
:101AD00038001EF0D1FE061E0CD03A00210026F080
:101AE0005FFA2A00054B5C321968043B9960934207
:101AF000FAD12E66F8BDC046742E0020EC2E0020D0
:101B0000F0B5B84C02002068A568436885B0019321
:101B1000002D00D0FDE0531E042B11D863680199FD
:101B20008B4200D195E0012A00D12AE1022A07D197
:101B300023696268934200D94FE10122524288E052
:101B4000032A00D185E0042A00D12FE1052A00D123
:101B500007E1062A0ED12369019A9342AD416D42F5
:101B6000002DEADD2368290098682369C01805F074
:101B70003FFD1FE00B2A21D1019B2269991A1FF01A
:101B800048FA2368019A5B68934204D213002269E1
:101B9000981A05F063FD2268236951689068C91A94
:101BA000C01805F025FD236858682369C01A401B3A
:101BB00005F042FD23695D192561BEE70E2A13D1A8
:101BC000E368002BB9DB013BE3606268019B991A73
:101BD0001FF01FFAE368002B18DB1633824A9B00C4
:101BE000D318996820680FE0102A16D1E368062BF5
:101BF000A3DC5D1C7C4A17339B00D318996800292D
:101C00009BD06368E56043601FF0C8F96368226990
:101C1000D61A22685568ED1A0AE0152A0CD12369F4
:101C2000626861689A1A1FF0FCF9236962689E1A5B
:101C30000127002E2FDCA4E70D2A0DD16B481FF0E1
:101C40002CFD20681FF08FF96368C018FFF72EFF86
:101C50000022100005B0F0BD01231B2A62D0082A23
:101C600001D07F2A20D121696268914200D864E7BF
:101C700000238668B618F75C202F13D101339F1814
:101C8000B942F8D80426032B00DC033E891B32003E
:101C90001FF0C7F90127300005F0CEFC23699E1B19
:101CA000266178E00126F1E7092A28D163682269D4
:101CB0008068D11AC0184E4A03AB0EF0D7FA061E40
:101CC00000D13AE70027431C0BD1A0691FF0E5FCC7
:101CD00063682269D11A22689068C01805F088FCF0
:101CE0004FE723692068F918039B01375A1C0392B8
:101CF0001A781FF07CF9BE42F3D1350041E713009A
:101D0000203B5E2B00D918E721691FF079F90125E6
:101D100037E7012D08D104234F2A03D002235B2A81
:101D200000D00023A36008E7022D20D11300303B30
:101D3000092B03D803232275A360FEE60023A360CA
:101D4000412A00D152E7422A00D139E7432A00D183
:101D500001E7442A00D1EBE6482A12D0462A00D0F7
:101D6000EBE60027019B22693E009D1A0EE0002150
:101D7000032D29D17E2A24D1237D312B01D0372B6D
:101D80000DD100252F00236962689E1A0023A360ED
:101D90009E4200DD7FE7002F00D1E1E6F1E61A0068
:101DA000FB25343A2A42DCD0332B0AD12169019B2E
:101DB000994206D201221FF034F9002501272E0096
:101DC000E4E700252F00FAE7042D04D1462AC8D005
:101DD000482AD6D0A5E7A160AFE6002501262F004E
:101DE00059E7C046B0020020742E0020A06A03000C
:101DF000E487020030B507240278084DA24314009E
:101E00000222224302707F22039C41602240D400C0
:101E1000028883602A402243028030BD07FCFFFF16
:101E200010B50B00072401782340A14319437F23F9
:101E3000017004990A4C0B40D9000388426023408A
:101E40000B430380039B04685905064BC90A2340D2
:101E50000B430360029B8360059BC36010BDC046BB
:101E600007FCFFFFFF03E0FF0139C9B2054B401833
:101E700080301970044A03781370044AD25C044B12
:101E80001A707047E62D0020E72D00206302030042
:101E9000E52D00200131C9B2054B40188030197082
:101EA000044A03781370044AD25C044B1A707047DA
:101EB000E62D0020E72D002063020300E52D002021
:101EC000074B984206D9074B1818074B4118C918F9
:101ED00008787047054B18184118054BF7E7C046BE
:101EE000A4920000A40003005B6DFFFFB8F00200A5
:101EF0000083FFFF03002022F0B57F254F265F27D8
:101F0000803304001A7089B003007F3019780A000A
:101F10002A406F2A29D90A003A4019000133813139
:101F20000A709842F2D17F22BB4B1A702300643AA8
:101F3000FF331A70E4320292531CDBB204936B46F7
:101F4000B6481B7CB6490370049BE31880331B78AA
:101F50000B705B2B0ED19B22029B0A700133DBB20C
:101F60000370E254012009B0F0BD5F2AD5D90A0000
:101F70003240D2E72E2B13D10232D2B20270A21815
:101F800080321278A4480270A648825C0120024286
:101F900006D1029A0B701218D2B20292A354D7E162
:101FA00002209D4A13709F4AD25C104000D0A8E0E6
:101FB000002A19D19948203203780A70E318803337
:101FC0001A70029B0133DBB202936B461B7A0370DB
:101FD000029B782B01D8E254BAE19B23029AA354C6
:101FE0006B461B7C0B70BDE716007F2552B2AE43DB
:101FF0000E70002A03DB8C4B8C4A1A60B3E7413B1E
:102000008B4ADBB28B49D25CCB5C12021343039345
:10201000039B002101339BB218000393FFF750FF8D
:102020000306F5D50123002601277B4D2B703900CF
:102030000398FFF745FF7B1CDBB20193282862D190
:10204000002E00D02F702D780135EDB229000398B5
:10205000FFF736FF6B1CDBB2292857D17F2606938A
:1020600006990398FFF72CFF069B30400133DBB243
:102070003D284DD16A466A4B127C1870674B00268A
:102080001A706A46644B12791A70049B0593059B7B
:102090000199E31880331B7803980793FFF710FF2B
:1020A000079B9842B4D1019B0133DBB20193AB4251
:1020B00030D1002E03D06A46584B127D1A70049D11
:1020C000013FFFB2544B390003981F70FFF7F8FE31
:1020D000534E030600D509E1504B7F211870514B38
:1020E0001B5C1A005BB28A433270002B18DA4B4B30
:1020F000013DEDB21D70631980331B789842DFD02B
:1021000086E74D4B83E70126019F90E71D009DE781
:102110000693A5E7059B01260133DBB20593B6E7DD
:10212000307020281BD0232825D02E282CD02628FC
:1021300032D040284ED05E2856D02B285CD03A288A
:1021400000D030E1202629002000FFF78DFE344A20
:10215000137833401370B3D0304B1D78F3E7290068
:102160002000FFF781FE0023F356002B00DA4FE733
:102170002A4B1D78A4E729002000FFF775FE4022B6
:1021800033781342F4D143E729002000FFF76CFEB7
:1021900033781B07ECD43BE729002000FFF764FEEF
:1021A0001022337813403370E2D11C4B1B78E118B6
:1021B000803109783170482900D029E7013B17495F
:1021C000DBB20B70E31880331B789343432B00D0B2
:1021D0001EE7CDE729002000FFF746FE04223378F2
:1021E00013403370C4D113E729002000FFF73CFEF1
:1021F00033789B06BCD40BE7084B013DEDB21D7054
:10220000651980352B78452BB2D010229343492B8A
:1022100000D0FDE6ACE7C046E72D0020E62D00200B
:10222000E52D00206302030064000020A4F00200FA
:10223000E9020300CF020300A59200006B1C934A41
:10224000DBB21370E31880331B7891490B70452B78
:1022500036D1A81CC0B2231880331B788D4E337042
:102260008D4EF656002E02DB884B1D783FE0107035
:102270000B70522BF8D0532BF6D0442BF4D04C2BB0
:1022800008D10335EDB21570651980352B78592BBF
:10229000EAD0BDE6462B00D0BAE6EB1CDBB21370E9
:1022A000E31880331B780B70552B00D0B0E6043553
:1022B000EDB21570651980352B784C2BD4D0A7E67C
:1022C000492B00D0A4E6AB1CDBB21370E3188033BB
:1022D0001B780B704E2B00D09AE60335EDB21570CB
:1022E000651980352B78472BBED091E6059D6A464F
:1022F000019B03980133DBB201931279654B01997D
:102300001A70FFF7DDFD019B069A604F934221D1C1
:1023100000257F272E0001990398FFF7D1FD0300C8
:102320003B403D2B04D0029A0132D2B20292A35418
:10233000019A0132D2B2010600D4A3E0002E03D0EC
:102340006946544A09791170514A1370059B0493E8
:10235000049AF1E5504B7F211B5C4D4E1A005BB295
:102360008A4338703270002B08DA0135EDB26319F8
:1023700080331B783D708342B9D049E63070202805
:1023800016D023281ED02E2826D026282DD040282F
:1023900048D05E2851D02B2858D020263A2864D027
:1023A000252800D14AE73D4B3D4A00201A60DAE576
:1023B00029002000FFF76EFD0023F356002B00DB01
:1023C00052E725E629002000FFF764FD402233781C
:1023D000134200D048E71BE629002000FFF75AFD12
:1023E00033781B0700D53FE712E629002000FFF7EE
:1023F00051FD102233781340337000D034E73B781E
:10240000E118803109783170482900D000E60133A5
:10241000DBB23B70E31880331B789343432B00D02F
:10242000F6E521E729002000FFF734FD0422337888
:102430001340337000D017E7EAE529002000FFF7CA
:1024400029FD33789B0600D50EE7E1E50135EDB2B5
:102450003D70651980352B78452B00D104E710229B
:102460009343492B00D0D3E5FEE629002000FFF777
:1024700011FD074A13783340137000D137E7034B3F
:102480001D78F2E70192012645E7C046E62D0020BF
:10249000E52D0020E72D00206302030064000020EA
:1024A000AEF0020010B50400002906D0044B8A6B80
:1024B00003600968002311F081FF200000F01AFF7B
:1024C00084D80200F0B5040087B003920293661826
:1024D000002A06D0023A222A03D9354810F084FA9D
:1024E0000134B44229D220780BF018FB071EF7D133
:1024F00023782B2B1CD10134311B200003AA20F0A0
:10250000E7FF23181C0000250193B44217D3002FC6
:1025100000D06D4201236D001D43019B9C422FD1D1
:102520002449039A244811F0DDFE0299FFF7BAFF0F
:102530002D2BE1D101340127DEE70027DCE72378EA
:102540001A00303A0092092A07D9202213431A00B0
:10255000613A192ADBD8573B00930399009B9942B3
:10256000D5D928000BF032FB002816D1039B5D4320
:10257000009BED186B006B400FD40134C5E70134AC
:10258000B44205D220780BF0C9FA0028F7D1C7E78A
:10259000B442C5D1280007B0F0BD019B3A000593B5
:1025A000F11A05A8039B1FF027FD059C0500B4E761
:1025B0003A0303005D03030074D90200F0B5040080
:1025C0008BB00893431804920193019B9C4200D363
:1025D000F6E020780BF0A2FA071E38D123782B2BD7
:1025E00037D101340590019B9C4200D3EAE02023BF
:1025F00022781A43692A33D10199A21C914200D84A
:10260000E6E062781A436E2A00D0E1E0A2781A432D
:10261000662A00D0DCE0E21DE51C914214D9E27884
:102620001A43692A10D122791A436E2A0CD1627991
:102630001A43692A08D1A2791A43742A04D1E2798B
:102640001343792B00D10535FF26F6051BE0013435
:10265000BBE705902D2BCAD12C3B01340593C2E773
:102660006E2A2ED10199A21C914200D8B0E0627866
:102670001A43612A00D0ABE0A27813436E2B00D03E
:10268000A6E05D4EE51C059B002B02D080231B06B7
:10269000F618A5427BD159498CE03D002B786F1C80
:1026A00018003038092834D8022E15D10A23029A8E
:1026B00053431B180293019BBB42EED800230493A3
:1026C0004DE00022079202924D4A25000692002218
:1026D000002603920993E1E717F048FE051C012E3E
:1026E0000DD1069917F0CCFA011C039816F056FF8D
:1026F00043490390069817F0C3FA0690DBE7414977
:10270000039817F0BDFA291C16F048FF0026039025
:10271000D1E7002E03D12E2B03D10126CBE7022EC9
:1027200016D0099A1A43652A12D1019BBB4256D989
:102730006B782B2B05D1AF1C019B9F42ABD002269F
:10274000B9E702262D2BA8D12C3BAF190793F3E74D
:10275000049A002A04D0202213436A2B13D13D008F
:10276000079B002B02D0029B5B420293029817F05A
:10277000B3FD011C23481AF0D9F9039917F080FA28
:10278000049F061C7FE700230493E9E70135019BC2
:102790009D4205D228780BF0C1F90028F6D17AE7DE
:1027A000019B9D4200D076E7089B002B01D1002FB2
:1027B0001AD01549154823F05BF81099FFF772FEFF
:1027C0000023059300230393002325000493CCE703
:1027D000059B002B00D15EE72500002656E7019BF4
:1027E000BB4200D157E769E7032302209E43084B11
:1027F0003043C0180BB0F0BD0000C07F20030300C1
:10280000CDCCCC3D000020410303030074D902006D
:102810000000808070B5050094B0002804D13848CD
:102820001CF028FE14B070BD08A800F03DFD041E89
:1028300019D12E68290004A8012211F02BFF2300D2
:102840002200310004A80AF0BBFC04000320FEF7BC
:1028500075FA200022F003FA01204042FEF76EFADA
:1028600000F040FDDEE701204042FEF767FA0999DB
:10287000244804F063FF099804F024FF224904006F
:102880000EF09AFE0028CDD1204920000EF094FED3
:10289000051EC7D1099C01AA6946200011F0C2FD9E
:1028A000009B022BBED902AA322104A803F0BEFA73
:1028B000019B17495A6802A81DF009FD200004F089
:1028C00001FF144BC2689A4210D1236812495A681A
:1028D00002A81DF0FCFCE368002B07D05A68002A10
:1028E00004D02A00996802A804F004FF04A81EF08E
:1028F0003AFB04F0C9FE04A81EF009FB92E7C046AB
:10290000BB030300E4870200C0D8020068D60200BF
:10291000E8030300A5410100F103030070B50025A1
:1029200037480CF0F1FAE120C0000CF0FDFA35490F
:10293000354810F015FD0FF001FA04F021FEFFF705
:1029400097F813F095FB314823F069FF20F057FD0D
:102950000DF03AF900F084FA02F0BEFB0FF04AF8ED
:102960002B4C2C48230088331D60FDF777FCFDF7C6
:1029700053FC0FF051F8284E3378012B10D1F82377
:102980009B021A784D2A22D15A78502A1FD1F7205B
:102990005A8822490023400020F043FFFFF73AFF06
:1029A0003378002B28D101F03FF80028F8D01C48DC
:1029B0001EF073FEFDF740FC08220021194825F0A7
:1029C0000BFB230098348C331D602560A8E700239F
:1029D00007211A0014480DF0FFF9011E04D0F7205A
:1029E00040000DF081FBD9E70122104917200FF0BC
:1029F00033FF22F05EF9D3E701F066F8D5E7C04671
:102A000000400020A0290020CC020020402A002005
:102A1000742E0020C12A00004002002004E00300C0
:102A2000FD030300F42E0020F5030300809702004D
:102A3000F7B5194D194A2800062114F06FFB184EFE
:102A400028003200174925F045FA174F00223800B8
:102A50001E2123F0EEFE154C390004233A222000FB
:102A600013F01CFD32001249200025F033FA052333
:102A700039000093220018330E4814F083F8320016
:102A80000D490C4825F026FA2B00220009490B4875
:102A900014F04EFAF7BDC046402A0020608E0200B6
:102AA00000000020D5700100B82A0020A0290020D5
:102AB0003D630100EC29002095670100342A0020C5
:102AC00010B50C4C200023F0C3FC002806D00A4BA4
:102AD0001B78002B02D1200023F03CFC0023074A86
:102AE0001370074A137013F06DF90AF037FE0EF0F9
:102AF000A9F810BDEC290020EB2D0020EA2D0020C4
:102B0000DA2D0020C3790248002B00D1014870471C
:102B1000F4D90200ECD9020010B50DF019F8014803
:102B200010BDC046E888020010B508680DF010F826
:102B3000004810BDE888020073B50D00022836D1A8
:102B4000012601A9686806F059FD76423400019B10
:102B5000C318834212D101A9286806F04FFD7342C1
:102B6000734162426241DBB2D2B201990DF034F995
:102B7000002820D11049114822F0BCF80278722AAE
:102B800001D0772A06D1611C0ED1723A54425441C9
:102B90000130DEE7622A01D0742A05D1711C03D10D
:102BA000743A56425641F3E705480FF01DFF0126DF
:102BB00076423400CFE776BD1804030094D70200B4
:102BC0000B040300F7B5CC1CA400070020000E0086
:102BD00001921DF044FE22000500054B476086600F
:102BE00003600C3A01990C3025F0DAF92800FEBD9B
:102BF000988F020070B50400080004F04BFE050039
:102C0000431002D00F480FF0EFFE0F49200008F0EC
:102C1000A1FD002807D0A02203216379D205C1338A
:102C2000FF339B009950012362799340A022D20583
:102C3000002D04D0A121C9000448535070BD04499F
:102C4000FAE7C04674040300ACB30200E88802004F
:102C50000C05000070B50500080004F01BFE0B23F6
:102C600003410400DB0702D409480FF0BDFE280031
:102C7000084908F06FFDFF22A40092001440A02232
:102C80006B79D205C133FF339B0003489C5070BD64
:102C900046040300A4B30200E888020010B50C4902
:102CA000040008F057FDA022D205002805D0042119
:102CB0006379C133FF339B00D150A223DB00D0588E
:102CC0006379D840012318401FF070F910BDC04649
:102CD000A4B3020010B5040008F008FD084B9842A8
:102CE00002D0200008F010FDA0226379D205C13384
:102CF000FF339B0098580007800F1FF057F910BD55
:102D0000A4B30200032370B50B4004000800022B9B
:102D100014D1194B0B40062B10D004F01FFE19F0F4
:102D2000B5F80022154B17F061FB19F03FF8144B72
:102D30000500984205D913480FF056FE04F0AAFD8D
:102D4000F5E71149200008F005FD002807D0A02272
:102D500003216379D205C133FF339B009950607919
:102D600029000EF087FE002D03D10849200008F04D
:102D7000F1FC074870BDC046070080FF0000E03F3F
:102D8000FF03000053040300ECB302009CB30200F5
:102D9000E888020013B50A49040008F0DBFC0521AD
:102DA0006846615615F092FF684615F0B5FFA023FE
:102DB0000021044ADB00D1501FF0F8F816BDC046D0
:102DC0009CB302000070004010B5080004F062FDE2
:102DD000FA239B0058430EF029FE002802D0024837
:102DE0000FF002FE014810BD37040300E88802001E
:102DF00010B5080004F04EFD0EF018FE002802D0B9
:102E000002480FF0F1FD024810BDC0463704030030
:102E1000E888020010B5040008F068FC0C498842FC
:102E20000DD00C4B98420AD0200008F093FCA02251
:102E30000C216379D205C133FF339B0099502000E8
:102E400013F00AF8044B002800D0044B180010BD02
:102E5000D4B30200BCB30200F4D90200ECD90200E2
:102E6000A0230C220249DB055A5024315A507047E6
:102E70004407000010B5040004F024FC064B9842FF
:102E800008D0064B984205D0054B984202D0054821
:102E90000FF06EFF200010BD949202004C910200D2
:102EA0008891020027040300F0B5486887B00F003E
:102EB00004F0F0FC041E02DA00200FF095FDBB6860
:102EC000164A01939D186B1E9D41010002A81EF039
:102ED0000DF8049E22000021300025F07DF83868AE
:102EE000EDB2C3070AD43300220029001FF02BF8EB
:102EF00002A90B4805F0F4FE07B0F0BD4310200016
:102F0000042C00D904200749019F00228F4200D0E1
:102F1000221AB21829001EF011FDE9E75AECFFFF52
:102F200054A10200A6130000F0B50C0087B00122E6
:102F300003A9606804F068FEA3681349039A8B42F2
:102F40000DD10126049976424C1E01911419049961
:102F500000200D00002D05D11FF043F80DE01400F6
:102F60000126F4E7094F013DB84208D908481B186B
:102F7000581E8341D8B21EF0D7FF07B0F0BD2778A6
:102F800000023843A419E5E7A6130000FFFF3F0045
:102F90005AECFFFF70B546007508041C291C281C5C
:102FA00017F064F900280BD11649281C16F0E8F92F
:102FB000002808D01449154822F05AFC00F09AF96C
:102FC00013480FF011FD002C11DA002E12D0FF2350
:102FD000DB05E3189C22D20593420BD907F022FBB4
:102FE000211C0500043020F0CEFE280070BDE30D4A
:102FF000DB05EFE7201C17F04FF9012540000543E2
:10300000F3E7C046FFFF7F7F99040300D0D702009B
:10301000B2040300F0B50C00002585B011002000BB
:103020001E00009502232A000EF0F4FD0120AC42A0
:103030002BD0844231D13068204226D10323034073
:10304000AB4203D11C4A016891421ED01B4A024088
:10305000062A06D0002B0DD10268194B92699A42BC
:1030600008D103A906F0CAFA00231A000399FFF752
:1030700029FA0AE0032302001A40022A07D1FF229C
:10308000D20580189843FFF785FF05B0F0BD04F026
:1030900001FC012340001843F7E703A9306806F05C
:1030A000ADFA04007068039F04F0F4FB2B000200EB
:1030B00039002000DBE7C04610930200070080FFC4
:1030C000999B0000F8B51F000B4B150059180139EA
:1030D000097815F07BFF00260400B74204D00130C8
:1030E000032115F073FF0600281E01D024F09AFF7B
:1030F0000334A4192018F8BD89040300F0B58DB07D
:103100000A9214AA147815AA127806000F000792E2
:10311000DA0743D55D100023002D01DA2D236D421F
:103120000693139A079B12992020FFF7CBFF3B6869
:103130000590834204D21DF092FB059B30603B60FA
:1031400000213768059BFB185A1E11708D4241D033
:103150000A3C099208920B941299280015F0BCFFC2
:103160000B003033092901D90B9B5B18089A541EB8
:103170002370079B002B4AD000282ED0A7422CD2C8
:10318000099B1B1B032B06D16B461B7F013C237045
:10319000A74222D2099405000894DDE79A0712D1CC
:1031A000244A196891420ED1079A02940392139A05
:1031B00039000192129A00920A9A1EF08BFE0400C6
:1031C00020000DB0F0BD0023326813700A9A3468F5
:1031D0001360F5E79C1E30232370139B002B05D052
:1031E000180024F01FFF201A874220D3069B002BD3
:1031F00005D0BC4203D96B461B7E013C237033686B
:10320000059A9B181B1B0A9A013B1360D8E7A7423B
:10321000E3D20028BFD1E0E7C2540133139AD25C55
:10322000002AF9D1069B0400002BE4D1E7E7002334
:10323000F4E7C046109302001300144A10B50400CE
:10324000934204D1012220000FF0D6FB10BD104A9A
:10325000934201D10322F6E70020072CF6D10D4A54
:103260001A40062A0ED09A07F0D11A680A4CA242D8
:1032700008D00A4CA24205D0094CA24202D0094C07
:10328000A242E3D10A0007201900DDE7ECD90200D1
:10329000F4D90200070080FF20C2020054A10200FE
:1032A000889702003C940200C46005614661876112
:1032B0004146C161494601625146416259468162B7
:1032C0006946C1627146816000490847D5320000F5
:1032D0000020C046024B9A68026098600020704748
:1032E000742E0020024B9A6812689A607047C0469C
:1032F000742E00200E4A9368002B01D11DF039FA7C
:10330000196858609160181CC46805694669876926
:10331000C1698846016A8946416A8A46816A8B4644
:10332000C16A8D4681688E4601207047FEE7C0461F
:10333000742E00200048704716FCFFFF00487047BD
:1033400016FCFFFF82B007B591B2049205930529E0
:1033500009D01B2902D104A8FDF75CFF002003B0AF
:1033600008BC02B0184704AB5B88062BF6D10822D4
:1033700006A9684624F014FE049A059B014813F040
:1033800025FCEBE7342A0020034B044A0833136082
:10339000034B1A607047C0464C930200D02A0020AD
:1033A000402C0020002803D0012807D0002004E092
:1033B0008B680448002B00D1034870478B685B0082
:1033C0001843FAE7F4D90200ECD90200044B8860F4
:1033D0000B60044B08004B600023CB607047C04675
:1033E0002CC80200C508020000238168F0B5CA0F8E
:1033F000094C521852100E199A4201DC0748F0BDD0
:10340000C568F11A9C0089002C196D582768256041
:10341000C46801336750EFE7FFFFFF3FE888020011
:1034200070B583680D00416804008B4212D3C90057
:10343000C0681DF032FA63680A495A00A3686260E6
:10344000D21A013352189B00E0609200C01800218C
:1034500024F0C2FDA368E268591C9B00A1600248E9
:103460009D5070BDFFFFFF3FE8880200F8B50700E0
:1034700016004C10836812D5E41810D500240D4DA9
:1034800038002900FFF7CCFFBB68591E9B00FA6883
:10349000181F8C4207DBA4002800A650F8BD9C42F0
:1034A000EDD91C00EBE7D318083B1B68013913501A
:1034B0000300ECE7E888020070B500250400856091
:1034C0001021C0681DF0E9F904232900E060636061
:1034D000102224F081FD014870BDC046E88802003A
:1034E00030B50C0085B0104B02AD043100930138AB
:1034F000022301950EF0BEFB23680C4C996801294C
:103500000FD9D8680A4B029AC91889004118A242FB
:1035100000D100222D79074B002D00D1064B1DF064
:10352000DFF9200005B030BD60930200E88802009A
:10353000FFFFFF3FECD90200F4D9020070B50C6820
:103540000B00A1680200002903D11949194821F094
:10355000D1FB2068012A27D05A68002304F072FAB0
:10356000E168A26886008B19013A1D680436A260E2
:10357000121A92008919180024F01BFD0021A3687B
:10358000E0689A001150616804290BD95B009942E8
:1035900008D949088900E0681DF07FF96368E06098
:1035A0005B086360280070BD01225242D5E7C04627
:1035B000CB040300F0D5020007B500900191022072
:1035C00069461DF0F5F9694601900220FFF7B6FF44
:1035D00000480EBDE888020070B50E000D490500D8
:1035E00000241CF0B3FDB368A34204D828000A49A4
:1035F0001CF0ACFD70BD002C03D0084928001CF065
:10360000A5FDF168A30001225958280004F072F8C2
:103610000134E8E7606B030072660300A1F002006A
:1036200070B5032604000D000E4029D1174B0A681F
:103630009A4225D183688A6899184368994210D9BB
:1036400004318900C0681DF028F9AA68A368E06009
:103650009B181A1D9B006260C0181022310024F0D4
:10366000BBFCA368E9689800E3681818AB689A0087
:1036700024F096FCAB68A268D318A360044870BD20
:10368000290020001DF09DF9F8E7C0463C94020097
:10369000E88802000B4B70B5050003600C000800C1
:1036A000042900D204206860AC6080001DF0D7F8C7
:1036B0006A68E860121BA40092000019002124F03F
:1036C0008BFC70BD3C9402007FB50D0016001228E3
:1036D0003ED005D8052819D007283FD0002434E073
:1036E0000300193B042BF9D893070DD1284B12681E
:1036F0009A4209D1B36800938A68F368C968FDF7F4
:1037000033FE244C002820D1234C1EE00323002448
:103710001340A34219D11C001D4A3368934214D1AF
:103720008B68B26898181DF065F90400AB68E96809
:103730009A00C06824F034FCA868E3688000181878
:10374000B368F1689A0024F02BFC200004B070BD2F
:1037500011002800FFF764FF2C00F6E703A9100012
:1037600004F0D6F80024A042EFD0039BA34200DA75
:103770000394AB68039858431DF03CF9C3680400F8
:103780000093AA68039B0421E8681CF061FEDCE753
:103790003C940200F4D90200ECD90200F0B50327F2
:1037A00004008BB00E0010000F40002A33D1002F10
:1037B0002AD1654B0A689A4226D104AAA068FDF76F
:1037C00057FD002802D161480FF000FB0599049BCA
:1037D000A268E0685D1A521A9B00890041189200A5
:1037E000C01824F0E6FBA368AA00E818E36880008C
:1037F00018185242390024F0EFFBA3685D19A56048
:10380000534D28000BB0F0BD07A90220079408967D
:10381000FFF794FEF4E7042A2CD1A068002F1FD1F3
:10382000494B0A689A421BD107AAFDF721FD0028DF
:1038300006D107AAE168A0681CF01DFE0500E0E7BC
:10384000079B0898C01A1DF0D5F88368E1689A00B4
:10385000079B05009B00C918C06824F0A1FBD0E7B6
:10386000002301003200206804F0ECF8E3688000D7
:10387000C558C6E7364D002F60D1334B0A689A42CF
:103880005CD103AA02A904F0A7F807AA3100A06836
:10389000FDF7EEFC002896D0079B029A08999E1827
:1038A0000191761AE068002E27DDA368F11863689D
:1038B000994206D989001CF0F0FFA368E0609B19CB
:1038C0006360029A079BA1689B18F21A5218089924
:1038D000E0689B00890041189200C01824F069FB41
:1038E000029B03999A00079B9800E368181824F03C
:1038F00060FBA3689E19A66083E79B000399C0182C
:10390000920024F04DFB0899A268E368521A8900DE
:10391000019359180798029B9200C018019B8000E0
:10392000181824F046FBA368B200F018E368800082
:1039300052421818390024F04FFBDAE70200310038
:1039400020001DF098F85CE754D30200E004030067
:10395000E88802000023F0B52F4E93B0050006A8BA
:103960001400336001910127FFF79EFC2740031EDE
:1039700035D1E2062DD56A68A96811201FF051FFE4
:1039800005002E6829000125019A03A810F082FE87
:10399000A3082B400022310003A809F011FC040009
:1039A0000320FDF7CBF9200021F059F90120404216
:1039B000FDF7C4F92C00FFF795FC002F24D0290057
:1039C000164803F015FE3C000121144803F010FED8
:1039D0001AE0A306D5D5280020F040FFD0E701204B
:1039E0004042FDF7ABF9002F03D001210B4803F053
:1039F000FFFD079803F066FE09490DF0DDFD041E8A
:103A000005D03468002FDFD1200013B0F0BD079936
:103A1000044803F093FEF5E7D42A0020DF040300F6
:103A2000C0D80200E487020010B586B0202102A8A9
:103A300080241DF04AFA64001E481DF02EFE00236B
:103A40001D4803931DF029FE03F0BAFD0128F3D0B1
:103A500002280BD119481DF020FE02A81DF057FACC
:103A600001220020164B1A7006B010BD032802D1A7
:103A700000230393E8E7042804D0C1B202A81DF094
:103A800084FAE1E70F481DF008FE039B0193002B29
:103A900008D10A481DF001FE02A81DF038FA802066
:103AA0004000E1E71122012102A8FFF753FF204265
:103AB000C5D0D9E792050300C66C0300A06A0300D5
:103AC00040020020AD05030030B587B0202102A8D8
:103AD00080251DF0FAF96D0037481DF0DEFD3748EE
:103AE0001DF0DBFD0024364902A803941CF0EDFD17
:103AF00001280AD133481DF0D0FD02A81DF007FAB5
:103B00002000314B1C7007B030BD022803D12D4876
:103B10001DF0C3FDE0E7032801D12A48E0E70428AF
:103B200008D128481DF0B9FD02A81DF0F0F9802049
:103B30004000E8E7052827D124481DF0AEFD039496
:103B400003F03EFD6B46C1B2DC1D21700329E4D0B9
:103B500004290AD11B481DF0A0FD0121162202A84C
:103B6000FFF7F8FE2842BDD0CDE702A81DF00DFA00
:103B700023780D2B03D116481DF08FFDE0E70121BE
:103B8000200003F035FDDBE7039B002BAAD002A841
:103B90001DF0E9F90CF0B4FA00280BD00A2102A8B4
:103BA0001DF0F3F90B4902A81CF08FFD0328B4D0D7
:103BB0000428ECD10021D1E7E10403002B05030028
:103BC00051050300A06A03004002002056050300CF
:103BD000860503008D050300F0B58FB0069242689C
:103BE000099394460368040002939B680430009391
:103BF000634403600E001CF04BFF059060681CF0EE
:103C00005DFF431C63600378A24A0193831C6360D9
:103C1000437800210093C31C63608378B50003934D
:103C2000031D6360C3782000049323001033A36056
:103C3000059B14309A1893000793C318E360079B01
:103C40000C331A00089324F0C7F9099B009A5B19FA
:103C50000B93059B9B1A039A0A939D1A2F1D009A9A
:103C6000BF00E7190123B24264D2019A1A4207D178
:103C70003300009A8849894810F034FBFFF73AFB7B
:103C8000009B03359900099BAD005918009B6519ED
:103C9000F01A01F0A7F8009E043F686000229642E7
:103CA00000D070E0069B002B03D1019B1B0700D4C2
:103CB000D6E002230026019A1A400992B24204D0AB
:103CC00006981FF052FE060038600027029B0B9DED
:103CD000DB680893069B9F425ED10A9B02980533DE
:103CE0009B00E1180A00049D0C30002D00D080E0FC
:103CF000049A92008918079A2032A2188A4200D9A1
:103D000080E0143B0693009B089A9B00D31807930E
:103D1000039B9D4200D27FE065680DA80D951CF0C5
:103D2000B7FE28180578461CFF2D00D0A7E0666076
:103D30000FB0F0BD019A1A4205D00335AD00584BC3
:103D40006519043F6B60069B002BA7D1019B1B07E5
:103D5000A4D4009B049A9A1AB24212D8009A049BE7
:103D6000991A32008900009B9A4297D29300029DD3
:103D700058182818089D0069EB1AE31818610132D9
:103D8000F1E7330076E7099908989300C958C31AF8
:103D9000E3181961013282E7009B039800221B1887
:103DA0009C462968944505D8099B002B1CD1CA085C
:103DB0003C490EE0089B90001858884212D1059BA0
:103DC000013B9B1A9B00E3185A69002A05D0CA08D8
:103DD0003549324810F086FA50E76A685A6101376F
:103DE000083577E70132DDE76A6830001FF0F6FD3D
:103DF000F5E71668002E02D1AE0086591660013D27
:103E0000043272E7081D0968002903D1121A9210C2
:103E10002649DEE7010071E7069AAB00D71AE719D9
:103E20003A69002A16D1082000996E180899B60040
:103E30008E190799C958019B03420DD0049B029823
:103E400004339B001858043000F086FC002803D08F
:103E500043683B6101355BE732681549D208B8E732
:103E6000039B002B02D013480EF082FF019B9B079F
:103E700000D451E703981FF078FD38604CE7ED431C
:103E8000059BED18AD00651968690AF0A7FF686128
:103E9000300047E7FDFFFF3F80EF0200FCD8020043
:103EA00080970200B9EF0200DAEF0200B0050300CC
:103EB000E20503001206030001220020074B084917
:103EC0005A600860A821DA60064AC9005A500649BB
:103ED0005A5004315A5005495A50704700A00040CA
:103EE0000CAC0040FCFF0000440500004C05000045
:103EF000034B04481B78002B00D103487047C04691
:103F0000E92D0020F4D90200ECD90200F8B5A8266A
:103F1000324A334BF600196813680420CB18C918CD
:103F20001160304A8C4612781B11170009112E4A75
:103F30002E4C2F4D002F48D0002B3ADA9051C31A47
:103F4000A920C000135081239B00002937DA591A99
:103F5000135151510123274CD3602378002B22D0D9
:103F60003F222548254B01688C331B6801310A40EC
:103F70009D5C1C4B1B78002B01D0803D6D001C23E9
:103F8000026062466B4308339B1A154A9B1013600C
:103F90001F23194007D11A4B1A78002A03D0194859
:103FA0001970FCF761FA0123227804205340237032
:103FB000F8BDA9270433FF00D0519351C3E75351F3
:103FC00081239B00C9181151C4E704339051535108
:103FD000A9208123C0009B001350F3E7D82A0020BA
:103FE000E82A00204102002000A000404C0500000B
:103FF00044050000E82D0020DC2A0020742E00205B
:1040000042020020250B020030B585B001220400D9
:10401000080001A903F0F8FD029A202A00D9202205
:104020000023019D934204D0E85CE118087101333C
:10403000F8E7014805B030BDE888020070B504001B
:104040000800150003F026FC1F2802D90C480EF0CA
:10405000CBFC002D02D10B480EF08AFE2418042D53
:1040600004D1012023795B00184370BD280003F0C0
:1040700011FCFF2801D90448E9E720710348F4E75F
:104080006B0603007F0603009D190300E888020009
:104090000123A022834010B5134CD2051351030015
:1040A000C133124CFF339B009C50114B8900C9183F
:1040B000A223DB00CA580F4C00022240CA50F8224B
:1040C00052011040C022CC589202224310430322D6
:1040D000C850CC58084822432043C850C046C04668
:1040E000C046CA5010BDC0460C05000003030000C6
:1040F00000600040FFE0ECFF031F0000A0221E2133
:10410000114BD20070B59C58104D8C439C50A32489
:10411000E4001D510E4C0F4D0F4E5C5104355E51A5
:104120000E4D80005C51A5240D4DE4001D51084C3E
:104130000C4D00190C4C185104341D510B4C1851E6
:1041400098580143995070BD00F0014040A10040D3
:10415000006000401C05000044A100402405000050
:1041600048A100404CA100402C050000340500008F
:1041700010B504000A4907F0EDFA0A4BA0211C60B3
:1041800001236079084A8340C9058B500021FFF75D
:104190007FFF0020FFF7B2FF0022044B1A7010BD12
:1041A000CCB30200E02A00200C05000041020020F0
:1041B00070B50D000400134E2800310007F0CAFA54
:1041C0003100200007F0C6FA0F4BA0221C600F4BF5
:1041D000D2051D60607901242100814026000C4B2E
:1041E000D15069798E400021D650FFF751FF687990
:1041F0002100FFF74DFF2000FFF780FF054B1C70EB
:1042000070BDC046CCB30200E02A0020E42A0020A2
:104210000C05000041020020F8B50025FFF74CFE18
:10422000214B280090331D60FCF7ECF8A0221E20E3
:104230001E4B1F491D701F4BD2001D601E4B1F4C93
:104240001D608B581E4F83438B50A223DB00E25826
:104250001C4E3A40E250E2581B493243E2500122E0
:10426000E5501A4B186843799A401300A022D205F2
:10427000535007F059FA164B1B78AB4213D0154B2D
:104280001149E2581740E750E25816430122E65020
:10429000E550114B186843799A401300A022D205CB
:1042A000535007F041FAF8BD742E0020E92D00208C
:1042B00000F00140D82A0020E82A002000600040D9
:1042C000FFE0ECFF001F03000C050000E02A0020C7
:1042D0004102002014050000E42A0020F0B53E4E03
:1042E0008DB0330090331B680500002B03D1FFF71E
:1042F00093FF0DB0F0BD002801D00FF05BF86846C9
:10430000FEF7D2FF002822D13300903318680DF059
:1043100077FF0400FEF7E6FF002D01D00FF054F800
:104320002E4B20221D6833006D118C3301356D0139
:104330001B6815405D19002C2DD1903621002800F6
:10434000346023F049FE0122254B1A70D1E7002D7D
:1043500001D00FF039F8019B224918680DF02CF9B3
:1043600000240500A042DBD1019F380003F0AAF928
:104370001D4B98420BD12900012000F033FD2A008B
:104380000400F8601F21194804F0E0FCA060019BC4
:104390000024B364C4E7200003F094F9144B98425E
:1043A00009D0330000229033124913481A6021F0DB
:1043B0005FFAB0649DE763682B60A3686B60E36895
:1043C000AB602369EB6063692B61A3696B61E3698F
:1043D000AB61236AEB61B6E7742E0020DC2A002073
:1043E0004202002048D80200E0D60200390603004D
:1043F0002095020059060300FCD8020010B5FFF713
:104400000BFF014810BDC046E8880200F0B589B036
:104410000493734B03901B780E001500002B01D002
:10442000FFF7FAFE6F4C8C342368002B06D16D4ADF
:104430004020903213601CF012FA206080226A4BF8
:10444000D200DA670122694C694BE250FFF734FD74
:104450000023684AF021A3500432A3500832A3502D
:10446000C22209039200A150634F093AFF3AA350B8
:104470000594BE4200D0A3E0B54200D09DE05F4D60
:1044800007AC280007F05AF9002805D001235C4941
:104490002800237007F05EF95A4D280007F04EF906
:1044A000002805D0012356492800637007F052F90F
:1044B000554D280007F042F9002805D00123504946
:1044C0002800A37007F046F9002307AA5F1C9B5C35
:1044D000002B39D04D4ABB00043BD458A022032105
:1044E0003D006379D205C133FF339B00995007AB80
:1044F000EB5C002B26D00426444BAA00D358019332
:1045000001226379A0219A40A123C905DB00CA508A
:10451000019B0533180002931CF0E4FA012811D125
:104520006379A02198403A4BC905C85002981CF005
:10453000D9FA002806D1013E002EE1D1019949E0C7
:104540000225D4E7022DFBD10123022FBDD12B4838
:10455000FEF790FCFFF70CFE002103980DF016FE0D
:10456000002501243F221F4B802190331860294BE6
:104570001D70294B1C70294B1A601A4B12198C3371
:10458000186823F029FD2800FFF7A8FE244B144EDD
:104590001C60059B50221C60224928003470FBF7E8
:1045A000FDFE049BAB4219D00E4B3278002A15D089
:1045B0009A6C002A12D120BFF7E71B480EF0D8FBF7
:1045C0003000FEF757FC0400BD42C3D02800FEF7C0
:1045D00051FC01002000FFF7EBFDBDE709B0F0BD85
:1045E000E92D0020742E002004E100E000A000402E
:1045F000FC0F000004050000E8880200C4910200DE
:104600009CB302000C9202001C920200EC94020087
:104610000C050000E82D002042020020DC2A0020CA
:104620000CAC00400D3F0000A406030010B5084B81
:1046300086B002AC0093019404230DF01BFB02989A
:104640002379E268A168FFF7E1FE024806B010BDD9
:10465000F8940200E8880200014B1878C0B2704755
:10466000E92D002010B524201CF0F9F80400044BBB
:10467000202208C0802123F0AFFC200010BDC046DE
:1046800020950200F8B5070008000D00160003F0A1
:1046900019F8304B98425BD1781F0F2858D814F086
:1046A00081FC0808325757575757575757575730B5
:1046B0003055FFF7D7FF04230400EA5CE2540133CE
:1046C000242BFAD1300002F0FDFF224B98423FD15B
:1046D0000121052F02D0122F00D002390422FF2021
:1046E000B35CA55C803B4B435B19FF2B03D90500F2
:1046F000DB179D432B00A3540132242AF0D1200064
:10470000F8BD2C00DEE7FFF7ADFF04230400EA5CF0
:10471000E2540133242BFAD1300003F01FF90F21AA
:104720001CF005FA2100FF25221D24311378803B5F
:104730004343DB138033FF2B03D92E00DB179E434B
:104740003300137001329142F0D1D8E72C00E3E737
:104750000024D4E720950200F0B587B000920278DB
:1047600004000F00930703D5009B002B00D0F5E059
:10477000D307DB0F0ED07A4B3B40062B43D00323ED
:104780003B4003D177493868884203D0009B012B16
:1047900000D0E3E0019353075FD52368A568DE08E6
:1047A000F600AE19B54230D3009B012B00D0D5E006
:1047B0002368D9086368994210D104316160A06808
:1047C000C9001CF06AF823686268DB08D21ADB00B3
:1047D000A060D200C018002123F0FEFB072123684F
:1047E000DD086A1CD2000B4013432360A368ED0070
:1047F0005D195B4B2F601F40062F21D001222378CB
:10480000934323701CE00123C4E72868B8421AD1FF
:10481000009B022B14D129002368721BD210083B85
:10482000013A6F6828002360D200083123F0C1FBF1
:104830002368DD08A368ED005D1900236F602B601D
:10484000280007B0F0BD019B002B04D1390002F015
:10485000CFFF0028DCD10835A4E76368002B05D121
:10486000009B012B7AD1200000F07EF83C4B3B40AE
:104870000593062B27D1F8081DF01CFC03906168F6
:10488000039814F029FC00260491049B0293029BD8
:10489000DD00A3685D19286800281BD1009B012B4F
:1048A0005CD107212368DA080132D2000B401343A0
:1048B0002360002E00D0350000236B60059B2F6025
:1048C000062B9BD1BCE7390002200DF0F7FA43100C
:1048D0000393D4E7042803D1002E1DD12E001BE042
:1048E000B84211D1009B022BAAD123680298083B41
:1048F00023600130616814F0EFFBA368C900CB5856
:10490000002B25D12B609BE7019B002B04D13900A4
:1049100002F06EFF0028E5D102986168013014F0C2
:10492000DBFB049B02918B42B1D1009B012B15D183
:10493000002E0FD0236835000833236000237360F6
:10494000059B3760062B00D17AE72378009A57E75A
:104950000423D7E7200000F007F890E700256FE771
:10496000070080FF20C20200F7B5436804000193EE
:104970005A1C002317495800455AAA4206D9013348
:10498000222BF8D15508AD18213B1D43E800A7683C
:104990001BF077FF07232268656013400122002582
:1049A000236013432370A060019B9D4203D1380014
:1049B0001BF084FFF7BDEE00B959002908D0042987
:1049C00006D001222000FFF7C7FEBE1973684360BE
:1049D0000135E9E724E90200F8B505000023046881
:1049E00086681449621C5800405A824206D9013335
:1049F000222BF8D150088218012010430023286090
:104A00006B6080001BF03DFF3700A400A860A41974
:104A1000A74203D130001BF051FFF8BD39680029CF
:104A200005D0042903D0012228001CF0E1F8043746
:104A3000EEE7C04624E90200F7B545681600A8680D
:104A40001F0001911CF034F80400A8681CF036F82F
:104A50001CF02EF80300032058430734001980008F
:104A60001BF0FDFE074B040003606B6832004360DF
:104A700000238560C36001993B000830FFF7ACF864
:104A80002000FEBDAC95020070B5050088680C00E2
:104A90001BF04CFB23000200024928001BF017FC0E
:104AA00070BDC046E606030010B5024820F0D3FEF4
:104AB000FEF720FC48D8020010B5040008201BF0C7
:104AC000CEFE024B4460036010BDC046E895020074
:104AD000F7B5C56804001E00002D02D11D60280036
:104AE000FEBD03691830834205D1184B994203D0AB
:104AF00017480EF03DF919602000164F11007B6831
:104B00000830019363687B6000F000FB019B0500A7
:104B10007B60012807D002280CD00023E3602369C2
:104B20001B683360DBE723691B683360002BD6D139
:104B3000E360D4E7A36898681BF0BAFF0023053050
:104B40008000E36024186368EBE7C046E888020051
:104B500004070300742E002013B501ABFFF7B8FF64
:104B600001280ED0104C02280DD0019BA34219D071
:104B7000002B17D001AA01210C4820F066FEFEF799
:104B8000B9FB019816BD019802F09CFD07490CF095
:104B900013FD002801D10198F1E701980FF06EFB99
:104BA000A042F8D10020EDE7E888020048D80200D2
:104BB00010B50B00022808D14A6805491868FFF7AC
:104BC000CBFF002803D1FFF76FFF8A68F5E710BD20
:104BD000E888020010B500220149FFF7BDFF10BDB3
:104BE000E888020013B5114C01AB114A2100FFF710
:104BF0006FFF012803D0022805D0200016BD0D4903
:104C00000D4820F077F8019802F05CFD0B490CF09C
:104C1000D3FC0028F1D1019802F054FD08490CF0B2
:104C2000CBFC0028E9D10198FEF764FBE88802007C
:104C3000B4D30200C60603000CD802003CD5020023
:104C400048D8020030B58DB005006846FEF72CFB51
:104C5000011E10D12A1D012020F010F80122EB685E
:104C600004005B1001335B001343EB60FEF73AFB7B
:104C700020000DB030BD0198054A0368934205D06D
:104C8000044A00249342F3D0FEF734FB0024EFE7FC
:104C900048D80200F0D50200044B0B6003684B605B
:104CA000436808008B600123CB60704724960200A4
:104CB00000487047EC960200F7B5019111490400D5
:104CC000170000251BF042FA7B68AB4204D80E495E
:104CD00020001BF03BFAF7BD002D03D00B4920004C
:104CE0001BF034FA019BAE009A5909492000BE1905
:104CF0001BF0EDFA0122B168200002F0FBFC013547
:104D0000E2E7C0467B720300B5170300A1F0020082
:104D1000AA070300044B88600B60044B08004B603B
:104D20000023CB607047C0462CC802006F0D020004
:104D300070B50E001049040000251BF007FA7368D7
:104D4000AB420AD8012B03D10C4920001BF0FEF91D
:104D50000B4920001BF0FAF970BD002D03D0094962
:104D600020001BF0F3F9AB00F31801229968200032
:104D700002F0C0FC0135E2E77B720300AE070300DE
:104D8000B5170300A1F0020070B50D0001281ED078
:104D9000002803D0022807D0002004E04B680E480A
:104DA000002B00D10D4870BD00260D4C6B689E4253
:104DB00003D3012064002043F5E7B300EB189968A2
:104DC00002200DF07BF8401024180136EEE74B6806
:104DD0005B001843E7E7C046F4D90200ECD90200B3
:104DE0008097020070B506000D000B48002E0DD014
:104DF000B41CA40020001BF032FD084B4660036089
:104E0000002D03D00023083CA34200D170BDE95817
:104E1000C21891600433F7E7809702008897020078
:104E2000F0B5070085B00E0014001D2803D9002539
:104E3000280005B0F0BD01238340324D1D4044D110
:104E4000314A13421FD1F82292051342EFD02000BD
:104E500002F038FC2D4B426A9A4205D020002C49C2
:104E60001FF078FE041E0CD0230031006268083366
:104E70000092083172683800FCF776FA254D002858
:104E8000D6D1254DD4E7200002F01CFC20490CF0BF
:104E900093FB0028CBD07368626829009818FFF74D
:104EA000A1FF07003100736808379A000500083138
:104EB000380023F075F821007068636880003818A6
:104EC0009A00083123F06CF8B2E703A9100002F051
:104ED0001FFD0025A842ABD00398104D0028A7DD88
:104EE000736800215843FFF77DFF05002B00300059
:104EF000083300930830039B726804211BF0A8FA62
:104F000096E7C0468000100020000400154D000008
:104F100088970200F4D90200ECD9020080970200C1
:104F200030B5040085B0042A2DD1032540680D401A
:104F30001FD1164B0A689A421BD101AAFCF798F9B7
:104F4000002802D112480DF041FF019B0298290070
:104F5000C01AFFF747FF050021006B6808319A006F
:104F6000019B08309C00091923F01AF8280005B0AD
:104F700030BD0A0000230100206802F063FD02300A
:104F800080000559F2E70025F0E7C04654D302003F
:104F9000B0070300F0B50C001100002285B01E0020
:104FA0000092012320000CF035FE184D002C1ED07D
:104FB0003568AB0703D1164B2A689A4217D01020E8
:104FC0001BF04DFC0021040030680DF0DFF80025D7
:104FD0000426039003980DF03BF9071E0AD1280020
:104FE0002100FFF7FFFE050020001BF067FC2800F2
:104FF00005B0F0BDAE4205D8F10020001BF04DFC1D
:1050000004007600AB001F510135E3E780970200F2
:105010008897020010B5406821F016FA024B00286C
:1050200000D1024B180010BDF4D90200ECD90200E7
:1050300010B5406821F010FA004810BDE888020061
:1050400030B505008BB0FBF7F7F8144C200021F0C9
:10505000E1FB686811F006FD200021F0E0FBFBF7A2
:10506000DBF81EF0CCF91BF0ABFE0400696803A866
:1050700021F0E4F90A4B20000693039B0793049B5D
:105080000893059B019309931FF0D5FD2000102282
:1050900006A90CF095FD03480BB030BD402A002056
:1050A00055BA11C0E8880200F8B5094E3378002BD4
:1050B0000CD1084D2C78E4B2002C07D101270068F0
:1050C0002F7003685B6898472C703770F8BDC04636
:1050D000EA2D0020EB2D00201FB51BF071FE054BC3
:1050E00002689A4204D104300EC8034811F0F8FC5B
:1050F00005B000BD55BA11C0EC29002010B54A68B2
:1051000001491BF0E4F810BD7C6E0300F0B50368A4
:1051100099B00700986807911BF0CAFC01220F2183
:10512000431E0430800004933B180293043303931E
:10513000FB6806A81A4009180A70032293430A93D1
:105140000CA8FEF7B1F8031E00D041E3079A7D6872
:10515000BC68002A00D19EE22A785E2A00D19AE239
:10516000079807930DF05AFB04000AE0D64B6360E2
:105170000434D64B9A6C002A00D18BE200229C6C3E
:105180009A64FEF7AFF80D9422E3D14BEFE7D14BD1
:10519000EDE77F216B785B06DB173278DB011000CF
:1051A00052B2084003430136002AF6DB01225B00BD
:1051B0001343DCE700237F213278DB01100052B279
:1051C0000840C3180136002AF6DBDB000622EFE7B1
:1051D00003220336964308CEC9E70023C7E700231E
:1051E0007F213278DB01100052B20840C31801362B
:1051F000002AF6DB9B005B42029A9858002800D0F8
:1052000028E3B549B54820F033FBADE700237F2103
:105210003278DB01100052B20840C3180136002A70
:10522000F6DB029A9B005B4298581EF018FBE5E7FC
:1052300000207F223378C00119005BB211400818AA
:105240000136002BF6DB251D0CF0DAFD60603EE038
:1052500000207F223378C00119005BB2114008188A
:105260000136002BF6DB251D0CF098FDEEE7002142
:105270007F223378C90118005BB210404118013613
:10528000002BF6DB20681FF008FD206071E700218D
:105290007F223378C90118005BB2104041180136F3
:1052A000002BF6DB220001CC0CF024FF61E700208C
:1052B0007F223378C00119005BB211400818013613
:1052C000002BF6DB21000839251F0CF065F92C00B6
:1052D0004FE7251D0CF0ACFDB8E7251F042221681F
:1052E000286802F05FFC2860F1E700237F21327814
:1052F000DB01100052B20840C3180136002AF6DB69
:105300009B005B42029A21689950F8E000237F21BC
:105310003278DB01100052B20840C3180136002A6F
:10532000F6DB029A9B005B4221689858251F1EF00D
:1053300098FACCE700207F223378C00119005BB2D5
:10534000114008180136002BF6DB2168251F0CF0F0
:1053500085FDBCE700207F223378C00119005BB2D5
:10536000114008180136002BF6DB2168251F0CF0D0
:105370008DFDACE700217F223378C90118005BB2B4
:10538000104041180136002BF6DB231F1A682068F5
:105390000CF0D8FE083CECE62200231F083A2168F6
:1053A0001268186802F0FEFB0C3CE2E600237F2145
:1053B0003278DB01100052B20840C3180136002ACF
:1053C000F6DB029A9B00D31A1A68002A00D118E76C
:1053D00000221A60CDE600257F223378ED01190006
:1053E0005BB211404D190136002BF6DB029BAD007C
:1053F0005D1B28681EF033FA002800D101E7002168
:1054000028681EF02EFAB4E600207F223378C0010F
:1054100019005BB2114008180136002BF6DB0CF0C6
:1054200029FDA6E600207F223378C00119005BB277
:10543000114008180136002BF6DB0CF033FD98E61E
:10544000236894E62368A360231F1B686360083405
:105450008FE6231F196822682160BAE7221F1368AC
:10546000216823602300083B18681060196080E6FB
:10547000737832781B021343ED18194BEE1878E657
:1054800033787678206836021E43019602F040FB9E
:10549000EE1C251F2C00002800D16AE6114A019B52
:1054A00094466344F61864E63378767820683602CA
:1054B0001E43019602F02CFBEE1C251F2C00002839
:1054C00000D056E6EAE7C046ECD90200742E002070
:1054D000E8880200F4D90200E10703001CD70200AB
:1054E0000380FFFF0080FFFF337876782068360264
:1054F0001E430196EE1C02F00BFB0028CED1043CAB
:1055000037E633787678206836021E430196EE1C23
:1055100002F0FEFA0028C1D0F1E7F121266822004E
:10552000300049000CF0E6FD2300F02108331A009A
:105530003000490001930CF0DDFD0021019A0800C4
:105540001FF09CFBAB786A781B0213430A9A0F2169
:105550000C320A920A9AEE1CF3181360022206AB70
:10556000C9180B780A9D1A43231D13436B6000234F
:105570000A9A0B709360A060019CFAE525002368ED
:10558000B54A0193083D934209D16360A3602A00A4
:10559000002103201FF072FB019B2B6097E6012284
:1055A000019B134005932AD0231F1A680592019A84
:1055B0005210012A0DD1A84A0C3C1A60E260226107
:1055C0000021220003201FF059FB059B23600323C9
:1055D000E3E72A68002106929F4A03202A601A60A6
:1055E0002300103B22601A0001931FF047FB019B30
:1055F000069A0C3C1A60059B23600523CDE7019BAE
:105600006360180002F05EF8934B2060A3602A00EC
:10561000059903201FF032FB02F07AFA00280DD022
:1056200001228D4B06A92B600A9B5B6813400E324A
:10563000521813700A9B0C3B0A9348E66368ACE768
:10564000737832781B021343844AEB189B1863600B
:10565000EB78083423600F267F210220012506AA5B
:105660002368B6180B4206D1221F1668002B00D102
:1056700090E6183C7DE50A9A013B526802426FD0E1
:10568000220008C20523636014000A9B1E680A9B5F
:105690000C3B0A9335007D602B786E1C1800103887
:1056A0005A2800D905E313F087FC61FD70FD72FDF7
:1056B000040374FD040385FD93FD98FD9AFDB1FD7F
:1056C000C3FDD3FDE2FDF2FD02FE14FE18FE20FE36
:1056D00031FE45FE55FE65FE77FE81FE96FEAFFE6D
:1056E000BDFE0403040304030403CBFECDFE2AFF26
:1056F000D4FED9FEE3FEEBFEFFFE1FFF2CFF0403EA
:105700000403040338FF69FF630063008000AE00F8
:10571000BF00DD00DD00CBFFB3000403040304037E
:1057200004030403040304030403E900FB0004036B
:105730000D011C0104032501520137017301890188
:10574000380268029602800204039E01A901B40196
:10575000C101CD01EA0104022102CE02ED02FE02E6
:105760000A9A52682A4032700A9A0C3A0A9279E7E9
:10577000737832781B0213430A9AEE1C0C320A9299
:105780000A9AF31813602B7806A9403B5A425341FA
:105790000F22521810785B000A99034323434B6091
:1057A00000230A9913708B60E3E423682A4A93422A
:1057B00000D1A4E6DA0707D55B10DBB2043C012B6D
:1057C00000D048E70222CEE1FDF78CFD23680D935F
:1057D0000D9B234918680BF0EFFE002800D1AEE2C4
:1057E0007A68002A00D1AAE21378432B00D098E20D
:1057F000937850781B02D11C0343CB187B60BB68A5
:10580000103BBB609CE4002120680CF0BFFC3CE531
:105810002500210020680C350CF0B8FC844200D132
:1058200055E50023236011E52000337876780C38A5
:105830003602BC601E4303680196EE1C002B02D1A9
:105840002300083B18680CF0DBFC002802D1103C58
:10585000019B27E660608BE4E88802000380FFFF7D
:1058600048D8020001220A9B06A95B6813400E3249
:10587000521813700A9B0C3B0A937AE400207F2293
:105880003378C00119005BB2114008180136002BB3
:10589000F6DB8100641A04342100FFF7A3FAF4E474
:1058A00000207F223378C00119005BB21140081834
:1058B0000136002BF6DB8100641A043421001BF052
:1058C000BCF8E2E400207F223378C00119005BB20B
:1058D000114008180136002BF6DB251D1EF045F897
:1058E000B4E42500231F083D1A68216828681EF0CB
:1058F00075F8ECE400207F223378C00119005BB218
:10590000114008180136002BF6DB8100641A0434BC
:105910002100FBF72DFFB8E400237F213278DB0163
:10592000100052B20840C3180136002AF6DB251FCA
:1059300028682168022B03D1CC4A0EF023FCD2E464
:10594000083C0A00010020680EF01CFC9DE40023C6
:105950007F213278DB01100052B20840C3180136B3
:10596000002AF6DB9A08920052421059032221685D
:105970001340251F002B02D1FDF752FDA7E4012B98
:1059800003D12A681EF02AF804E51AF062FE9EE4AC
:1059900000257F213378ED011A005BB20A405519CA
:1059A0000136002BF6DB2200290020680CF0E6FD12
:1059B000AF4B5D19AD006419FFF7DBFB00257F21BC
:1059C0003378ED011A005BB20A4055190136002BFD
:1059D000F6DB2200290020680CF024FEFF222B0AAF
:1059E00013401540E5E70322F31C93430022186897
:1059F00011001E1D251D1AF07EFE27E40322F31C54
:105A00009343251F2268296818681E1D1AF073FE2B
:105A100069E40322F31C934319795E1D8A00A41ADA
:105A20000434220018681AF082FE2EE40322F31CCC
:105A3000934318798021C243490092005E1DA41847
:105A40000143EEE700207F213378C0011A005BB2EA
:105A50000A4010180136002BF6DBFF25FF2201005B
:105A6000C3096D0011402B405B189B00E41A000A2B
:105A70000240231D20680CF093FAFFF706FC00217A
:105A80007F223378C90118005BB2104041180136FB
:105A9000002BF6DBFF22CB0952001340CAB29B1841
:105AA0009B00E41A083C220000200CF011FCFFF7D8
:105AB000ECFB00237F203278DB01110052B2014061
:105AC000CB180136002AF6DBFF211800FF2508401D
:105AD000DA096D002A40451C52199200A41A1B0ACB
