:020000040000FA
:1000000000400020618C01009D8C01009F8C01004C
:1000100000000000000000000000000000000000E0
:10002000000000000000000000000000A18C0100A2
:100030000000000000000000A38C0100A58C01005E
:10004000A78C01003DFB0000FD850100A78C01008D
:10005000A78C010000000000A78C0100A78C010004
:10006000F19F0000E1810100A78C0100A78C010035
:10007000A78C0100A78C0100A78C0100A78C0100B0
:10008000A78C0100A78C0100A78C0100A78C0100A0
:10009000A78C0100257D0100BD7E01002DA100007F
:1000A0003DA10000A78C010000000000000000003E
:1000B0000000000000000000000000000000000040
:1000C00010B5064C2378002B07D1054B002B02D02E
:1000D000044800E000BF0123237010BD8802002007
:1000E000000000000C840300084B10B5002B03D067
:1000F0000749084800E000BF07480368002B00D10B
:1001000010BD064B002BFBD09847F9E7000000001C
:100110008C0200200C8403007C0200200000000000
:10012000164B002B00D1144B9D46402292029A1A86
:10013000924600218B460F461348144A121A28F0A3
:100140003BFD0F4B002B00D098470E4B002B00D0EF
:1001500098470020002104000D000D48002802D01F
:100160000C4800E000BF1FF005FD2000290028F02A
:10017000F2F91FF049FCC0460000080000400020D2
:10018000000000000000000080020020E02F00209E
:10019000000000000000000010B50FF0B3F80549A2
:1001A00019F078FC0323020002209A43024B10430B
:1001B000C01810BDE02E65420000808010B50FF021
:1001C000A1F8054919F066FC0323020002209A43B6
:1001D000024B1043C01810BD35FA8E3C00008080E1
:1001E00010B50FF08FF8011C19F010FF024B00281A
:1001F00000D1024B180010BD3CDB020034DB0200D2
:1002000010B50FF07FF8440064080849201C19F06D
:10021000FDFE002805D10549201C18F0ADFF00287F
:1002200001D0034810BD0348FCE7C046FFFF7F7FB5
:1002300034DB02003CDB020010B50FF063F8034B27
:10024000034002201843024BC01810BDFCFFFF7F83
:100250000000808010B50FF055F84400640808498C
:10026000201C19F0D3FE002807D10549201C18F0E6
:1002700079FF002801D1034810BD0348FCE7C046C0
:10028000FFFF7F7F3CDB020034DB02001FB5002351
:1002900001930FF037F801A91CF0C2F90322030003
:1002A00002209343064903435B180293019B934347
:1002B00003435B1802A9039311F012FB05B000BDC4
:1002C0000000808070B50D000FF01CF8041C2800A1
:1002D0000FF018F819F0B2FE0100201C1CF07CF998
:1002E0000323020002209A43014B1043C01870BD43
:1002F000000080801FB5002301930FF003F801A9CF
:100300001CF040F9032302249843074B2043C018F4
:100310000290019826F0A4FA02A90390200011F09F
:10032000DFFA04B010BDC0460000808070B50D003B
:100330000EF0E8FF041C28000EF0E4FF011C201C56
:100340001CF03EFC0323020002209A43014B1043A1
:10035000C01870BD0000808070B50D000EF0D2FF97
:10036000041C28000EF0CEFFC00FC3076000400839
:100370001843032302249843014B2043C01870BD47
:100380000000808070B50D000EF0BCFF041C28003A
:100390000EF0B8FF011C201C1CF09AFB0323020086
:1003A00002209A43014B1043C01870BD00008080AA
:1003B00010B50EF0A7FF1BF0EDFE03230200022094
:1003C0009A43024B1043C01810BDC0460000808005
:1003D00010B50EF097FF1CF027FB0323020002204C
:1003E0009A43024B1043C01810BDC04600008080E5
:1003F00010B50EF087FF1CF0C3FA032302000220A1
:100400009A43024B1043C01810BDC04600008080C4
:1004100010B50EF077FF1CF017FA0323020002203C
:100420009A43024B1043C01810BDC04600008080A4
:1004300010B50EF067FF1CF0C9F90323020002207B
:100440009A43024B1043C01810BDC0460000808084
:1004500010B50EF057FF1CF005F803230200022030
:100460009A43024B1043C01810BDC0460000808064
:1004700010B50EF047FF1CF02FFB032302000220F3
:100480009A43024B1043C01810BDC0460000808044
:1004900070B50D000EF036FF041C28000EF032FF80
:1004A000011C201C1CF070FC0323020002209A4354
:1004B000014B1043C01870BD0000808010B50EF0D5
:1004C00021FF0021041C18F043FE002802D0074839
:1004D00013F05AF8201C1CF0EBFD0323020002204D
:1004E0009A43034B1043C01810BDC046E3F6020008
:1004F0000000808070B5060008680D000EF002FF55
:100500000021041C18F02EFE002802D0184813F019
:100510003BF8201C1CF0BCFB041C012E06D103235D
:1005200002209C432043134BC01870BD68680EF036
:10053000E9FE0021051C18F015FE0028E6D1FE2179
:10054000281C890518F0FEFD002803D00A490B4835
:1005500025F0F5FC281C1CF09BFB011C201C19F04D
:10056000A9F80323020002209A431043DBE7C046A8
:10057000E3F6020000008080D2F60200E09D020057
:1005800003000F2010B5084003280ED818F0FCFB1C
:100590000204090D180010BD0648002BFBD10648C7
:1005A000F9E7180026F05CF9F5E7180026F073F972
:1005B000F1E7C0463CDB020034DB0200F8B5124A2A
:1005C0000D00124B124990421AD0C4688C4203D0DD
:1005D000012428602000F8BD406B002812D0046878
:1005E0009C42F0D10600002447680836BF00F71986
:1005F000BE42EFD2290001CEFFF7E0FF2418F7E753
:100600000024E7E70400E5E7F8BE020058DC02003A
:1006100005070000F8B505000C00AB68002B0AD0F8
:10062000344AE168914206D0E358002B03D00422FB
:10063000EB681A60F8BDA06B002822D06B6800221E
:10064000D90006230430194315F074F9021E18D09E
:100650002B7C002B06D042680020EB68296812F042
:100660008BFAE7E72B68181E07D02249E6688E420E
:1006700003D021498C4200D01869EB6852682100F0
:10068000EDE72B68002B14D1636B002BD2D01B4AF3
:100690001968194F1C00914208D15E68184B083444
:1006A000F618B600A619B44217D32468BC42B4D1D8
:1006B000C0E72A7C002AE7D10E4AE1689142E3D0E4
:1006C0000D4A9442E0D01869EA68696812F0AEFAFF
:1006D000EB681B68002BD7D0ACE72168B94201D189
:1006E0000434E0E72800FFF795FFEB681B68002B58
:1006F000F6D09FE705070000F8BE020058DC0200B4
:10070000FFFFFF3FF0B58FB00E0005A901920293E5
:100710000700FFF753FF051DAD00280020F069FA20
:100720000400002180C026F0E6F82A002000103ADC
:100730001030002128F040FA012E05D1029B1B68E1
:100740000393042B00D189E007AD08220021280083
:1007500028F032FAF222002309A8FF324260E63A7A
:10076000FF3A39008260C56003740993FFF752FFB6
:10077000079804282FD10598029BC568019A31007B
:10078000A847206120000EF071FC874266D1EA2262
:100790000023FF32390009A8089307930B930994AB
:1007A0000A92FFF737FF079B002B57D00198304381
:1007B00036D107AA010025F086FB0500294B9D4292
:1007C0004CD0280024F0A6FE27490200274803F059
:1007D0007BFB03F095FC0028D4D0019A324306D16C
:1007E00006AB0121069712F0A9F90400CAE7019BA4
:1007F0005C00A4190134A400200020F0FAF9221FA3
:100800000390029980C028F0BCF9711C039B019AE7
:10081000286812F093F90400039820F019FAB1E760
:10082000019B5D00AD190235AD00280020F0E1F913
:100830002A000700079B029903600393089B083A6C
:100840004360083028F09DF93A000199300025F006
:100850003AFB0500380020F0FBF9AFE720000FB0AD
:10086000F0BDC04670BF020046F702002C9D02009A
:10087000F0B5146889B01700002C0ED1436803ADA1
:1008800082686960596B0392AC60EF602C74002938
:1008900005D111492800FFF7BDFE09B0F0BD0F4B8F
:1008A0000A689A4210D14B6808310E000193019BEF
:1008B0009C42EED0A300F1582800FFF7ABFE3B6846
:1008C000002BEAD10134F2E72800FFF7A3FE3B68D2
:1008D000002BE2D1DDE7C046F8BE020058DC020082
:1008E00010B54A68014921F085FC10BD43F80200AB
:1008F000F0B58BB004000E001500002108226846F8
:1009000028F05AF91422002105A828F055F92023CF
:1009100007936B4605940893E023002D02D0042D25
:1009200011D1E623FF33216805A80693FFF772FE75
:100930000221009F042F0FD12A00310020690EF000
:1009400005FE0BB0F0BDFC2321685B0005A80693F3
:10095000FFF760FE0321ECE7381EF2D002AB002265
:1009600002940396049512F0E9F8042DE9D00148A9
:10097000E7E7C04670BF0200F0B5204B8BB08200A5
:10098000D35803AF0C000822002106003800019361
:1009900028F012F9019B05AD6B601423AB600023B6
:1009A000280021680594EF602B74FFF733FE03984D
:1009B000042805D12169300012F04EF80BB0F0BDCB
:1009C00000280AD0210025F076FA022EF6D10EF08A
:1009D00061FC440001202043F0E7022E01D00020FA
:1009E000ECE7E2232168FF3328006B60FFF712FE7B
:1009F0003B68002BF3D16400ECE7C0465C91020039
:100A0000F0B506008BB00C00171E3ED0FB235B0038
:100A10000822002103A8019328F0CEF8019B05AD20
:100A200006930823079303AB08930023216828004B
:100A30002B740594FFF7EEFD039B002B09D1002FCB
:100A400007D1F733FF33216828006B60AF60FFF7F1
:100A5000E1FD039804281DD120690EF007FB164B19
:100A6000C2689A4214D1002F07D02368586821F039
:100A7000CCFC0100300021F0F5FA80223A432169D4
:100A800030000EF00BFB0BB0F0BDFA23FF33BFE7D5
:100A90003A00F4E7002805D0210025F00CFA0022E6
:100AA0000100EDE7200024F035FD2300020003499A
:100AB000300021F09FFBE6E7893D0000F5F60200DB
:100AC00070B504000D000B4921F0CCFA69680022D2
:100AD00020000EF0E3FA0849200021F0C3FAA968CB
:100AE000002220000EF0DAFA0449200021F0BAFAC0
:100AF00070BDC046FEF7020007F802004EF8020083
:100B000010B5C468002C06D142680449044803F0BB
:100B1000DBF903F0F5FAA04710BDC0460AF8020061
:100B20002C9D0200F0B5154B89B016008200D558F7
:100B30000C000C2200210700684628F03DF818231D
:100B400003A84560836000256B462168C360039459
:100B50000574FFF75FFD009B042B06D1320021696D
:100B6000380012F019FD09B0F0BD181EFBD06A461E
:100B700029000120029625F0A6F9F4E7D48F02009F
:100B8000F0B51700EE228DB004000393002307A8F0
:100B900052004260CD3A05ADFF3A0E0021688260F6
:100BA000C560037405936B600794FFF733FD0598E8
:100BB000002809D1200024F0ADFC0C4902000C48AB
:100BC00003F082F903F09CFA039B042806D13A0053
:100BD0003100206911F0B2FF0DB0F0BD009332007A
:100BE0003B00696823F054F9F6E7C0462AF7020093
:100BF0002C9D0200F0B50D0085B001A9070016007C
:100C0000280002AA24F0F2FE0023019902988B42E8
:100C10002CD13C201FF0FFFF2A4B019A03602A4B86
:100C200004008360294B4760C360294B0361294B53
:100C30004361294B8361294BC361294B0362294BD3
:100C40004362294BC362002A06D0029B1968096BD4
:100C50000163012A18D94563A66303A92000FFF7A1
:100C6000ADFC012813D9214812F04EFE9A0082589B
:100C7000D468002C06D152681D491E4803F024F99F
:100C800003F03EFA0133C2E71B684363E4E7A36B5A
:100C90000022181D184914F04DFE051E0ED0032227
:100CA00043681A400AD11968144B4968994205D122
:100CB000031D012112481FF0C7FE6860200005B027
:100CC000F0BDC04620910200010A000005070000A7
:100CD000810B000079090000250B0000BD0902000E
:100CE000F10800003B0B0200F10A0200D0F70200FD
:100CF000A7F702002C9D02008E0F000045020000A5
:100D0000A890020037B50D001C00002311000093CD
:100D100001220333280000F07BFE012D04D0032DB7
:100D200006D0074812F0F0FD20680EF09FF93EBD96
:100D300020680FF04BF9A2686168FFF75BFFF6E7E8
:100D400027F802001FB5064B0A0001934B68029377
:100D50008B68010001A8039311F09AFF05B000BD54
:100D6000E4900200F8B50D0003261449144AA84285
:100D70001ED0030033401DD104688C421CD1406B4F
:100D8000002816D003689342F1D1040047680D4B48
:100D90000834FF18BF00E719BC4201D32068E4E71C
:100DA00029002068FFF7DEFF002802D10434F3E7B2
:100DB0000120F8BD0020FCE71800FAE720910200AE
:100DC00058DC0200FFFFFF3FF0B585B00500019140
:100DD00008008B0717D10B68134A93420BD10123EC
:100DE000029301AB03930024029E039FB4420DD1F2
:100DF0000E4805B0F0BD0E4A934204D103AA02A9E1
:100E000024F0F4FDEFE70B4812F07EFDA300F95843
:100E1000094B994206D02800FFF7A4FF002801D112
:100E20000134E3E70548E4E72091020034DB0200E7
:100E300058DC02006EF70200F8BE02003CDB020044
:100E400010B5830703D1054B02689A4202D00448CB
:100E500012F05AFDFFF7B8FF10BDC0462091020006
:100E600007F70200F8B503780400002B1BD0402BD5
:100E70001CD10120002319001D001E002278002A29
:100E80003CD10132002E0FDC002D0DDC00290BDCE3
:100E9000033B934208D9013C23785C2B04D0002803
:100EA00001D00A2B00D100221000F8BD3E491FF0EE
:100EB000D3FE0028DDD13D4920001FF0CDFE0028E3
:100EC000D7D13B4920001FF0C7FE0028D1D13949B6
:100ED00020001FF0C1FE0028CBD1374920001FF0B1
:100EE000BBFE0028C5D1354920001FF0B5FE002803
:100EF000BFD1334920001FF0AFFEBBE7272A12D134
:100F0000002B01D0032B09D16278272A06D1A278C1
:100F1000272A03D10234243AD31A02E00122012BFA
:100F2000FAD90134AAE7222A12D11A000427BA43B7
:100F30000AD16278222A05D1A278222A02D102346B
:100F40003A00E9E7002B01D0022BEAD10222E3E7C5
:100F50005C2A0BD16778272F03D0222F01D05C2F7A
:100F600004D11A00571EBA41A418DAE7002BD8D1D1
:100F70005B2A12D006D8282A0DD0293A5742574169
:100F8000F61BCEE77B2A0AD07D2A0AD05D3A57426B
:100F90005741ED1BC5E70136C3E70135C1E7013114
:100FA000BFE70139BDE7C046EA5203005CF8020022
:100FB00062F8020066F8020091280300048303002F
:100FC00024F70200F0B58BB0079343180390049206
:100FD00001930093009B5C1E039BA34201D90093E5
:100FE00010E0207803F092FB002801D00094F1E794
:100FF000207803F097FB0028F8D123785F2BF5D0F9
:101000002E2BF3D07E4B1D68009C019B9C4243D34A
:10101000009BE71A019B9C4222D20026AB689E42AD
:101020001BD2F3000293EB68F2009858002838D0E6
:10103000042836D009A90FF0FFFB099B01009F424D
:101040002FD13A00009827F0E4FD002829D1EB6861
:10105000029A9B185868002825D100200BB0F0BDDB
:101060000024260002940194AB689C4237D3019B74
:10107000002B66D1009B039A9342EED1614C3A005B
:101080002100180027F06EFD0028E6D1079BE41927
:1010900007301C60C01BE1E723782E2BB8D0013449
:1010A000B3E70136BAE7032318420DD10268564B65
:1010B0009A4205D124F001F90500631C0093A3E7CF
:1010C000524903008A4202D00DF0D0FF03009D6B0D
:1010D000002DC2D04E4B2A689A42EED0BDE7EA6896
:1010E000E300985800281CD004281AD009A90FF052
:1010F000A3FB099B059006939F4212D801003A007A
:10110000009827F086FD00280BD1029B002B12D0FF
:101110003B009E4202D3069A934204D9019B0133BD
:1011200001930134A0E7029AD15C059AD25C914206
:1011300005D10133EDE7059B069E0293EEE71E0005
:10114000ECE7019B012B0FD0BE420DD800234026B7
:101150000193019BAA6893420CD32E49049820F076
:1011600081FF0120404279E7029B079ADB19136057
:10117000F01B73E7019BEA68DB00985800283AD01F
:10118000042838D009A90FF057FB099B0390059359
:101190009F4230D801003A00009827F03AFD0290B3
:1011A000002828D133000F220F33DC171440E41835
:1011B00024112401A41B012C00DC1034059A3319DE
:1011C0009B18402B0DD9039A1349049821F012F86B
:1011D000099E10E01149049820F044FF029B01335E
:1011E0000293029B9C42F5DC0399049820F03AFF9D
:1011F000099BF6183619019B01330193A9E7C046F4
:10120000782E002050F8020060D1020020910200E8
:10121000049402008413030058F8020057300300BE
:101220000139C9B2054B401880301970044A03785F
:101230001370044AD25C044B1A707047E12D0020F1
:10124000E22D0020290A0300E02D00200131C9B25F
:10125000054B401880301970044A03781370044A13
:10126000D25C044B1A707047E12D0020E22D002063
:10127000290A0300E02D0020074B984206D9074BAE
:101280001818074B4118C91808787047054B1818EB
:101290004118054BF7E7C046A49200006A08030016
:1012A0005B6DFFFF7EF802000083FFFF030020223A
:1012B0008033F0B504001A707F2000224F255F268E
:1012C00089B0A15C531C0A00DBB202406F2A28D906
:1012D0000A003240E11880310A701A007F2BF0D1E9
:1012E000BB4A137023001B22FF331A70E4320192B1
:1012F000531CDBB203936B46B6481B7BB6490370A5
:10130000039BE31880331B780B705B2B0ED19B2261
:10131000019B0A700133DBB20370E254012009B073
:10132000F0BD5F2AD6D90A002A40D3E72E2B13D16D
:101330000232D2B20270A21880321278A44802702F
:10134000A648825C0120024206D1019A0B70121855
:10135000D2B20192A3546FE202209D4A13709F4AB9
:10136000D25C104000D0ADE0002A19D1994820325B
:1013700003780A70E31880331A70019B0133DBB2E3
:1013800001936B461B790370019B782B01D8E254C3
:1013900052E29B23019AA3546B461B7B0B70BDE763
:1013A00016007F2552B2AE430E70002A03DB8C4A32
:1013B0008C4B1A60B3E7413B8B4ADBB28B49D25C62
:1013C000CB5C120213430293029B002101339BB2B8
:1013D00018000293FFF750FF0306F5D501230127FC
:1013E00000267B4D2B7039000298FFF745FF7B1CD0
:1013F000DBB2282868D1002E00D02F702B78013363
:10140000DBB2059305990298FFF736FF059B013380
:10141000DBB22928F5D17F25049304990298FFF7C0
:101420002BFF049B28400133DBB23D284FD16A4695
:10143000694B127B1870674B00261A706A467B1C3A
:10144000DBB200931278624B039D1A700695631904
:1014500080331B78009902980793FFF70DFF079BD5
:101460008342B1D1009B05990133DBB20093009A0E
:101470006B1CDBB28A422CD1002E01D0554B1D7063
:10148000039D013FFFB2524B390002981F70FFF7D6
:10149000F3FE514E030600D504E14E4B7F21187038
:1014A0004E4B1B5C1A005BB28A433270002B14DA7D
:1014B000484B013DEDB21D70631980331B78984293
:1014C000DFD081E74A4B7EE71F0001268BE70493BC
:1014D000A3E71D0001260693B9E7307020281BD032
:1014E000232825D02E282CD0262832D040284ED094
:1014F0005E2856D02B285CD03A2800D00EE120265A
:1015000029002000FFF78CFE334A13783340137014
:10151000B7D0304B1D78F3E729002000FFF780FE9D
:101520000023F356002B00DA4EE72A4B1D78A8E77C
:1015300029002000FFF774FE402233781342F4D1D3
:1015400042E729002000FFF76BFE33781B07ECD43D
:101550003AE729002000FFF763FE1022337813409A
:101560003370E2D11B4B1B78E11880310978317060
:10157000482900D028E7013B1649DBB20B70E3187D
:1015800080331B789343432B00D01DE7CDE7290020
:101590002000FFF745FE0422337813403370C4D196
:1015A00012E729002000FFF73BFE33789B06BCD4EE
:1015B0000AE7084B013DEDB21D70651980352B78A7
:1015C000452BB2D010229343492B00D0FCE6ACE768
:1015D000E22D0020E12D0020E02D0020290A03004B
:1015E0006AF8020060000020AF0A0300950A0300B9
:1015F000A59200006B1C934ADBB21370E318803392
:101600001B7891490B70452B36D1A81CC0B223180A
:1016100080331B788D4E33708D4EF656002E02DBD4
:10162000884B1D783FE010700B70522BF8D0532B75
:10163000F6D0442BF4D04C2B08D10335EDB2157005
:10164000651980352B78592BEAD0BDE6462B00D0A2
:10165000BAE6EB1CDBB21370E31880331B780B7017
:10166000552B00D0B0E60435EDB215706519803504
:101670002B784C2BD4D0A7E6492B00D0A4E6AB1C8A
:10168000DBB21370E31880331B780B704E2B00D045
:101690009AE60335EDB21570651980352B78472B26
:1016A000BED091E6069D6A46009B0133DBB20093F3
:1016B0001278664B1A70009B049A934200D19CE00A
:1016C00019000298FFF7D8FD614B7F211B5C5D4F2D
:1016D0001A005D4E8A435BB238703270002B08DA14
:1016E0000135EDB2631980331B783D709842DAD032
:1016F0006AE63070202816D023281ED02E2826D047
:1017000026282DD0402848D05E2851D02B2858D0EC
:1017100020263A2864D0252800D16BE74D4A4E4B4D
:1017200000201A60FBE529002000FFF78FFD002351
:10173000F356002B00DB73E746E629002000FFF795
:1017400085FD40223378134200D069E73CE629004A
:101750002000FFF77BFD33781B0700D560E733E6F9
:1017600029002000FFF772FD1022337813403370F8
:1017700000D055E73B78E11880310978317048296D
:1017800000D021E60133DBB23B70E31880331B78D5
:101790009343432B00D017E642E729002000FFF7D0
:1017A00055FD042233781340337000D038E70BE640
:1017B00029002000FFF74AFD33789B0600D52FE76C
:1017C00002E60135EDB23D70651980352B78452B69
:1017D00000D125E710229343492B00D0F4E51FE701
:1017E00029002000FFF732FD174A137833401370A9
:1017F00000D158E7134B1D78F2E700257F272E0014
:1018000000990298FFF738FD03003B403D2B04D0C0
:10181000019A0132D2B20192A354009A0132D2B29B
:1018200001060BD5002E03D06946084A09781170CD
:10183000054A1370069B0393039A59E5009201260B
:10184000DEE7C046E12D0020E02D0020E22D002043
:10185000290A030074F802006000002010B504009B
:10186000034B0360403025F01EF9200010BDC04638
:101870008091020010B50F4C200026F0F9FE0028E0
:1018800008D0200026F090FE0B4B1B68984202D136
:1018900001F006FE10BD3F21084A138801330B40BA
:1018A000074909888B42F5D01188064C1380605493
:1018B000F0E7C046A4020020702E0020D82D0020A2
:1018C000DA2D0020E32D0020002210B5044B05493D
:1018D0001A80054B05481A8026F0CFFE10BDC04681
:1018E000D82D002075180000DA2D0020A402002059
:1018F000034B1888034B1B88C01A431E984170473E
:10190000DA2D0020D82D0020084A094B10881988AC
:10191000884201D130BFF9E713880649C85C3F21EE
:10192000138801330B4013807047C046DA2D002026
:10193000D82D0020E32D002070B504004518AC42DE
:1019400005D02178024826F033FE0134F7E770BD58
:10195000A4020020F8B504004518AC420ED023784C
:10196000074E0A2B03D10D21300026F021FE2178ED
:10197000671C300026F01CFE3C00EEE7F8BDC046B8
:10198000A402002070B504000825002C08D0210016
:10199000082C00D929000348641AFFF7CDFFF4E7AB
:1019A00070BDC046D20A030070B5050004000826C9
:1019B000002C08D02100082C00D931000448641AFA
:1019C000FFF7BAFFF4E72800FFF7DCFF70BDC04661
:1019D000C90A030010B50100014822F054F910BDF6
:1019E0000C000020142313B5064C00931922182173
:1019F000200015F033FC044A0449200027F05FF86A
:101A000013BDC046A4020020000000205D180000A5
:101A100010B51C0002AB1B78002904D0002B02D1AA
:101A20000E4811F071FFA24207D1824214D0030088
:101A30000B490C4802F048FA06E0824206D9121A15
:101A40000949084802F040FA02F05AFB844203D2E6
:101A5000030022000549ECE710BDC046DB0A030085
:101A6000040B03002C9D02003D0B03006F0B0300D1
:101A7000F0B50025170087B00C9C0D9E03900491D3
:101A8000059302950195059B9D4206D1019B039A02
:101A900093423CD2224811F037FF039B9D4211D262
:101AA00063889B05F6D4019B049A01330193AB0034
:101AB000D058FF2263881340012B22D10DF0FCFC8B
:101AC000307015E0062321880022C9001943380030
:101AD00013F030FF00280FD16388DB0506D522887C
:101AE0001049114802F0F0F902F00AFB6368336014
:101AF000013508340436C6E7029B4068013302937F
:101B0000D7E7022B01D10DF099FB3060F0E73B687D
:101B1000029ADB089A4201D20448BCE707B0F0BD44
:101B2000B50B03009E0B03002C9D0200D60B030097
:101B300073B50600194D0C0028001EF075F9310030
:101B400017481EF0F7F817481EF06EF916481EF0F9
:101B50006BF9FF239B00E61821787F2901D0B4425E
:101B600006D128001EF060F910481EF05DF973BD23
:101B7000A37850290CD80E4A505C0E4A525C01934F
:101B80006378009303000C481EF0D4F80434E3E7B4
:101B900062780A481EF0CEF8F8E7C046A70C0300AA
:101BA000D40C0300DC0C0300650C0300830C030061
:101BB0008E4803003D480300FD0C0300200D030088
:101BC000F0B51D008BB007901B48160008911EF061
:101BD0002BF9290019481EF0ADF819481EF024F918
:101BE00018481EF021F90024AC4204DB12481EF014
:101BF0001BF90BB0F0BD089B375DA00007991818C2
:101C000003788278095D049707689B063F037F0E7F
:101C10000397C7789B0E09933B09029300883F07FF
:101C2000C004400E3F0F019012090097099B06481F
:101C30001EF080F80134D7E7A70C0300F40B030073
:101C4000210C0300530C0300850C0300F7B52D4F46
:101C5000BC3701972B4A2C49FC32D36C8B4200D8FD
:101C6000F7BD0325043BD3641A68264B501CB433DC
:101C70001E6804008108715C2C4064002141831AB5
:101C8000294001300229F4D0032601991201096884
:101C90001B018A181B499B08002BDBD00F201468FE
:101CA000044229D119480068844225D30D00C0356B
:101CB0002D68AC4220D2241A200900900800B430CC
:101CC0000068A409009D0419207835406D00844601
:101CD0002841304001280FD13700AF403D00674612
:101CE0003D4325700D00FC35EC6C094FBC4206D21B
:101CF000201DE86400982060013B0432CCE70C0012
:101D0000C434F8E7782E0020402F0020342F002024
:101D1000C02F00200F23994370B506000D00081A4C
:101D2000412117F04FF8114C02002300B83318601E
:101D300023002100B4331E608301EB1ABC310B6019
:101D400023003000C03300211D6026F035FFA6219E
:101D500000220120230049006252023160525039B2
:101D6000FC33FF39DA6599655A6570BD782E00201D
:101D7000A622034952008B5A01338B527047C0464A
:101D8000782E0020A622034952008B5A013B8B5229
:101D90007047C046782E0020A623034A5B00D05A25
:101DA000431E9841C0B27047782E0020F7B500243A
:101DB000032500900191019B9C4200D1F7BD009A40
:101DC000A300D1580F23194229D1184B1A00BC3255
:101DD0001268914223D31800C030006881421ED29D
:101DE000891A1A000F093800B4321268890951188B
:101DF0000A7828404000944602412A40012A0ED128
:101E00002E00864030006646304308701800FC30D3
:101E1000C16C074EB14206D20B1DC3640F60FFF7C1
:101E200015FF0134C7E7C4331A60F8E7782E0020A5
:101E3000C02F0020A62210B508485200835A010086
:101E40000133835203000022FC33C4310A605A6517
:101E5000034A2921DA64FFF7A9FF10BD782E00207C
:101E6000402F0020F8B503262E4C00252200C43256
:101E70001368AB4213D102221900032794462200B3
:101E8000B8321268920091422AD323000022FC3318
:101E9000DA654D32FF32A35A013BA352F8BD23004D
:101EA0001560214AFC33DA642300B8331B689B00B9
:101EB0009D42D9D22200B4321268AB08D35C2A000A
:101EC0003240520013413340032B07D12200FC3231
:101ED000D36C191DD1641D60FFF7B8FE0135E3E72F
:101EE0002000B43000688A08801802780D001600BF
:101EF0003D406D002E413E40022E09D0032E0BD0F6
:101F0000012E07D13B00AB409A430270012301E050
:101F1000002BF7D10131B2E76346AB409A43027020
:101F20000023F7E7782E0020402F0020334BF7B531
:101F30001A001900C032BC31096812680327521A0E
:101F4000190002600022B4310968140001911100E7
:101F5000B8331E6842608260C26002614261826181
:101F6000B600019D8B08EB5C0D003D406D002B41E0
:101F70003B40012B33D0002B2BD0022B33D001312F
:101F8000B1420AD0019D8B08EB5C0D003D406D0015
:101F90002B413B4001D0012BE3D1012C28D1056915
:101FA000013505618569AC4200D98461B14201D037
:101FB000012BD6D1C3689A4200D9C260B14206D182
:101FC00043681B01436083681B018360F7BD0022E7
:101FD000C7E784680132013484601C00CFE744689D
:101FE00001344460F9E74568013401354560C6E7CE
:101FF000022CD7D1456901354561D3E7782E002001
:10200000F7B50F300309019302D100252800FEBD6A
:10201000A623474A5B00D35A002BF6D14F33FF3338
:10202000D35A5C425C41002B07D0414BFC335A6DC4
:102030009B6D9A4201D310F035FB002530213F26DD
:102040003B4A3B4BB8321268FC339446384ADB6D4E
:10205000B4321068634505D3002CD6D110F022FBB2
:102060000134EBE70327C25C3A4231D1019F0135CD
:10207000AF422ED89B00591B4C1C012D04D12C4D76
:102080005A1CFC359208EA65A20880182600032233
:10209000012516407600B540067802313543244EBE
:1020A0000570B4368B4235D221492201BC310D680E
:1020B0000199AD181E4A0133FC32566D2800B44612
:1020C000614451651A1B1201002126F075FD9DE740
:1020D00000250C273A4206D1019F0135AF4203D8B3
:1020E0009B000133C7E700250A4206D1019F013555
:1020F000AF4203D89B000233BDE70025B24306D1AF
:10210000019A0135AA4203D89B000333B3E70025A7
:1021100001339FE73568880828180D00022715400D
:102120006D00AF403D00077801313D430570B9E7D0
:10213000782E0020A62230B5164B52009A5A002A5B
:1021400026D1002824D01A00BC321268801A1A0046
:10215000FC32D46D01098009A04200D2D065B433AD
:102160001800032204688B08E3180C0015001440C3
:102170006400A5401C780131AC431C7004688B08D6
:10218000E35C0C001440640023411340022BE9D0AF
:1021900030BDC046782E00200F22030002400020F0
:1021A00070B5824228D1154C10002100BC3109685D
:1021B0008B4221D32000C03005681000AB421BD2F7
:1021C000B4345B1A246819099B09E55C08000323F1
:1021D00018404000054110001D40012D0CD14D1C40
:1021E0002E00AA08A25C1E4076003241681A1A40EE
:1021F0000135022AF4D0000170BDC046782E0020BF
:10220000F0B585B007000D000292002807D101004B
:102210002800FFF7F5FE0600300005B0F0BD0029EC
:1022200003D1FFF787FF2E00F6E70F2100260140BC
:10223000B142F1D153480E000300BC331B689F42EA
:10224000EAD30200C03212689742E5D2FB1A1A099B
:1022500000920200B43212689B090192D25C0323FF
:10226000009C23405B001A4103231A40012AD3D16A
:102270004A33FF33C35A002BCED129000F3109094D
:10228000B8308C46016803268900039121001400B0
:102290000131039A914212D201988A08825C0800A7
:1022A0003040400002413240022A02D10134013163
:1022B000EFE7002A03D10133E2189445F7D86445CB
:1022C00001D13E00A8E7644521D9009B0326634461
:1022D0001900009B0800E218B4239C46294B9C443B
:1022E000634605001B6884081C19330035406D00E7
:1022F000AB40257801309D4325709042F0D1214BB1
:102300008908FC33DA6D9142DBD2D965D9E71B1914
:102310009C4523D8032502261A49009BB431E318B3
:102320000191009A6244934209D36346191B090143
:1023300020010A003818002126F03EFCC1E701996F
:10234000180009689A088A18310028404000814026
:1023500008001178013308431070E2E7029E002E56
:1023600000D159E700212800FFF74AFE061E00D1E0
:1023700052E72201390026F004FC3800FFF7DAFEAC
:102380004AE7C046782E002010B58CB005A8FFF7AC
:10239000CDFD079B0A4C03930093059A069B0949C0
:1023A00020001FF027FF089B099A01930B9B064909
:1023B0000393009320000A9B1FF01CFF0CB010BD7C
:1023C000309E0200800D0300A30D0300F8B5434EBC
:1023D000434F3300BC331A68424938001FF00AFFEC
:1023E00000243300B8331B689B009C4223D23F2259
:1023F00014422CD132002500B43210680321AA08FF
:10240000825C294049000A4103210A4202D1013578
:10241000AB42F3D12A1B7F2A12D9920932493800E4
:102420001FF0E8FE2C003F239C433300B8331B68A9
:102430009B009C4204D338002C491FF013FEF8BDCA
:102440002B4B22011A402B4938001FF0D3FE3200DB
:10245000B4321268A308D35C032222405200134115
:10246000032213403A32022B31D03032032B2ED0CC
:102470002E22012B2BD13300BC331B682201D358F1
:102480001D4954228B4222D01C49083A8B421ED04F
:102490001B49083A8B421AD01A490F328B4216D088
:1024A00019498B4213D01949123A8B420FD018495F
:1024B0008B420CD0174905328B4208D01649043A9A
:1024C0008B4204D015490B328B4200D01B32144989
:1024D00038001FF08FFE013483E7C046782E0020BD
:1024E000309E0200410D03005C0D030084130300C5
:1024F000F0FF0F00780D030058DC020084B90200E1
:1025000004940200BCE6020058D7020024950200A1
:10251000E894020090C4020038C5020060D10200B5
:102520006351030010B5040007F0B4F8074B020034
:102530001B69074907481FF05DFEFFF725FF012CC7
:1025400001D1FFF743FF044810BDC046782E00209C
:10255000E80D0300309E020070BF020010B50CF0C1
:102560006DFE00F08FFF014810BDC04670BF020035
:1025700010B5FFF707FC014810BDC04670BF020050
:1025800010B5FFF7F5FB014810BDC04670BF020053
:1025900010B586B0040005AB04AA03A902A803F095
:1025A0005FF8059B029A0193049B06490093064835
:1025B000039B1FF01FFE012C01D103F08DF803488F
:1025C00006B010BDFD0D0300309E020070BF02007A
:1025D00010B5084C002805D1B034236801305B00E9
:1025E000184310BD08680CF029FEB0342060024882
:1025F000F7E7C046782E002070BF020070B50500D6
:1026000014001EF0B6FB024B2560636070BDC0462F
:102610003B0D020010B50C007F2906D801211EF0E9
:10262000E8FB002800D0047010BD224B994210D85E
:1026300002211EF0DEFB0028F6D04023A2095B42F7
:10264000134303703F232340802464421C4344709F
:10265000EAE7194B994214D803211EF0CAFB00285F
:10266000E2D02023220B5B4213433F2180220370E0
:10267000A30952420B400C40134322434370827023
:10268000D2E704211EF0B5FB0028CDD01023A20C08
:102690005B4213433F2103708023220B5B420A40BD
:1026A0001A434270A2090A400C401A431C4382702C
:1026B000C470B9E7FF070000FFFF000007B5034B38
:1026C00000906846019301F0B5FE07BD3B0D020086
:1026D00010B53E2803D040280DD03C2808D14239FF
:1026E000C9B22F2904D80A4B585C012300280BD10A
:1026F000084810F049FF0139C9B27029F8D8064BD3
:10270000585C064B5B56F1E7002A00D0136010BD01
:10271000450E0300570F0300750E0300E60E03007D
:1027200010B551283DD011D849282ED007D84228BD
:1027300003D0482826D0012806D18B5C10E04F2812
:102740004BD017D84C2820D0002309E0682816D099
:102750000AD8642836D066282AD06228F4D18B564D
:1027600001205B00184314E06C2803D0712811D0BD
:102770006928E9D19200505824F072F809E052001B
:10278000535EEDE75200535AEAE79200505824F0A6
:1027900082F810BDD2008A181068516824F051F8F0
:1027A000F7E7D2008A181068516824F065F8F0E75E
:1027B0000323920050589843030002201843084B0B
:1027C000C018E6E7D2008A181068516819F08EFA2E
:1027D000032302009A431300EFE792005058D8E712
:1027E00000008080F7B51700156801AA04000E00EC
:1027F000FFF76EFF402C05D1019B043C5A1EAA181E
:102800005D4215405A213E3C62426241B1428941DB
:102810002B183B60D2B22B0049421EF06DFB040026
:102820000D004F2E08D0532E07D126F0EBF90022D1
:10283000010020000DF0A8FBFEBD662E06D103238B
:1028400002249843154B2043C018F5E7642E06D1A7
:1028500019F04CFA0323040002209C43F2E75A2E9D
:102860000FD980220023D20512196B41002B04D10D
:10287000002A02DB23F0F4FFDEE7290023F0E1FF6A
:10288000DAE7002905D1064B984202D824F003F874
:10289000D2E7290023F0F0FFCEE7C0460000808099
:1028A000FFFFFF3FF0B587B0160003AA01931C6835
:1028B00000900F00FFF70CFF009B0500402B06D196
:1028C000039B5A1EA2185C423C2314400093019AB9
:1028D00063191360009B3E3B0193642F15D0662F54
:1028E0000ED04F2F2FD1019928004B425941C9B228
:1028F000042D00D90420330022001EF026FB31E015
:1029000030000CF0FFFC0600EDE730000CF0FAFCA4
:1029100019F09AF904900591019906AA4B42594180
:10292000C9B28B00D318083B22001B6804201EF09C
:102930000CFB019B04345A1E934106AA9B00D3183A
:10294000083B1E68CFE7B3070ED1124B32689A429C
:102950000AD101992A004B4259413000C9B22300E3
:1029600023F04AFF07B0F0BD30000CF067FC060012
:10297000042DB8D900215A2F02D9884200DAFF313C
:102980002A00200026F018F9009B3E2BABD12B1F0C
:10299000E418A8E708BC0200F7B506000F00140011
:1029A0001D0064280DD0662804D04F2813D1940050
:1029B000E35105E0940018000F190CF0A3FC3860F7
:1029C000F7BDD40018000F190CF09CFC19F03CF96D
:1029D00038607960F4E703232B40019311D10E4B4B
:1029E0002A689A420DD1019A01004020FFF770FE3B
:1029F000230043430200FB180199280023F0FCFE4A
:102A0000DEE728000CF01AFC220003003900300039
:102A10001EF0AEFAD4E7C04608BC020070B506004E
:102A20000D00002814DD002907DD154816F054FAC2
:102A30000124864209DC002407E00100C0200006D2
:102A400016F04AFA01248542F5DAE4B2200070BD9E
:102A5000002907DDC020000616F03EFA0124864258
:102A6000F3DBE8E70024A042F0D00100044816F0B0
:102A700033FA0123854200DB231CDCB2E6E7C046C3
:102A8000FFFFFF3F044B88600B60044B08004B6066
:102A90000023CB607047C046E8E1020075100200D9
:102AA000044B0B60037A0B71436808008B600023B2
:102AB000CB6070478093020010B504000C201EF01C
:102AC00098F8034B446003600223037210BDC046B4
:102AD000BC93020010B5043023F02CFF004810BD59
:102AE00070BF0200002803D0012808D0002005E0B4
:102AF00007224B680448934300D1044870474B6851
:102B0000DB085B001843F9E73CDB020034DB020022
:102B10000B6870B506000D00181D4968140012F00E
:102B200009FF002802D04368002B10D1022E08D1E3
:102B3000094B022C06D1696808481FF06CFA01F0B5
:102B4000DFFAAB68012C00D14360180070BD022C85
:102B5000FBD100224260F8E770BF02005C9A0200DD
:102B600070B504000D000B7A164A9B0086B0995888
:102B70001FF078FA144920001FF074FA134B02AAD0
:102B800002932B7A012613716B680193049300233F
:102B9000059302A81EF078FA051E05D10C49200005
:102BA0001FF060FA06B070BD002E03D10949200065
:102BB0001FF058FA0122290020000CF06FFA0026BD
:102BC000E7E7C046F8930200AF0F030080930200CE
:102BD000B20F030007F80200F0B5136814000122D9
:102BE00087B00F680D000092D90802230600FEF797
:102BF0000FFF022E12D10323686803401DD1016824
:102C00002A4AC968914218D12A68904206D0059391
:102C100005A968681EF019FA061E06D1002563682A
:102C20009D4232D3224807B0F0BD381D01223168E1
:102C300012F080FE73684360EAE7002110F074F838
:102C40000390039810F0D2F80028E7D0002110F08C
:102C50006BF8050010F0CAF80290280010F0C6F8D2
:102C60000600280010F0C2F8029B002B03D0002EB3
:102C700001D0002802D00F4810F086FC381D012238
:102C8000029912F057FE4660DBE7A368EE009959FF
:102C9000002909D0042907D0381D012212F04AFE6C
:102CA000A3689E19736843600135B8E7212F0000BF
:102CB00070BF0200890F030030B5002585B001A95F
:102CC000040001951EF0C1F9A84203D109490A4840
:102CD00023F035F9636802A9083B63600368029337
:102CE00043680393042328C002200EF0F9FD05B0C9
:102CF00030BDC046640F03005C9A0200F7B50D00BA
:102D000014001B280DD000231F2808D1081D002205
:102D1000210012F00FFE2B4B002800D12A4B180087
:102D2000FEBD0323194226D128492A688A4222D1AE
:102D3000234020D1216891421DD1009301930BE0E3
:102D4000316838680CF028FA0028E7D07168786894
:102D50000CF022FA0028E1D0694628001EF075F92F
:102D600001A9070020001EF070F90600002F25D0F1
:102D70000028E5D1D2E7A307D0D1154B22689A42AB
:102D8000CCD162686B68534007229343C6D101934C
:102D900001A928001EF059F9061E01D1094BBEE712
:102DA000201D0022316812F0C5FD0028B6D0416810
:102DB00070680CF0F1F90028EAD1AFE7014B002868
:102DC000ACD1ACE73CDB020034DB020040940200F3
:102DD00004940200F7B50B681C4A04000D009342EE
:102DE00003D05A681A491FF005FA1A4920001FF04B
:102DF00039F900230127019301A928001EF025F9C4
:102E0000061E0CD1144920001FF02CF92B680F4A24
:102E1000934203D0114920001FF024F9F7BD002F81
:102E200003D10F4920001FF01DF901223168200055
:102E30000CF034F90B4920001FF014F901227168DD
:102E400020000CF02BF90027D6E7C04604940200BE
:102E5000830F0300870F03009F7E0300014C0300D4
:102E600007F8020004F8020010B504000C201DF061
:102E7000C0FE034B446003600023037210BDC046D4
:102E8000BC93020010B504000C201DF0B2FE034BF1
:102E9000446003600123037210BDC046BC9302006E
:102EA00010B5043000220C0012F044FD002805D1BA
:102EB000210003481FF0AFF801F022F9406810BD6F
:102EC0005C9A020010B5024B08C023F014FD10BD3F
:102ED00004940200F8B50E000700002170680FF09E
:102EE00023FF0E4C0500022F00D9B46870680CF067
:102EF000BFFA002809D11EF0F1F8060028000FF0F3
:102F000075FF011E03D13000F8BD4010F3E7331DFB
:102F10000122180012F00EFD4460EFE770BF0200BE
:102F2000F0B5070089B000201E000D0001921EF0D0
:102F3000D5F80E4B040007609F4203D104230279A9
:102F400013430371019B2B430DD03368AA00B218C1
:102F5000019905A80394049323F0DFFC681C05AADB
:102F600003A9FFF739FE200009B0F0BD409402002C
:102F700010B50C00002A03D11EF0F2F80A480EE04A
:102F8000042A0DD10430002212F0D4FC002805D10F
:102F9000210006481FF03FF801F0B2F8406810BD6C
:102FA0001EF0D4F8EAE7C04670BF02005C9A020047
:102FB000002803D0012807D0002004E08B680448D3
:102FC000002B00D1034870478B685B001843FAE779
:102FD0003CDB020034DB0200034B48600B60002343
:102FE00008008B60CB6070478C9402007FB50400B2
:102FF0000122080001A90CF0DBFA0022217940200F
:10300000FFF766FB01000500029815F0DBFE636820
:1030100006001A0A904217D9A368C1186943E068EC
:103020001DF005FE2379E0602A00A0686360684314
:10303000E36872431818019925F0A3FDA3680548B9
:103040009E19A66004B070BD121A1202DBB21343BF
:10305000EAE7C04670BF0200F7B5FF2745680400E5
:103060000191BD431DD101792A004020FFF730FBBB
:10307000636806003B408027A1683F011F43083179
:1030800041436760E0681DF0D2FD6368E0601A0AA2
:10309000A368013A013372435E432900801925F089
:1030A0008BFD2079019BA268E168FFF775FCA3689E
:1030B00003480133A3606368013BFF3B6360FEBDCF
:1030C00070BF0200F8B5002207000D00010040208B
:1030D000FFF7FEFA060010201DF08BFD074B0400E1
:1030E000012F00D0064B28002360FBB2A56070437F
:1030F00063601DF07EFDE0602000F8BD24950200B5
:10310000E894020070B506008AB00C001500122881
:103110005CD003D8052826D0002454E01B2800D119
:103120006CE01F28F8D1012207A9280022F009FA33
:10313000032300284FD01C4213D13B4B22689A42F4
:103140000FD1012204A920001EF017F80123079ACD
:1031500000930599089B049822F08AFA334C0028C2
:1031600031D1334C2FE0012204A920001EF005F8D4
:103170002800012207A90CF01BFA069B00220393EA
:103180006B464020197BFFF7A3FA01000600089860
:1031900015F018FE069BA16803936B4641180500C5
:1031A000187BFFF78FFF059B04001A000499C06885
:1031B000039325F0E6FC2A000598E368724318188B
:1031C000079925F0DEFC20000AB070BD1100200038
:1031D000FFF70CFFF7E7EA070DD41D4203D1154BAB
:1031E0002A689A4207D003232B40022BB9D1124BF5
:1031F0001D40062DB5D0114810F0B4FB012204A9E2
:1032000020001DF0BAFF012207A9280022F099F939
:103210000028A6D0089B059A00930499079B3000CC
:1032200022F015FF9AE7C046249502003CDB02001D
:1032300034DB020008BC0200070080FFCC11030051
:10324000F0B5050087B00E00012808D08B0726D105
:103250000B68264A934202D0254A93421FD101228D
:1032600003A9300022F06DF9002818D000222900AF
:103270004020FFF72DFA01000700049815F0A2FD89
:10328000060001002800FFF71DFF320004007A430A
:103290000399C06825F075FC200007B0F0BD300030
:1032A0000CF0E6F8071E00D0471039002800FFF7A1
:1032B00009FF0021040030000FF036FD00260090C9
:1032C00000980FF093FD031EE6D0002F04D11900E3
:1032D0002000FFF7C1FEF3E7721C0192E1683200A3
:1032E0002800FFF759FB019EEAE7C04658D70200C5
:1032F0002495020070B50E7904000D00012E0DD149
:1033000019491EF0AFFE3300AA68E96820000CF0EE
:10331000A1FD164920001EF0A5FE70BD3200144923
:103320001EF068FFAB68002BF3D0124920001EF09E
:1033300099FE0026AB689E4204D30F4920001EF080
:1033400091FEE6E7002E03D00C4920001EF08AFE15
:103350003200E9682879FFF7E3F901220100200033
:103360000BF09CFE0136E5E7D60F0300014C03008D
:10337000E20F0300ED0F03005E7D030007F802007B
:1033800070B5050086B0161E44D003240C402DD124
:10339000214B0A689A4229D103AA806810F0EAFA00
:1033A000002802D11D4810F0DDFA2000042E1BD1A8
:1033B000220029794020FFF78BF9049B0600009337
:1033C000039B28790193019A009B991AFFF77AFED3
:1033D00004000399049AC068521A71437243EE685C
:1033E000711825F0CEFB200006B070BD0A00002346
:1033F000A96828680BF0FAFF02002879042E03D18F
:10340000E968FFF78DF9EFE73300E968FFF7C4FAE1
:103410000348E9E71000E7E73CE60200F10F03008C
:1034200070BF020037B50C00110000221D00009291
:1034300001232000FEF7ECFA002C04D1210001202A
:10344000FFF740FE3EBD2968CB0705D48B0713D19B
:103450000B4B0A689A420FD108000BF0EFFE0100F7
:1034600005000120FFF72EFE04002A000021C0689D
:1034700025F0A2FB2000E5E70120FFF7E1FEE1E7F0
:1034800008BC020010B50400431C02D0024800F042
:1034900079FD024B1C6010BDA02E0020702E002074
:1034A000014A024B9A647047A02E0020782E00201B
:1034B000F0B5802787B02C4D02907F422C78002CED
:1034C0001CD063B2002B10DA6E1C6D787C40E4B225
:1034D000002D13D0013CE4B2FF2C0DD004AB981D9D
:1034E00001210570FEF736FAF4E704ABD81D01217F
:1034F00004702E00FEF72EFA751CDFE70627013F49
:10350000002F2ED002981DF0DBFB0124BC42F6DA1E
:103510000025052D22D0154E22002900300004F090
:103520004BFE6B4601901B79002B15D0631E1A00D1
:1035300029003000039304F03FFE031E0CD122004B
:103540002900300004F004FEFF22019B29001340F3
:103550003000621E04F0FCFD0135DAE70134E4B20C
:10356000D4E707B0F0BDC046221003000C000020D5
:1035700010B5C820FFF79CFF004810BD70BF0200C7
:10358000030010B50548002B03D11EF03EFD00F0EE
:10359000B7FD09681EF03FFDF9E7C046F09C020048
:1035A00010B5034809680BF09DFD024810BDC046E8
:1035B000309E020070BF0200F0B505008BB00868B5
:1035C0000C000DF023F9049004A81DF011FE002753
:1035D0000126049B03900693069B197800291BD1B2
:1035E00038000EF07DF90122009007A960680BF009
:1035F000DFFF079B089A05939B1801920293022D07
:103600001FD9A0680BF01AFE002817DA089BC01813
:1036100014D52B480FF0B8FF080001F083F80028FC
:1036200006D006A81DF0F6FD069B1B78732B00D173
:103630003000069B3F1801330693CDE7059B181811
:1036400005900024BC4202D300980BB0F0BD049B4F
:103650000125187801F066F8002803D004A81DF0B1
:10366000D9FD05000598029A43199A42D1D3049BCB
:103670001B78732B09D0009BA6009E190195019B16
:103680000436002B10D164190AE029000CF094FCD8
:10369000059B009A5D19A31C9B0005950134985069
:1036A000049B01330493CDE7049B05AA1978039882
:1036B000FFF798F8019B7060013B0193DFE7C0467C
:1036C000C6100300F0B589B0039101921E000DF001
:1036D0009DF8049004A81DF08BFD00240290B442D4
:1036E00001D309B0F0BD049B18780028F9D001F08F
:1036F00019F80125002803D004A81DF08BFD050052
:10370000039B019A5B199A4202D21B480FF03CFFBF
:10371000049B1B78732B10D064190E9BA700DF1934
:10372000002D25D0049BAA0052421978BA5803AB49
:103730000298FFF7B7F8013DF2E70E9B671CA40063
:10374000E058012205A90BF033FF069CAC4200D9DA
:103750002C0022000599039825F013FA039B2A1BDD
:1037600018193C00002125F027FA039B5D190395E9
:10377000049B01330493B2E7C6100300F0B50E00BA
:1037800089B0039001CE0F001DF05AFD44102100B6
:1037900004A81DF0FFFA069D22000021280025F054
:1037A0000BFA039B0096013B2A1929003868FFF7A2
:1037B00089FF04A902480CF0B1FB09B0F0BDC04676
:1037C00058D7020030B50C0089B0050002226068AD
:1037D00005A90BF0EDFEA0680BF030FD002806DA1D
:1037E000069B0393C01802D508480FF0CDFE05993B
:1037F000069AEB1E8A18091820000C3000902068E9
:10380000FFF760FF024809B030BDC046C610030094
:1038100070BF0200F0B5214B8DB005AC01380093AC
:10382000043101940723FEF723F9A0681C4D0026FC
:10383000A84202D00BF002FDC6B260691827A84268
:1038400002D020F06DFE0700A0691922A84202D024
:1038500020F066FE02002069A8420DD003AA0221D2
:103860000BF0B0FD039B186820F05AFE039B070085
:10387000586820F055FE0200390003A814F048FEF5
:10388000059903A814F0A0FE03A8E368320061685C
:1038900014F0AAFE28000DB0F0BDC04674970200D7
:1038A00070BF020010B5FEF723F8034B002800D1CB
:1038B000024B180010BDC0463CDB020034DB0200A6
:1038C000F0B50F00496887B005001600002901D047
:1038D000002A05D1390028001DF01BFE07B0F0BDFD
:1038E0000F321309C91801931DF088FD0F22A86833
:1038F000B9687C68324000D11032019B1E19254BFB
:10390000F3185B00C3180393224B1020E3185B00ED
:10391000CB189C46039B210002930023801A05903C
:10392000002922D103986400041B1020821AD3407E
:10393000184823808446019B5B00E41A019B0234F3
:1039400063445A00200025F037F9002E04D073009C
:10395000023BE35A002B1BD001216E603A782B7892
:103960000A408B4313432B70B8E760460088013947
:10397000034318000493059BD840029B18800298CB
:10398000049B02380290022040421B048444C7E793
:10399000013EDAE7FFFFFF7FF0B54B681500526884
:1039A00089B006000C00934201D22C000D000127C3
:1039B000227861683A4000D12A783A4051183000A4
:1039C0001DF01CFDB36838000193636829780293E9
:1039D00023781A0098430300A8684A400490A0681E
:1039E0003A40039001988F43BC460590029F686857
:1039F0000299C01B01390690481C17D1029B59003F
:103A0000019B5918002A02D001230B800231019832
:103A10001DF06DFC012170602B7822785A403378BC
:103A20000A408B431343337009B0F0BD03980788F5
:103A300012483F18FF18069B5B1899421CD3049B41
:103A40001B881B18049802300490380063445840C7
:103A500000936B46D883D88B009B844605986244BC
:103A600002800230059003981B0C02309C46120C19
:103A70003B0C03900139BFE7004BE6E7FFFF000076
:103A8000F0B5060095B0069353680D00591C0492DA
:103A900000931DF0B3FC049B00215B68B0685A1CC6
:103AA0005200009325F088F800237360049B2800DF
:103AB0005B68591C00931DF0A1FC049928001DF0BF
:103AC00028FDAB686F680193069B9B680393069B78
:103AD0005B680293B3680793029BBB422DD82ED339
:103AE000039A390001981DF0CBFC002823D1012353
:103AF000079A686013807360049B1A78069B1B7892
:103B00005A4001231A4214D03278134333706B6841
:103B1000002B0ED0012111A849421DF018FD11AA59
:103B2000310030001DF01AFF069A290028001DF010
:103B300015FF15B0F0BD002801DA0023DBE7834A4A
:103B4000029B9B185B009C460022039B63440593E9
:103B50001B8800921AB2002A65DA0022019B7C00C1
:103B60001A537B1C102709936B60019BA01C0099C2
:103B70001B180893791A019B0A9108998B4258D314
:103B8000059B009A1B8893400893029B012B0AD93E
:103B90001022039B00996344023B1B88521AD340B6
:103BA000089A1A430892019B029A1C19099B9B1AB6
:103BB000664A73609B18079A5B00D3180A93022326
:103BC00062465B429B1A0E936B680B930B9A029BA7
:103BD000934239D313005D4A102194460024019A80
:103BE00063445B00D318009A891A019A9A4200D85C
:103BF0009FE07368002B07D0544A07999A18520027
:103C0000525A002A00D19EE06B68002B00D173E766
:103C10004E4A01999A185200525A002A00D06BE776
:103C2000013B6B60F0E7009A5B0001329BB292B2FD
:103C30008FE71988009F0800B84002431A800A9A4B
:103C40000233D1408AB298E7A31E20880D931B88C7
:103C500000041843089915F0B5F80E9B0022E318EC
:103C60000C931900039B05909C4609928C4212D834
:103C700023889A4234D3D31A5A42190C9BB2228019
:103C80005A1E9341CA18002A2CD003990C9B8C46CB
:103C900000210F0042E0099B009F180C63461B881F
:103CA000BB4018436B4609909F8C059B5F430B8874
:103CB0009F4203D2D81B0F9090420CD8D31AFF1802
:103CC0007B420B80BBB23A0C5F1EBB41D218022371
:103CD00002319C44CAE70F9B9A1A0A800022F6E739
:103CE0009A1A22806A460A9B928A023B5A800A9359
:103CF0000B9B0D9C013B6B6066E7380C099060469E
:103D0000009F0088B840099F074318884118B8B23F
:103D10004118022019808444090C02339C42ECD8DB
:103D200023885918059B2180013B090C521A0593E1
:103D3000A9E71A88009F100038418A402043188064
:103D400094B2023B51E7013B736052E7FFFFFF7FF4
:103D5000436870B55A00002384680A4DA218944243
:103D600006D30278D20700D55B4201200B6070BDFC
:103D7000023AAB4203D816881B043343EFE7002016
:103D8000F5E7C046FF7F0000F7B50D0011000022E7
:103D90000600009228001F000B4BFDF739FE102093
:103DA0001CF034FF041E08D1084A094B094C5A6222
:103DB000002326602000A360FEBD390028000DF01E
:103DC0008FFDE060F4E7C046FFFF000050DC02001A
:103DD000782E0020902E002010B5013810C90DF06B
:103DE0007FFDE060004810BD70BF0200F8B57F2580
:103DF00053B204000E0017001540002B0ADB6B1EA7
:103E0000012B07D80B6858681EF0FFFA010020004C
:103E10001EF028F9022D0ED10F4920001EF022F9C4
:103E2000F368002B02D05A68002A0CD10B492000FD
:103E30001EF018F9F8BD002DF2D03A00F16820000C
:103E40000DF0F4FCF6E7012AF7D100229968200072
:103E50000BF024F9EEE7C04604F80200CC11030091
:103E6000C36803485A68002A00D098687047C04663
:103E700070BF0200136810B51400002B0BD0FC2398
:103E8000FF33994206D10C4B52689A4202D100236B
:103E9000C380236010BD094B994201D1C368F8E784
:103EA000074B02689A42F5D1064B9942F2D1FFF7CF
:103EB000D7FF2060EEE7C04670BF0200030200009B
:103EC000789C0200E10200000EB470B5050087B0D6
:103ED00010201CF09BFE041E0BD11A4B1A4A1B4CDF
:103EE0009D6118625A62200007B070BC08BC03B024
:103EF000184700210560816001200DF0F1FC2521AB
:103F0000E06005000B9824F065FE061E09D10B98B1
:103F100024F078FE320001000B980CF035F8A86010
:103F2000E1E702A810211CF024FF0CAA0B9902A8BB
:103F30000192FEF7C3FB02A90548E5680BF0EEFF0E
:103F4000EDE7C046782E002050DC0200902E0020C5
:103F5000BCE6020010B50300820708D1064A0168DA
:103F6000914204D1054AD9680120914203D0044905
:103F70001800FCF7F7FE10BD20910200893D0000FB
:103F8000B898020010B504000BF070F8044AC1683C
:103F90002300914200D0236900229A6010BDC046E0
:103FA000893D0000F7B50500160001930F000BF0E6
:103FB0005DF8174BC2682C009A4200D02C69A568A6
:103FC000002D13D10C201CF021FEA06000280CD085
:103FD0000323E580A380E288A16893000332E28096
:103FE000019ACB181F605E609A60F7BDE388A188D4
:103FF00002338B42EFDB03318900012228001CF0E1
:1040000023FE0028F1D0A388A0600333A380E2E759
:10401000893D000070B506000D0014000BF026F875
:10402000074BC1683200994200D032699368002B77
:1040300002D12B60236070BDD2882A60FAE7C046A7
:10404000893D00000048704716FCFFFF004870479C
:1040500016FCFFFF82B007B591B2049205930529C3
:1040600009D01B2902D104A80AF0EAFC002003B001
:1040700008BC02B0184704AB5B88062BF6D10822B7
:1040800006A9684624F07DFD049A059B014812F0BC
:104090003BFCEBE7202B0020034B044A0833136062
:1040A000034B1A607047C0461C9E020004030020A8
:1040B000482C0020C4600561466187614146C161AA
:1040C0004946016251464162594681626946C16270
:1040D0007146816000490847E14000000020C04669
:1040E000024B9A680260986000207047782E00208A
:1040F000024B9A6812689A607047C046782E00207A
:104100000E4A9368002B01D120F087F81968586097
:104110009160181CC468056946698769C169884649
:10412000016A8946416A8A46816A8B46C16A8D4620
:1041300081688E4601207047FEE7C046782E002039
:10414000F0B587B0039205910D9A03990500521AB4
:104150000CA9097820200C00844339D030293BD0A9
:104160000CA902910121802401911C4036D0D40F6A
:10417000A4186410171B002C37DD2600019B049344
:10418000B34200DD04966B68049A02992868984748
:10419000049BF61A002EF1DC039B002B06D01A00BC
:1041A00005996B6828689847039BE418002F0CDD7D
:1041B000E419019EBE4200DD3E00320002992868EB
:1041C0006B689847BF1B002FF3DC200007B0F0BDE1
:1041D000074902911021C6E70649FAE701271F4067
:1041E00001D11400C7E71700D6E70024D4E7C04682
:1041F000E9100300FA100300F0B593B0069318AB72
:1042000020CB04901B780F0016000793CB070BD42C
:104210008B0703D1854B0A689A4205D038000BF012
:104220000DF801274000074381231D4209D1079B58
:10423000302B06D11A9B1B9A934200DA1A92002364
:104240001B93380022F0E8FA0AAA1300002806DBC4
:10425000AB070FD52B231370123B04AA9B18EA0659
:1042600016D5022E0DD130221A70069A01325A70DC
:1042700002330DE013006A07F1D520221A701923CA
:10428000EBE7082E3CD130221A70AA0535D4013351
:1042900000220AA91A705B1A0593AB0600D52C32CE
:1042A0000EAB0B93102300210C931B9B0D91012B44
:1042B00001DD40231D4304ABD9756B4640241B7EB2
:1042C0002C400392029322D03B00019100960DAA4C
:1042D0000CA90BA806F0C0FF037807002D2B2DD1E9
:1042E00004AAD3750D9B1B9A013B01370D93012A3C
:1042F00000DD95E0002634004AE0069A0E32B6E76B
:10430000102EC5D130221A70069A1732AFE70AABC9
:10431000019300963B000DAA0CA90BA806F09CFF88
:104320001B9B07002600012B32DD0D9B1B9C9C4232
:1043300015DA1C0013E00026340019E01B9B012B4A
:10434000D8DD0D9B1B9C9C4200DA1C00172304AA9D
:104350009B181B78002B00D00134059BE4181A9B96
:10436000A342E8DD01261C1B2E4001D026000024BC
:1043700001239D432F330793002C09D0103B00935A
:10438000002301941A002A490498FFF7D9FE04007B
:104390006B0621D5172104ABC9180B78002B0AD066
:1043A00000230122009301920498FFF7C9FE1A9B93
:1043B0002418013B1A93059B002B0DD00123019378
:1043C0000023059A00930AA90498FFF7B9FE1A9BE7
:1043D000059A24189B1A1A931B9B012B00DD1A9334
:1043E0001A9B0D9A0193079B3900009304982B00A8
:1043F000FFF7A6FE2418002E09D0202300930023E7
:1044000001961A000A490498FFF79AFE24180B989F
:104410000EAB984201D01CF01BFC200013B0F0BD85
:104420001B9C9C4298DA1C0096E7C04608BC020020
:10443000CC110300F0B50600140000278DB00D006C
:104440002B78002B1ED1A94208D26B1A04931A00B4
:104450003068736898472900049BFF180B78002B7D
:1044600000D13EE14B1C049320230025302208217B
:1044700004200893049B1B78002B07D10693013B73
:10448000079355E0252BDED00135D9E72D2B05D13B
:104490002C3B1D43049B01330493EBE72B2B01D1F1
:1044A000293BF6E7202B01D10543F3E7212B01D16E
:1044B0000D43EFE7302B23D000230A210693049B02
:1044C0001B781A00303A092A1ED92E2B50D1049A93
:1044D000049B527801332A2A1FD0049300230A2117
:1044E0000793049B1B781A00303A092A20D8079AB0
:1044F0004A43D318303B0793049B01330493F0E7FE
:10450000402308921D43C5E7069A4A43D318303B1F
:104510000693049B01330493D1E7049B0233049375
:10452000236804340793DB43079ADB171A4007928A
:10453000049B1B786C3B59425941049B5B180493C4
:104540001B780593002B00D1CBE0642B00D1A1E0B8
:1045500022D8502B29D00ED8453B022B00D8A9E0F9
:10456000012204993068736898470137099452E032
:1045700001235B4284E7059B622B3CD057D8582B24
:10458000EED1231D0993069B01950393089B02938B
:1045900041230093313B7BE0059B712B53D00FD817
:1045A000672B00D886E0702BDAD1231D0993069B78
:1045B00001950393089B029361230093513B67E0AD
:1045C000059B752B5AD0782BEFD0732BC8D1231DA8
:1045D00024680993002C49D0079B013303D12000A4
:1045E00024F010FB0790069B079A0193089B21007B
:1045F00000932B000BE0231D09932368002B0ED0A2
:10460000069B04220193089B374900932B0030003E
:10461000FFF796FD3F180499099C01310FE7069BAF
:1046200005220193089B314900932B00EFE7231DDE
:10463000099323680BA90B70069B01220193089B29
:1046400000932B00E3E7231D0BA9206809931DF0BD
:10465000E1FE079B0100013301D10B9B0793069BF1
:10466000079A0193089B00932B00D0E7069B062234
:104670000193089B1E4900932B00C8E7231D099353
:10468000069B01950393089B029361230093573B7C
:1046900000220AE0231D0993069B01220393089B35
:1046A0000195029361230093573B216830001DF070
:1046B000E8FCAFE7072307349C43230020686168C8
:1046C0000833099317F012FB079B011C0293069B0A
:1046D000059A0193089B300000932B001DF045FDC7
:1046E00098E738000DB0F0BDD7100300DC100300D0
:1046F000E210030000237F2803D8034B1B5C9B07B9
:10470000DB0F18007047C0460B11030000237F2801
:1047100003D8034B1B5C1B07DB0F18007047C04618
:104720000B11030000237F2803D8034B1B5C5B079E
:10473000DB0F18007047C0460B11030000237F28D1
:1047400003D8034B1B5C5B06DB0F18007047C046A9
:104750000B11030000227F2808D8054B0132195C99
:104760000C23194202D15F38424242411000704787
:104770000B11030000237F2803D8034B1B5CDB06CF
:10478000DB0F18007047C0460B11030000237F2881
:1047900003D8034B1B5C9B06DB0F18007047C04619
:1047A0000B110300054B10B59A6C002A04D00022AF
:1047B000986C9A64FFF7A4FC10BDC046782E0020C8
:1047C00010B504001CF023FB1FF01AFD01280BD0CC
:1047D000064920001CF036FB20001CF018FB1FF0DF
:1047E0000FFD022800D0002010BDC046C7110300F5
:1047F000F0B59DB000AF0C68032835D9CB68FB60DD
:10480000042835D00D6900206D102BD41C23200006
:10481000F9180CF011F87861002D5AD0964C974990
:104820006068FEF73DFB0600606800229449043092
:1048300011F080F81823FA18D118040030000BF09A
:10484000FBFF3B6B013D0100C318002C05D19942D1
:1048500003D2013B1A782E2AF9D1013D0ED299429A
:104860000FD188480EF090FE874B0025FB60CDE706
:104870000025CBE7013B1A782E2AEED09942F9D3D6
:10488000EBE7FE695C1A2500002E01D0751C651946
:104890002B006A460E33DB08DB00D31A9D4622004C
:1048A00018003B6124F06DF9002E08D02E233A69E0
:1048B000601C135510187969320024F062F9290040
:1048C000386900F05BFE06243B69C0000443FD61CB
:1048D0007B6120000BF07AFB09F0D6FF061E15D095
:1048E0002E21786924F076F900280BD0664BFA68FF
:1048F0009A4207D17B69C11A180000F03FFE09F007
:10490000C3FF06003000BD461DB0F0BD18231820BF
:104910000125FA18D2183818103B4021C0181CF095
:1049200041FA7E603E61FB699D4205D9564BFA68AB
:104930009A42E7D17E68E5E79D4204D07B695B5DE2
:104940002E2B00D08EE02900786900F017FE7B6ADC
:104950003860002B18D12A007969083318203818DC
:10496000C0181CF0EAF918220823BA18D018FFF76B
:1049700027FFB860BB68002B14D13A68434944480C
:10498000FFF7A2FAFFF7BCFB18220823BA18D018C9
:104990002F21FDF73FFE3B693969EA1A7B695918F7
:1049A0000823DBE7386809F06FFF041E44D138683C
:1049B00009F038FFFB6904009D4213D1354BFA68BA
:1049C0009A420FD1BB68012B0FD0334A2B49406864
:1049D0001CF0BCFB18220823BA18D11820001DF0C7
:1049E00070FC29E0BB68012BF4D10022796AB86A17
:1049F0000BF0CAFAF4210200FF3120000EF070F92A
:104A00007B6A1822BB600823BA18D0182F21FDF743
:104A100001FE18220823BA18D01820491CF012FAF7
:104A200018220823BA18D0181CF0F1F91FF0E8FB7F
:104A3000022819D0BB687B62002E0CD07A693B69D2
:104A40009446E91A6344180000F098FD2200010022
:104A500030000EF045F97B68002B00D17C60260009
:104A60006B1C3B6101355EE718220823BA18D11888
:104A700020001DF026FCDDE7782E0020860F0000C8
:104A80009E0F00008B11030070BF0200AA110300EB
:104A9000A899020034DB0200760F0000BF1103006A
:104AA0000023F0B52F4F91B0040004A83B600E0026
:104AB0001500FFF7FFFA031E38D1EA0630D5626809
:104AC000A168112021F06EF832000126046801006F
:104AD00001A80FF043F9AB0821003340002201A8E0
:104AE00002F0C8FE04000320FEF7CCFC200021F0F9
:104AF000DBF901202C004042FEF7C4FC3440FFF7F4
:104B0000F7FA002C2BD031001748FCF715FF0121D4
:104B10000D4202D01448FCF70FFF200011B0F0BD89
:104B20002000AB06D0D521F01BFECDE7012040428E
:104B3000FEF7A8FC01210D4202D00B48FCF7FCFE59
:104B400005980AF093FA0949FCF70CF9041E01D004
:104B50003C68DCE7059906480AF0C4FAD7E7340058
:104B6000D5E7C0460C030020CB110300F09C0200E7
:104B7000309E020010B586B0202102A880241CF0CF
:104B8000F8F864001E481CF08EF800231D480393BB
:104B90001CF089F8FCF7B8FE0128F3D002280BD1ED
:104BA00019481CF080F802A81CF005F90122002029
:104BB000164B1A7006B010BD032802D100230393D0
:104BC000E8E7042804D0C1B202A81CF032F9E1E7FA
:104BD0000F481CF068F8039B0193002B08D10A488A
:104BE0001CF061F802A81CF0E6F880204000E1E724
:104BF0001122012102A8FFF753FF2042C5D0D9E7B7
:104C00007E1203004EF80200D90C0300400200207F
:104C10009912030030B587B0202102A880251CF02E
:104C2000A8F86D0037481CF03EF837481CF03BF8F8
:104C30000024364902A803941FF09EF901280AD1E6
:104C400033481CF030F802A81CF0B5F82000314BB6
:104C50001C7007B030BD022803D12D481CF023F88A
:104C6000E0E7032801D12A48E0E7042808D12848D2
:104C70001CF019F802A81CF09EF880204000E8E71C
:104C8000052827D124481CF00EF80394FCF73CFEBD
:104C90006B46C1B2DC1D21700329E4D004290AD17E
:104CA0001B481CF000F80121162202A8FFF7F8FEAD
:104CB0002842BDD0CDE702A81CF0BBF823780D2B0D
:104CC00003D116481BF0EFFFE0E701212000FCF7BD
:104CD00033FEDBE7039B002BAAD002A81CF097F859
:104CE000FCF7C0F800280BD00A2102A81CF0A1F89C
:104CF0000B4902A81FF040F90328B4D00428ECD1D6
:104D00000021D1E7CD110300171203003D1203006B
:104D1000D90C03004002002042120300721203006B
:104D200079120300014B58687047C046782E002066
:104D3000014B18687047C046782E0020F0B5194E18
:104D400087B03368050000200C0001931CF0C6F901
:104D500030600090206821F0A7F8019B07003360C5
:104D6000114E022D03D0A0680AF080F90600210040
:104D700063680831A81E03930CF0B2FD009B0490F9
:104D80000593002203AB032130000DF0D7FE074B43
:104D900004009F4203D0010038001FF0B8F8200043
:104DA00007B0F0BD782E00202091020070BF0200F5
:104DB000F8B50326050007003540022D16D10E4B2D
:104DC0000340062B12D0FF23DB05C418B443201C7C
:104DD000002114F0BDF9002806D080231B06E4183A
:104DE000B443064B2C43E7183800F8BD380010F0E8
:104DF0003DFC0700F8E7C046070080FF0000808008
:104E00001FB569460DF090FF040020000DF0EEFF85
:104E1000002802D1044804B010BD0AF04DFB002860
:104E2000F3D10248F7E7C0463CDB020034DB020066
:104E30001FB569460DF078FF040020000DF0D6FF85
:104E4000002802D1044804B010BD0AF035FB002848
:104E5000F3D00248F7E7C04634DB02003CDB020037
:104E600010B50AF087F9034B002800D1024B180057
:104E700010BDC0463CDB020034DB020037B50AF04F
:104E8000DDF901AB7F2806D8012118700122180036
:104E90000BF07AF83EBD1E49820988420BD84021AA
:104EA00049420A431A703F22024080204042104388
:104EB00058704231EAE7174C010BA0420ED820246B
:104EC00064422143197080215F34494222402040CE
:104ED0000A43014399705A700321D7E70E4CA04250
:104EE00012D81024850C64422C431C703F2580246A
:104EF000294064422A4028402143224320435970DC
:104F00009A70D8700421C1E704480EF03DFBC046FA
:104F1000FF070000FFFF0000FFFF10009C120300CE
:104F2000F0B589B0019202900D000022304901983D
:104F3000039310F0FFFC0090002801D04368009319
:104F4000029B012B10D0002634000196029B9E424A
:104F500020D0009B002B3BD12F68002C3ED12C6829
:104F6000019701360435F1E7002404A928680DF003
:104F7000DBFE2700029002980DF038FF051E0CD1D1
:104F8000002C07D122001B49019810F0D3FC002807
:104F90001BD04468200009B0F0BD009B2E00002B00
:104FA00004D02900180020F086FF0600002C09D04C
:104FB0003A00310003980EF0EFFA0F4B984201D0FF
:104FC00025003E002C003700D5E70C480EF0DCFA37
:104FD0002968009820F06FFF0700BEE7019A3900AA
:104FE00003980EF0D9FA044B9842BAD1B7E7C046FD
:104FF000561300002E1100003CDB0200BD1203001E
:1050000037B501A905000BF017FC1E4B04002B401F
:10501000062B05D0AB072AD11B4B2A689A4226D112
:10502000019920001DF024F90190012822D1207857
:1050300043B2002B04DB012023785B0018433EBD04
:105040007F23013418403F3B034208D13F2223789D
:1050500019009143802905D021F002FCEFE7984325
:105060005B10F1E78001134001341843EFE7019B27
:10507000012BE0D0019A05490548FEF725FFFFF70F
:105080003FF8C046070080FFBCE60200D6120300CE
:105090002C9D0200F0B5140087B00290039100220D
:1050A0002349200010F046FC002205002149200081
:1050B00010F040FC01230400049305931E4F002DC3
:1050C00007D068681D4B984203D004A90BF0B4FBCD
:1050D00007001B4E002C07D06068184B984203D085
:1050E00005A90BF0A9FB06000024029B154D9C426C
:1050F0000AD10023059A0193009331002800FFF79D
:105100001FF80E4807B0F0BD002C07D00023049A0A
:105110000193009339002800FFF712F80399A300C8
:105120000022C958280009F0B9FF0134DDE7C04664
:105130007E150000961100005730030070BF02007A
:1051400084130300309E02007FB50D4D0400A84279
:1051500013D00C4E01220100300009F09FFF0A49D4
:1051600030001CF07FFF04230293084B0394DB699B
:1051700002AA0321064801939847280004B070BD95
:1051800070BF0200309E02008413030060D1020051
:10519000989F020010B5040086B06A4602A810214C
:1051A000FDF72CFA01222100684609F077FF02A9D9
:1051B00002480AF0B3FE06B010BDC046BCE60200CD
:1051C00070B50C68E30726D4A30703D1174B2268F8
:1051D0009A4220D0012820D948680AF02FF806000A
:1051E00020000AF08FF8051C300014F047FF011C66
:1051F0000F4817F0C9FD011C041C281C14F04AFCC0
:1052000017F02CFA211C14F055FA032302249843BA
:10521000084B0443E418200070BD20000AF072F827
:1052200017F01CFA05F064FF0400F4E708BC020064
:10523000000020410000808030B50B0085B01400D4
:10524000012802D909480EF05FFB09480121C26814
:105250000192019D0022A8472200039003A901208A
:1052600005F05EF8039805B030BDC0462A13030070
:1052700084B9020013B5040008000AF0A7FE6A46CC
:10528000010020000DF0D2FC009B0248002B00D151
:10529000014816BD3CDB020034DB020037B50024B8
:1052A000022800D98C6848680D680AF08FFE0A4B06
:1052B0000100002C00D0094B28006A46984700984E
:1052C000002806D001990400002902D004F008F952
:1052D000040020003EBDC046912C01002D2C010091
:1052E00070B50400080015000AF070FE2A000100E5
:1052F00020000DF0F5FC014870BDC04670BF0200F3
:105300007FB50B00012803D10021186809F0E0FEE9
:10531000102102A81BF02DFD0C4902A81EF02CFE46
:10532000032804D10A481CF070FEFEF7E9FE039B37
:105330000193002B03D1042801D10648F3E702A909
:1053400005480AF0EBFD07B000BDC046CC110300D4
:10535000989A0200F4980200BCE6020010B50DF025
:105360001DFD002804D103481CF04FFEFEF7C8FEC7
:1053700010BDC046789C020010B5022803D0054934
:10538000054820F0DCFD4A680B2009680EF004F99E
:1053900010BDC04610130300889B0200F8B50E0034
:1053A00000280FD10400294B1D68002108001EF0C1
:1053B000FCFE00270600002D34D10025002C40D132
:1053C0003000F8BD0868830715D10268204B9A4267
:1053D0000DD11FF072FF0500306809F047FE1D4B2C
:1053E000C26800249A42E0D134680434DDE71A49E7
:1053F00003008A4202D009F039FE03009D6B002DA4
:10540000EAD0164B2A689A42E6D00025E4E7EA681B
:10541000FB009958002904D0042902D0300004F080
:105420001DFF0137AB689F42F1D3C6E7A268EB00CE
:105430009958002904D0042902D0300004F00EFF4E
:10544000013563689D42F1D3BAE7C046782E00204B
:1054500060D10200050700002091020004940200C0
:10546000074B5B69002B01D1180006E05A688242A5
:1054700004D8801A04308000C05870471B68F1E7D8
:10548000782E002070B5144D04006B699868DB68B5
:10549000834215D30230C0001BF0B8FB6B690028B3
:1054A00003D1986840000EF059F85A68D968036033
:1054B0009B6852185B00836000234260C360686190
:1054C0006A69D3685068591C04339B000138D16065
:1054D00040189C5070BDC046782E0020074B4118E4
:1054E000884204D3D8B2002800D1013070475A0155
:1054F000D318027801305340F2E7C046051500008A
:10550000034B044A5A610022A4331A607047C04614
:10551000782E002080A20200F0B585B001900E0028
:10552000FFF7DCFF144B02905C69002C01D12000D6
:105530001EE0270010373D00E3689B00FB18039333
:10554000039B9D4201D32468EFE72868029A037801
:105550009A420FD143789E420CD102303200019919
:1055600023F000FB002805D1ED1B6068AD10281862
:1055700005B0F0BD0435E3E7782E0020F0B585B026
:1055800003900191FFF7C8FF002862D1324D019BC3
:105590002F00A437DC1C3B68002B18D02E002F4AAC
:1055A000A836126831680292A2188A420FD9020006
:1055B000611818001BF048FB0290002822D1274BED
:1055C0000200196838681BF03FFB029B3B602B0010
:1055D000A4331B68002B20D12600802C00D280260B
:1055E00030002F001BF012FBA437386000280DD1CB
:1055F00020001BF00BFB26003860002806D120009D
:105600000DF0ACFF33681B193360E0E72B00A833C3
:105610001E602B000022AC331A602B00AC331A68DA
:10562000A4352D68A41801990398AD181C60FFF7E4
:1056300055FF6B461B7928706B70019AA81C039963
:1056400023F09FFA0022019B2800EB189A70FFF7C5
:1056500019FF05B0F0BDC046782E0020242F002091
:10566000F7B51D0016000023070003600B603360D0
:105670002B60174B00915C69002C02D0154B9C42AB
:1056800004D133682A68D3182B60F7BD3B68013317
:105690003B60E268009B94461B68009A0193634458
:1056A00013602200E36810329B00D3189A4207D39C
:1056B0002000FCF771FD2B68246818182860DBE7D0
:1056C00002CA30684978033009183160EEE7C046F5
:1056D000782E002080A202000C4B70B55C69002C73
:1056E00002D00B4B9C4200D170BD2600E3681036FF
:1056F0009D007519AE4201D32468F0E704CE054938
:10570000023205481CF076FDF4E7C046782E0020F2
:1057100080A202005B130300309E02000300203BC6
:105720005E2B00D93F20052320384343014A1068EF
:10573000C018704768000020044B0B6043684B6042
:1057400083680800CB6000238B60704788AE02003E
:1057500070B50500080068430130401008300C00A7
:105760001BF047FA0122044B8571036003794471F1
:105770009343037170BDC04694B10200037910B524
:10578000DB0702D501480EF0BFF810BDF02E030074
:1057900070B5050020201BF02CFA05210B4B0400EE
:1057A00003600800FFF7D4FF6B68EA68A06023611C
:1057B00062602A7C2000A276AA689B1863616B7CD9
:1057C000E3761CF058FE200070BDC046D8B1020040
:1057D00070B50D000400FFF7D1FF280009F02EFD81
:1057E0000100092802D904480DF0CEFE20001CF06B
:1057F000A4FE024870BDC0468D2F030070BF02009A
:10580000F0B50C000B6889B0070018000493FFF78F
:10581000B5FF6568280009F029FC1E4B984202D0AC
:105820001D480EF071F8072F01D11C48F9E7A06858
:1058300009F004FD0690E06809F000FD079020697A
:1058400009F0FCFC0590606909F0F8FC059B060076
:10585000002B01DB002802DA11480DF095FE062F1F
:1058600014D0A06909F0EAFC0700E06909F0E6FC41
:10587000059B03900093280002970196079B069AC8
:1058800004991CF00BFF074809B0F0BD0020070089
:10589000EEE7C04694B102001D2F0300302F030035
:1058A0004A2F030070BF020070B504000800160004
:1058B00009F0C4FC0500300009F0C0FC0600002D12
:1058C00001DB002802DA0C480DF05EFE20001CF01F
:1058D000D0FE854204DA20001CF0D9FE864201DBAE
:1058E0000648F1E73200290020001CF0B4FE430016
:1058F0000120184370BDC046A62F0300BF2F030030
:10590000F8B50D000C682000FFF738FF686809F053
:1059100095FC0600A86809F091FC0700002E01DB49
:10592000002802DA0F480DF02FFEE86809F086FC27
:105930000500092801D90C48F5E720001CF099FE64
:10594000864204DA20001CF0A2FE874201DB0748F1
:10595000E9E72B003A00310020001CF0C7FD0448A5
:10596000F8BDC046A62F03008D2F0300BF2F0300F4
:1059700070BF0200F7B50E002649040001921CF02A
:1059800039FC019B002B03D1234920001CF032FC81
:10599000224920001CF02EFC002530001CF077FE70
:1059A000854221DA002730001CF063FE87420CDAC2
:1059B00039002A0030001CF04EFE194B19491A5CC0
:1059C00020001CF017FC0137EDE7174920001CF000
:1059D00011FC019B002B05D130001CF058FE013852
:1059E000854211DB0135D8E70C4920001CF002FC90
:1059F000019B002B03D10D4920001CF0FBFB0C493F
:105A000020001CF0F7FBF7BD0A4920001CF0F2FB58
:105A1000E8E7C0464C300300533003005F3003001A
:105A200061300300635103005A0D03008413030027
:105A3000014C030059300300F0B50F0011000022A3
:105A40008BB01E00009203233800FBF7E1FF032F09
:105A500000D9D2E0380013F097F9020C919105219A
:105A60000800FFF775FE04001CF075FD20000BB068
:105A7000F0BD3068634B0340062B07D0830700D08E
:105A8000BEE0614B02689A4200D0B9E007A90AF073
:105A9000D3FE079B03900593012B04D1039B187839
:105AA0001CF0FCFFE3E700231E00039A0293039916
:105AB0000598511A814215DA11780A2901D03A293C
:105AC00008D19E4200DA1E00029B0133029300239C
:105AD0000132ECE701332029FAD03929F8DD4B48AF
