:020000040000FA
:1000000000400020E91F01002520010027200100F9
:1000100000000000000000000000000000000000E0
:100020000000000000000000000000002920010086
:1000300000000000000000002B2001002D20010026
:100040002F2001002F200100DD1E01002F200100C4
:100050002F20010000000000F94501002F200100C1
:100060002F2001002F200100194B01002F2001003B
:100070002F2001002F2001002F2001002F20010040
:100080002F200100BD1C01002F2001002F200100A6
:100090002F2001002F2001002F2001002F20010020
:1000A0002F2001002F2001000000000000000000B0
:1000B0000000000000000000000000000000000040
:1000C00008B50FF095F817F06FFC0A4B084A16F0C8
:1000D00035FE094A094B16F00DFB17F0B7FC032358
:1000E000984302231843064BC01808BDC046C046BB
:1000F0000000000000806640182D4454FB21094098
:1001000000008080C046C04608B50FF071F817F0B7
:100110004BFC0A4B084A16F011FE094A094B16F02F
:10012000E9FA17F093FC0323984302231843064B84
:10013000C01808BDC046C046182D4454FB210940D4
:10014000000000000080664000008080C046C0467D
:10015000F7B5171C146801AA051C0E1C05F0D6F88B
:10016000402D05D1019B3C255A1EA4185B421C4022
:1001700023183B602A1C5A27B742BF413E3A5542DA
:100180006A417F42231CD2B2391C1EF08CFB041C36
:100190000D1C4F2E3DD0532E08D1201C24F005F805
:1001A0000022011C201C01F0ADFC32E0662E06D1BD
:1001B00003239C4302201A4B0443E01829E0642ED9
:1001C00009D1201C17F042FC032398430224144B4E
:1001D0002043C0181DE0002F0FD0104B0E4A1219FB
:1001E0006B41201C002B04D1002A02DB1FF087F991
:1001F0000FE0291C1FF074F90BE0201C002905D129
:10020000084B9C4202D81FF095F902E0291C1FF010
:1002100082F9FEBDC046C04600000040000000005C
:1002200000008080FFFFFF3F38B5041C82070CD11F
:10023000114B02689A4208D106F0A8FF211D051C47
:10024000043020F00FFC281C11E0201C0EF06CFF85
:10025000C0231B06984204D1064905481FF040F907
:1002600005E0C317C018584040000123184338BDAB
:10027000000000400000000090520200C046C0464E
:10028000F7B5041C0191081C002114F09DFF002803
:1002900005D0234923481FF01BFA11F0EEFA237909
:1002A000D90702D4A079617901E00520011C09F089
:1002B000D9FA0026071C22790523D10700D4A37997
:1002C0009E4226DA002522790523D10700D4A3799E
:1002D0009D421CDA2A1C311C201C1FF02DFD15F03C
:1002E0003BFE019915F078FB17F05EFB0B4B0A4AB9
:1002F00015F0DEFE17F0E6FA0923082800DC031CDF
:100300002A1C381C311C1FF0FAFC0135DBE70136D2
:10031000D1E7381CFEBDC046000000000000E03FF1
:10032000B3B60200D858020010B5041C081C8A0796
:1003300003D1134B0A689A4202D00EF0F5FE09E091
:100340000EF056FF17F030FB0C4B0B4A15F0B0FEC9
:1003500017F0B8FA0B4B011C994205D90A490B4812
:100360001FF0B6F911F089FA606813F0DDFD084856
:1003700010BDC046C046C046000000000000E03F7F
:1003800060560200FF0300001ABA0200D8580200AB
:10039000707C0200C046C046F0B541188BB0071C07
:1003A00008920993029102998F4200D32EE1387886
:1003B0000CF000FF002801D00137F4E73B782B2B2D
:1003C00002D10137049005E004902D2B0ED10122BB
:1003D00001370492029B9F4208D3914A00213D1CA1
:1003E0000191069207910E1C002458E03A782023D0
:1003F0001A43692A2ED10299BA1C914200D8D6E03C
:100400007A781A436E2A00D0D1E0BA781A43662A65
:1004100000D0CCE0FA1DFD1C914200D8C3E0FA7870
:100420001A43692A00D0BEE03A791A436E2A00D0F6
:10043000B9E07A791A43692A00D0B4E0BA791A434C
:10044000742A00D0AFE0FA791343792B00D0AAE0E8
:100450000535A8E06E2AC0D10299BA1C914200D895
:10046000A5E07A781A43612A00D0A0E0BA78134355
:100470006E2B00D09BE0FD1C00266A4C9AE02B7886
:100480006A1C191C303903920591092932D8022EB1
:1004900009D1019A0A235343CB180193039D029B70
:1004A0009D42ECD354E0012E15D1059815F0B0FD16
:1004B000069915F091FA011C201C14F03DFF041C54
:1004C000069817F071FA554B534A16F037FC17F09F
:1004D000BDFA0690E2E75449201C15F07DFA041C91
:1004E000059815F095FD011C201C14F025FF002631
:1004F000041CD3E7002E02D12E2B02D126E0022EBF
:1005000019D020221A43652A15D1039B02998B42E8
:100510000BD26B782B2B02D10235039505E02D2BE6
:1005200003D10235012203950792039B02998B4266
:1005300065D00226B2E7089A0026B24209D02022EE
:1005400013436A2B05D1039D012602E00126A5E78E
:1005500000260799002902D0019A52420192019B7C
:100560000393039A002A08DD201C2F4915F034FA62
:100570000399041C01390391F3E70199CB43DB177D
:1005800099430191019B002B14D0201C17F00CFA09
:10059000224B214A16F0D2FB17F058FA019A041C9C
:1005A00001320192EEE7FF240026E40502E03D1C43
:1005B000002600240499002902D080221206A418E3
:1005C000BD421CD0029B9D4206D228780CF0F2FD61
:1005D000002814D00135F5E702998D420FD1002E85
:1005E00002D1099A002A02D01048114909E00323D8
:1005F0009C4302200F4B0443E0180BB0F0BD0B48A6
:100600000D491FF065F810990DF0C2FD002104910D
:10061000E3E6C046C046C0469A9999999999B93F70
:10062000CDCCCC3D0000C07F00002041D858020056
:1006300067BE02000000808084BE0200C046C04643
:1006400008B50B4B1B78002B01D111F071FB11F099
:1006500017FB064B044A14F0FFFD4904C00B084386
:1006600008BDC046C046C04640420F000000000022
:10067000932E0020C046C0462F4B70B51B78061C39
:10068000002B01D111F054FB11F0FAFA254B244A4A
:1006900014F0E2FD4B04C00B002400251843CD0BE1
:1006A0000023321CA4185D4180231B06984205D903
:1006B000002E03DB1C4A1D4BA4185D41610CEB03AB
:1006C0000B43E2031A481B4980185941154B144A41
:1006D00014F0A2FD194D041C2B78194E002B02D0EA
:1006E000336898421BD011F0CBFA201A022802DCA2
:1006F00011F0C6FA841C2102124BA822D200090A6A
:1007000099502A783460002A09D101222A70D22116
:100710008022520289005A50C12189005A5070BD6E
:1007200040420F0000000000000000000100000037
:100730003F420F0000000000932E0020942E002066
:10074000B42800200010014073B58279061C93077D
:1007500040D401231A4206D181881A1C684612F03F
:1007600071FC234837E01E22B35E2422805EC01A4B
:1007700017F0DCF8041C2223F05E1C22B35E0D1C73
:10078000C01A17F0D3F8021C0B1C201C291C18F0EF
:10079000A3FA124B104A16F0D1FA114A114B15F078
:1007A000A9FF17F053F90021041C14F00DFD0028D7
:1007B00004D0201C0F4914F0BFFD041C201C17F0AE
:1007C000F3F8021C0B1C0848084916F047FD17F007
:1007D00079F800E0084876BD00000000008066401F
:1007E000EA2E4454FB2109400000000000807640BE
:1007F00014FCFFFF0000B44315FCFFFFC046C046D9
:1008000070B5041C04201BF09BF8051C1648401B07
:1008100015F0FEFB17F0C8F8124B114A16F08EFACD
:1008200000F026F80323061C281C9E431BF092F8B8
:100830002368002B0AD1301C1BF082F820600028AE
:10084000F6D1203E002EF3D1084807E0B608B600E6
:100850009B19201C636022F096FF002070BDC046EB
:10086000666666666666EE3F0038002013FCFFFF92
:1008700038B50E4B0C4A041C0D1C17F0A7F90028C4
:1008800004D1201C291C17F01DF838BD074B064A5F
:10089000201C291C16F0E2FC17F014F880231B061C
:1008A000C018F2E7C046C046000000000000E0416A
:1008B000F0B58BB0061C18F00FFE374D0023EB5639
:1008C000041C013336D0301C1AF040FC002831D013
:1008D000301C324914F08CFC071E2ED1301C3049DC
:1008E00014F072FC002825D0042300932D4B301CFB
:1008F0000193089717F058F8224B214A6C46A261E1
:10090000E3610023EB5620616161A060E160022B8E
:100910002FD068461AF028FC00282AD0236A002B22
:1009200003D01AF0DDFC236A0360A069E16917F0C7
:100930008DF8041C201C0BB0F0BD03230093194B51
:10094000301C01930023089317F02EF86C462061A9
:100950006161A060E1602978002904D10A4A0B4B4B
:10096000A261E361D5E70A4A0A4BA261E361022969
:10097000CFD11AF0B5FC22230360CFE7C046C046B2
:100980000000000000000000000000E0FFFFEF4753
:10099000000000000000F07FEA0000208071B142FA
:1009A000B5F1CFC240990200F0B58BB0041C0E1C0B
:1009B00018F094FE2A4F0023FB56051C013304D087
:1009C000301C18F00BF8002802D1281C0BB0F0BD29
:1009D000201C18F003F80028F7D0301C002114F078
:1009E000EDFB0028F1D0012300931E4B201C019346
:1009F0000023089316F0D8FF041C0D1C301C029431
:100A0000039516F0D1FF3E7804900591002E16D084
:100A100012491148021C0B1C15F06CFE0690079140
:100A2000022E0ED11AF05CFC21230360089B002BE0
:100A30000DD10698079917F009F8051CC5E706942B
:100A4000079568461AF090FB0028EFD1EAE71AF004
:100A500047FC089B0360ECE700000000000000007A
:100A6000EA0000204899020070B58AB0041C18F012
:100A7000BBFE354E0022B256051C031C01320CD0C1
:100A8000201C17F0ABFF2B1C002806D0201C0021D7
:100A900014F0AEFB2B1C002802D0181C0AB070BD4D
:100AA0002A4B0890201C019316F07EFF35780490A5
:100AB000059102900391002D2AD1204B1E4A0692E7
:100AC0000793201C002114F079FB002811D0022389
:100AD0000093022D26D068461AF046FB002821D04C
:100AE000089B002B23D10698079916F0AFFF031C33
:100AF000D3E701230093022D0FD068461AF034FB90
:100B000000280AD0124800F0F7FC06900791E7E7AA
:100B10000B4A0C4B06920793D3E71AF0E1FB212313
:100B20000360EFE71AF0DCFB22230360D8E71AF03A
:100B3000D7FB089B0360D6E7000000E0FFFFEFC78C
:100B4000000000000000F0FFEA00002050990200C1
:100B500054990200C046C046F0B546464F46C0B460
:100B60008BB0051C0C1C18F09DFFBB4E0023F356E8
:100B70008046071C013304D0201C17F02FFF0028EB
:100B800005D1381C0BB00CBC90469946F0BD281C12
:100B900017F024FF8146002833D1201C002114F0D7
:100BA0000DFB0028EDD001230093AC4B4A46281CD6
:100BB0000193089216F0F8FE6F46B860F960201CA9
:100BC00016F0F2FE9D4B9C4ABA61FB610023F3567E
:100BD000386179615A1C0ED0022B0CD068461AF08D
:100BE000C3FA002800D1E5E03B6A002B03D01AF0DD
:100BF00077FB3B6A0360B869F96916F027FF071CA9
:100C0000BFE7281C002114F0D9FA002832D0201C9C
:100C1000002114F0D3FA8046002869D00123009304
:100C20008E4B281C01930023089316F0BDFE6F46DF
:100C3000B860F960201C16F0B7FE814A814BBA619A
:100C4000FB610023F35638617961002B04D07B4BA4
:100C5000794ABA61FB61CEE768461AF085FA002846
:100C600000D1ACE03B6A002BC5D01AF039FB3A6AE0
:100C70000260C0E740461AF069FA8146002867D052
:100C80004046002114F09AFA4746002800D178E740
:100C9000281C1AF05BFA4746002800D171E7201C97
:100CA0001AF054FA002800D16BE7042300936B4B31
:100CB000281C01930023089316F076FE6F46B86057
:100CC000F960201C16F070FE5D4A5E4BBA61FB6154
:100CD0000023F35638617961022B7AD068461AF006
:100CE00043FA002875D03B6A002B00D183E7BCE7AC
:100CF000201C1AF02BFA002800D142E7201C00210A
:100D000014F062FA002800D13BE701230093534B13
:100D1000281C01934346089316F046FE6F46B860C0
:100D2000F960201C16F040FE3861796131780029A5
:100D30004AD0454A454BBA61FB61022934D11AF0C9
:100D4000CFFA212303603A6A002A00D153E74EE725
:100D5000281C1AF0FBF9002892D0201C1AF0F6F992
:100D600000288DD0404617F039FE6F46002835D157
:100D700001230093394B0890281C019316F014FEB0
:100D8000B860F960201C16F00FFE34783861796184
:100D9000002C19D02A482B49021C0B1C15F0AAFC68
:100DA000B861F961022CCAD068461AF0DDF9002852
:100DB000C9D1C4E71AF094FA2123036014E71AF0AA
:100DC0008FFA212303604DE71D4A1E4BBA61FB6178
:100DD000EAE71AF085FA2223036084E703230093ED
:100DE0001E4B4A46281C0193089216F0DDFDB860A0
:100DF000F960201C16F0D8FD0023F35638617961A4
:100E0000002B2DD1124A134B281CBA61FB61002123
:100E100014F0DAF9002845D10023F356022B05D04F
:100E200068461AF0A1F9002800D01BE71AF058FA1A
:100E30002223036016E7C046000000000000F03FD8
:100E40000000000000000000000000000000F0FFB3
:100E5000000000E0FFFFEF47EA0000205899020081
:100E60001E4B1D4A281CBA61FB61002114F0ACF92D
:100E70000028D1D0FC21201C890514F0ADFD16F00E
:100E800093FD041C0D1C1AF071F9021C0B1C201C94
:100E9000291C16F077FE0028BED1114A114BBA6109
:100EA000FB61B9E7FC21201C890514F095FD16F0C3
:100EB0007BFD041C0D1C1AF059F9021C0B1C201C94
:100EC000291C16F05FFE0028A6D1074A074BBA611D
:100ED000FB61A1E7C046C046000000000000F07FB3
:100EE000000000000000F0FF000000E0FFFFEFC77F
:100EF00070B58AB0041C19F0DFFA274E0023F356B0
:100F0000051C01330AD0201C17F068FD002805D00D
:100F1000201C002114F058F9002802D1281C0AB026
:100F200070BD012300931D4B201C019300230893E7
:100F300016F03AFD34780490059102900391002C4C
:100F400011D1144B124A0692079368461AF00CF915
:100F5000002812D0089B002B14D10698079916F090
:100F600075FD051CDAE70B490948021C0B1C15F03E
:100F7000C1FB06900791022CE7D11AF0B1F92123A9
:100F80000360E7E71AF0ACF9089B0360E5E7C046A9
:100F90000000000000000000EA000020609902004C
:100FA000F0B55F464D4644465646F0B4041C5042E8
:100FB0000D1C104359004908C00F8846014389465B
:100FC000774985B0161C1F1C9B46009401958C46E2
:100FD000894527D80198410049080390009889461F
:100FE000009940420843C00F49460143614519D862
:100FF0006C48C01810434BD0991702200840824615
:101000000198C10F5046084382460098494608435C
:1010100017D1504602285BD011DC002811DB201CC0
:10102000291C05E0301C391C221C2B1C15F040F833
:1010300005B03CBC90469946A246AB46F0BD03289D
:1010400035D04046024305D10399002946DB3F498C
:101050003D48EDE7524B98451FD0514B99453AD04A
:1010600048464146431A1B153C2B23DD3749364879
:101070005346012B40D0022B33D0002BD8D0344A1A
:10108000344B16F0EBF8344A344B16F0E7F8CFE760
:10109000201C291C00F088F8CAE7C14535D050460D
:1010A000012842D03CDD022812D00328D5D12C489B
:1010B0002C49BDE75A46002A22DB321C3B1C201C6F
:1010C000291C15F017FB1AF037F800F06DF8CFE780
:1010D00021482249ACE7039A002AB8DA224823497A
:1010E000A6E71B4A1B4B16F0B9F8021C0B1C1A484A
:1010F0001A4916F0B3F89BE780242406091997E7EC
:101100003C33DADA1A481B49B2E75246012A17D0B3
:101110000EDD022A11D0032ADDD11748174987E7CF
:1011200000289AD11248134982E7154815497FE7EC
:10113000002AD0D1144815497AE71548154977E7B0
:101140001548164974E7C046182D4454FB21F93F51
:10115000075C143326A6A13C182D4454FB210940FA
:10116000182D4454FB2109C0182D4454FB21F9BF0C
:101170000000000000000000D221337F7CD902C0B3
:101180000000000000000080182D4454FB21E93FBE
:10119000D221337F7CD90240182D4454FB21E9BF72
:1011A0000000F07F000010C0F8B556464D4644469A
:1011B0005F46C54BF0B44E00814688468A467608A5
:1011C0009E420CDDC14B9E4200DDA7E000D1A2E0B3
:1011D0005046BF4A002800DCE3E0BE4BA6E0BE4B11
:1011E0009E4200DDB8E0BD4B9E4200DCA6E001243B
:1011F0006442A3464A4643464846414615F09EFD92
:10120000061C0F1C321C3B1C15F098FD8F4B8E4AA0
:10121000041C0D1C15F092FD8D4A8E4B14F048FFF6
:10122000221C2B1C15F08AFD8B4A8C4B14F040FFBE
:10123000221C2B1C15F082FD894A8A4B14F038FFC2
:10124000221C2B1C15F07AFD874A884B14F030FFC6
:10125000221C2B1C15F072FD854A864B14F028FFCA
:10126000321C3B1C15F06AFD834A844B061C0F1C84
:10127000201C291C15F062FD814A824B15F0EEFFFF
:10128000221C2B1C15F05AFD7F4A804B15F0E6FFFF
:10129000221C2B1C15F052FD7D4A7E4B15F0DEFF03
:1012A000221C2B1C15F04AFD7B4A7C4B15F0D6FF07
:1012B000221C2B1C15F042FD021C58460B1C013051
:1012C00000D170E05946CC00301C391C14F0F0FEFF
:1012D0004A46434615F032FD814D0B1C81492D19BC
:1012E000021C0C19101C191C2268636815F0B6FF4B
:1012F0004A46434615F0B2FF021C0B1C2868696879
:1013000015F0ACFF021C50460B1C00280EDA8020A2
:1013100000060B180AE0002800D159E74A46434668
:101320004846414614F0C4FE021C0B1C101C191C3C
:101330003CBC90469946A246AB46F8BD584A594B2C
:1013400014F0B6FE584A594B16F036FC002800D16E
:101350004DE74A464346E9E719F0EEFE624B041CAE
:101360000D1C9E4230DC614B9E4256DC221C2B1C25
:1013700014F09EFE4C4A4D4B15F070FF4C4A4D4BFD
:10138000061C0F1C201C291C14F092FE021C0B1CB6
:10139000301C391C15F0AEF98846002181468B4679
:1013A00028E7534BC2E7301C391C14F081FE4A4633
:1013B000434615F0C3FC021C0B1C4846414615F081
:1013C0004DFF021C0B1CB1E74A4B9E421ADC3A4A05
:1013D0003A4B15F043FF384A384B061C0F1C201CB3
:1013E000291C15F0ABFC304A304B14F061FE021C96
:1013F0000B1C301C391C15F07DF9814602208846F3
:101400008346F7E62E482F49221C2B1C15F072F953
:101410008846032181468B46ECE6234A234B15F090
:101420001DFF214A214B061C0F1C201C291C14F0F7
:101430003FFE0B1C021C391C301C15F05BF901230C
:10144000814688469B46D5E611DA22E33AAD903FC5
:10145000EB0D76244B7BA93F513DD0A0660DB13FEB
:101460006E204CC5CD45B73FFF8300922449C23F53
:101470000D5555555555D53F2F6C6A2C44B4A2BF18
:101480009AFDDE522DDEAD3F6D9A74AFF2B0B33FE0
:10149000711623FEC671BC3FC4EB98999999C93F58
:1014A0009C7500883CE4377E000000000000F03F9F
:1014B0000000000000000040000000000000F83FB5
:1014C000000000000000F0BFFFFF0F440000F07FAD
:1014D000182D4454FB21F93FFFFFDB3FFFFF1F3E68
:1014E0009847020078470200FFFFF23FFFFFE53F09
:1014F000FB21F9BFFF7F0340024901487047C04606
:10150000000000000000F87F08B5064B06480333D2
:101510001B1A062B00D808BD044B002BFBD09847A4
:10152000F9E7C04600010020000100200000000093
:1015300008B50748074B1B1A9B10DA0FD318591030
:1015400000D108BD044A002AFBD09047F9E7C04605
:1015500000010020000100200000000010B5074C31
:101560002378002B09D1FFF7CFFF054B002B02D0CA
:10157000044800E000BF0123237010BD00010020DB
:101580000000000038EE020008B5094B002B03D024
:101590000848094900E000BF08480368002B03D051
:1015A000074B002B00D09847FFF7C2FF08BDC0468D
:1015B0000000000038EE02000401002000010020BD
:1015C00000000000144B002B00D1124B9D4640221E
:1015D00092029A1A924600218B460F461148124AEF
:1015E000121A22F0ECFC0D4B002B00D098470C4B4C
:1015F000002B00D098470020002104000D000B486C
:1016000022F0B7FB1AF026F92000290021F01AFA7F
:1016100019F06CFE000008000040002000000000EF
:101620000000000000010020F82F002005B6010096
:1016300008B50DF0DDFD034B184002231843024BA3
:10164000C01808BDFCFFFF7F0000808008B50DF0CA
:10165000CFFD17F0C3F9002801D1024800E002488D
:1016600008BDC046187B02005C7B020008B50DF087
:10167000BFFD17F0B3F9012801D1024800E002488C
:1016800008BDC046187B02005C7B020008B50DF067
:10169000AFFD17F0A3F9012801D9024800E0024884
:1016A00008BDC046187B02005C7B02001FB500230A
:1016B00001930DF09DFD01A917F0FEF90323021C13
:1016C000084902209A43024352180292019A9A430F
:1016D000131C03435B1802A903930CF097FF05B09A
:1016E00000BDC0460000808038B50D1C0DF080FDA7
:1016F000041C281C0DF07CFD14F00EFC011C201CA9
:1017000017F0B6F90323984302231843014BC0187E
:1017100038BDC046000080801FB5002301930DF046
:1017200067FD01A917F078F9032302249843074BBA
:101730002043C018029001981DF0E1FE02A9039019
:10174000201C0CF063FF04B010BDC0460000808078
:1017500038B50D1C0DF04CFD041C281C0DF048FD87
:10176000011C201CFFF720F9032398430223184390
:10177000014BC01838BDC0460000808038B50D1C34
:101780000DF036FD041C281C0DF032FDC30F600067
:10179000DB0740081843032398430224014B2043EE
:1017A000C01838BD0000808038B50D1C0DF020FD3C
:1017B000041C281C0DF01CFD011C201C17F030FB24
:1017C0000323984302231843014BC01838BDC04679
:1017D0000000808008B50DF00BFD16F003FF032319
:1017E000984302231843014BC01808BD00008080B5
:1017F00008B50DF0FDFC17F0C3FA0323984302234C
:101800001843014BC01808BD0000808008B50DF0DA
:10181000EFFC17F065FA0323984302231843014BAA
:10182000C01808BD0000808008B50DF0E1FC17F07D
:101830002DFA0323984302231843014BC01808BD17
:101840000000808008B50DF0D3FC17F0DFF903230A
:10185000984302231843014BC01808BD0000808044
:1018600008B50DF0C5FC17F02BF8032398430223AD
:101870001843014BC01808BD0000808070B5061CDD
:1018800008680D1C0DF0B4FCFFF7EEF8041C012EE7
:1018900006D103239C430220094B0443E0180EE0C9
:1018A00068680DF0A5FCFFF7DFF8011C201C13F0A1
:1018B000AFFE032398430224014B2043C01870BDA0
:1018C0000000808008B50DF093FCFEF7F1FF0323C4
:1018D000984302231843014BC01808BD00008080C4
:1018E00038B50D1C0DF084FC041C281C0DF080FC88
:1018F000011C201CFFF730F90323984302231843EF
:10190000014BC01838BDC0460000808008B50DF0FE
:101910006FFCFFF7EDFA0323984302231843014BB2
:10192000C01808BD00008080032210B502400123CA
:10193000002A03D1094904688C420CD0011C1940CB
:101940000123002907D10B1C002A04D10268044B93
:10195000D31A5A425341181C10BDC046207B0200C6
:101960009052020010B5041CFFF7DEFF012300288F
:1019700009D103222240031C022A04D1034B1C403C
:10198000A31F5C1EA3410120184010BD070080FF6B
:1019900008B520F024F90349021C034806F032F888
:1019A0000FF06BFFF3A20200C85D020010B5041C2B
:1019B0000C201FF0BBFB034B4460036000238360DB
:1019C00010BDC046904B0200F7B58A1801930092F3
:1019D000041C0E1C0B1C002200998B420DD219789E
:1019E000272904D0223948424141C9B201E00021EF
:1019F000012201330029EFD002E02225002A00D184
:101A000027251F4F201C391C2A1C20F0CCFA0099D6
:101A10008E422FD23278AA4203D1201C19492A1CA7
:101A200024E05C2A02D1201C17491AE01F2A0AD997
:101A30007F2A19D0019B002B02D053B2002B0CDB64
:101A4000201C391C12E00A2A02D1201C0F4908E090
:101A50000D2A02D1201C0E4903E0092A04D10D49A8
:101A6000201C20F0D6F903E00B49201C20F09BFA43
:101A70000136CCE7391C2A1C201C20F094FAF7BD53
:101A800020A302001FA3020023A3020026A302003A
:101A900029A302002CA302002FA30200184B70B54B
:101AA000061C0C1C98420ED1886849680CF05EFC3C
:101AB000051E08D0201C1FF035FCED000023062079
:101AC000236028431AE010201FF030FB6168051CDA
:101AD00081600660A0680CF02DFC6168226801310D
:101AE0006860A068914201D01FF045FBE860E9689A
:101AF000AA6800238B54281CA360236070BDC046D5
:101B0000985F020038B5051C0C1C002A02D00CF0AE
:101B100063FC03E00CF02AFC002803D0C00006237D
:101B2000184304E00248291C221C1BF0D4FB38BDDA
:101B3000985F020008B5031C0A1C0248191C1BF020
:101B4000CAFB08BD204C020008B50A4B0340062B17
:101B500001D1C0080DE0820709D1074B02689A4203
:101B600005D1C3688168181C0CF036FC01E0FFF752
:101B70000FFF08BD070080FF985F020008B5064B05
:101B80000340062B03D1C0081FF006FF02E0836864
:101B9000C0680B6008BDC046070080FFF0B5002696
:101BA00089B00F1C051C1C1C081C0096111C03236B
:101BB000321C05F02FFAB74238D0012F0ED104A8FD
:101BC00002AA10210BF08CFA216802A8321C0DF039
:101BD000DBF9281C04A9FFF761FF28E0206804A9AD
:101BE00082071AD1134B02689A4216D1FFF7C6FF3B
:101BF000114B061C20680340062B04D1C0081FF0BF
:101C0000BCFE041C00E044681020049F1FF08EFA04
:101C100005608760C660446009E001220DF04AFC5F
:101C2000059904980022FFF76DFF00E00E2009B02F
:101C3000F0BDC046204C0200070080FFF0B58BB01D
:101C4000049008680D1C069207930DF083F9041C9C
:101C500068680DF07FF9061EA64202D06868FFF79B
:101C600097FE08A92868FFF789FF09A9041C68687E
:101C7000FFF784FF089A0590A3180393049B271C81
:101C8000022B1BD9AB6820498B4207D00121009160
:101C9000301C211C06F0E0FB071C00E0271C049B05
:101CA000032B0BD0EB68184A934207D00122009215
:101CB000301C211C089A06F0CFFB0390039B381CB4
:101CC000D91B069B059A0093099B1BF0E4FA011EA1
:101CD0000AD1079B01204042002B12D00B490C482F
:101CE0001DF0F6FC0FF0C9FD0A4B9E4205D1201CE9
:101CF0001FF027FC0121400002E0011B49000120E8
:101D000008430BB0F0BDC046707C020036A3020051
:101D1000D8580200985F0200F0B58DB0041C039102
:101D20000DF018F904A9061C201CFFF727FF0290EC
:101D3000039882070BD10368314A934204D105A965
:101D400006AA1FF051FE10E02E4A934208D02D48FB
:101D50000121C36800220193019C03ABA0470390BB
:101D6000039805A906AA1DF024FF0024251C059B45
:101D70009C421ED2069AA700D0590DF0EBF8B04253
:101D800005D0214921481DF0A3FC0FF076FD002C61
:101D900001D0049BED18069A1D4BD0590340062B29
:101DA00003D1C0081FF0EEFD00E080682D1801345B
:101DB000DDE7291C08A81FF0A2FA0A9C0025059A55
:101DC000954217D2002D06D0201C049A029922F0C9
:101DD000D4F8049AA418069AAB00985807A9FFF7FC
:101DE000CDFE079A011C201C22F0C7F8079B013585
:101DF000E418E4E7301C08A9FFF750FE0DB0F0BD71
:101E0000CC8A0200486302004AA30200C85D0200B7
:101E1000070080FFF0B5071C87B008680C1C0DF0A8
:101E200099F804A9061C2068FFF7A8FE05A9051C5F
:101E30006068FFF7A3FE0390281C022F07D9012238
:101E40000092A368301C291C049A06F005FB059A31
:101E5000451B049BAD189D4206D8039922F07EF8DD
:101E6000002801D1024800E0024807B0F0BDC0469A
:101E7000187B02005C7B020073B50C1C061C086812
:101E80006946FFF77BFE01A9051C6068FFF776FE37
:101E9000011C022E02D908480BF018F9019A009B88
:101EA0009A4207D89B1AE81822F058F8002801D166
:101EB000024800E0024876BD8FA30200187B0200B2
:101EC0005C7B0200F0B58FB0079010680C1C171CEB
:101ED0000DF040F80690012C10D078680DF03AF81B
:101EE000069A031C7868934201D0FFF751FD0DA9B3
:101EF000FFF744FE0D9B0890099303E02D4B07224A
:101F00000992089338680DA9FFF738FE0D9A079BD0
:101F10000B900492012B04D1141C5B42013C0A93E8
:101F200002E001220A920024049B002505930395F8
:101F30002E1C059A002A22D00B9B08981A190123FF
:101F4000009309991BF0A7F9002812D1039A002ADF
:101F50000ED1079B002B03D1261C049C013C19E0E9
:101F6000079A012A15D00123251C261C039300E0A3
:101F7000251C059B0A9A013BA4180593D9E7039BEE
:101F8000002B08D10C4B069A0E209A420FD00B481A
:101F90000DE0039E251C049B0135AA1B9A4201D12A
:101FA000386804E00B9B069899191BF094F90FB060
:101FB000F0BDC046ECA20200985F0200F0490200AA
:101FC000F0B589B0049008680D1C0CF0C3FF041C28
:101FD00068680CF0BFFF071EA74202D06868FFF7D1
:101FE000D7FC06A92868FFF7C9FD07A9061C686881
:101FF000FFF7C4FD069A049BB11805900391341CA9
:10200000022B1BD9AB6820498B4207D001210091DC
:10201000381C311C06F020FA041C00E0341C049A21
:10202000032A0BD0EB6818498B4207D0012200929B
:10203000381C311C069A06F00FFA0390079A002A02
:1020400001D0002510E0039B201C191B1FF088FA0B
:1020500001304000012514E0201C059921F07EFF8D
:10206000002807D10135341C079A0399A6188E421F
:10207000F2D904E0201C1FF05DFA061CF3E76D00A6
:102080000120284309B0F0BD707C0200F0B58BB090
:102090000E1C071C03920CF05DFF041C301C0CF09E
:1020A00059FF844202D0301CFFF772FC05A9381C8E
:1020B000FFF764FD06A9051C301CFFF75FFD069BBA
:1020C000021C002B05D11A491A481DF001FB0FF024
:1020D000D4FB19498C4201D10E2100E01749079128
:1020E000089109910399002901DD079700E00997FC
:1020F0000399281C009105991BF0CDF8002811D0F8
:10210000471B3A1C291C201C1BF0E5F8069A059B6E
:10211000B918DF1B07906918BA1A201C08961BF023
:10212000DAF8099007A903200CF070FA0BB0F0BDA3
:10213000A1A30200D8580200985F0200F0490200F3
:1021400008B5011C01481BF0DCF908BD811502002F
:1021500008B5011C01481BF0D4F908BD9515020013
:10216000F7B5061C081C01A9FFF708FD019A051C1C
:10217000002A01D1144826E0144B041C9E4201D1D0
:10218000002712E0124B9E42FAD0019A631B934241
:1021900018D22078B04701340028F6D1EAE7207839
:1021A0000BF014F8002805D10134019A631B934207
:1021B000F5D305E02078B0470028DBD00127F3E70E
:1021C000002FD7D00348FEBD5C7B020015D2000073
:1021D0002DD20000187B020008B5011C0148FFF752
:1021E000BFFF08BDB5D1000008B5011C0148FFF7CD
:1021F000B7FF08BDCDD1000008B5011C0148FFF7AD
:10220000AFFF08BDE5D1000008B5011C0148FFF78C
:10221000A7FF08BD15D2000008B5011C0148FFF753
:102220009FFF08BD2DD20000F0B585B0051C0C1C29
:10223000171C0CF08FFE6946061C281CFFF79EFC3D
:10224000051C042F22D10099A20715D1114B226839
:102250009A4211D1081C01AA211C04F0EBFD0028B0
:1022600002D10D480AF032FF019B029AE918D21AF6
:10227000301C1BF030F80AE00023301C221C0DF04B
:1022800031F8285C01234000184300E0002005B02D
:10229000F0BDC046B07C0200B1A3020070B51C1CAA
:1022A00088B0002968D01868354D031C2B40062BD8
:1022B00005D082071ED1334B02689A421AD10239E7
:1022C000012953D804A9FFF759FC061C20680540D2
:1022D000062D04D1C0081FF050FB041C00E0446828
:1022E0001020049D1EF022FF274A85600260C66010
:1022F000446042E0012939D8012210420AD044103A
:10230000211C04A81EF0FBFF06980021221C21F0CE
:1023100056FE26E001A91FF078FC002805D0029A9D
:10232000019919481AF0D7FF27E020680DF01CF832
:10233000002802D104A8102101E0411004A81EF0D9
:10234000C7FF20680AF006F9041C201C0AF050F9A7
:10235000002806D00CF0E8FEC1B204A81FF05EF819
:10236000F3E704A90848FFF799FB06E00749084886
:102370001DF0AEF90FF081FA064808B070BDC046F6
:10238000070080FF985F0200204C0200E2A30200D9
:10239000C85D0200F049020037B5041C081C01A901
:1023A000FFF7ECFB0549051C201C1FF032FD291C22
:1023B000201C019A0123FFF707FB37BD20D1020043
:1023C0001D4BF7B5021C051C0C1C1A401F1C062ACD
:1023D0000BD10B40062B03D1401A4442604128E048
:1023E000C0081FF0CAFA061C00E046682740062F06
:1023F00003D1E0081FF0C1FA00E06068002E05D0AC
:10240000002803D0864201D0002013E0281C694632
:10241000FFF7B4FB01A9051C201CFFF7AFFB009AD6
:10242000019B011C9A42EFD1281C21F097FD4342E9
:102430005841C0B2FEBDC046070080FF084B07B53B
:102440000340062B06D0830708D103689A69054B21
:102450009A4203D101A9FFF791FB0EBDFFF798FA4D
:10246000070080FF9D2400000A4B13B503400C1C9D
:10247000062B06D083070AD103689A69064B9A4255
:1024800005D101A9FFF77AFB019B236016BDFFF779
:102490007FFAC046070080FF9D240000F0B5A1B080
:1024A000041C0D1C0D920A2800D0CFE103240792D2
:1024B000144010D11368B64A934206D1079810A968
:1024C0000FAA1FF091FA07940BE0B24A934202D18F
:1024D0000F94109405E00DAB0F930123109300238C
:1024E00007930F9B109A11A9281C0A930892FFF7D3
:1024F00045FB14AA0B90102118A80AF0F1FD0B9AC5
:10250000119B0B9CD21806920027069B9C4200D37D
:1025100093E12178252903D018A81EF07FFF8AE1D6
:10252000069A651C954202D39B489C4916E0617847
:10253000252904D118A81EF071FF2C1C7BE1002670
:10254000282919D1A01C051C00E001352B78292B66
:1025500008D0069B9D42F8D38F4891491DF0B8F8EA
:102560000FF08BF9291A0122FFF7CCFA011C07980A
:102570000BF086FD0135061C002220232C1C09923D
:102580000593151C069A944211D223782D2B01D164
:10259000012306E02B2B01D1022302E0202B02D1E4
:1025A00004231D430FE0232B0BD0302B05D0069ABC
:1025B00000231293944208D31FE040221543059351
:1025C00001E0102309930134DCE723782A2B0FD193
:1025D000089A3B1E934202D372487349BEE70A9A97
:1025E0009B0098580CF0A0FD01371290013404E0D4
:1025F000201C12A91AF038FE241801235B42139301
:10260000069B9C4290D223782E2B20D1069B621CE5
:102610000C929A4288D263782A2B0CD1089A3B1EDE
:102620009342D9D20A9A9B0098580CF07DFD01374D
:102630001390023407E000230C9813A913931AF0A7
:1026400013FE0C9B1C18069A944200D36CE7002ED4
:1026500007D1089A3B1E9342BED20A9A9B009E580D
:1026600001372378672B0FD8652B6ED2582B00D1FA
:10267000C8E004D81A1C453A022A66D9D2E0632B76
:1026800012D0642B42D0CDE0732B07D8722B00D32D
:1026900094E0692B3AD06F2B67D0C3E0752B35D00F
:1026A000782B00D1AEE0BDE0404B3340062B05D087
:1026B000B30714D13E4B32689A4210D11CA9301C8A
:1026C000FFF7D2FE1C9A011C012A02D03548394975
:1026D00044E720230093129B14A801930FE0301CC1
:1026E000FFF722F900280ED0301C0CF01DFD129AC5
:1026F0001CA9202308700192009314A801222B1C0E
:102700000EF018FA97E027482B4927E703223240BA
:102710000023022A04D1254B3340063B5A1E934125
:10272000311C002B07D0FF23DB05F018032398434F
:1027300004F06CFD011C059A129B0192139A0095FE
:102740000392029314A80A221FE0301C0CF050FDE3
:10275000059B22780093129B011C0193139B14A8E4
:1027600002932B1C1FF0D1FB65E0099A002A02D0CE
:1027700084239B001D43059B129A0193139B029295
:102780000095039314A8311C0822612347E0C0463A
:10279000CC8A0200D07F0200D8580200FCA30200BD
:1027A0000EA40200C85D020024A40200070080FFFE
:1027B000985F02004BA4020064A402001CA8102130
:1027C00016AA0AF08DFC227816A8723A53425A4192
:1027D000D2B2311C0CF0D8FB139A1D9B002A00DAF0
:1027E0001393139A1E999A4200D91A1C202300931E
:1027F000129B14A801932B1C0EF09CF91CA81EF030
:1028000091FD18E0099A173B1543059A009501922E
:10281000129A14A80292139A311C039210220EF0FD
:10282000EBF908E00B9A4849A41A00941A1C47488F
:1028300005F0E8F894E6013467E6089A974202D07A
:10284000434844498AE6444818A968E0081C0CF04B
:1028500081FB16A9061C281CFFF790F9071C0D9890
:10286000072C1CD118A90CF09DFC0025A84268D0AB
:102870001899A94205DC384B0E259E4261D0374D90
:102880005FE0169B1CA859431EF039FD1E9A381CA8
:1028900000920121169A189B1CF0B3FB3DE00CF04E
:1028A00059FB864206D10D981CA9FFF767F91C9DBC
:1028B00006900DE02A4B00259E4242D10D981CA99E
:1028C00001221FF0A2F9A8423BD01C9B1D9D06933C
:1028D0001D2C06D8192C26D2052C0DD0122C0BD06D
:1028E0002EE01F2C2CD101230093381C1699069A38
:1028F0002B1C1AF0D0FC1DE0169A1CA8A9181EF07B
:10290000FEFC391C169A1E9821F037FB169A1E9B66
:10291000069998182A1C21F030FB301C1CA9FFF7DF
:10292000BDF8051C0DE00095201C391C169A069B6D
:102930001CF09BFB002801D00A4D02E00A4D00E08C
:102940000025281C21B0F0BD75A40200D858020053
:10295000C85D0200AAA40200985F0200F0490200CC
:10296000204C0200187B02005C7B0200F0B59FB097
:102970000D9109680E900591081C10A90F92FFF7A0
:10298000FDF81021079012AA16A80AF0A9FB079AD1
:10299000109B0021D21809920B910799099A914234
:1029A00000D38FE0079A1178141C01347D2908D1D7
:1029B000099B9C4202D251787D2910D0B348B4497A
:1029C00034E07B2903D016A81EF028FD76E0099993
:1029D000261E8E4236D2079A51787B2904D116A83A
:1029E0001EF01CFD079469E07D2915D0212913D024
:1029F0003A2911D01EF0A1FC041C31787D290CD09D
:102A000021290AD03A2908D0201C1EF007FD099B75
:102A100001369E42F1D115E000243378212B57D1A5
:102A20000999731C994205D898489A491CF050FEA0
:102A30000EF023FF75782B1C723B012BF4D8023665
:102A40008E4246D391489449F0E70A981EF080FCE4
:102A5000069A002A00D17EE1002F00D120270C9A8F
:102A6000002A00D082E1069B3D2B00D189E15E2B3C
:102A700000D188E13C2B01D101231D43301CFEF71E
:102A800053FF002800D1CAE1632C00D190E100D9A6
:102A900082E1472C00D878E1582C00D1ACE1622CBF
:102AA00000D0B5E11199002302910095019703939D
:102AB00012A8311C022261230EF09EF8079B0133FD
:102AC00007936AE716A97548FEF7E8FF1FB0F0BD47
:102AD0000025337800220A923A2B18D1731C0793F1
:102AE00073787D2B0ED01EF028FC079E0A90099962
:102AF0008E42A7D231787D2909D00A9801361EF07E
:102B00008DFCF4E7079A099B9A4201D39AE707964E
:102B100007990B787D2B02D05C48614986E7002C31
:102B200048D00023201C1A931EF065FC061C007878
:102B30000AF058FB371C00281CD00B9A002A02DD33
:102B40005248584972E7301C1AA91AF08DFB0E9AA8
:102B50001A9B013A3718934237D201330D999B00E3
:102B60005E5801235B420B931AE02E2B05D05B2BA2
:102B700003D001373B78002BF7D1B91B301C012261
:102B8000FEF7C0FF061C311C0F98002203F024F949
:102B9000002804D1311C44481CF093FD48E74668E6
:102BA0003B78002B02D041480AF090FA201C1EF01E
:102BB000CFFB13E00B9A002A02DA34483C4935E790
:102BC0000E9B0B99013B994202D33A483A492DE7B3
:102BD0000B9B0D9901339A0056580B930A9A002AC1
:102BE00003D1002D00D18AE101E0002D11D014AAFB
:102BF0001AA81021733D0AF073FA6A1E9541311C20
:102C0000EAB214A80CF0C0F924481AA9FEF746FF4E
:102C1000061C01235B42119314930A9B002B00D1E5
:102C200095E0181C1EF0E7FB0778041C0020874283
:102C300005D02248391C21F0A2FA431E98410028F1
:102C400003D006970134002711E00690002F0ED024
:102C500061780691002904D0184821F090FA431EAB
:102C60009841002801D0023401E00690071C227828
:102C70000C922B2A05D02D2A05D00425202A1FD1FD
:102C800002E0022500E0002501341BE0D8580200D4
:102C9000DFA4020007A5020020A50200985F020041
:102CA00038A502005CA50200B85E0200BFA50200C4
:102CB000DCA50200345A0200A6A5020026A60200E6
:102CC00000250C952378232B02D110231D430134BA
:102CD0002378302B07D1069B002B01D13D21069193
:102CE000002F00D13027201C11A91AF0BDFA20189E
:102CF000037808902C2B04D1021C202301321D43A1
:102D0000089208990B782E2B07D10C1C0134201C3B
:102D100014A91AF0A9FA20180890089A002014782B
:102D2000844205D07748211C21F029FA431E98419E
:102D3000002803D0089B0133089300E0041C089985
:102D40000B78002B00D180E66F4870496EE60A9D33
:102D50002C1C2F1C0C95301CFEF704FE3C23069304
:102D6000002800D178E63E21069175E6732C02D149
:102D7000654867495AE6632C00D074E662486549A5
:102D800054E6402379E6802377E6452C47D2002C91
:102D900019D0252C43D03BE0672C02D8652C12D3E8
:102DA0003DE06F2C19D0782C26D06E2C30D10AE063
:102DB000301C0CF0B9F9119A1AA908700192009709
:102DC00012A801228DE0119B009502930023019728
:102DD000039312A8311C0A226DE6E90602D580236E
:102DE0009B001D43119A00230292009501970393C3
:102DF00012A8311C08225EE611990022231C0291C0
:102E00000392173B0095019712A8311C102253E63C
:102E1000301C1EF0E4FE4049031C3B486BE0301CB4
:102E2000FEF7A0FD002838D0002C1FD06E2C1DD03E
:102E3000472C15D8452C1AD2252C27D1301C0CF044
:102E4000D7F9364912F0C8FD119A80230192149ADD
:102E50005B00011C02922B43009712A8662212E02D
:102E6000231C653BDBB2022B10D800E06724301C2A
:102E70000CF0BEF9119A149B011C01920293009769
:102E800012A8221C2B1C1FF040F817E6301C1EF065
:102E9000A6FE2349031C1C482DE0069B3D2B02D1B6
:102EA00019482049C2E5002C02D0732C06D01CE042
:102EB00012A8311C221C0CF067F8FFE51AA9301C7F
:102EC000FFF7D2FA149B011C1A9A002B00DA149215
:102ED000149B9A4200D91A93119A009701921A9A58
:102EE00012A82B1C0DF026FEE8E5301C1EF077FE24
:102EF0000D49031C0448221C04F084FD98E5732549
:102F000075E6C0462BA60200D85802003BA6020078
:102F100054A6020080A60200B3A602000000C84228
:102F2000E4A6020018A702004DA70200F0B5071C96
:102F300087B008680D1C0CF00DF80090012F07D920
:102F40006C68022F05D0A8680CF0EEF8071C02E0B0
:102F5000444C01277F420020011C1CF012FE04A9F2
:102F600001902868FEF70AFE049A3E4B051C86185D
:102F70009C4238D1B54229D228780AF01BF90028A2
:102F800024D00135F6E7002F23D02C1C20780AF03E
:102F900011F9002802D10134B442F7D1291C621B77
:102FA00000981AF098F9011C019806F02DF8B44227
:102FB00054D220780AF0FEF8002802D00134B4423E
:102FC000F7D1FB17DB1BDB0FFF1A251CB542DAD349
:102FD00044E0291C721B00981AF07DF9011C01982D
:102FE00006F012F83AE0201C0BF0B4FF009A0290B1
:102FF000904202D0201CFEF7CBFC201C05A9FFF755
:1030000033FA059B0390002B22D1174917481CF077
:103010005FFB0EF032FC201C039920F09FFF00287C
:1030200005D00134009AA3189E42F4D2341C291C06
:10303000621B02981AF04FF9011C019805F0E4FF99
:10304000B4420BD2059BE518FB17DB1BDB0FFF1A05
:10305000002FEBD0059A2C1C0092E3E7019807B0F3
:10306000F0BDC046707C0200A1A30200D858020047
:10307000F0B50C1C8BB0022802D8FFF757FF7AE09E
:1030800008680BF067FF08A9059020686568FEF7DF
:1030900075FD0090A0680CF047F8411C0691041CD7
:1030A000081C00211CF06DFD344B061C9D4202D112
:1030B00033480AF00BF8281C09A9FFF7D5F9099A3B
:1030C0000790002A05D12F492F481CF001FB0EF074
:1030D000D4FB009B0899A2005B1802930392271C63
:1030E000099B0193002C0DD00299CD1A009A9542AC
:1030F00008D3281C0799019A20F030FF002821D01E
:10310000013DF3E7F368BC0002991D19009B059887
:10311000CA1A191C1AF0DFF82860002F10D006997F
:10312000F068CD1BAF0001193A1C20F02FFF736827
:10313000F1685A1BC8199200002120F040FFB560C9
:10314000301C18E0039BF2680598D2180492029B89
:10315000019A013FA9185A1B019BD21A1AF0BBF819
:10316000E317039A1B1B0499DB0F043A0860E41A67
:1031700003920295B4E70BB0F0BDC046707C02002C
:103180007FA70200A1A30200D858020010B5041CBA
:1031900008201DF0CBFF024B4460036010BDC04609
:1031A000684C0200F8B503780021041C8B4200D162
:1031B00099E0402B01D1012026E04C491AF07CFA1D
:1031C0000028F8D1201C4A491AF076FA0028F2D1DA
:1031D000201C48491AF070FA0028ECD1201C4649FE
:1031E0001AF06AFA0028E6D1201C44491AF064FA61
:1031F0000028E0D1201C42491AF05EFA0028DAD1FA
:10320000201C40491AF058FA00231D1C1E1C1F1CCC
:103210002278002A51D0272A10D1002B01D0032B6D
:1032200008D16278272A05D1A278272A02D1023450
:10323000032216E00122012B3DD812E0222A12D1EE
:103240000422191C914309D16178222904D1A17863
:10325000222901D1023404E0002B01D0022B2AD113
:103260000222D31A27E05C2A09D16178272901D0EC
:10327000222904D11A1C511E8A41A4181BE0002BDC
:1032800019D15B2A12D006D8282A0DD0293A5142EA
:103290004A41BF1A0FE07B2A0AD07D2A0AD05D3A44
:1032A00051424A41B61A06E0013704E0013602E015
:1032B000013500E0013D0134AAE70121002F12DCB5
:1032C000002E10DC002D0EDC033B8B420BD9013CA1
:1032D00023785C2B07D00840111C002803D00A3B40
:1032E000591E8B41D9B2081CF8BDC0468AD40200D1
:1032F0008EA7020094A7020098A7020043C602000E
:1033000017EE020085B90200F0B541188BB0051C1C
:103310000592079302910C1C0494013CA5420FD81E
:10332000207809F053FF0028F6D1207809F05AFFE1
:103330000028F1D123785F2BEED02E2BECD000E0CB
:1033400004957A4B1E68049C029884420AD3049A1E
:10335000029BA21A03929C4209D30024271C251C1D
:10336000029451E023782E2BF1D00134ECE70025B4
:10337000B26895421ED2F268EF00D059002803D0FF
:10338000031F5A1E934100E0031CDA0714D509A954
:10339000FFF76AF8039B011C099883420CD104983B
:1033A0001A1C20F009FF002806D1F368DF1978689D
:1033B000002803D10020B6E00135D9E783070AD100
:1033C00003685B4A934203D11CF0EAF8061C0DE047
:1033D000584A934201D00BF0BDFD866B002EE9D018
:1033E000B007E7D1544B32689A42E3D101340494D8
:1033F000A9E7F268E3009858002809D0031F5A1E75
:103400009341DA0706D40134B0688442F1D328E04E
:10341000031CF6E709A9FFF727F8099B0190039819
:1034200006939842EFD804980199039A20F0C4FEBD
:103430000028E8D1002D0CD0039BBB420DD8069A82
:1034400093420AD80198E95CC25C914204D10133ED
:10345000F3E7069F019D00E01F1C029B01330293CE
:10346000D1E7029A002AA5D0012A06D0039B9F42E9
:1034700003D800200290402413E0039A0798AB1869
:103480000360B81A4FE0029AD300F26898580028F7
:103490000CD0031F5A1E9341DA0709D4029A013255
:1034A0000292029BB0688342EDD336E0031CF3E73F
:1034B00009A9FEF7D9FF099F039B0190BB42EDD8F4
:1034C000049801991A1C20F077FE0028E6D1231CED
:1034D0000F33DD172D0FED182D112D012D1B012D93
:1034E00000DC10356319DF19402F0FD8002705982D
:1034F000AF4204DA11491EF08CFC0137F7E701995D
:103500001EF087FC099824186419C7E705980C4930
:10351000019A1EF048FD099CC0E7059809491EF074
:1035200078FC012040420BB0F0BDC046C02E002008
:103530001457020068740200D07F02001FB6020018
:103540009CA702006FAE0200F0B5041C91B0806928
:103550000B9109908968151C0B986268C0680493E8
:103560008B185A1C6260A0609A1C19786260DA1C81
:103570005F7862609A78201C0A921A1D6260DB787C
:1035800003910693231C1833E360099B0021033346
:103590009B00E31804332361099B1C309B001A1C19
:1035A000059320F00CFD169809990A9AAB00C318F0
:1035B000C91B08938B1A05339B00E3180D911E1D40
:1035C00001220398BD420FD9104203D1884889498E
:1035D0003A1C2EE0E81B169DB90069181E1C0BF062
:1035E00015F83D1C706029E0104202D01E1C824B71
:1035F00073600499002921D1039A12071ED4069BF7
:10360000FA1A954213D3D91B0B98890041180791D8
:1036100005992B1C6018BB4210D29A00811A8C4667
:10362000079901338A18126961468A61F3E7704885
:1036300070492B1C04F0E6F90EF01FF9059A0023DF
:1036400012199446AB4207D016999A0088586146E1
:103650008A1A90610133F5E7049D002D03D1039D83
:103660002D0700D49BE0039D02231D400C950025EF
:1036700005950C9D002D04D004981EF00BF90590C3
:103680003060A56800260795089D0435049B9E427E
:1036900029D02B1F196800230A98C219934215D20A
:1036A00007989A00825891420ED1099A013AD31A8A
:1036B0009B00E318DA69002A03D0CA084C484F4936
:1036C0006AE02868D8610BE00133E5E70C9A002A2C
:1036D00002D147484A4967E005982A681EF012F966
:1036E00001360835D2E70D9B069806339B00E31898
:1036F00003300B9D043380002818191C0022069DFE
:10370000954209D00D68002D03D195006D424559B1
:103710000D6004310132F2E7069DAA009B18099A58
:1037200006329200A2180432934209D20433191FC0
:1037300009680029F3D1D21A92102D4831492BE0A3
:103740000D9E079D0536B600BB00EB18A619043682
:103750000493002510E0069B0B9904339B005858F6
:10376000049BA9000430595802F036FB00280CD005
:10377000406830600135043E0A998D421ED232689D
:10378000002AF7D103980007E5D40798ED19AD009A
:103790002A581D491648D20804F034F94CE70A9D0E
:1037A000002D04D0124819491BF092FF44E7039DF5
:1037B000AD0703D50A981EF06DF8306065680FA854
:1037C00025600F9519F095FF2D1801356B1E1B789C
:1037D000FF2B09D0099E013EF61AB600A619F06922
:1037E000FFF7D4FCF061F0E7656011B0F0BDC046B2
:1037F000C85D0200A0A70200548B0200D9A70200F6
:1038000008A8020031A8020063A8020093A80200E1
:1038100008B50B1C4179C26A012904D1101C191C7E
:103820001BF0A2FC03E0006B01491BF0D7FC08BDB4
:10383000D894020008B50B1C4179C26A012904D151
:10384000101C191C1BF0B0FC03E0006B01491BF0BD
:10385000C5FC08BDC894020008B50B1C4179C26ABA
:10386000012904D1101C191C1BF09EFC03E0006B05
:1038700001491BF0B3FC08BDE894020008B53F22E3
:10388000014B19F0C9FF08BD0BE2010008B59122F8
:10389000014B19F0C1FF08BD3D48000038B58368F1
:1038A000041C0D1C002B09D1111C05481BF010FF36
:1038B000A060201C0C30291C19F0C8FF38BDC04680
:1038C000405E0200F0B50123041C4271E162036115
:1038D0000B788BB00D1C0092012B02D00021844A82
:1038E00088E00099012906D9836B2A1C1E68231CD5
:1038F000406B0833B047A86802901BF0A5FA6379C3
:103900000290032B0FD107900C2107A81BF0B5FAEA
:10391000A36B021C9B68606B07999847A268688339
:10392000002A00D0DDE002981BF08EFA02901BF016
:103930008BFA5A21029002A81BF09FFA029D019077
:103940004CE0281C03A91BF089FA0378061C912B74
:103950004DD11BF079FA039B984248D1301C03A942
:103960001BF07CFA0378071C0A3B0F2B3FD81BF097
:103970006BFA0399061E8E4239D00378A02B36D1FC
:103980001BF062FA039A904231D104A9381C19F055
:10399000C8FE301C1BF05DFA9B21059005A81BF0AA
:1039A0006CFA011C05981BF043FA049B061C2D2B96
:1039B00036D1012821D1059803780A3B0F2B1CD85A
:1039C0002669731C2361009B012B1AD8A16800296A
:1039D00000D086E0281C1BF037FA051C019A95429E
:1039E00075D002952B78432BF4D0392BA9D00299AE
:1039F000404A201CFFF752FF78E0201C02993E4A03
:103A0000F8E707A919F08DFEA36B606BDB68311C2A
:103A1000079A98470028D9D1201C0299374AE9E72C
:103A20002E2B15D1012803D105980378032B03D041
:103A3000201C0299324ADDE700990129C6D9A36BFF
:103A4000666B1F691BF0EEF9011C301CB847BDE71F
:103A50002F2B27D1012803D905980378032B03D0F6
:103A6000201C0299274AC5E7009A012AAED906A967
:103A70001BF0C8F90127059005980378032B03D0A4
:103A8000201C0299204AB5E707A91BF0BBF9A36BDC
:103A900005905B69606B0699079A01379847B742B2
:103AA000EAD193E7009B012B90D903289FD8059872
:103AB00007901BF0C9F908901BF0C6F9A36B099099
:103AC0009F69606B0499321C07ABB8477EE7637946
:103AD000012B03D9A36B606B5B689847A368002B2D
:103AE00004D0201C0C30029919F0B0FE0BB0F0BDD0
:103AF000C5A80200E9A802000CA9020028A902003A
:103B000038A9020054A9020079A9020008B5024AA6
:103B1000FFF7C4FE08BDC0469BA9020030B50B7874
:103B2000041C85B00D1C481C002B78D0032B09D138
:103B3000081C03A91BF066F90399051C206B1EF0F5
:103B4000FEFB49E0012B07D14978052902D0206B03
:103B50000DF030FEA81C62E0042B07D189786B7849
:103B60000902206B19431EF031FC16E0052B18D119
:103B70006379042B02D0206B2A490CE088784B78BB
:103B80000002184303A91DF007FF0399246BFDF7FA
:103B9000D1FF011C201C1EF025FC281C1BF054F931
:103BA0003DE01A1C0A3A081C0F2A08D803A919F08C
:103BB000B8FD0399051C201CFFF72AFE0CE0082B1A
:103BC0000CD103A91BF014F90399236A8A00051C80
:103BD000D158206B1EF006FC281C20E002AA03AB83
:103BE00001A91BF062F90299051C206B0DF098FDEC
:103BF000019B201C9A000C4B291CD358002B03D18D
:103C00000A4AFFF74BFE09E0039A9847A16800298A
:103C100004D0E268002A01D1029BE360039805B05A
:103C200030BDC046707C0200D84C0200B8A902002A
:103C3000F0B587B00593151C0A1C531E9A410291DA
:103C4000061C0599281C04921BF0F2F8049B0390B3
:103C5000029C002B09D023780024842B05D1211C41
:103C6000306B039A1EF09EFD029C039A2F1C013AB2
:103C70000192059A97421DD03B78842B12D1002CDB
:103C80000AD10499039B019A0139C918891A306B2A
:103C90001EF088FD3C1C05E0301C391C1E4AFFF755
:103CA000FDFD36E0381C1BF0CFF8019B071C013BE3
:103CB0000193DEE7002C05D1039B049A306B991821
:103CC0001EF064FD049B002B1CD0029AA24205D179
:103CD000201C1BF0BEF8011C301C01E00299301CB6
:103CE000002200F01BF80DE0A5420FD1281C1BF0AC
:103CF000B0F8011C301C002200F010F8281C1BF04A
:103D0000A3F8051C059B9D42EED102E0301C291C46
:103D1000F1E707B0F0BDC046D0A90200F0B5041C21
:103D200085B00D1C161C2B781A1C0A3A0F2A0FD8C6
:103D300003A9281C19F0F5FC0399201C002E01D0C2
:103D4000022E02D1FFF776FDDFE0FFF761FDDCE038
:103D5000192B03D8201C291C6D4AD4E01A3B7C2B5C
:103D60007CD004D8252B75D0772B06D0C8E07E2BCD
:103D700000D186E0912B6DD0C2E0281C02A91BF077
:103D80006DF8071C022E03D0201C391CFFF7C6FE5D
:103D9000381C1BF059F80299071C19F0BAFC0028CE
:103DA00000D0ADE03B78922B14D1381C03A91BF056
:103DB00055F8071C381C1BF047F8039A01909042F5
:103DC00008D2022E01D1019FF4E7201C391CFFF715
:103DD000A5FEF8E73B78A12B19D1022E04D1206B68
:103DE0001EF091FB206B0FE0381C1BF032F8011C19
:103DF000201CFFF793FE206B012E05D11EF057FB10
:103E0000206B1EF027FB1CE01EF03CFB19E0A22BF0
:103E100076D1381C1BF01DF803A919F082FC206B29
:103E2000012E06D11EF039FB206B03991EF0F0FA2B
:103E300007E0022E01D11EF04FFB206B03991EF00C
:103E400014FB381C1BF000F8029919F062FC0028E2
:103E50005BD155E0281C002E4ED13AE003A9281C66
:103E60001AF0FCFF0399071C19F053FC002847D1F6
:103E70003B789A2B03D1002E3ED13D1C18E03D1C0F
:103E800051E7002E38D1281C03A91AF0E7FF039947
:103E9000051C19F03EFC002802D0201C311C04E057
:103EA0002B789A2B04D0201C291C321C331C20E0B8
:103EB00003A9281C1AF0D2FF061C1AF0C5FF0378CC
:103EC0009D2B04D10022201C311C131C11E09E2BC1
:103ED00007D103A91AF0C2FF311C021C039B201C4E
:103EE00007E0BD2B0CD01AF0AFFF0021031C321CE1
:103EF000201CFFF79DFE08E0201C291C054A02E05B
:103F0000054A201C291CFFF7C9FC05B0F0BDC046BE
:103F1000EAA902001DAA020002AA0200F0B50B786D
:103F200091B00A3B041C019104920F2B00D9DCE0F4
:103F3000081C1AF089FF0378912B00D0D5E0019876
:103F40001AF082FF0DA91AF089FF037842780A3B24
:103F50001B021343892B00D0C7E01AF075FF0378CA
:103F6000051CA02B00D0C0E01AF0B3FF002800D041
:103F7000BBE0281C1AF068FF0D9A904200D0B4E014
:103F8000281C1AF066FF9B210E900EA81AF075FFF0
:103F90000E9B061C0293029801230F931AF054FF04
:103FA000071C0E90B04210D01AF04EFF0E90B04297
:103FB0000ED00378032B00D097E00FA91AF022FF50
:103FC0000E90B04200D090E002E0714A029F02924F
:103FD0000D9B181C05931AF037FF049A051C831AD1
:103FE0005A1E93415B421D400F9B26690693638BCB
:103FF000228B0A93731C63830793A38B0992E28B32
:10400000E383331D268323613B780B92B21C03921A
:10401000033BF21C08925A1E9341DBB20493002B1F
:1040200003D0201C391CFFF779FD0299201CFFF7F3
:1040300075FD206B08991EF07BFA0399206B1EF02A
:104040004AF9206B1EF029FA0022201C0199FFF783
:1040500065FE0599201CFFF761FD206B07991EF096
:104060003AF9206B06991EF06AF9206B12211EF0B6
:1040700012FB206B08991EF02EF9049B206B002B7D
:1040800005D01EF014FA206B1EF026FA05E01EF093
:1040900004FA201C391CFFF741FD069A206B002A08
:1040A00001DB192100E01A211EF0F5FA039A206BBA
:1040B00001211EF049FA099B0A9A23830B9B628314
:1040C000E383002D03D0201C291CFFF727FD206B64
:1040D000311C1EF000F9206B1EF0F3F9049A002A3F
:1040E00053D0206B1EF0EDF94FE0238B256905932B
:1040F000E38B628B0793A38B6E1CE383254B0692A5
:104100002B432383EB1CAA1C236166830198029234
:104110001AF09AFE011C201CFFF700FD071C206B03
:104120001EF06EFA206B311C1EF0D5F8206B029940
:104130001EF070FA201C01990022FFF7EFFD391CD8
:10414000201CFFF7EBFC071C206B1EF0BBF80028BF
:1041500003D1206B311C1EF0EBF9206B02991EF08D
:10416000BAF8206B1EF062FA059B069A23836283DD
:10417000079B049AE383974203D0201C391CFFF766
:10418000CDFC206B291C1EF0A6F811B0F0BDC04676
:10419000F9AE02000080FFFFF0B5041C85B0081CDA
:1041A000171C0D1C1AF050FE391C061C19F0B1FA30
:1041B000019000281CD02379201C002B11D0E36A29
:1041C0001E78002E0DD11221FFF722FB291C201C86
:1041D000FFF7A4FC206B0121321C331C1EF023FBD3
:1041E00002E0291CFFF79AFC206B1EF06AF958E0E8
:1041F00033783B2B1BD1291C201C0122FFF78EFD9D
:10420000301C1AF026FE4378811C4E3BDBB2182688
:104210000A2B01D8244AD65C201CFFF77FFC206BB8
:10422000311C1EF038FA201C291C022237E03C2BDE
:104230002ED1301C03A91AF011FE061C071C039B8B
:104240009F4205D0381C1AF0FFFD0197071CF6E7C6
:104250000199201CFFF762FC206B1EF01EF9201C48
:10426000291C0022FFF75AFD019B9E4219D0301CE9
:104270001AF0EAFD019B051E9D4202D0206B1EF044
:104280000CF9311C201C0022FFF748FD2E1CEBE727
:10429000311C201CFFF742FC019A201C291CFFF74F
:1042A0003DFD05B0F0BDC046BAA80200F0B589B02A
:1042B000041C0D1C059104921F1C002924D1837934
:1042C000002B27D0C16A02950B78012B23D1052141
:1042D000FFF79EFAE36A188D854211DAD96AEA007F
:1042E0008A18567801210E4208D05288206B1DF0A2
:1042F0006AFF0022206B0221131C9AE00135EBE7D4
:10430000201C00214D4A22E005A89B211AF0B5FD92
:10431000029000E002930022059D00920392161C79
:10432000019208E0281C1E431AF093FD0390281CFC
:104330001AF08AFD051C029A954256D02B78B72BAD
:1043400008D101231E42EDD03D4A201C291CFFF755
:10435000A5FA70E0B82B0CD102231E4203D0201C1A
:10436000291C384AF3E7281C1E431AF072FD0090FE
:10437000DDE7B92B2CD1281C1AF06BFD051C1AF0B7
:1043800063FD0378BD2B09D1201C291C062219F0DE
:104390009AFA281C01371AF057FDC9E72B780A3B17
:1043A0000F2B03D9201C291C274AD0E7281C07A95A
:1043B00019F0B7F90799051C206B1EF007F8291CA6
:1043C000201CFFF7ABFB019B051C01330193B2E7F7
:1043D0000199201C002902D0291C1C4AB7E7291C7E
:1043E000FFF79CFB0137051CA5E7002E15D0039BAA
:1043F000002B03D1206B1EF001F803E0201C039971
:10440000FFF78CFB0099002903D1206B1DF0F6FF0C
:1044100003E0201C0099FFF781FB049A206B391CF4
:10442000002A04D0019A331C1EF007FA03E0019A17
:10443000331C1EF0F8F909B0F0BDC04649AA0200CD
:1044400067AA02007EAA020096AA0200B7AA02008A
:10445000F7B50B78041C0E1C292B01D0312B02D18F
:104460000123E37163E02A2B61D0322B5FD01A1C49
:104470000A3A0F2A1CD9081C282B12D101A91AF0BC
:10448000EDFC071C1AF0E0FC019A904211D01AF0E2
:10449000DBFC019A051C831A5A1E93415B421D40A6
:1044A00008E01AF0D6FC071C1AF0CEFC051C01E04F
:1044B0000F1C0025381C01A919F033F9E379002DF0
:1044C00002D02A78002A0AD1002B30D1E38A002BAF
:1044D0002DD0201C311C164AFFF7E0F927E0002BF5
:1044E0001ED0A38A01339BB2A382012B0CD1E18A97
:1044F000206B002902D01EF0F1F801E01DF07EFFD4
:10450000206B00211EF011F9291C201CFFF706FB6F
:10451000206B01991DF05AFF206B1EF012F906E086
:10452000E38A201C0133E382291CFFF7F7FAF7BD69
:10453000D9AA0200F0B5056987B003936B1C0293FA
:10454000AB1C041C03610E1C006B291C171C1EF005
:1045500034F8201C19F0EDF8311C201CFFF7DEFAAE
:10456000206B1EF069F8206B02991DF0E1FF206BB3
:10457000291C1DF0B0FE206B1EF0A4F92669731CE7
:104580002361039B9F4200D191E0381C1AF061FC2B
:10459000002305932369051C0193013323610378EC
:1045A000002B0FD11AF050FC1AF04EFC039B9842DE
:1045B00023D0201C291C4B4AFFF770F9A38B013B29
:1045C000A3838CE0071C6A2B07D11AF042FC071C5E
:1045D0001AF03AFC05A919F0A4F8206B1DF05DFF54
:1045E000391C201CFFF79AFA206B21211EF053F88A
:1045F000206B0021019A1DF0A7FF281C1AF024FC53
:10460000071C206B1DF05DFF0599002903D1206B6D
:104610001DF057FF02E0201CFFF70CF9206B1DF086
:1046200050FF059B0025AB4209D02569206B6B1C10
:104630002361291C1DF0CDFF201C19F07AF8391CCC
:10464000201CFFF76BFA059B071C002B02D0206B88
:104650001DF0F2FF206B1DF0F9FF059B002B19D018
:10466000206B0F210DF0A6F8206B291C1DF033FEE6
:10467000206B0F210DF09EF8201C0599FFF7DAF84A
:10468000201C0599FFF7E8F8A38B206B013BA3835F
:104690001DF0ABFF206B311C1DF04AFF206B019910
:1046A0001DF019FE206B03211DF011FE69E7A38B9D
:1046B000206B013BA3831DF098FF206B1EF006F9D1
:1046C000206B02991DF007FE0C9B002B03D0201CD1
:1046D000191CFFF723FA206B311C1DF0FCFD07B0FD
:1046E000F0BDC04607AB0200F0B585B0019143793B
:1046F000041C012B3FD1C26A0D1C1378002B03D17F
:104700001E4AFFF7CBF836E001A843211AF0B5FBAB
:1047100000900198009B98422DD003A919F001F850
:10472000039E6A4601900B32E06A311C18F067FF65
:104730006A46D37A071C002B06D10378042B03D0DA
:10474000201C291C0E4A0CE0E06A311C18F085FF81
:10475000002803D00378023B022B05D9094A201C0C
:10476000291CFFF79BF8D4E704233B70E06A311C57
:1047700018F084FFCDE705B0F0BDC04626AB0200BF
:104780004BAB02006CAB0200F0B585B001914379F0
:10479000041C012B2AD1009101A843211AF06DFBC2
:1047A000071C0198B84221D003A918F0BAFF6D4642
:1047B000039E0B350190311CE06A2A1C18F01FFF84
:1047C0002B78002B08D10378012B05D0201C0099F1
:1047D000074AFFF763F8E4E701250570E06A311C3A
:1047E00018F032FF0028DCD00570DAE705B0F0BD24
:1047F0008AAB020010B5438B041C002B02D1054A82
:10480000FFF74CF8A28BE38B206B618BD21A0CF074
:10481000EDFF10BDA9AB020010B5038B041C002BEB
:1048200002D1054AFFF73AF8A28BE38B206B218B6C
:10483000D21A0CF0DBFF10BDC1AB0200F7B50B784C
:10484000041C1A1C0A3A0D1C0F2A08D8081C01A9BE
:1048500018F067FF201C0199FEF7FEFF77E0912B0F
:104860003FD1081C69461AF0F9FA011C201CFFF719
:1048700055F90378061C922B10D101A91AF0EEFA13
:10488000061C301C1AF0E0FA019B071E9F4205D05F
:10489000311C201CFFF742F93E1CF2E73378A12BB4
:1048A0000BD1301C1AF0D5FA011C201CFFF736F989
:1048B000061C206B1DF031FE0CE0A22B42D1301CF7
:1048C0001AF0C7FA01A918F02CFF0199061C206BF9
:1048D0001DF00CFE301C009918F01BFF002831D091
:1048E00035E0962B2ED1081C1AF0B3FA0378051C7C
:1048F0009A2B22D11AF0ADFA061C311C201CFFF7AE
:104900009DFF301C1AF0A0FA0378011C9D2B1ED0CD
:104910009E2B0ED101A91AF0A1FA019B051E9D4202
:1049200015D0201C291CFFF789FF281C1AF08CFACF
:10493000F3E7201CBD2B05D001E0201C291CFFF74C
:104940007DFF04E0201C291C014AFEF7A7FFF7BDEC
:10495000D6AB0200F7B50C1C002101912178051C93
:10496000081C0A380F2801D8201C05E01A32914291
:1049700012D1201C1AF06DFA01A918F0D2FEEA79C2
:10498000EB6A002A04D15A8B01325A83012633E0A4
:104990009A8B01329A83F9E71A33994220D1012781
:1049A000EF71201C1AF095FA0326002824D1201C50
:1049B0001AF04FFA0278EB6A0A3A0F2A04D81A7EE4
:1049C000201C17431F7605E01A7E201C17431F7614
:1049D0001AF03FFA1AF03DFA01A918F0A2FE0BE016
:1049E000201C1AF036FA01A918F09BFEEB6A02218E
:1049F0001A7E05260A431A760199002911D06F46BE
:104A00000337E86A3A1C18F0FAFD3B78002B05D111
:104A1000281C211C034AFEF741FF02E00223037019
:104A20004670F7BDEEAB020038B50D1CC16A041C20
:104A30000B78012B04D000210B4AFEF72FFF11E069
:104A4000281C111C18F065FE002804D0206B0F21D3
:104A50000CF0B0FE03E0201C291CFFF75FF8206B70
:104A60001DF0F6FE38BDC04607AC020038B50D1C7F
:104A7000C16A041C0B78013B012B04D90021164AA2
:104A8000FEF70CFF26E0281C111C18F042FE00283F
:104A900004D0206B0F210CF08DFE18E02B78C12B79
:104AA00011D1281C1AF0D5F9011C201CFFF736F88B
:104AB000206B1DF0A5FD206B0F210CF07BFE206B01
:104AC0001DF0F0FE06E0201C291CFFF727F8206BE4
:104AD0001DF0D9FE38BDC04621AC0200F7B5041C5C
:104AE0000D1C081C111C18F014FE002804D0206BAB
:104AF00000211DF01AFE50E02B78AF2B0BD1206B5C
:104B000001211DF012FE201C291CFFF707F8206B65
:104B10001DF017FE41E0AE2B3FD1281C1AF099F989
:104B2000051C1AF091F900900378B12B30D101A93E
:104B30001AF094F9019B0090984203D0684698219E
:104B40001AF09BF901990098266B1AF071F9411C33
:104B5000301C1DF0EAFD291C201CFEF7DFFF206B36
:104B60001DF0EFFD009E019B9E4216D0311C201CC3
:104B70003778FEF7D3FF061CAF2F05D0201C291C69
:104B8000064AFEF78BFE08E0206B1DF0DAFDEAE72F
:104B9000201C291C042218F096FEF7BD3AAC020036
:104BA0007FB5041C081C03A9161C1AF02BF96279A6
:104BB000051C012A05D10096201C03992B1C18F016
:104BC000C2FD281C1AF040F9039A011C9300A26A46
:104BD000201C9D580023E371A382E3820C22064B24
:104BE00018F01AFEA368002B03D1201C291C19F011
:104BF0002FFA286904B070BD51440000F0B589B0A7
:104C0000041C039103A807211AF037F9E26A029005
:104C10000023567E01930398029B98424BD005A92E
:104C20001AF01CF94021039003A81AF026F906A9EE
:104C3000051C039818F075FD069A071C292A18D13F
:104C4000A8420CD21AF000F9A84208D1381C07A9D2
:104C500018F067FD079B2A2B07D02C2B07D0201CB0
:104C60000021264AFEF71AFE22E0012620E0042653
:104C70001EE0019B201C013303990193FEF74EFFB8
:104C800003900398A84208D007A918F04AFD079995
:104C90000390206B1DF0BCFBF3E7281C059918F06E
:104CA00038FD002804D1A071291C201CFEF736FF16
:104CB000059A0392AFE7181C1AF0CBF8029A0390FA
:104CC0001378011C321C201C242B04D1FFF768FF31
:104CD000061C019D02E019F022F8F9E7002D07DD1E
:104CE0000022206B0121131C1DF09DFD013DF5E705
:104CF000201C311CFEF79EFD09B0F0BD5DAC02002A
:104D0000F0B50123041C0D1C427187B0E162036100
:104D1000111C006B2A1C0CF03BFC6379012B02D1A7
:104D200000236B84AB84AE6833781E2B07D1301C14
:104D30001AF08FF8011C201CFEF7F0FEDBE02B7848
:104D4000002B04D1201C311CFEF7E8FE99E0012B5A
:104D50001ED1301C1AF078F86379051C012B07D19D
:104D60000023E371201C291C0C22674B18F054FD12
:104D7000281C1AF069F81AF067F8011C201CFEF7CD
:104D8000CDFE206B1DF09EFA002800D0B6E078E042
:104D9000022B19D16379012B07D10023E371201C69
:104DA000311C1422594B18F037FD301C1AF04CF806
:104DB000011C201CFEF7B2FE2B7E5A0700D49AE09D
:104DC000206B1DF07EFB5CE0033B032B5BD8301CAB
:104DD0001AF03AF805A91AF041F81AF035F867798F
:104DE0000390012F08D16A46E06A391C133218F08B
:104DF00006FC022303706F832B78032B04D1206BF6
:104E000000211DF078FC05E0042B03D1206B00216C
:104E10001DF08BFC2769201C7B1C0293BB1C2361AB
:104E20000121FEF7F5FC206B02991DF054FA206B6E
:104E3000391C1DF0EFFB03990022201CFEF76EFFCA
:104E400003981AF001F819F0FFFF059A011C831A64
:104E50005A1E93415B4219400023321C0093201CD0
:104E6000029B19F09CFA206B02991DF061FB206BEC
:104E7000391C1DF030FA206B1DF0D8FB2B78062B67
:104E800039D1206B2FE06379012B06D1281C052135
:104E900005AA18F0B4FB0223037005A9A86818F04E
:104EA00040FC201C0D21FEF7B3FC201C0C21FEF75A
:104EB000C1FC206B29691DF089FA1021201CFEF726
:104EC000B9FCA86819F0C0FF19F0BEFF011C201C36
:104ED000FEF724FE281C052118F081FB0278031C34
:104EE000206B022A03D10F210CF064FC03E05A88E6
:104EF00005211DF068F9206B1DF0AAFC206B0CF059
:104F0000D5FB07B0F0BDC04643DF010037DF01002D
:104F10007FB5041C081C03A919F074FF6379051CF4
:104F2000012B08D1E26A201C537E039900930222D0
:104F30002B1C18F008FC039A201C9300A26A291C61
:104F40009E580022E271A282E282064B142218F0DF
:104F500063FCA368002B03D1201C311C19F078F8E6
:104F60007FBDC04651440000F0B59BB00BAC071CA0
:104F7000151C06913C220021201C1E1C1FF01FF84E
:104F8000069879680B9038682162267119F05CFFE9
:104F900019F048FF606280001CF0DAF80021A0627E
:104FA0000095201C0A1C3B6818F0CDFB1DF074F91D
:104FB00000250990206306950026331C606A86420E
:104FC00003D3002BF8D105932DE0A1680029F8D177
:104FD000A06AB2001558002D16D06969002913D1B6
:104FE0001CF0F1FA6B7E6861291C201C0122042B45
:104FF00002D1FEF767FC01E0FFF782FE2369069D00
:105000009D4200D2069301230136D7E70D98002870
:1050100000D0B4E0059C159BA200D358002B07D10B
:10502000059E01360596059814998842EED3A6E0B0
:105030001A7ED50727D51C8D021CA04223D08F4E87
:10504000DD6AA119091AC90069184D78AE0713D590
:10505000002A18D010785478558808900494039545
:105060000E1C506830CE30C2089E049A039C0E700D
:105070004A704C80486006E0002A02D1012D00D120
:105080000A1C0130D9E7002119841D8DAC46A942C4
:105090001CDADD6A1878CA00AA18072802D15668F7
:1050A000052E11D00138052804D81078002801D128
:1050B000012010701078022802D05078C40703D560
:1050C000188C441C1C8450800131DEE700226245AC
:1050D0000EDADE6AD10071180878032806D1487804
:1050E000C40703D4188C4880013018840132EEE7DD
:1050F0005C68002C94D0258D002107950A1C079D23
:10510000A94220DAE06ACE008619307800250338FB
:10511000012816D804950498604512DA049DE80029
:10512000DD6A281803900078042807D10398756871
:105130004068854202D1039842800132049D0135C6
:10514000E8E70131DBE7002A00D169E7002161458A
:105150000DDADE6AC80030180478042C02D14478D5
:10516000E50702D54488141944800131EFE7598BD3
:1051700092B251185983198C52181A8450E7099821
:1051800006991DF08EF80026351C149B9E420FD305
:105190000D9C002C49D0169B0EA8996818F056FB60
:1051A000169B0D981B690B990E9A02F099FC3CE036
:1051B0000D980028ECD1159AB3009C58002C32D0E1
:1051C000637E042B18D1002D03D106981AF0F9FA4A
:1051D000051C002317932A4B0BA8211C03221993AB
:1051E0001895FEF76FFB0D9B002B1CD10BA8211C03
:1051F0000422FEF767FB16E00998211C1790022293
:105200000BA8FFF77DFD0D99002904D10BA8211CE7
:105210000322FFF775FD0D9A002A04D10BA8211C6B
:105220000422FFF76DFD0136AFE709981DF041F844
:10523000002D02D0281C1AF0D5FA381C19F053FEA4
:10524000159B00241B685D69149915988C4207D240
:10525000A2008058002801D018F0B8F90134F3E713
:105260001BF09AFF0D9A002A02D0101C0CF005FBCF
:10527000281C111C1CF0B2F91BB0F0BDFFFFFF1F72
:10528000405F020008B540681DF015FF002801D0FE
:10529000014800E0014808BD187B02005C7B020069
:1052A00008B540680DF048FE004808BD707C02005B
:1052B00008B540681DF003FF002801D0014800E058
:1052C000014808BD187B02005C7B020008B54068FD
:1052D0001DF0F9FE004808BD707C0200F8B5094DCC
:1052E0002B78002B0CD1084C2778FFB2002F07D168
:1052F00000680126036826705B68984727702E7047
:10530000F8BDC0464A2E00204B2E00203E2803D078
:10531000402809D03C280ED14239C9B22F290AD8D9
:10532000084B585C012308E0712904D8064B585CEF
:10533000064B5B5601E001230020002A00D01360D9
:105340007047C0465FAD02007BAC0200EDAC0200CE
:1053500008B5512836D00FD8492827D006D842287A
:105360001CD048281FD000284BD117E04F2840D030
:1053700042D84C281AD044E0682811D007D86428B5
:105380002AD0662825D062283BD188563AE06C287E
:1053900032D071280FD0692833D12DE0885C31E0FC
:1053A0005200505E2EE05200505A2BE092005058AE
:1053B0001AF0C0F829E0D2008918086849681AF084
:1053C0008FF822E0D2008918086849681AF0A3F81B
:1053D0001BE09200505805E0D2008918086849681F
:1053E00012F034FB0323984302231843074BC018E1
:1053F0000BE09200505808E0920050581AF07FF8E5
:1054000003E0002040000123184308BD0000808015
:10541000F0B587B0151C03AA071C0E1C01931C686D
:10542000FFF774FF0090402F05D1039B3C275A1EC5
:10543000A4185B421C40009A3E3FA318019A1360D7
:10544000642E09D0662E02D04F2E22D141E0281CB6
:1054500009F0CEFE051C3CE0281C09F0C9FE12F044
:10546000A3FA7D427D41EDB204900591AB0006AAFE
:10547000D318083B1B68291C221C042019F039FA98
:1054800001235D40AD0006AB5D19083D04342D6875
:105490001FE0AA070CD1154B2A689A4208D179421D
:1054A0007941C9B2281C009A231C1AF007F81BE0A6
:1054B000281C09F039FE009B051C042B09D95A2E23
:1054C00007D9002805DA1A1C201D043AFF211EF016
:1054D00076FD0098042800D9042079427941C9B2A8
:1054E000221C2B1C19F005FA07B0F0BD90520200E7
:1054F00070B5061C0D1C141C181C642E0CD0662ED6
:1055000004D04F2E11D19400635127E094000D195F
:1055100009F06EFE286021E0D4000D1909F068FE44
:1055200012F042FA2860696018E020233343712B9F
:105530000CD10321014009D1094B02689A4205D1DF
:10554000E4002B19082219F0B9FF07E009F0ECFD7F
:10555000291C031C221C301C19F0E1F970BDC04647
:105560009052020008B502480DF024F9014808BD28
:10557000D4280020707C020008B509F0D5FD002871
:1055800001DD0AF0ADF8014808BDC046707C02009C
:1055900008B509F0C9FD011C02480DF02BF919F0FE
:1055A000AEFF08BDD428002008B503480DF0ACF9C3
:1055B00001234000184308BDD428002010B5031C67
:1055C000064C02D1201C191C04E0086809F0ACFD4F
:1055D000011C201C0DF09EF9014810BDD4280020AC
:1055E000707C020000487047707C020010B588B0E3
:1055F00001AA6946041C02F0ABFA009A022A2AD9D1
:1056000004A8322102AA07F06BFD019B13495A68D6
:1056100002A81CF0C8FC201C09F09CFC104BC268BE
:105620009A4210D1236802A85A680E491CF0BBFCAC
:10563000E368002B07D05A68002A04D0996802A8B2
:10564000002209F0A1FC04A81BF0D5FE0AF03AF8EC
:1056500004A81BF067FE08B010BDC0468FAD020065
:10566000ED78000098AD020070B5031C0A1C90B0E4
:10567000191C0B20002305F077FA051E03D11848EA
:1056800016F082FB29E004A80CF0DCF8041E19D106
:105690002E6801A8291C012200F0C2FD221C231C37
:1056A000311C01A8FFF760FC041C032009F08EFFE9
:1056B000201C1BF079FD0120404209F087FF0CF00F
:1056C000D7F80AE00120404209F080FF054805991B
:1056D00009F07EFC0598FFF789FF10B070BDC04649
:1056E0009CAD0200D493020013B51F4BE12001AA28
:1056F000C0001A6005F034FC1C4B1D48C1180AF0AC
:1057000037F906F023FD09F03FFF03F023FA00F01C
:10571000BBFFF8239B021988164A174C914204D10B
:1057200059881648FFF7A0FF09E02278012A06D120
:1057300018201349FF3007F0FFFB1BF05FFD2378B3
:10574000002B0ED100F0C6F80028F8D00D481CF050
:105750008BFA00210C220C481EF031FC1BF020FDBE
:1057600013BD00F011F9EFE71C0100205C260000DA
:10577000200100204D500000D200002004E0030072
:10578000548B0200C9AD0200282F002007B50AF093
:1057900073F9054B01A81968091A89080AF02AF952
:1057A0000AF07EF907BDC0461C010020F0B585B0A7
:1057B00003900526039809F093FF0125B54224DAEA
:1057C0000024144F211C381C2A1C08F03DFAC3B2D7
:1057D0000190002B13D06A1E381C211C029208F085
:1057E00033FA031E0BD1381C211C2A1C08F0F2F9D5
:1057F000019A381CD3B2211C029A08F0EBF901344B
:10580000052CDED10135EDB2D8E7013E002ED1D115
:1058100005B0F0BD2400002008B5C820FFF7C6FF82
:10582000004808BD707C0200F0B593B0061C06A8C5
:105830000F1C141C0CF006F8051E22D13368311C15
:1058400003A83A1C0126019300F0EAFCA3082A1CD5
:105850003340019903A8FFF787FB051C032009F0DB
:10586000B5FE281C1BF0A0FC704209F0AFFE0BF047
:10587000FFFF344203D01448311C09F0DBFE012540
:1058800018E00120404209F0A1FE01210C4202D0A3
:105890000D4809F0CFFE079809F05CFB0B4905F0B5
:1058A00019FF051E04D10799094809F091FB01E091
:1058B00080256D0001210C4202D0034809F0BAFE98
:1058C000281C13B0F0BDC04602AE0200F859020019
:1058D000D49302001FB5202168461BF0F9FC244830
:1058E0001CF0C2F968461BF040FD22481CF0BCF9D0
:1058F00009F088FE0128F2D002280AD11E481CF0C7
:10590000B3F968461BF00EFD1C4B01221A700020F3
:105910002CE0032803D168461BF027FDE8E70428A4
:1059200004D0C1B268461BF079FDE1E714481CF0D1
:105930009BF9019A002A08D10F481CF095F9684696
:105940001BF0F0FC8020400010E0FB2002990023B7
:1059500005F00AF9002803D10A4816F0BFF9C1E79B
:1059600001210A1CFFF760FFC305BBD505B000BDD0
:10597000D7AD020005B102006EAE0200D2000020D9
:10598000F2AD0200F5AD020030B587B002A82021CB
:105990001BF09EFC44481CF067F944481CF064F975
:1059A00002A81BF0E2FC02A841491AF00CF80128F9
:1059B00009D140481CF058F902A81BF0B3FC3E4B3B
:1059C000002018706DE0022803D13A481CF04CF911
:1059D000E0E703281AD0042808D136481CF044F91F
:1059E00002A81BF09FFC802040005AE0052825D12A
:1059F00032481CF039F902A81BF0B7FC09F002FE8E
:105A00006C46C1B207342170032901D12948C5E78A
:105A1000042904D127481CF027F9012427E002A813
:105A20001BF0FCFC23780D2B03D125481CF01CF93E
:105A3000E4E7201C012109F0FDFDDFE702A81BF0CF
:105A4000A7FC0028ACD002A81BF0D5FCFDF7AAFBF0
:105A500000280BD002A80A211BF0E0FC02A819497B
:105A600019F0B1FF0328D1D00428ECD1002402A8FA
:105A70001BF087FC051C02A81BF08AFC291C021CD9
:105A80000023FB2005F070F8002803D10E4816F023
:105A90007BF985E7211C0622FFF7C6FEC30500D46B
:105AA0007EE707B030BDC04604AE02004BAE020038
:105AB00071AE02006EAE0200D200002076AE02008F
:105AC000A6AE0200ADAE0200E1C102007FB54B6898
:105AD0000E1C5C106846211C1BF011FC029D00216D
