:020000040000FA
:10000000004000200D9C0100499C01004B9C010018
:1000100000000000000000000000000000000000E0
:100020000000000000000000000000004D9C0100E6
:1000300000000000000000004F9C0100519C0100E6
:10004000539C0100096D000015910100539C0100B3
:10005000539C010000000000A5970100539C010083
:10006000FD020000A98E0100F5990100539C0100DA
:10007000539C0100539C0100539C0100539C0100C0
:10008000539C0100539C0100539C0100539C0100B0
:10009000539C0100458A0100118B010039040000C6
:1000A00049040000539C0100000000000000000013
:1000B0000000000000000000000000000000000040
:1000C00010B5064C2378002B07D1054B002B02D02E
:1000D000044800E000BF0123237010BD2001002070
:1000E0000000000008810300044B10B5002B03D072
:1000F0000349044800E000BF10BDC04600000000F6
:100100002401002008810300164B002B00D1144B62
:100110009D46402292029A1A924600218B460F4633
:100120001348144A121A28F057F90F4B002B00D02D
:1001300098470E4B002B00D0984700200021040068
:100140000D000D48002802D00C4800E000BF1FF051
:1001500005FF2000290027F0E1FD1FF04BFEC046FF
:100160000000080000400020000000000000000027
:1001700018010020E02F0020000000000000000017
:1001800010B50C0022F040FC631E184207D002009C
:1001900023000349034814F0F5F803F00DF910BDEE
:1001A00036F50200B0DD020010B54A680249D200FF
:1001B00020F023FE10BDC0465EF5020070B50B00B6
:1001C00006001400101E0FD071681800042A0ED10A
:1001D000FFF7D6FF7368012B03D0022B05D0006810
:1001E00000E0007822F0D3FB70BD0088FAE7FFF74B
:1001F000C7FF0500200007F03FFC726803000548B8
:10020000012A03D0022A03D02B60EDE72B70EBE725
:100210002B80E9E7F88C02008022044B52001A6020
:100220000123034A1360034A1360704700E100E0B2
:100230000C8C0040008000408022054B5200DA67A1
:10024000044BFF3A5A600022034B1A607047C046C5
:1002500004E100E0008000400C8C004070B50025F7
:1002600001261E4B1E4C1D601E4B18601E4BE65097
:10027000C046FFF7E1FF1D4B1D4AE660E250022237
:100280001C4BFF20E5500433E25008339218E25033
:10029000C12380229B001203E250053BFF3BE55047
:1002A000C2244022144BA400195981430A438021DF
:1002B0001A510C341A5909061202120A0A431A5129
:1002C000C0220434195981430A431A51802212046E
:1002D0001A60802252041A6070BDC046782E002039
:1002E000008000404C010020FC0F00004C05000085
:1002F000701700000405000000E100E070B51F4C1D
:100300001F4D636C002B0AD0002363641D4B1B68D8
:100310009847A823DB00EA5800018018E850A36C36
:10032000002B09D00023A364164B5B689847164B3B
:100330000001EA588018E850E36C002B0AD0002333
:10034000E364104B9B689847A923DB00EA5800013F
:100350008018E850236D002B0ED000230B4A236534
:10036000AB580B495B18AB500A4A1368063313604D
:100370008022094B12045A6070BDC046FC800040C8
:100380000080004004000020440500004C050000EF
:1003900070170000782E0020FCE100E0F7B5019115
:1003A000032823D8134B8000C758C223124D9B004B
:1003B000EF50012344192364A8230F210F4EDB00C3
:1003C0009C46E358AE59921BD218D3170B409A188B
:1003D00001990B4B1211C150C1239B00EF50634692
:1003E0000020013212019619E650FEBD0120404264
:1003F000FBE7C046148A0200008000404C05000064
:100400000400002003280BD8074B8000C158C223EA
:10041000064A9B00D150064B064AC2500020704746
:1004200001204042FBE7C046148A020000800040E1
:1004300004000020C50A020010B5024B1B68984753
:1004400010BDC0464C01002010B50024054AA10093
:100450008B58002B02D00020885098470134042C80
:10046000F4D110BD3C010020074A89008B58002BB5
:1004700006D1885080211800044A49045160704711
:1004800001204042FBE7C0463C010020FCE100E0C7
:1004900000B58BB013F040F8684620F016FB054B12
:1004A000D968091A890812F0F3FF13F04DF80BB060
:1004B00000BDC046802E0020F0B5060087B000AF1A
:1004C0007B60F960BA600EF08DFDB06821F047F8EE
:1004D0003861B06821F049F821F041F8032358430E
:1004E0003B69C01883001D007B6114352C2B2CD870
:1004F0006B460E35ED08ED005B1B9D4600236C46F8
:100500007B61002326606360BA687B68F96820001D
:1005100003F0C8FB154D00216B6820002361736850
:100520006B6004F0B9FE2369061E6B6013D1A368EB
:100530001D687B69002B04D0200020F016FF002EE0
:1005400011D12800BD4607B0F0BD280020F0EBFE19
:10055000041ED6D1CCE73B6903339B00E3185D68EA
:100560007B69002BE8D1280002F026FF802E0020B6
:100570000122030030B5134085B004004510002B64
:1005800014D125491D00884210D0244988420DD03D
:10059000234B1500984209D00323034009D1214A77
:1005A0000168914205D122F02FFA0500280005B01C
:1005B00030BD1D4A25002240062A05D0002B08D157
:1005C0001A4B22689A4204D101A9200009F0DAF8F6
:1005D000EBE7200007F03CF9154B984207D1FF23C9
:1005E000DB05E018032398431AF024FDDDE7114BE7
:1005F000984202D0104B984206D101AA69462000C9
:1006000007F0B0FA019DD1E7022201A9200021F0F4
:100610009AFD0028CAD0F5E7F88C020028DE020017
:1006200030DE02001C970200070080FF5CC602005B
:1006300014B30200949B020048980200F7B506002C
:100640000F0000920193041E00D044683800431E3E
:10065000984120180430800020F058FE0C4B050013
:1006600003600C4B5B684360009B8360019BC3602D
:10067000002E05D03100A2000831103027F090FE86
:10068000002F02D00434A40067512800FEBDC046EC
:100690005C8A0200802E002070B5060010200D003C
:1006A000140020F033FE034B466085600360C46095
:1006B00070BDC046208A0200F0B5802787B02B4D60
:1006C00002907F422C78002C1CD063B2002B12DAEF
:1006D0006E787C40E4B2002E14D0013CE4B2FF2CD2
:1006E00002D101350135EDE704AB981D01210670FB
:1006F00007F052F8F1E704ABD81D0121047007F0B0
:100700004BF8EFE70527029821F0E9FC0124BC42F1
:1007100027DA0025164E2200290030000DF0E8F9F6
:100720006B4601901B79002B15D0631E1A0029001F
:10073000300003930DF0DCF9031E0CD122002900D8
:1007400030000DF0A1F9FF22019B29001340300079
:10075000621E0DF099F90135052DDBD10134E4B2AB
:10076000D5E7013F002FCED107B0F0BD6EF50200F6
:100770001800002010B5C820FFF79EFF004810BDEC
:10078000F88C0200F0B587B0039205910D9A039999
:100790000500521A0CA9097820200C00844339D096
:1007A00030293BD00CA902910121802401911C40E9
:1007B00036D0D40FA4186410171B002C37DD260088
:1007C000019B0493B34200DD04966B68049A02997E
:1007D00028689847049BF61A002EF1DC039B002B37
:1007E00006D01A0005996B6828689847039BE4189F
:1007F000002F0CDDE419019EBE4200DD3E003200F8
:10080000029928686B689847BF1B002FF3DC200013
:1008100007B0F0BD074902911021C6E70649FAE783
:1008200001271F4001D11400C7E71700D6E70024B5
:10083000D4E7C0461EF602002FF60200F0B593B0D2
:100840001C0018AB20CB05901B780F0016000793F7
:10085000CB070BD48B0703D1854B0A689A4205D08E
:10086000380007F0DDF801274000074381231D42CF
:1008700009D1079B302B06D11A9B1B9A934200DAB1
:100880001A9200231B93380022F05EF80AAA130084
:10089000002806DBAB070FD52B231370123B04AAED
:1008A0009B18E1B2EA0615D5022E0CD130221A703F
:1008B0004A1C5A7002330DE013006A07F1D520225A
:1008C0001A701923EBE7082E3BD130221A70AA05C3
:1008D00034D4013300220AA81A701B1A2C20069364
:1008E000AB06DB1718400EAB0B9310230C931B9B2E
:1008F0000D92012B01DD40231D43402404ABDA752A
:100900002C400390029123D03B00019200960DAA47
:100910000CA90BA802F054FC037807002D2B00D083
:100920008EE004AAD3750D9B1B9A013B01370D93F2
:10093000012A00DD97E00026340035E00A000E327F
:10094000B7E7102EC6D130221A700A001732B0E76E
:100950000AAB019300963B000DAA0CA90BA802F06C
:100960002FFC1B9B07002600012B1DDD0D9B1B9CF4
:100970009C4200DA1C001A9BA3425EDD01261C1B70
:100980002E4001D02600002401239D432F330793DE
:10099000002C09D0103B0093002301941A00354924
:1009A0000598FFF7EFFE04006B0621D5172104AB75
:1009B000C9180B78002B0AD0002301220093019262
:1009C0000598FFF7DFFE1A9B2418013B1A93069B3C
:1009D000002B0DD0012301930023069A00930AA94E
:1009E0000598FFF7CFFE1A9B069A24189B1A1A93B4
:1009F0001B9B012B01DC1A9B1B931B9B0D9A0193E4
:100A0000079B3900009305982B00FFF7BBFE2418C5
:100A1000002E09D020230093002301961A001549C7
:100A20000598FFF7AFFE24180B980EAB984201D043
:100A300020F09BFC200013B0F0BD00263400A3E79B
:100A40001B9B012B00DC76E70D9B1B9C9C4200DA74
:100A50001C00172304AA9B181B78002B00D001341C
:100A6000069BE41887E71B9C9C42F8DA1C00F6E71B
:100A70001C970200B40B0300F0B506001400002719
:100A80008DB00D002B78002B15D1A94217D30B7810
:100A9000002B00D148E14B1C049320230025302279
:100AA000082104200893049B1B78002B11D1069386
:100AB000013B07935FE0252BE7D00135E2E76B1A96
:100AC00004931A00306873689847049B2900FF1844
:100AD000DDE72D2B05D12C3B1D43049B01330493F3
:100AE000E1E72B2B01D1293BF6E7202B01D1054370
:100AF000F3E7212B01D10D43EFE7302B2CD110333D
:100B00001D430892E9E7069A4A43D318303B0693FF
:100B1000049B01330493049B1B781A00303A092A82
:100B2000F1D92E2B47D1049B5B782A2B18D0049B3C
:100B30000A210133049300230793049B1B781A00B6
:100B4000303A092A17D8079A4A43D318303B0793FB
:100B5000049B01330493F0E700230A210693DAE7AC
:100B6000049B02330493236804340793DB43079AFE
:100B7000DB171A400792049B1B786C3B5A42534187
:100B8000049AD31804931B780593002B00D1CBE073
:100B9000642B00D1A1E022D8502B29D00ED8453BA0
:100BA000022B00D8A9E001220499306873689847A5
:100BB0000137099452E001235B427AE7059B622BDF
:100BC0003CD057D8582BEED1231D0993069B019595
:100BD0000393089B029341230093313B7BE0059BE9
:100BE000712B53D00FD8672B00D886E0702BDAD149
:100BF000231D0993069B01950393089B0293612390
:100C00000093513B67E0059B752B5AD0782BEFD0B2
:100C1000732BC8D1231D24680993002C49D0079B4E
:100C2000013303D1200027F02BFC0790069B079A85
:100C30000193089B210000932B000BE0231D0993D7
:100C40002368002B0ED0069B04220193089B384991
:100C500000932B003000FFF795FD3F180499099C85
:100C600001310EE7069B05220193089B3149009351
:100C70002B00EFE7231D099323680BA90B70069B3C
:100C800001220193089B00932B00E3E7231D0BA98E
:100C90002068099321F00EFF079B0100013301D169
:100CA0000B9B0793069B079A0193089B00932B00CD
:100CB000D0E7069B06220193089B1F4900932B0057
:100CC000C8E7231D0993069B01950393089B029394
:100CD00061230093573B00220AE0231D0993069BE2
:100CE00001220393089B0195029361230093573BD4
:100CF000216830001FF0CFFFAFE7072307349C4384
:100D0000230020686168083309931BF0DFFF079B0D
:100D1000011C0293069B059A0193089B30000093E7
:100D20002B0020F025F898E738000DB0F0BDC04644
:100D30000CF6020011F6020017F6020010B50400CE
:100D4000431C02D0024813F07BFB024B1C6010BD19
:100D5000A82E00207C2E0020014B024A9A64704786
:100D6000802E0020A82E002070B50D0006F0BCFEDD
:100D7000041C280006F0B8FE211C19F081FF051C98
:100D800020F046F8011C281C19F048FE211C19F01F
:100D9000D3FA0323020002209A43024B1043C018E7
:100DA00070BDC0460000808010B520F031F80323EC
:100DB000020002209A43024B1043C01810BDC046E7
:100DC0000000808010B5074C002802D00868A042BF
:100DD00003D115F09DF9200010BD06F04DFE15F071
:100DE000B7F9F8E7F88C020010B5040006F08AFFA6
:100DF00006F016FE002803DC0021064824F06BFCF8
:100E000015F060F921F0C3FD04220100200006F076
:100E10008FFF10BD2CDA0200F0B5060000248BB065
:100E2000194B1A48E15806F041FB03AFE051043476
:100E30001C2CF5D114230024734301930025AB002F
:100E4000F958134822F045FF0135300021F047F9E9
:100E5000072DF4D1013DAB000D48F95822F039FFC0
:100E6000300021F03CF9013DF5D20134082C03D1CA
:100E70000CF0EAFD0BB0F0BD01231C42DED101985D
:100E800021F02DF9DAE7C046C48C02007C91020003
:100E90001800002010B51920FFF7BEFF004810BD54
:100EA000F88C0200054B10B59A6C002A04D0002281
:100EB000986C9A6402F080FA10BDC046802E002023
:100EC0000F2310B51940012908D00300002909D0CB
:100ED000022909D121F05BFD030003E0044B002847
:100EE00000D1044B180010BD21F06CFDF4E7C046A2
:100EF00030DE020028DE0200F0B585B00C0008F0FC
:100F00000BF803AA070002A9200006F02BFE029EA0
:100F1000039B35001035AD002800019320F0F6F951
:100F200004002C221030002127F056FA67602700B9
:100F3000104BE6632360104B019EA3600F4B403DB6
:100F4000E3600F4B403763610E4B7519A3610E4B85
:100F5000E3610E4B23620E4B63620E4B6363AE4242
:100F600002D1200005B0F0BD01CE07F0D5FF01C7CA
:100F7000F5E7C0466CD00200990F0000F90F0000A1
:100F8000554E0000ED4E0000BD0F0000ED4F00007B
:100F9000E14D0000949B020070B50C0005000B6849
:100FA00005495A681FF029FF2168280040312200B6
:100FB00003F0E8FE70BDC0460F760300136870B5FD
:100FC000002B10D10568EE6BB34200D170BD9C00C0
:100FD0002C19246CA14201D00133F5E702339B00A8
:100FE0001B581360F2E70249024824F074FBC04624
:100FF00040F6020088D80200F0B51700C26B85B039
:10100000CE19050001910393964206D0330025497D
:10101000254813F0B7F902F0CFF90021300003F0B2
:1010200047FF0400019B05609B001A0003990830EC
:10103000029327F0B5F90298BA0008302018002171
:1010400027F0CAF9029A039B94466344F7191E00DD
:10105000019BBB4202D3200005B0F0BD306807F011
:101060005BFF00210200EB6B0293029B994204D1CB
:101070000E490D4813F086F9CDE78B00E818006C97
:10108000824201D00131F0E7E3189968002901D0CC
:101090000749EEE7726808369A60019B02330193B4
:1010A000D6E7C04654F6020038DD02008DF6020095
:1010B000AEF6020010B502491FF0DEFD10BDC046BD
:1010C000DDF6020010B5034B186825F098FD21F0FD
:1010D0005EFC10BD8829002010B5034B186825F070
:1010E00095FD21F054FC10BD8829002010B5034B5C
:1010F000186825F092FD21F04AFC10BD88290020D7
:101100001FB50021032003F0D3FE0A4B0400196829
:1011100001A825F067FD019821F039FCA060029834
:1011200021F035FCE060039821F031FC20612000C3
:1011300004B010BD8829002010B507F0EDFE002393
:10114000064A99008958814205D001330C2BF8D109
:10115000034811F099FC180010BDC046C88D02006C
:10116000E2F60200094A70B51378002B0DD1084D44
:101170002C78E4B2002C08D1013313702B70054B8E
:10118000186803685B6898472C7070BDC62D0020F6
:10119000C72D00208829002010B5FFF7E3FF054B7D
:1011A000186825F05BFD044B8000C3580620DB0067
:1011B000184310BD88290020C88D020010B5080012
:1011C000FFF7BAFF0400FFF7CDFF054B186825F0C5
:1011D00045FD044BA04200D0034B180010BDC04693
:1011E0008829002030DE020028DE020010B5080049
:1011F000FFF7A2FF0400FFF7B5FF0123A340064A53
:10120000064811880B4200D1054811889943118086
:101210000022044B1A7010BDBC2D002030DE0200ED
:1012200028DE0200D02D0020F8B5FFF79BFF134CFD
:1012300013482378002B1FD020780021C0B203F080
:1012400037FE012600220F4F2378934212D9150052
:101250005308FB5C3540AD002B410F252B400A4D58
:101260009B005B5906259100DB0041182B438B60E6
:101270000132E9E700232370F8BDC046D02D0020DD
:101280008C9B0200C82D0020C88D020070B54388D9
:101290005A1E0A2A1FD801252A009A400F49088899
:1012A000024392B20E480A8002780F2A13D80278BD
:1012B0000C4CEA40A25C0678D2B20F212E420BD031
:1012C0000A401B0113430278DBB25208A35403788F
:1012D0000133DBB2037070BD8A43F3E7BC2D0020FD
:1012E000D02D0020C82D0020F0B585B005001600D7
:1012F000080003AB02AA01A924F090FF0398364F1F
:10130000B84209D0032807D006F08AFBB060002855
:1013100004D1324811F0B8FB0123B3600198B84200
:1013200029D10024B368A34200DC6C1E0298B842A5
:1013300025D1B368002B47DD2800002C2ADA641978
:1013400001D5B368DC17002834DA401901D5012033
:101350004042B368002B00DA0130B368002B2DDD6A
:10136000A04200DA2000013B706058425841C0B2F0
:10137000346005B0F0BD06F053FB0400D6E706F07C
:101380004FFBB368002801DBDA0F8018002CD6DB96
:10139000002B03DDAC42D6D92C00D4E7002BD2D0F1
:1013A000A54200D86C1E002804DA4019D4D50120CB
:1013B0004042D1E7A842D0D92800CEE7002BD2D0B6
:1013C000A042D0DD601CCEE7002C01DA0020B6E799
:1013D00000208342E4D1C0E7F88C0200F2F602005C
:1013E000F0B5060085B017001B2805D10A9A974270
:1013F00009D0002005B0F0BD19281AD01C281AD039
:101400000A9A0A9717001A000B0011000A9A019213
:10141000BA4200D901971D000C0000230093009BE5
:10142000019A934209D10A9BBB4220D0E1D301200B
:10143000E0E71A26EAE71D26E8E70295039401CDC6
:1014400002CC06F09BFA002802D0009B0133E5E7AE
:101450001B2ECED0039B30001A68029B196811F036
:101460001BFB044BC01A43425841C0B2C2E71A2EBC
:10147000DDD1BEE730DE0200F0B51E0085B003907E
:1014800018680D00170006F0E3F9736801900293E5
:101490000024022F0ED90123B268290006F098FB20
:1014A0000400032F06D029000123F268019806F0FA
:1014B0008FFB0500A54202D8084811F0E5FA039A0F
:1014C000A3000299D05806F059FA002801D101343E
:1014D000F0E701206400204305B0F0BD0CF70200E6
:1014E0000023820708D10068044A0133904203D0E8
:1014F000034BC01A4342434118007047048F020057
:10150000C88E0200044B88600B60044B08004B60DF
:101510000023CB607047C04668CC0200B7100200C1
:1015200030B585B005000800694610F07DFE040066
:10153000200010F0DBFE011E02D1064805B030BDD0
:101540002B1D0022180020F0AAF80028F0D0024835
:10155000F4E7C04630DE020028DE020070B5050068
:1015600010201FF0D3FE0400074B696808C020F06C
:101570008CF8AB68E968A3606B68E0689A0026F0B5
:101580000FFF200070BDC046048F0200F7B50400B5
:101590000D0000268B0704D10B68214E9E1B734261
:1015A0005E41AB68002B0AD1002E03D01D492000FC
:1015B0001FF062FB1C4920001FF05EFBF7BD002EF0
:1015C00003D01A4920001FF057FB194920001FF0D3
:1015D00053FB002701236A68BA4207D81549200047
:1015E0001FF04AFB002EE9D01349E4E7BA0001924C
:1015F000EA68B9005258002A0FD0042A0DD0002BF7
:1016000003D10E4920001FF037FBEB68B900595891
:101610000122200006F034F900230137DBE7C04641
:10162000C88E02005BF7020062F7020068F7020052
:1016300073F70200466F0300A41E030075F7020053
:1016400010B5830707D1044B02689A4203D10349BE
:10165000034824F040F810BDC88E020023F70200B2
:1016600088D8020070B50D000400FFF7E9FF2900DB
:10167000201D012220F013F8004870BDF88C0200F4
:1016800070B50D000400FFF7DBFF2900201D0222CA
:1016900020F005F8004870BDF88C020070B5060017
:1016A00008680D000124FFF7CBFFB44201D30448C2
:1016B00070BDA300E95828681FF09BFC0134F4E7D3
:1016C000F88C020070B50D000400FFF7B9FF280088
:1016D000002110F0A9FD0500280010F007FE011EF2
:1016E00001D1044870BD231D032218001FF0D7FF4D
:1016F000F2E7C046F88C020010B50400FFF7A0FF27
:10170000201D20F05AF8014810BDC046F88C020098
:1017100010B501221FF09EFC004810BDF88C02009D
:1017200070B504000D00FFF78BFF201D0222290079
:101730001FF0B5FF002804D1034824F07DFD01F01F
:101740003BFE024870BDC04668DA0200F88C020019
:1017500010B50400FFF774FF201D20F00FF80028DB
:1017600003D10249024823F0B6FF10BD45F702003D
:1017700068DA0200F8B50D0001280BD0002803D06C
:1017800002280BD0002004E08B681448002B00D105
:101790001348F8BD8B685B001843FAE70324002068
:1017A0000C408442F5D10F4B0E6820009E42F0D1D0
:1017B0004F68A74203D1012076003043E9E7EA6889
:1017C000A3009958002906D0042904D0022010F063
:1017D000C3FB401036180134EBE7C04630DE020090
:1017E00028DE0200C88E0200F8B5040010200D00AB
:1017F0001FF08CFD0600094B210008C607003000D1
:101800001FF043FFA4002C19A54201D13800F8BDF8
:10181000012202CD30001FF042FFF5E7048F0200E5
:10182000F7B504000E00171E2CD0FFF709FF194D65
:10183000B4422DD000210800FFF7D6FF002105009B
:10184000300010F0F1FC0190019810F04FFD061EE1
:101850000CD1002F1CD0E0681FF087FD6B6863601F
:10186000AB68A360EB680B4DE36011E0201D002224
:1018700031001FF014FF0028E6D031002800FFF7E8
:10188000F1FEE1E78842D5D120001FF0C5FB05003D
:101890002800FEBDF88C0200F0B589B0040003906A
:1018A000029101920027FFF71BFEB84207D13A00D0
:1018B00003AB012122481FF023FC04000137029DE5
:1018C00000262800FFF70CFEB04207D1320002AB21
:1018D00001211B481FF014FC05000136019B002B61
:1018E00005D00023AA680193A36893420DD0154B3D
:1018F00006940493144B05930023079304A81FF048
:10190000DAFB011E12D101230193002F02D0200027
:10191000FFF7F2FE002E02D02800FFF7EDFE019B3C
:101920000A48002B00D10A4809B0F0BD2B1D002247
:1019300018001FF0B4FE0028E0D10190E5E7C04692
:10194000048F020068CC0200B710020030DE0200F3
:1019500028DE020073B50C001500009101920026EC
:101960008B0704D10B68394E9E1B73425E413200D7
:101970001F2868D818F0E4F92810176767671C67F4
:101980006767676767212D346767673B67676767C6
:101990006740464A5358675D290020001FF04DFB01
:1019A0000400200076BD290020001FF09EFBF7E711
:1019B000694602201FF07AFBF2E7002E04D0694648
:1019C0000220FFF76BFEECE7290020001FF02BFB45
:1019D000E6E729002000002EE0D0FFF773FEE0E7E5
:1019E00029002000FFF71CFF002EDAD1D8E7694656
:1019F00002201FF02FFBD3E7012229002000FFF770
:101A00004BFFCDE7012221002800F8E72800FFF76F
:101A100067FD002815D0A368AA68934211D1290058
:101A200020001FF09EFBBBE7290020001FF091FB68
:101A3000B6E7201D002229001FF031FE044C0028CB
:101A4000AFD1044CADE70024ABE7C046048F0200E1
:101A500030DE020028DE0200F8B5214E35686968E4
:101A600001292DD9AA684B1ED05C0A2828D1002B49
:101A700001DC1C0009E0581E145C0A2CF9D003009C
:101A8000F5E7105D202802D10134A142F9D8002BDE
:101A90000BDD601C814208D1581E002805D001389A
:101AA000175C0A2F0CD0202FF7D05218023AE31AF5
:101AB00014789B083A3C624254411C19002C00D116
:101AC000F8BD084F0422390028001FF0F7FE04215A
:101AD000380005F053FE3369013C04333361EDE710
:101AE000500100205D1D030010B520220021024896
:101AF00026F072FC10BDC046E02E0020084B10B549
:101B0000426818600020986018750138D860080095
:101B10005A601A61996120F0D5FAFFF79DFF10BD58
:101B200050010020F8B503780400002B1ED0104DA2
:101B3000286E002804D0210026F098FC002815D03B
:101B4000200026F09DFC471C38001FF0ECFB061E11
:101B50000CD03A00210026F023FC2A00054B5C3211
:101B60001968043B99609342FAD12E66F8BDC046CD
:101B7000802E0020F82E0020F0B5B84C020020681E
:101B8000A568436885B00193002D00D0FDE0531E89
:101B9000042B11D8636801998B4200D195E0012A8A
:101BA00000D12AE1022A07D123696268934200D951
:101BB0004FE10122524288E0032A00D185E0042A45
:101BC00000D12FE1052A00D107E1062A0ED12369B1
:101BD000019A9342AD416D42002DEADD2368290050
:101BE00098682369C01805F0C9FD1FE00B2A21D1B0
:101BF000019B2269991A1FF021FF2368019A5B68F3
:101C0000934204D213002269981A05F0EDFD226870
:101C1000236951689068C91AC01805F0AFFD2368A0
:101C200058682369C01A401B05F0CCFD23695D1973
:101C30002561BEE70E2A13D1E368002BB9DB013B17
:101C4000E3606268019B991A1FF0F8FEE368002BBD
:101C500018DB1633824A9B00D318996820680FE07E
:101C6000102A16D1E368062BA3DC5D1C7C4A1733CF
:101C70009B00D318996800299BD06368E560436096
:101C80001FF0A1FE63682269D61A22685568ED1A12
:101C90000AE0152A0CD12369626861689A1A1FF05C
:101CA000D5FE236962689E1A0127002E2FDCA4E767
:101CB0000D2A0DD16B4820F005FA20681FF068FE50
:101CC0006368C018FFF72EFF0022100005B0F0BDBA
:101CD00001231B2A62D0082A01D07F2A20D1216942
:101CE0006268914200D864E700238668B618F75C02
:101CF000202F13D101339F18B942F8D80426032BA3
:101D000000DC033E891B32001FF0A0FE01273000DB
:101D100005F058FD23699E1B266178E00126F1E756
:101D2000092A28D1636822698068D11AC0184E4AEE
:101D300003AB0EF0E9FA061E00D13AE70027431C78
:101D40000BD1A06920F0BEF963682269D11A22681C
:101D50009068C01805F012FD4FE723692068F91854
:101D6000039B01375A1C03921A781FF055FEBE429E
:101D7000F3D1350041E71300203B5E2B00D918E773
:101D800021691FF052FE012537E7012D08D10423F8
:101D90004F2A03D002235B2A00D00023A36008E768
:101DA000022D20D11300303B092B03D803232275C9
:101DB000A360FEE60023A360412A00D152E7422A35
:101DC00000D139E7432A00D101E7442A00D1EBE6EC
:101DD000482A12D0462A00D0EBE60027019B226950
:101DE0003E009D1A0EE00021032D29D17E2A24D128
:101DF000237D312B01D0372B0DD100252F002369F6
:101E000062689E1A0023A3609E4200DD7FE7002FD8
:101E100000D1E1E6F1E61A00FB25343A2A42DCD093
:101E2000332B0AD12169019B994206D201221FF06E
:101E30000DFE002501272E00E4E700252F00FAE71C
:101E4000042D04D1462AC8D0482AD6D0A5E7A160DF
:101E5000AFE6002501262F0059E7C04650010020BB
:101E6000802E002033720300F48B020030B507246B
:101E70000278084DA24314000222224302707F22FE
:101E8000039C41602240D400028883602A402243A0
:101E9000028030BD07FCFFFF10B50B00072401785E
:101EA0002340A14319437F23017004990A4C0B403E
:101EB000D9000388426023400B430380039B0468DE
:101EC0005905064BC90A23400B430360029B8360FC
:101ED000059BC36010BDC04607FCFFFFFF03E0FF8A
:101EE0000139C9B2054B401880301970044A037893
:101EF0001370044AD25C044B1A707047D22D002034
:101F0000D32D002037090300D12D00200131C9B2A3
:101F1000054B401880301970044A03781370044A46
:101F2000D25C044B1A707047D22D0020D32D0020B4
:101F300037090300D12D0020074B984206D9074BE3
:101F40001818074B4118C91808787047054B18181E
:101F50004118054BF7E7C046A4920000780703003C
:101F60005B6DFFFF8CF702000083FFFF0300202260
:101F7000F0B57F254F265F27803304001A7089B0A3
:101F800003007F3019780A002A406F2A29D90A00F5
:101F90003A401900013381310A709842F2D17F2210
:101FA000BB4B1A702300643AFF331A70E43202927A
:101FB000531CDBB204936B46B6481B7CB6490370D6
:101FC000049BE31880331B780B705B2B0ED19B2294
:101FD000029B0A700133DBB20370E254012009B0A6
:101FE000F0BD5F2AD5D90A003240D2E72E2B13D19B
:101FF0000232D2B20270A21880321278A448027063
:10200000A648825C0120024206D1029A0B70121887
:10201000D2B20292A354D7E102209D4A13709F4A84
:10202000D25C104000D0A8E0002A19D19948203293
:1020300003780A70E31880331A70029B0133DBB215
:1020400002936B461B7A0370029B782B01D8E254F3
:10205000BAE19B23029AA3546B461B7C0B70BDE72D
:1020600016007F2552B2AE430E70002A03DB8C4B64
:102070008C4A1A60B3E7413B8B4ADBB28B49D25C96
:10208000CB5C120213430393039B002101339BB2E9
:1020900018000393FFF750FF0306F5D50123002630
:1020A00001277B4D2B7039000398FFF745FF7B1C00
:1020B000DBB20193282862D1002E00D02F702D783A
:1020C0000135EDB229000398FFF736FF6B1CDBB238
:1020D000292857D17F26069306990398FFF72CFFEE
:1020E000069B30400133DBB23D284DD16A466A4B36
:1020F000127C1870674B00261A706A46644B12797E
:102100001A70049B0593059B0199E31880331B7893
:1021100003980793FFF710FF079B9842B4D1019BE8
:102120000133DBB20193AB4230D1002E03D06A46BB
:10213000584B127D1A70049D013FFFB2544B390079
:1021400003981F70FFF7F8FE534E030600D509E110
:10215000504B7F211870514B1B5C1A005BB28A43B5
:102160003270002B18DA4B4B013DEDB21D70631934
:1021700080331B789842DFD086E74D4B83E70126FA
:10218000019F90E71D009DE70693A5E7059B0126AB
:102190000133DBB20593B6E7307020281BD023282B
:1021A00025D02E282CD0262832D040284ED05E288C
:1021B00056D02B285CD03A2800D030E120262900C8
:1021C0002000FFF78DFE344A137833401370B3D0EC
:1021D000304B1D78F3E729002000FFF781FE002334
:1021E000F356002B00DA4FE72A4B1D78A4E72900AD
:1021F0002000FFF775FE402233781342F4D143E705
:1022000029002000FFF76CFE33781B07ECD43BE776
:1022100029002000FFF764FE10223378134033704A
:10222000E2D11C4B1B78E1188031097831704829C4
:1022300000D029E7013B1749DBB20B70E31880336C
:102240001B789343432B00D01EE7CDE729002000E5
:10225000FFF746FE0422337813403370C4D113E7EE
:1022600029002000FFF73CFE33789B06BCD40BE727
:10227000084B013DEDB21D70651980352B78452B5B
:10228000B2D010229343492B00D0FDE6ACE7C04604
:10229000D32D0020D22D0020D12D0020370903009E
:1022A0006400002078F70200BD090300A3090300C1
:1022B000A59200006B1C934ADBB21370E3188033C5
:1022C0001B7891490B70452B36D1A81CC0B223183E
:1022D00080331B788D4E33708D4EF656002E02DB08
:1022E000884B1D783FE010700B70522BF8D0532BA9
:1022F000F6D0442BF4D04C2B08D10335EDB2157039
:10230000651980352B78592BEAD0BDE6462B00D0D5
:10231000BAE6EB1CDBB21370E31880331B780B704A
:10232000552B00D0B0E60435EDB215706519803537
:102330002B784C2BD4D0A7E6492B00D0A4E6AB1CBD
:10234000DBB21370E31880331B780B704E2B00D078
:102350009AE60335EDB21570651980352B78472B59
:10236000BED091E6059D6A46019B03980133DBB21E
:1023700001931279654B01991A70FFF7DDFD019BFE
:10238000069A604F934221D100257F272E000199A4
:102390000398FFF7D1FD03003B403D2B04D0029A88
:1023A0000132D2B20292A354019A0132D2B2010692
:1023B00000D4A3E0002E03D06946544A0979117075
:1023C000514A1370059B0493049AF1E5504B7F2109
:1023D0001B5C4D4E1A005BB28A4338703270002B82
:1023E00008DA0135EDB2631980331B783D70834202
:1023F000B9D049E63070202816D023281ED02E28C8
:1024000026D026282DD0402848D05E2851D02B2811
:1024100058D020263A2864D0252800D14AE73D4BE1
:102420003D4A00201A60DAE529002000FFF76EFD22
:102430000023F356002B00DB52E725E6290020009D
:10244000FFF764FD40223378134200D048E71BE6D3
:1024500029002000FFF75AFD33781B0700D53FE71E
:1024600012E629002000FFF751FD102233781340B7
:10247000337000D034E73B78E1188031097831704F
:10248000482900D000E60133DBB23B70E31880330B
:102490001B789343432B00D0F6E521E72900200069
:1024A000FFF734FD042233781340337000D017E770
:1024B000EAE529002000FFF729FD33789B0600D5C7
:1024C0000EE7E1E50135EDB23D70651980352B78F9
:1024D000452B00D104E710229343492B00D0D3E5CC
:1024E000FEE629002000FFF711FD074A137833406C
:1024F000137000D137E7034B1D78F2E701920126F4
:1025000045E7C046D22D0020D12D0020D32D00203C
:10251000370903006400002082F7020010B50400B0
:10252000002906D0044B8A6B03600968002311F070
:1025300095FF200000F040FFC0DC0200F0B5040071
:1025400087B0039202936618002A06D0023A222A24
:1025500003D9354810F098FA0134B44229D22078D2
:102560000BF008FB071EF7D123782B2B1CD101346D
:10257000311B200003AA21F09CFC23181C0000251D
:102580000193B44217D3002F00D06D4201236D0098
:102590001D43019B9C422FD12449039A244811F0EA
:1025A000F1FE0299FFF7BAFF2D2BE1D1013401278B
:1025B000DEE70027DCE723781A00303A0092092A88
:1025C00007D9202213431A00613A192ADBD8573B56
:1025D00000930399009B9942D5D928000BF022FB68
:1025E000002816D1039B5D43009BED186B006B40E8
:1025F0000FD40134C5E70134B44205D220780BF082
:10260000B9FA0028F7D1C7E7B442C5D1280007B00E
:10261000F0BD019B3A000593F11A05A8039B20F039
:10262000DCF9059C0500B4E70E0A0300310A03003B
:10263000B0DD0200F0B504008BB00893431804929B
:102640000193019B9C4200D3F6E020780BF092FAB4
:10265000071E38D123782B2B37D101340590019BED
:102660009C4200D3EAE0202322781A43692A33D11E
:102670000199A21C914200D8E6E062781A436E2AC2
:1026800000D0E1E0A2781A43662A00D0DCE0E21D27
:10269000E51C914214D9E2781A43692A10D12279B3
:1026A0001A436E2A0CD162791A43692A08D1A27999
:1026B0001A43742A04D1E2791343792B00D10535EA
:1026C000FF26F6051BE00134BBE705902D2BCAD190
:1026D0002C3B01340593C2E76E2A2ED10199A21C2E
:1026E000914200D8B0E062781A43612A00D0ABE092
:1026F000A27813436E2B00D0A6E05D4EE51C059B2F
:10270000002B02D080231B06F618A5427BD1594925
:102710008CE03D002B786F1C18003038092834D825
:10272000022E15D10A23029A53431B180293019BD0
:10273000BB42EED8002304934DE0002207920292A0
:102740004D4A250006920022002603920993E1E7F4
:1027500018F0DAFC051C012E0DD1069918F05EF96F
:10276000011C039817F0E8FD43490390069818F000
:1027700055F90690DBE74149039818F04FF9291CF9
:1027800017F0DAFD00260390D1E7002E03D12E2B9F
:1027900003D10126CBE7022E16D0099A1A43652AE7
:1027A00012D1019BBB4256D96B782B2B05D1AF1CA4
:1027B000019B9F42ABD00226B9E702262D2BA8D160
:1027C0002C3BAF190793F3E7049A002A04D0202288
:1027D00013436A2B13D13D00079B002B02D0029BB1
:1027E0005B420293029818F045FC011C23481AF042
:1027F000D3FE039918F012F9049F061C7FE700230B
:102800000493E9E70135019B9D4205D228780BF03E
:10281000B1F90028F6D17AE7019B9D4200D076E716
:10282000089B002B01D1002F1AD01549154823F021
:1028300010FD1099FFF772FE002305930023039308
:10284000002325000493CCE7059B002B00D15EE715
:102850002500002656E7019BBB4200D157E769E7F8
:10286000032302209E43084B3043C0180BB0F0BD39
:102870000000C07FF4090300CDCCCC3D0000204116
:10288000D7090300B0DD02000000808010B50D4CB8
:10289000206824F03EFA002807D00B4B1B78002B51
:1028A00003D1206803685B6898470023074A1370C8
:1028B000074A137013F0D6FA0AF038FF0EF010FA38
:1028C00010BDC0468C290020D72D0020D62D002019
:1028D000C62D002070B5050094B0002804D13F48F3
:1028E0001DF0DAFB14B070BD08A800F03FFD041E17
:1028F00019D12E68290004A8012211F01BFF230022
:102900002200310004A80AF0CFFB04000320FEF7E8
:1029100015FA200022F094FE01204042FEF70EFA44
:1029200000F042FDDEE701204042FEF707FA099978
:102930002B4804F0C9FF099804F08AFF29490400D4
:102940000EF088FE0028CDD1274920000EF082FE2F
:102950000028C7D1099C01AA6946200011F0B2FDE8
:1029600002AA322104A803F027FB009B022B05D901
:10297000019B1E495A6802A81EF03FFA200004F08D
:1029800067FF1B4BC2689A4210D1236819495A68E5
:1029900002A81EF032FAE368002B07D05A68002A1A
:1029A00004D00022996802A804F06AFF0320FEF711
:1029B000C5F904A81EF0ECFF04F02CFF04A81EF0DB
:1029C000BBFF01204042FEF7B9F90B4B9A6C002A7D
:1029D00000D187E700229A6484E7C0468F0A03008B
:1029E000F48B0200FCDC0200A4DA0200BC0A030043
:1029F00045420100C50A0300802E0020F8B54E4C68
:102A00001321200025F070FA2000032125F090FB0F
:102A10004A4C01234A4A1321200016F03DFF0122AF
:102A20000221200016F068FF464C200013F002FD42
:102A3000454F3860200013F013FF444D28601020EC
:102A400025F044FC040029680025414E3A68330013
:102A500014F046FA3F4B1C603F480CF0A3FAE1200B
:102A6000C0000CF0AFFA3D493D4810F0C9FC0FF032
:102A7000B3F904F04BFEFFF737F813F049FB3000D1
:102A800024F08EFD21F0ACF90DF0ECF800F04AFADC
:102A900002F0D4FB0EF0FCFF324C334823008833A5
:102AA0001D60FDF7DBFBFDF7B7FB0FF003F82F4FC1
:102AB0003B78012B0ED1002307211A002C480DF082
:102AC000D9F9031E1DD00100F72040000DF05AFB7C
:102AD000FFF700FF3B78002B2AD101F00BF800280C
:102AE000F8D024481FF0EEFAFDF7A6FB08220021DB
:102AF000214825F071FC230098348C331D6025603B
:102B0000AAE7F822920211784D2909D1517850296B
:102B100006D1F72052881949400021F073FBD7E70E
:102B20000122174917200FF0E7FE22F0B3FDD1E78D
:102B300001F030F8D3E7C0466C290020842900203A
:102B4000FB1102000C2A0020882900208C2900207B
:102B50009429002090290020004000206C290020AA
:102B60006C010020802E00208D280000D80000205D
:102B7000C90A0300D10A0300002F002004E003006B
:102B80008C9B020010B5084C084A0621200014F066
:102B900079FA074A0749200025F089FB00221E2107
:102BA000054824F007FD10BD942900206C92020016
:102BB000000000203D7001000C2A0020C37902486B
:102BC000002B00D10148704730DE020028DE0200F1
:102BD00010B50DF00BF8014810BDC046F88C02008E
:102BE00010B508680DF002F8004810BDF88C02001E
:102BF00073B50D00022836D1012601A9686806F0D8
:102C0000C1FD76423400019BC318834212D101A951
:102C1000286806F0B7FD7342734162426241DBB23D
:102C2000D2B201990DF026F9002820D1104911489F
:102C300022F051FD0278722A01D0772A06D1611C58
:102C40000ED1723A544254410130DEE7622A01D07B
:102C5000742A05D1711C03D1743A56425641F3E7E8
:102C600005480FF011FF012676423400CFE776BD0C
:102C7000EC0A0300D0DB0200DF0A0300F7B5CC1C2E
:102C8000A400070020000E0001921EF03FFB22006E
:102C90000500054B4760866003600C3A01990C30D3
:102CA00025F07EFB2800FEBDA493020070B5040051
:102CB000080004F0B5FE0500431002D00F480FF0E5
:102CC000E3FE0F49200008F0AFFC002807D0A02247
:102CD00003216379D205C133FF339B00995001234F
:102CE00062799340A022D205002D04D0A121C90011
:102CF0000448535070BD0449FAE7C046480B03002E
:102D0000B8B70200F88C02000C05000070B5050091
:102D1000080004F085FE0B2303410400DB0702D406
:102D200009480FF0B1FE2800084908F07DFCFF2299
:102D3000A40092001440A0226B79D205C133FF3366
:102D40009B0003489C5070BD1A0B0300B0B70200F3
:102D5000F88C020010B50C49040008F065FCA022B4
:102D6000D205002805D004216379C133FF339B00CD
:102D7000D150A223DB00D0586379D84001231840FA
:102D80001FF005FE10BDC046B0B7020010B504002C
:102D900008F016FC0A4B984205D00A4B984202D024
:102DA000200008F01BFCA0226379D205C133FF3359
:102DB0009B0098580007800F1FF0E9FD10BDC0462A
:102DC000B0B70200C8B70200032370B50B4004007F
:102DD0000800022B14D1194B0B40062B10D004F025
:102DE00083FE19F021FF0022154B18F0CDF919F0E0
:102DF000ABFE144B0500984205D913480FF044FE72
:102E000004F00EFEF5E71149200008F00DFC002843
:102E100007D0A02203216379D205C133FF339B0081
:102E20009950607929000EF073FE002D03D10849F6
:102E3000200008F0F9FB074870BDC046070080FF7E
:102E40000000E03FFF030000270B0300F8B702007B
:102E5000A8B70200F88C020013B50A49040008F074
:102E6000E3FB05216846615616F0F8FD684616F04A
:102E70001BFEA0230021044ADB00D1501FF087FD78
:102E800016BDC046A8B702000070004010B508008B
:102E900004F0C6FDFA239B0058430EF015FE0028EF
:102EA00002D002480FF0F0FD014810BD0B0B0300EB
:102EB000F88C020010B5080004F0B2FD0EF004FE1C
:102EC000002802D002480FF0DFFD024810BDC046C6
:102ED0000B0B0300F88C020010B5040008F070FB27
:102EE0000C4988420DD00C4B98420AD0200008F0C3
:102EF0009BFBA02200216379D205C133FF339B00E5
:102F00009950200012F0F8FF044B002800D0044B29
:102F1000180010BDE0B70200C8B7020030DE0200A2
:102F200028DE0200A0230C220249DB055A5024317E
:102F30005A5070474407000010B5040004F088FCA4
:102F4000064B984208D0064B984205D0054B984254
:102F500002D005480FF05CFF200010BDA0960200D3
:102F60005895020094950200FB0A0300F0B54868EA
:102F700087B00F0004F054FD041E02DA00200FF0A9
:102F800083FDBB68164A01939D186B1E9D4101008D
:102F900002A81EF0C0FC049E22000021300025F093
:102FA0001BFA3868EDB2C3070AD4330022002900A7
:102FB0001FF0BAFC02A90B4805F056FF07B0F0BDA0
:102FC00043102000042C00D904200749019F00224F
:102FD0008F4200D0221AB21829001FF0C4F9E9E785
:102FE0005AECFFFF5CA50200A6130000F0B50C0030
:102FF00087B0012203A9606804F0CCFEA3681349DE
:10300000039A8B420DD10126049976424C1E019100
:103010001419049900200D00002D05D11FF0D2FCD9
:103020000DE014000126F4E7094F013DB84208D92C
:1030300008481B18581E8341D8B21FF066FC07B021
:10304000F0BD277800023843A419E5E7A613000075
:10305000FFFF3F005AECFFFF70B546007508041CE7
:10306000291C281C17F0D0FF00280BD11649281C5A
:1030700017F054F8002808D01449154823F0E9F84F
:1030800000F09AF913480FF0FFFC002C11DA002E23
:1030900012D0FF23DB05E3189C22D20593420BD903
:1030A00007F02AFA211C0500043021F05DFB2800FE
:1030B00070BDE30DDB05EFE7201C17F0BBFF01251A
:1030C00040000543F3E7C046FFFF7F7F6D0B030021
:1030D0000CDC0200860B0300F0B50C00002585B067
:1030E000110020001E00009502232A000EF0E0FDD2
:1030F0000120AC422BD0844231D13068204226D10D
:1031000003230340AB4203D11C4A016891421ED005
:103110001B4A0240062A06D0002B0DD10268194B2B
:1031200092699A4208D103A906F02CFB00231A00E9
:103130000399FFF703FA0AE0032302001A40022A68
:1031400007D1FF22D20580189843FFF785FF05B00D
:10315000F0BD04F065FC012340001843F7E703A924
:10316000306806F00FFB04007068039F04F058FC01
:103170002B00020039002000DBE7C0461C9702004C
:10318000070080FF219D0000F8B51F000B4B1500C4
:1031900059180139097816F0E7FD00260400B742F6
:1031A00004D00130032116F0DFFD0600281E01D0F7
:1031B00025F066F90334A4192018F8BD5D0B03004F
:1031C000F0B58DB00A9214AA147815AA12780600E8
:1031D0000F000792DA0743D55D100023002D01DAB6
:1031E0002D236D420693139A079B12992020FFF717
:1031F000CBFF3B680590834204D21EF087F8059B05
:1032000030603B6000213768059BFB185A1E117027
:103210008D4241D00A3C099208920B9412992800E1
:1032200016F028FE0B003033092901D90B9B5B18DF
:10323000089A541E2370079B002B4AD000282ED0DA
:10324000A7422CD2099B1B1B032B06D16B461B7F6D
:10325000013C2370A74222D2099405000894DDE7BF
:103260009A0712D1244A196891420ED1079A029402
:103270000392139A39000192129A00920A9A1FF04F
:103280001AFB040020000DB0F0BD0023326813705B
:103290000A9A34681360F5E79C1E30232370139B51
:1032A000002B05D0180025F0EBF8201A874220D318
:1032B000069B002B05D0BC4203D96B461B7E013C0C
:1032C00023703368059A9B181B1B0A9A013B1360F5
:1032D000D8E7A742E3D20028BFD1E0E7C2540133C8
:1032E000139AD25C002AF9D1069B0400002BE4D18A
:1032F000E7E70023F4E7C0461C9702001300144AD6
:1033000010B50400934204D1012220000FF0C4FB49
:1033100010BD104A934201D10322F6E70020072C8A
:10332000F6D10D4A1A40062A0ED09A07F0D11A6833
:103330000A4CA24208D00A4CA24205D0094CA24233
:1033400002D0094CA242E3D10A0007201900DDE7B0
:1033500028DE020030DE0200070080FF5CC60200AB
:103360005CA50200949B020048980200C4600561BD
:10337000466187614146C1614946016251464162E9
:10338000594681626946C1627146816000490847B9
:10339000993300000020C046024B9A680260986092
:1033A00000207047802E0020024B9A6812689A60B5
:1033B0007047C046802E00200E4A9368002B01D132
:1033C0001DF02EFF196858609160181CC4680569CB
:1033D00046698769C1698846016A8946416A8A46A1
:1033E000816A8B46C16A8D4681688E46012070478E
:1033F000FEE7C046802E00200048704716FCFFFF05
:103400000048704716FCFFFF82B007B591B20492E6
:103410000593052909D01B2902D104A8FDF736FF21
:10342000002003B008BC02B0184704AB5B88032B34
:10343000F6D106A90822684624F0B2FF0349049A8F
:10344000059B086813F0A8FBEAE7C0469029002016
:103450000022044B5A60044A08321A60034A13607F
:103460007047C046242A002058970200A02B002055
:10347000002803D0012807D0002004E08B6804480E
:10348000002B00D1034870478B685B001843FAE7B4
:1034900030DE020028DE0200044B88600B60044B23
:1034A00008004B600023CB607047C04668CC020028
:1034B0007313020000238168F0B5CA0F094C52183B
:1034C00052100E199A4201DC0748F0BDC568F11A86
:1034D0009C0089002C196D5827682560C468013349
:1034E0006750EFE7FFFFFF3FF88C020070B583687D
:1034F0000D00416804008B4212D3C900C0681DF062
:1035000023FF63680A495A00A3686260D21A013334
:1035100052189B00E0609200C018002124F05CFF6C
:10352000A368E268591C9B00A16002489D5070BDD1
:10353000FFFFFF3FF88C0200F8B5070016004C10A3
:10354000836812D5E41810D500240D4D38002900E9
:10355000FFF7CCFFBB68591E9B00FA68181F8C420E
:1035600007DBA4002800A650F8BD9C42EDD91C0042
:10357000EBE7D318083B1B68013913500300ECE755
:10358000F88C020070B50025040085601021C06829
:103590001DF0DAFE04232900E0606360102224F0AD
:1035A0001BFF014870BDC046F88C020030B50C000E
:1035B00085B0104B02AD0431009301380223019510
:1035C0000EF0A6FB23680C4C996801290FD9D86826
:1035D0000A4B029AC91889004118A24200D1002260
:1035E0002D79074B002D00D1064B1DF0D0FE200099
:1035F00005B030BD6C970200F88C0200FFFFFF3F62
:1036000028DE020030DE020070B50C680B00A168F5
:103610000200002903D11949194822F05CF82068FA
:10362000012A27D05A68002304F0D2FAE168A26880
:1036300086008B19013A1D680436A260121A9200A6
:103640008919180024F0B5FE0021A368E0689A00EB
:103650001150616804290BD95B00994208D94908C7
:103660008900E0681DF070FE6368E0605B086360DD
:10367000280070BD01225242D5E7C0469F0B0300CF
:103680002CDA020007B500900191022069461DF076
:10369000E6FE694601900220FFF7B6FF00480EBD26
:1036A000F88C020070B50E000D49050000241DF0D5
:1036B000E3FAB368A34204D828000A491DF0DCFAF3
:1036C00070BD002C03D0084928001DF0D5FAF16820
:1036D000A30001225958280004F0D2F80134E8E789
:1036E000F3720300056E030075F7020070B5032640
:1036F00004000D000E4029D1174B0A689A4225D1CB
:1037000083688A6899184368994210D904318900FE
:10371000C0681DF019FEAA68A368E0609B181A1D16
:103720009B006260C0181022310024F055FEA3688F
:10373000E9689800E3681818AB689A0024F030FE36
:10374000AB68A268D318A360044870BD29002000AC
:103750001DF08EFEF8E7C04648980200F88C020083
:103760000B4B70B5050003600C000800042900D263
:1037700004206860AC6080001DF0C8FD6A68E860E5
:10378000121BA40092000019002124F025FE70BD38
:10379000489802007FB50D00160012283ED005D8CB
:1037A000052819D007283FD0002434E00300193B36
:1037B000042BF9D893070DD1284B12689A4209D1EE
:1037C000B36800938A68F368C968FDF709FE244C62
:1037D000002820D1234C1EE0032300241340A342E1
:1037E00019D11C001D4A3368934214D18B68B2680A
:1037F00098181DF056FE0400AB68E9689A00C0688E
:1038000024F0CEFDA868E36880001818B368F1685A
:103810009A0024F0C5FD200004B070BD11002800FE
:10382000FFF764FF2C00F6E703A9100004F036F957
:103830000024A042EFD0039BA34200DA0394AB68BC
:10384000039858431DF02DFEC36804000093AA6836
:10385000039B0421E8681DF04CFBDCE7489802005C
:1038600030DE020028DE0200F0B5032704008BB032
:103870000E0010000F40002A33D1002F2AD1654BD3
:103880000A689A4226D104AAA068FDF72DFD0028F7
:1038900002D161480FF0EAFA0599049BA268E0683A
:1038A0005D1A521A9B00890041189200C01824F03A
:1038B00080FDA368AA00E818E36880001818524247
:1038C000390024F089FDA3685D19A560534D2800D7
:1038D0000BB0F0BD07A9022007940896FFF794FEED
:1038E000F4E7042A2CD1A068002F1FD1494B0A68A5
:1038F0009A421BD107AAFDF7F7FC002806D107AAB8
:10390000E168A0681DF008FB0500E0E7079B089848
:10391000C01A1DF0C6FD8368E1689A00079B050088
:103920009B00C918C06824F03BFDD0E700230100CC
:103930003200206804F04CF9E3688000C558C6E7FF
:10394000364D002F60D1334B0A689A425CD103AAEE
:1039500002A904F007F907AA3100A068FDF7C4FC2A
:10396000002896D0079B029A08999E180191761A12
:10397000E068002E27DDA368F1186368994206D934
:1039800089001DF0E1FCA368E0609B196360029A66
:10399000079BA1689B18F21A52180899E0689B00CF
:1039A000890041189200C01824F003FD029B03997E
:1039B0009A00079B9800E368181824F0FAFCA368A3
:1039C0009E19A66083E79B000399C018920024F01B
:1039D000E7FC0899A268E368521A89000193591814
:1039E0000798029B9200C018019B8000181824F0D1
:1039F000E0FCA368B200F018E36880005242181897
:103A0000390024F0E9FCDAE70200310020001DF063
:103A100089FD5CE790D70200B40B0300F88C02002C
:103A20000023F0B52F4E93B0050006A814003360B4
:103A300001910127FFF79AFC2740031E35D1E206CA
:103A40002DD56A68A968112020F0DCFB05002E68DE
:103A500029000125019A03A810F06CFEA3082B4051
:103A60000022310003A809F01FFB04000320FDF72A
:103A700065F9200021F0E4FD01204042FDF75EF9E8
:103A80002C00FFF791FC002F24D02900164803F0EA
:103A900075FE3C000121144803F070FE1AE0A306F5
:103AA000D5D5280021F0CBFBD0E701204042FDF71F
:103AB00045F9002F03D001210B4803F05FFE079862
:103AC00003F0C6FE09490DF0C5FD041E05D034689B
:103AD000002FDFD1200013B0F0BD0799044803F098
:103AE000F3FEF5E72C2A0020B30B0300FCDC0200F8
:103AF000F48B020010B586B0202102A880241DF0AE
:103B0000F9FE64001E481EF0DDFA00231D480393F1
:103B10001EF0D8FA03F01AFE0128F3D002280BD1C8
:103B200019481EF0CFFA02A81DF006FF012200205E
:103B3000164B1A7006B010BD032802D10023039360
:103B4000E8E7042804D0C1B202A81DF033FFE1E782
:103B50000F481EF0B7FA039B0193002B08D10A48C7
:103B60001EF0B0FA02A81DF0E7FE80204000E1E759
:103B70001122012102A8FFF753FF2042C5D0D9E747
:103B8000720C03005974030033720300D800002044
:103B90008D0C030030B587B0202102A880251DF0D0
:103BA000A9FE6D0037481EF08DFA37481EF08AFADC
:103BB0000024364902A803941DF0D8FA01280AD13E
:103BC00033481EF07FFA02A81DF0B6FE2000314BEC
:103BD0001C7007B030BD022803D12D481EF072FAC8
:103BE000E0E7032801D12A48E0E7042808D1284863
:103BF0001EF068FA02A81DF09FFE80204000E8E752
:103C0000052827D124481EF05DFA039403F09EFD99
:103C10006B46C1B2DC1D21700329E4D004290AD10E
:103C20001B481EF04FFA0121162202A8FFF7F8FEEA
:103C30002842BDD0CDE702A81DF0BCFE23780D2B95
:103C400003D116481EF03EFAE0E70121200003F000
:103C500095FDDBE7039B002BAAD002A81DF098FE80
:103C60000CF09CFA00280BD00A2102A81DF0A2FE3D
:103C70000B4902A81DF07AFA0328B4D00428ECD12D
:103C80000021D1E7B50B03000B0C0300310C03003E
:103C900033720300D8000020360C0300660C0300CA
:103CA0006D0C0300F0B58FB00692426809939446FC
:103CB0000368040002939B6804300093634403602C
:103CC0000E001DF03CFC059060681DF04EFC431C8E
:103CD00063600378A24A0193831C636043780021E8
:103CE0000093C31C63608378B5000393031D636076
:103CF000C3782000049323001033A360059B143085
:103D00009A1893000793C318E360079B0C331A00BB
:103D1000089324F061FB099B009A5B190B93059BA8
:103D20009B1A039A0A939D1A2F1D009ABF00E71948
:103D30000123B24264D2019A1A4207D13300009A99
:103D40008849894810F01EFBFFF736FB009B0335BE
:103D50009900099BAD005918009B6519F01A01F0F4
:103D6000A7F8009E043F68600022964200D070E0F1
:103D7000069B002B03D1019B1B0700D4D6E0022336
:103D80000026019A1A400992B24204D0069820F007
:103D9000DDFA060038600027029B0B9DDB68089364
:103DA000069B9F425ED10A9B029805339B00E11857
:103DB0000A00049D0C30002D00D080E0049A92008F
:103DC0008918079A2032A2188A4200D980E0143B51
:103DD0000693009B089A9B00D3180793039B9D4270
:103DE00000D27FE065680DA80D951DF0A8FB28188E
:103DF0000578461CFF2D00D0A7E066600FB0F0BD2F
:103E0000019A1A4205D00335AD00584B6519043F9D
:103E10006B60069B002BA7D1019B1B07A4D4009BC2
:103E2000049A9A1AB24212D8009A049B991A320044
:103E30008900009B9A4297D29300029D5818281837
:103E4000089D0069EB1AE31818610132F1E73300AD
:103E500076E7099908989300C958C31AE3181961BD
:103E6000013282E7009B039800221B189C462968B8
:103E7000944505D8099B002B1CD1CA083C490EE08B
:103E8000089B90001858884212D1059B013B9B1A51
:103E90009B00E3185A69002A05D0CA083549324800
:103EA00010F070FA50E76A685A610137083577E711
:103EB0000132DDE76A68300020F081FAF5E7166824
:103EC000002E02D1AE0086591660013D043272E721
:103ED000081D0968002903D1121A92102649DEE74D
:103EE000010071E7069AAB00D71AE7193A69002A70
:103EF00016D1082000996E180899B6008E190799F6
:103F0000C958019B03420DD0049B029804339B00C7
:103F10001858043000F086FC002803D043683B6149
:103F200001355BE732681549D208B8E7039B002BDF
:103F300002D013480EF06CFF019B9B0700D451E7A1
:103F4000039820F003FA38604CE7ED43059BED1829
:103F5000AD00651968690AF06FFF6861300047E7D6
:103F6000FDFFFF3F54F6020038DD02008C9B02008B
:103F70008DF60200AEF60200900C0300C20C0300A6
:103F8000F20C030001220020074B08495A60086028
:103F9000A821DA60064AC9005A5006495A5004312D
:103FA0005A5005495A50704700A000400CAC0040E0
:103FB000FCFF0000440500004C050000034B0448D2
:103FC0001B78002B00D103487047C046D52D002038
:103FD00030DE020028DE0200F8B5A826324A334B54
:103FE000F600196813680420CB18C9181160304A0C
:103FF0008C4612781B11170009112E4A2E4C2F4D9A
:10400000002F48D0002B3ADA9051C31AA920C000E3
:10401000135081239B00002937DA591A135151514B
:104020000123274CD3602378002B22D03F22254840
:10403000254B01688C331B6801310A409D5C1C4B89
:104040001B78002B01D0803D6D001C23026062466E
:104050006B4308339B1A154A9B1013601F231940AA
:1040600007D11A4B1A78002A03D019481970FCF7A7
:10407000FBF901232278042053402370F8BDA927BF
:104080000433FF00D0519351C3E7535181239B0068
:10409000C9181151C4E7043390515351A920812309
:1040A000C0009B001350F3E7302A0020402A002074
:1040B000D900002000A000404C050000440500008D
:1040C000D42D0020342A0020802E0020DA00002089
:1040D000D315020030B585B001220400080001A903
:1040E00003F058FE029A202A00D920220023019DC5
:1040F000934204D0E85CE11808710133F8E7014805
:1041000005B030BDF88C020070B504000800150041
:1041100003F086FC1F2802D90C480EF0B5FC002DD8
:1041200002D10B480EF074FE2418042D04D1012096
:1041300023795B00184370BD280003F071FCFF2851
:1041400001D90448E9E720710348F4E74B0D030067
:104150005F0D03008C200300F88C02000123A022D5
:10416000834010B5134CD20513510300C133124CD8
:10417000FF339B009C50114B8900C918A223DB0020
:10418000CA580F4C00022240CA50F8225201104077
:10419000C022CC589202224310430322C850CC586C
:1041A000084822432043C850C046C046C046CA50B3
:1041B00010BDC0460C050000030300000060004075
:1041C000FFE0ECFF031F0000A0221E21114BD200D4
:1041D00070B59C58104D8C439C50A324E4001D5195
:1041E0000E4C0F4D0F4E5C5104355E510E4D80004C
:1041F0005C51A5240D4DE4001D51084C0C4D0019D7
:104200000C4C185104341D510B4C18519858014353
:10421000995070BD00F0014040A100400060004096
:104220001C05000044A100402405000048A10040F6
:104230004CA100402C0500003405000010B504001E
:104240000A4907F0F1F90A4BA0211C6001236079AB
:10425000084A8340C9058B500021FFF77FFF0020EB
:10426000FFF7B2FF0022044B1A7010BDD8B702004E
:10427000382A00200C050000D900002070B50D0080
:104280000400134E2800310007F0CEF93100200061
:1042900007F0CAF90F4BA0221C600F4BD2051D601E
:1042A000607901242100814026000C4BD1506979AE
:1042B0008E400021D650FFF751FF68792100FFF7AB
:1042C0004DFF2000FFF780FF054B1C7070BDC046FE
:1042D000D8B70200382A00203C2A00200C05000034
:1042E000D9000020F8B50025FFF74CFE214B28002F
:1042F00090331D60FCF786F8A0221E201E4B1F493C
:104300001D701F4BD2001D601E4B1F4C1D608B5833
:104310001E4F83438B50A223DB00E2581C4E3A40D1
:10432000E250E2581B493243E2500122E5501A4B59
:10433000186843799A401300A022D205535007F021
:104340005DF9164B1B78AB4213D0154B1149E2585F
:104350001740E750E25816430122E650E550114B52
:10436000186843799A401300A022D205535007F0F1
:1043700045F9F8BD802E0020D52D002000F0014029
:10438000302A0020402A002000600040FFE0ECFFBF
:10439000001F03000C050000382A0020D90000206F
:1043A000140500003C2A0020F0B53E4E8DB03300CD
:1043B00090331B680500002B03D1FFF793FF0DB06E
:1043C000F0BD002801D00FF045F86846FEF7CEFF9B
:1043D000002822D13300903318680DF05FFF0400ED
:1043E000FEF7E2FF002D01D00FF03EF82E4B202209
:1043F0001D6833006D118C3301356D011B6815404C
:104400005D19002C2DD1903621002800346023F056
:10441000E3FF0122254B1A70D1E7002D01D00FF0E8
:1044200023F8019B224918680DF014F900240500B7
:10443000A042DBD1019F380003F00AFA1D4B9842DD
:104440000BD12900012000F033FD2A000400F860A0
:104450001F21194804F03EFDA060019B0024B364B5
:10446000C4E7200003F0F4F9144B984209D033005C
:1044700000229033124913481A6021F0EAFEB0641A
:104480009DE763682B60A3686B60E368AB6023699A
:10449000EB6063692B61A3696B61E369AB61236ABC
:1044A000EB61B6E7802E0020342A0020DA000020DD
:1044B00084DC02001CDB0200190D03002C990200B1
:1044C000390D030038DD020010B5FFF70BFF01487E
:1044D00010BDC046F88C0200F0B589B00493734B50
:1044E00003901B780E001500002B01D0FFF7FAFE99
:1044F0006F4C8C342368002B06D16D4A40209032DB
:1045000013601CF003FF206080226A4BD200DA6740
:104510000122694C694BE250FFF734FD0023684AE1
:10452000F021A3500432A3500832A350C222090341
:104530009200A150634F093AFF3AA3500594BE423E
:1045400000D0A3E0B54200D09DE05F4D07AC28004D
:1045500007F05EF8002805D001235C49280023708D
:1045600007F062F85A4D280007F052F8002805D0ED
:10457000012356492800637007F056F8554D28006E
:1045800007F046F8002805D0012350492800A37001
:1045900007F04AF8002307AA5F1C9B5C002B39D068
:1045A0004D4ABB00043BD458A02203213D0063794F
:1045B000D205C133FF339B00995007ABEB5C002B56
:1045C00026D00426444BAA00D358019301226379D4
:1045D000A0219A40A123C905DB00CA50019B0533E5
:1045E000180002931CF0D5FF012811D16379A02196
:1045F00098403A4BC905C85002981CF0CAFF0028E1
:1046000006D1013E002EE1D1019949E00225D4E70F
:10461000022DFBD10123022FBDD12B48FEF78CFCCC
:10462000FFF70CFE002103980DF0FEFD002501248C
:104630003F221F4B802190331860294B1D70294B5E
:104640001C70294B1A601A4B12198C33186823F00E
:10465000C3FE2800FFF7A8FE244B144E1C60059BE8
:1046600050221C60224928003470FBF797FE049BFF
:10467000AB4219D00E4B3278002A15D09A6C002A22
:1046800012D120BFF7E71B480EF0C2FB3000FEF747
:1046900053FC0400BD42C3D02800FEF74DFC0100CE
:1046A0002000FFF7EBFDBDE709B0F0BDD52D0020E0
:1046B000802E002004E100E000A00040FC0F00007C
:1046C00004050000F88C0200D0950200A8B7020093
:1046D0001896020028960200F89802000C050000C7
:1046E000D42D0020DA000020342A00200CAC004039
:1046F000D93F0000840D030010B5084B86B002AC12
:104700000093019404230DF003FB02982379E268DF
:10471000A168FFF7E1FE024806B010BD049902004F
:10472000F88C0200014B1878C0B27047D52D0020DC
:1047300010B524201CF0EAFD0400044B202208C020
:10474000802123F049FE200010BDC0462C990200B4
:10475000F8B5070008000D00160003F079F8304B9B
:1047600098425BD1781F0F2858D815F0E9FA08084D
:104770003257575757575757575757303055FFF7F6
:10478000D7FF04230400EA5CE2540133242BFAD15E
:10479000300003F05DF8224B98423FD10121052FF4
:1047A00002D0122F00D002390422FF20B35CA55C96
:1047B000803B4B435B19FF2B03D90500DB179D435F
:1047C0002B00A3540132242AF0D12000F8BD2C0084
:1047D000DEE7FFF7ADFF04230400EA5CE254013397
:1047E000242BFAD1300003F07FF90F211CF0F6FEE4
:1047F0002100FF25221D24311378803B4343DB1326
:104800008033FF2B03D92E00DB179E433300137038
:1048100001329142F0D1D8E72C00E3E70024D4E73D
:104820002C990200F0B587B00092027804000F00C6
:10483000930703D5009B002B00D0F5E0D307DB0FD7
:104840000ED07A4B3B40062B43D003233B4003D191
:1048500077493868884203D0009B012B00D0E3E001
:10486000019353075FD52368A568DE08F600AE19EB
:10487000B54230D3009B012B00D0D5E02368D90886
:104880006368994210D104316160A068C9001CF0CE
:104890005BFD23686268DB08D21ADB00A060D200EF
:1048A000C018002123F098FD07212368DD086A1C49
:1048B000D2000B4013432360A368ED005D195B4BEE
:1048C0002F601F40062F21D00122237893432370AD
:1048D0001CE00123C4E72868B8421AD1009B022BD0
:1048E00014D129002368721BD210083B013A6F686B
:1048F00028002360D200083123F05BFD2368DD0827
:10490000A368ED005D1900236F602B60280007B0DD
:10491000F0BD019B002B04D1390003F02FF80028D3
:10492000DCD10835A4E76368002B05D1009B012B7F
:104930007AD1200000F07EF83C4B3B400593062BDB
:1049400027D1F8081EF0A7F803906168039815F0C6
:1049500091FA00260491049B0293029BDD00A36858
:104960005D19286800281BD1009B012B5CD1072111
:104970002368DA080132D2000B4013432360002E73
:1049800000D0350000236B60059B2F60062B9BD168
:10499000BCE7390002200DF0DFFA43100393D4E79F
:1049A000042803D1002E1DD12E001BE0B84211D1E6
:1049B000009B022BAAD123680298083B2360013098
:1049C000616815F057FAA368C900CB58002B25D1B0
:1049D0002B609BE7019B002B04D1390002F0CEFF36
:1049E0000028E5D102986168013015F043FA049B74
:1049F00002918B42B1D1009B012B15D1002E0FD01B
:104A0000236835000833236000237360059B3760FB
:104A1000062B00D17AE72378009A57E70423D7E7DB
:104A2000200000F007F890E700256FE7070080FFFF
:104A30005CC60200F7B54368040001935A1C0023CA
:104A400017495800455AAA4206D90133222BF8D1FA
:104A50005508AD18213B1D43E800A7681CF068FC11
:104A60000723226865601340012200252360134359
:104A70002370A060019B9D4203D138001CF075FC9F
:104A8000F7BDEE00B959002908D0042906D001224B
:104A90002000FFF7C7FEBE19736843600135E9E7E0
:104AA000F8EF0200F8B50500002304688668144991
:104AB000621C5800405A824206D90133222BF8D199
:104AC0005008821801201043002328606B6080008A
:104AD0001CF02EFC3700A400A860A419A74203D143
:104AE00030001CF042FCF8BD3968002905D00429CB
:104AF00003D0012228001CF0D2FD0437EEE7C046A7
:104B0000F8EF0200F7B545681600A8681F0001918C
:104B10001CF025FD0400A8681CF027FD1CF01FFDFB
:104B20000300032058430734001980001CF0EEFBFB
:104B3000074B040003606B6832004360002385600C
:104B4000C36001993B000830FFF7ACF82000FEBDC0
:104B5000B899020070B5050088680C001CF07CF85C
:104B600023000200024928001CF047F970BDC0462E
:104B7000C60D030010B5024821F05EFBFEF71CFCD9
:104B800084DC020010B5040008201CF0BFFB024BBF
:104B90004460036010BDC046F4990200F7B5C568D3
:104BA00004001E00002D02D11D602800FEBD036917
:104BB0001830834205D1184B994203D017480EF0A4
:104BC00027F919602000164F11007B680830019307
:104BD00063687B6000F060FB019B05007B6001283F
:104BE00007D002280CD00023E36023691B683360E0
:104BF000DBE723691B683360002BD6D1E360D4E781
:104C0000A36898681CF0ABFC002305308000E360CB
:104C100024186368EBE7C046F88C0200E40D03003B
:104C2000802E002013B501ABFFF7B8FF01280ED08E
:104C3000104C02280DD0019BA34219D0002B17D095
:104C400001AA01210C4821F0F1FAFEF7B5FB019809
:104C500016BD019802F0FCFD07490CF0FBFC002892
:104C600001D10198F1E701980FF058FBA042F8D16B
:104C70000020EDE7F88C020084DC020010B50B0088
:104C8000022808D14A6805491868FFF7CBFF0028B9
:104C900003D1FFF76FFF8A68F5E710BDF88C0200BB
:104CA00010B500220149FFF7BDFF10BDF88C0200CE
:104CB00013B5114C01AB114A2100FFF76FFF01281A
:104CC00003D0022805D0200016BD0D490D4820F064
:104CD00002FD019802F0BCFD0B490CF0BBFC002862
:104CE000F1D1019802F0B4FD08490CF0B3FC0028A2
:104CF000E9D10198FEF760FBF88C0200F0D70200C2
:104D0000A60D030048DC020078D9020084DC020012
:104D100030B58DB005006846FEF728FB011E10D1A6
:104D20002A1D012020F09BFC0122EB6804005B108F
:104D300001335B001343EB60FEF736FB20000DB040
:104D400030BD0198054A0368934205D0044A002407
:104D50009342F3D0FEF730FB0024EFE784DC02003F
:104D60002CDA0200044B0B6003684B6043680800B8
:104D70008B600123CB607047309A02000048704777
:104D8000F89A0200F7B501911149040017000025B7
:104D90001BF072FF7B68AB4204D80E4920001BF069
:104DA0006BFFF7BD002D03D00B4920001BF064FF03
:104DB000019BAE009A5909492000BE191CF01DF84C
:104DC0000122B168200002F05BFD0135E2E7C04638
:104DD0000E7A0300A41E030075F70200990E03006B
:104DE000044B88600B60044B08004B600023CB60D1
:104DF0007047C04668CC02001D18020070B50E0056
:104E00001049040000251BF037FF7368AB420AD835
:104E1000012B03D10C4920001BF02EFF0B49200071
:104E20001BF02AFF70BD002D03D0094920001BF0A4
:104E300023FFAB00F31801229968200002F020FD47
:104E40000135E2E70E7A03009D0E0300A41E030065
:104E500075F7020070B50D0001281ED0002803D0A0
:104E6000022807D0002004E04B680E48002B00D138
:104E70000D4870BD00260D4C6B689E4203D3012087
:104E800064002043F5E7B300EB18996802200DF0A9
:104E900063F8401024180136EEE74B685B001843B6
:104EA000E7E7C04630DE020028DE02008C9B0200ED
:104EB00070B506000D000B48002E0DD0B41CA400E8
:104EC00020001CF023FA084B46600360002D03D03D
:104ED0000023083CA34200D170BDE958C21891607C
:104EE0000433F7E78C9B0200949B0200F0B50700A7
:104EF00085B00E0014001D2803D90025280005B038
:104F0000F0BD01238340324D1D4044D1314A13424C
:104F10001FD1F82292051342EFD0200002F098FC36
:104F20002D4B426A9A4205D020002C4920F003FB09
:104F3000041E0CD02300310062680833009208314F
:104F400072683800FCF74CFA254D0028D6D1254D63
:104F5000D4E7200002F07CFC20490CF07BFB002809
:104F6000CBD07368626829009818FFF7A1FF07008B
:104F70003100736808379A0005000831380023F0C3
:104F80000FFA210070686368800038189A000831B1
:104F900023F006FAB2E703A9100002F07FFD002516
:104FA000A842ABD00398104D0028A7DD73680021FC
:104FB0005843FFF77DFF05002B00300008330093B6
:104FC0000830039B726804211BF093FF96E7C046EC
:104FD0008000100020000400E14D0000949B0200BE
:104FE00030DE020028DE02008C9B020030B5040097
:104FF00085B0042A2DD1032540680D401FD1164BE2
:105000000A689A421BD101AAFCF76EF9002802D166
:1050100012480DF02BFF019B02982900C01AFFF7E0
:1050200047FF050021006B6808319A00019B08309A
:105030009C00091923F0B4F9280005B030BD0A001E
:1050400000230100206802F0C3FD023080000559F2
:10505000F2E70025F0E7C04690D702009F0E03005C
:10506000F0B50C001100002285B01E000092012353
:1050700020000CF01DFE184D002C1ED03568AB072B
:1050800003D1164B2A689A4217D010201CF03EF923
:105090000021040030680DF0C7F8002504260390B5
:1050A00003980DF023F9071E0AD128002100FFF70D
:1050B000FFFE050020001CF058F9280005B0F0BDE7
:1050C000AE4205D8F10020001CF03EF90400760045
:1050D000AB001F510135E3E78C9B0200949B02005B
:1050E000054B10B5186821F010FE044B002800D1C4
:1050F000034B180010BDC0468C29002030DE020092
:1051000028DE020010B5034B186821F006FE0248A5
:1051100010BDC0468C290020F88C020010B5034B4E
:10512000186821F068FE1DF032FC10BD8C290020AB
:1051300010B5034B186821F065FE1DF028FC10BD6A
:105140008C29002010B5034B186821F062FE1DF079
:105150001EFC10BD8C29002010B5034B186821F0EF
:105160000DFE1DF014FC10BD8C29002030B593B04D
:10517000FBF762F8184C200022F00DFA174D286852
:1051800011F016FC200022F00BFAFBF745F81EF098
:1051900027FE1CF06CFB0400296803A821F0ABFD7E
:1051A0000F4B20000A93039B0B93049B0C93059BCE
:1051B0000D93069B0E93079B0F93089B1093099BDF
:1051C0000193119320F028FA200020220AA90CF064
:1051D00045FD044813B030BD942900208C290020DF
:1051E00055BA11C0F88C0200F8B5114D04002868BA
:1051F00021F08BFD002802D12000FFF7B7FF0D4BF7
:105200001B78002B0DD10C4E3478E4B2002C08D161
:1052100001272868377003685B689847054B34702E
:105220001F70286811F0A0FC1DF0B1FBF8BDC0464E
:105230008C290020D62D0020D72D0020F0B58DB070
:105240001CF015FB0E4B02689A4217D104694168A5
:10525000089444698268C36809948469C0690A949F
:1052600084466C4605910692079308A8E0C8E0C4FE
:10527000604620600348006821F027FD0DB0F0BDB6
:1052800055BA11C08C29002010B54A6801491BF09D
:10529000B4FD10BD0F760300F0B5036899B00700A8
:1052A000986807911CF05BF901220F21431E04301E
:1052B000800004933B18029304330393FB6806A811
:1052C0001A4009180A70032293430A930CA8FEF7A8
:1052D0004DF8031E00D041E3079A7D68BC68002AA0
:1052E00000D19EE22A785E2A00D19AE207980793BD
:1052F0000DF0E4FA04000AE0D64B63600434D64BA8
:105300009A6C002A00D18BE200229C6C9A64FEF712
:105310004BF80D9422E3D14BEFE7D14BEDE77F2122
:105320006B785B06DB173278DB01100052B2084065
:1053300003430136002AF6DB01225B001343DCE75E
:1053400000237F213278DB01100052B20840C318DD
:105350000136002AF6DBDB000622EFE703220336E4
:10536000964308CEC9E70023C7E700237F213278A0
:10537000DB01100052B20840C3180136002AF6DBE8
:105380009B005B42029A9858002800D028E3B54958
:10539000B54820F05EFFADE700237F213278DB01C6
:1053A000100052B20840C3180136002AF6DB029AF8
:1053B0009B005B4298581EF043FFE5E700207F22E8
:1053C0003378C00119005BB2114008180136002B78
:1053D000F6DB251D0CF062FD60603EE000207F22C0
:1053E0003378C00119005BB2114008180136002B58
:1053F000F6DB251D0CF020FDEEE700217F2233783F
:10540000C90118005BB2104041180136002BF6DBD1
:10541000206820F033F9206071E700217F22337883
:10542000C90118005BB2104041180136002BF6DBB1
:10543000220001CC0CF0ACFE61E700207F22337823
:10544000C00119005BB2114008180136002BF6DBD1
:1054500021000839251F0CF0EDF82C004FE7251D21
:105460000CF034FDB8E7251F04222168286802F0FB
:105470005FFC2860F1E700237F213278DB01100018
:1054800052B20840C3180136002AF6DB9B005B428B
:10549000029A21689950F8E000237F213278DB01DD
:1054A000100052B20840C3180136002AF6DB029AF7
:1054B0009B005B4221689858251F1EF0C3FECCE775
:1054C00000207F223378C00119005BB21140081818
:1054D0000136002BF6DB2168251F0CF00DFDBCE723
:1054E00000207F223378C00119005BB211400818F8
:1054F0000136002BF6DB2168251F0CF015FDACE70B
:1055000000217F223378C90118005BB21040411896
:105510000136002BF6DB231F1A6820680CF060FEB2
:10552000083CECE62200231F083A2168126818683C
:1055300002F0FEFB0C3CE2E600237F213278DB0127
:10554000100052B20840C3180136002AF6DB029A56
:105550009B00D31A1A68002A00D118E700221A60AB
:10556000CDE600257F223378ED0119005BB21140B2
:105570004D190136002BF6DB029BAD005D1B286840
:105580001EF05EFE002800D101E7002128681EF011
:1055900059FEB4E600207F223378C00119005BB2C7
:1055A000114008180136002BF6DB0CF0B1FCA6E622
:1055B00000207F223378C00119005BB21140081827
:1055C0000136002BF6DB0CF0BBFC98E6236894E672
:1055D0002368A360231F1B68636008348FE6231FC2
:1055E000196822682160BAE7221F136821682360C6
:1055F0002300083B18681060196080E673783278E1
:105600001B021343ED18194BEE1878E633787678C1
:10561000206836021E43019602F040FBEE1C251F57
:105620002C00002800D16AE6114A019B944663448D
:10563000F61864E633787678206836021E430196C1
:1056400002F02CFBEE1C251F2C00002800D056E693
:10565000EAE7C04628DE0200802E0020F88C020017
:1056600030DE0200D00E030058DB02000380FFFF93
:105670000080FFFF33787678206836021E4301965B
:10568000EE1C02F00BFB0028CED1043C37E6337849
:105690007678206836021E430196EE1C02F0FEFA70
:1056A0000028C1D0F1E7F12126682200300049002E
:1056B0000CF06EFD2300F02108331A003000490081
:1056C00001930CF065FD0021019A08001FF0C7FF4F
:1056D000AB786A781B0213430A9A0F210C320A92A4
:1056E0000A9AEE1CF3181360022206ABC9180B7855
:1056F0000A9D1A43231D13436B6000230A9A0B7003
:105700009360A060019CFAE525002368B54A0193E7
:10571000083D934209D16360A3602A000021032061
:105720001FF09DFF019B2B6097E60122019B134018
:1057300005932AD0231F1A680592019A5210012A54
:105740000DD1A84A0C3C1A60E260226100212200BF
:1057500003201FF084FF059B23600323E3E72A68EF
:10576000002106929F4A03202A601A602300103B02
:1057700022601A0001931FF072FF019B069A0C3CF5
:105780001A60059B23600523CDE7019B6360180029
:1057900002F05EF8934B2060A3602A000599032075
:1057A0001FF05DFF02F07AFA00280DD001228D4B28
:1057B00006A92B600A9B5B6813400E3252181370C7
:1057C0000A9B0C3B0A9348E66368ACE7737832782F
:1057D0001B021343844AEB189B186360EB78083470
:1057E00023600F267F210220012506AA2368B61810
:1057F0000B4206D1221F1668002B00D190E6183C00
:105800007DE50A9A013B526802426FD0220008C22D
:105810000523636014000A9B1E680A9B0C3B0A93D5
:1058200035007D602B786E1C180010385A2800D97E
:1058300005E314F08FFA61FD70FD72FD040374FD41
:10584000040385FD93FD98FD9AFDB1FDC3FDD3FDD5
:10585000E2FDF2FD02FE14FE18FE20FE31FE45FEC2
:1058600055FE65FE77FE81FE96FEAFFEBDFE04038B
:10587000040304030403CBFECDFE2AFFD4FED9FEAD
:10588000E3FEEBFEFFFE1FFF2CFF040304030403F3
:1058900038FF69FF630063008000AE00BF00DD00D9
:1058A000DD00CBFFB300040304030403040304037B
:1058B000040304030403E900FB0004030D011C01BD
:1058C000040325015201370173018901380268027E
:1058D0009602800204039E01A901B401C101CD0119
:1058E000EA0104022102CE02ED02FE020A9A526887
:1058F0002A4032700A9A0C3A0A9279E77378327821
:105900001B0213430A9AEE1C0C320A920A9AF318ED
:1059100013602B7806A9403B5A4253410F2252187C
:1059200010785B000A99034323434B6000230A99D4
:1059300013708B60E3E423682A4A934200D1A4E603
:10594000DA0707D55B10DBB2043C012B00D048E737
:105950000222CEE1FDF728FD23680D930D9B23491C
:1059600018680BF077FE002800D1AEE27A68002AB2
:1059700000D1AAE21378432B00D098E293785078B4
:105980001B02D11C0343CB187B60BB68103BBB6080
:105990009CE4002120680CF047FC3CE52500210038
:1059A00020680C350CF040FC844200D155E5002302
:1059B000236011E52000337876780C383602BC601D
:1059C0001E4303680196EE1C002B02D12300083B06
:1059D00018680CF063FC002802D1103C019B27E6FC
:1059E00060608BE4F88C02000380FFFF84DC02001F
:1059F00001220A9B06A95B6813400E3252181370ED
:105A00000A9B0C3B0A937AE400207F223378C00182
:105A100019005BB2114008180136002BF6DB81003B
:105A2000641A04342100FFF743FAF4E400207F22D3
:105A30003378C00119005BB2114008180136002B01
:105A4000F6DB8100641A043421001BF04DFDE2E412
:105A500000207F223378C00119005BB21140081882
:105A60000136002BF6DB251D1EF070FCB4E425008A
:105A7000231F083D1A68216828681EF0A0FCECE48A
:105A800000207F223378C00119005BB21140081852
:105A90000136002BF6DB8100641A04342100FBF789
:105AA000A3FEB8E400237F213278DB01100052B25C
:105AB0000840C3180136002AF6DB251F2868216834
:105AC000022B03D1CC4A0EF0ADFBD2E4083C0A0015
:105AD000010020680EF0A6FB9DE400237F213278B0
